:020000040800F2
:10000000D00E0020C9000008C93B00089F38000836
:1000100000000000000000000000000000000000E0
:100020000000000000000000000000005D3F00082C
:100030000000000000000000753D0008893F000836
:10004000DB00000800000000DB000008D1160008FB
:10005000DB000008DB000008DB000008DB00000814
:1000600000000000B1150008DB000008DB000008FC
:10007000DB000008DB000008DB00000800000000D7
:10008000DB000008C141000800000000DB000008A0
:10009000DB000008DB000008DB000008DB000008D4
:1000A000DB000008DB000008DB000008F94800085E
:1000B000DB0000080348854600F0EEFD00480047DD
:1000C000FD710008D00E0020044880470448004716
:1000D000FEE7FEE7FEE7FEE7FEE7FEE7F13F00088A
:1000E000B500000830B50B4601460020202201244F
:1000F00009E00D46D5409D4205D31D469540491B5C
:100100002546954040191546521E002DF1DC30BDA4
:1001100010B5202A04DB0846203AD040002110BD4B
:100120000B46D340D0402024A21A914008431946E0
:1001300010BD0000004870474C91000810B50446FF
:10014000FFF7F8FF0068005DC007C00F10BD034651
:100150000B439B0703D009E008C9121F08C0042AFB
:10016000FAD203E00B780370401C491C521EF9D2EE
:100170007047D2B201E00270401C491EFBD27047AA
:100180000022F6E710B513460A4604461946FFF763
:10019000F0FF204610BD421C0178401C0029FBD115
:1001A000801A704710B5002200E0521C835C8C5C02
:1001B000A34201D1002BF8D1D8B2E1B2401A10BD50
:1001C00030B505460020034600E05B1C934205D293
:1001D000EC5CC85C201A01D1002CF6D130BD0000C7
:1001E0000FB400B58DB009900B9010A900200091BC
:1001F000C0430A9000200C900648069006480790DD
:100200006A4609A80F9900F055FC0DB008BC04B06F
:1002100018470000D50A0008F50A0008FFB50027B6
:10022000FF4383B000205C6801909E681D46A96969
:100230007F1C049888470090296A88470028F6D1D7
:100240000098401C0CD0032040028443002E19DD8E
:10025000600614D500982B2809D02D280FD103E073
:100260000020C04307B0F0BD012080020443A9690B
:100270007F1C04988847761E0090002E02DD0098AF
:10028000302803D00598002825D035E00120400211
:100290000443A969761E7F1C049888470090002EAD
:1002A00003DD782805D0582803D00598002810D001
:1002B00022E00598002801D010281DD1012040021D
:1002C0008443A969761E7F1C0498884700901020FB
:1002D00002E0082000E00A2005900DE0012149021B
:1002E0000C43059A0199761E514308180190A9699B
:1002F0007F1C049888470090002E05DD0599009822
:1003000000F0C3FB0028E9DAE96904988847A005F2
:1003100002D40120C043A5E7E00722D1600611D531
:100320006005019800D5404229680A1D2A600968C5
:10033000220501D5087014E0220701D5088010E0DD
:1003400008600EE02868011D29600068210502D5BB
:100350000199017005E02107019901D5018000E0B4
:10036000016038467EE7F8B502464A40D40F4200A5
:100370004B0052085B089A4202D2024608461146D8
:100380004A0023D0C30D4A00DDB2120EAD1A202D53
:1003900035DA49020126490AF6058A19002C00D0EF
:1003A000524220214F1B1146B9402A411018C20D5C
:1003B0009A4221D0002C17D0012D08DCDA05801AD2
:1003C000D20F8019D207DBB200F0AEFBF8BDDA0520
:1003D000801A012340001B06C01880185A4280185A
:1003E000CA0F1043490007E04908C2071143DA0564
:1003F000801A80194008801800F08EFBF8BD61005B
:100400000122511A001BF7E70122D2075140AAE747
:100410000122D2075040A6E7024670B54A40D30FEA
:10042000DB0740002DD04A002AD0010E140E000236
:1004300012020919400A520A8418E501044654437D
:10044000000A120A2E045043A4194219200CC54375
:10045000AA18120C0125AD03521C521912047F393F
:10046000240400D0521C104301D44000491EC2B2E3
:100470000C06C0092018401C4008802A02D003E066
:10048000002070BD40084000002900DA0020184319
:1004900070BD70B502464A40D50F40004A00ED07D6
:1004A00040085208002814D0002A12D0C40DD30DE1
:1004B00041020120C0055202490A520AE41A0918F1
:1004C00012187D34914201D3641C00E04900002CD5
:1004D00001DA002070BD0023914201D3891A034341
:1004E000400849000028F7D100290AD0914202D1E2
:1004F0000121C90705E0914201D2012101E001215A
:10050000C943E005C018401900F006FB70BD0000AB
:10051000F0B507460846584087B0C00F0490480021
:100520000E46590040084908BC1A884105D2384691
:1005300031461E4617460B460246580040081043F7
:100540004CD0300D039040055900400D490D0590E9
:10055000401A0290402872DA18030121000B0905A5
:100560000843019004980092002805D00199524256
:100570000020884100920190029840210A1A0199B6
:10058000009800F05FFA05460C466B4607CB00F07A
:1005900069FAC0197141039A0E0D0023D71756400E
:1005A0001A467A40164344D0049A002A2DD0029A63
:1005B000012A039A15DC1205C01A9141012636055D
:1005C000001C7141D20F059ED20700930192029642
:1005D0002A46234600F0EEFA07B0F0BD3846314611
:1005E000FAE71605224A0F46B218C01AB741012190
:1005F0000905001C4F4100187F4111461818794128
:10060000E20F10436D19644113E0E2076D081543D2
:100610006408C2071443039A01261205C01A9141C7
:100620003605001C7141CE07400830434908C01808
:1006300051412A46234600F0B0FACDE7FFE704987F
:1006400001224000C117121A00238B410498314641
:10065000C417381AA141EEE730B40124E40763401F
:1006600030BC55E730B40124E407614030BC4FE7AB
:100670000000E0FFF0B51FB488B00B990998002482
:1006800048400999C00F490049080991C0070B99D2
:100690000090490049080B9109990898A64608431B
:1006A0001CD00B990A98084318D0099801244000DF
:1006B000420D4800410D099824050003000B20431A
:1006C00009900B980003000B20430B9050181C4915
:1006D0004018002201901446104605E00020014613
:1006E0000DB0F0BD032801DA034600E003239C4669
:1006F000C11A0AAE0AE05F0008ADED5B4F00F75B80
:100700007D430027AA187C41491C5B1E6145F2DD30
:10071000410004AB5A522104120C0A43240C401C21
:100720000828DFDB01980290009970460191009043
:10073000059B049A0799069800F03CFAD0E7000060
:100740000DFCFFFFF0B50C465C4085B0E40FE407FC
:1007500003944C0000266408590094464908024658
:100760000296224321D062460A431ED06200570DF2
:100770004A000E032303550D012402462C4924058B
:10078000781B1B0B360B4018234326436146009011
:100790001C46501AB44103D30098401C009002E05C
:1007A000921800985B41002803DA0020014605B04A
:1007B000F0BD0020012109050746864611E0644688
:1007C0001D46141BB54106D36546521BB341744602
:1007D00007430C43A646CD07400849082843921812
:1007E0005B4105460D43EAD11046184313D06046DD
:1007F000194650407140084306D06046101AB34174
:1008000006D20122002306E000220123DB0702E0DA
:100810000122D2435310009874460105381C6141EF
:10082000029C039D0019694100F0B7F9BFE7000081
:10083000FD030000C217C10F504010B54018CA0791
:100840009623002100F070F910BD10B50022962308
:10085000114600F069F910BD0EB5C217C10F504026
:10086000CA0740180021054B0293019200910A46E5
:100870000B4600F09FF903B000BD000033040000F8
:100880000EB505490291002100910A460B460191DF
:1008900000F090F903B000BD33040000C20F410026
:1008A00040020123400ADB05D207090EC0187F2948
:1008B00001DA00207047962903DC9623591AC840B4
:1008C00001E096398840002AF4D040427047410048
:1008D00040020122400AD205090E80187F2901DA60
:1008E00000207047962903DC9622511AC8407047B1
:1008F00096398840704700004A0009030123090B1C
:100900001B051943094B10B5520D9A4201DA00201C
:1009100010BD064B34339A4203DC9A1AFFF7F8FBFA
:1009200010BD03495118884010BD0000FF030000AE
:10093000CDFBFFFFC20FD207400040080BD0C10D16
:100940000723DB01C91840020905400A1143C20808
:1009500040071143704700200146704710B5002939
:1009600004DB0124E40740428C412146002B04DBD8
:100970001C460123DB075242A3418B4200D1824235
:1009800010BD000010B5002904DB0124E40740423B
:100990008C412146002B04DB1C460123DB0752421D
:1009A000A341994200D1904210BD0000CB0FDB075C
:1009B000490010B5490802460A4307D00A0D07242A
:1009C0000903E401090B121B002A01DC002010BD01
:1009D000C900440F0C43C100E018D205801800F094
:1009E0009BF810BDF0B51FB40646002082B0054646
:1009F0004024019100901BE0019922460F463046A9
:100A0000FFF786FB049A059B801A994110D3104684
:100A10001946224600F016F8361A8F4101972246F1
:100A200001200021009F00F00DF838184D41009082
:100A30002046641E0028DFDC019B009829463246D0
:100A400007B0F0BD10B5202A04DB0146203A9140E2
:100A5000002010BD914020239C1A0346E340194317
:100A6000904010BD10B5202A06DBCB170846203A6F
:100A70001041C1170B4306E00B461341D040202420
:100A8000A21A91400843194610BD3A2800D23038C6
:100A9000202302469A43412A01D310463738884220
:100AA00001D30020C04370470268137851180160D9
:100AB0001846704710B5D16004495161044911626C
:100AC00000211161114600F0F9F810BDA90A0008D3
:100AD0003D0100084268002A08D001680B78491CD3
:100AE000002B03D0521E06C0184670470121C1607A
:100AF000881E70474268002A0BD0C3680168002B2B
:100B000007D183688B4204D0491E521C06C00020C6
:100B100070470020C0437047002904DA401C490098
:100B200001D140084000704770B40024050C05D185
:100B30001024000402D1002921D01124050E01D176
:100B400000020834050F01D10001241D850F01D1D9
:100B50008000A41C002801DB4000641C002908D090
:100B600020252E1B0D46F540A14000D00121294330
:100B7000084301061B1B000ADB1D02D5002070BCC8
:100B80007047DB05181880180029F8DA401C490066
:100B9000F5D170BC40084000704710B5002B08DA52
:100BA0000024401C614192185B411A4301D1400866
:100BB000400010BDF0B51FB482B005460C0003D054
:100BC000084603F0B5FF02E003F0B2FF2030024612
:100BD000009021462846FFF735FF049B059A0446FE
:100BE0000F4618431143084314D0184610431BD036
:100BF000009840210A1A18460599FFF789FA054618
:100C00000E46009A05990498FFF71CFF084305D08B
:100C1000012004E02046394607B0F0BD0020C1178E
:100C200005430E432C43374300990E986305401A41
:100C30007905E40A00220C43FD0A0A3002D500209F
:100C40000146E9E70105101969410C9C0D9D001949
:100C50006941FFF7A2FFDFE74A0009030123090BFF
:100C60001B0519430A4B10B5520D9A4202DA0020B7
:100C7000014610BD064B34339A4203DC9A1AFFF743
:100C800047FA10BD034BD218FFF7DCFE10BD000081
:100C9000FF030000CDFBFFFF064C0125064E05E0DB
:100CA000E36807CC2B430C3C98471034B442F7D38D
:100CB000FFF704FAD0940008F0940008F3B58DB063
:100CC00000200A9001200B90002608460C300C46AC
:100CD00009906269012109989047051E2ED0252DA3
:100CE0002DD0216A8847002818D06269012109980F
:100CF0009047216A88470028F7D1411E6269099808
:100D0000904700E0761CA1690D988847216A8847C2
:100D10000028F7D1E1690D988847DAE7A1690D98B5
:100D200088470746A84201D1761CD2E7E1690D98B1
:100D300088477F1C02D10A98002877D049E1002714
:100D400062693D463946099890472A280CD1626964
:100D5000012109989047012506E00A214F433F18D9
:100D6000303FEBD410200543626901210998904778
:100D7000014630390A2903D29B498F42DEDCECE779
:100D8000E90600D4994F6C280AD04C2810D0682866
:100D900024D06A282ED074280CD07A280AD00DE0EE
:100DA00062690121099890476C2823D004211CE036
:100DB000202005436269012109989047A76065607A
:100DC00065284FD026DC582839D01ADC452849D070
:100DD00012DC252834D04128B0D143E062690121DA
:100DE00009989047682802D008210D43E6E70120C2
:100DF000C002DEE70220DCE7462833D047282CD1AA
:100E000030E05B2870D061282CD063286CD0642837
:100E100023D161E06F284FD009DC662822D06728F3
:100E200020D0692826D06E2817D12EE0CDE070287A
:100E30004DD073286FD075284ED078280DD154E04E
:100E4000A1690D9888470546252800D16CE7E1691E
:100E50000D9888476D1C00D16DE7BAE00A224CE07E
:100E60000A2252E0012023466A46C0430D99C0463B
:100E7000C046A3E02846402108436060A8072346F7
:100E800001D5002239E000223FE0E80700D020E74A
:100E90002068011D21600068290501D5067018E74A
:100EA000290701D5068014E7A90703D5F1170660C5
:100EB00041600EE706600CE7284640210843606069
:100EC000A807234601D5082217E008221DE048495B
:100ED00028460840606016E02846402108436060CC
:100EE000A8072346BCD5B9E715E0284640210843AA
:100EF0006060A80707D5234610220120C0430D9942
:100F0000C046C0465AE0234610220120C0430D9936
:100F1000FFF784F952E000210C910B460091632801
:100F200002D05B2807D043E0E80601D40120A0608E
:100F3000012000903CE062690121099890475E28F9
:100F400005D101200C9001466269099890472169FA
:100F5000002906D10B4601AA8F00491CD35108294C
:100F6000FADB002835D0216900290ED1C117C90E3E
:100F700009184A11930001AA9A1849094901411A0E
:100F800001201368884003431360626901210998B6
:100F900090475D28E5D10C98002808D0002001ABCF
:100FA00081005A58401CD2435A500828F8DB01AB44
:100FB00001202246C0430D99C046C04600280ADAE7
:100FC000401C06D10B98002803D00020C0430FB06E
:100FD000F0BD0A98FBE7E90702D10A99491C0A917A
:100FE000361800200B9074E6CCCCCC0CFFFFFF7FB2
:100FF000F1F7FFFF70B54B005B0803430BD04B00CC
:101000005C0D002633466542B341D417AD1AA341A7
:1010100002DB0020014670BD12053018514170BD41
:1010200070B5CD0F4A0009030123090B1B051943B5
:101030000B4BED070024520D9A4201DA002070BDDF
:10104000074B34339A4203DC9A1AFFF761F802E047
:101050000449511888402C43F1D0404270BD000033
:10106000FF030000CDFBFFFF70B58C180578401C16
:101070006B075B0F01D10378401C2A1106D102785F
:10108000401C03E006780E70401C491C5B1EF9D121
:101090002B0705D40023521E0DD40B70491CFAE710
:1010A0000378401CCB1A921C03E01D780D70491C7C
:1010B0005B1C521EF9D5A142D8D3002070BD70B57B
:1010C000044600688168490720D5816810264907D1
:1010D000002905DA8168890702D48168314381607B
:1010E00001F022F905460DE001F01EF9401B02282F
:1010F00008D9606C30436064A06C01210843A0648F
:10110000084670BD206880684007EDD4002070BD9F
:10111000F8B50446006881688907890F012928D13C
:101120000168C90702D1C168090422D58168052276
:1011300011401025012601290FD181680222114397
:10114000816021680320086001F0EEF807460CE09A
:1011500001F0EAF8C01B022807D9606C28436064DC
:10116000A06C3043A0640120F8BD20688068C007EF
:10117000EED10020F8BD0000F8B504460020009034
:10118000206881688907890F012905D10168C9078D
:101190002CD1C168090429D48168154A1026114050
:1011A0000125002915D18168294381601248114920
:1011B0000068FEF797FF00E0401E00900028FBD17A
:1011C00001F0B2F807460CE001F0AEF8C01B0228AF
:1011D00007D9606C30436064A06C2843A064012090
:1011E000F8BD20680068C043C007EDD10020F8BDFD
:1011F0001700008040420F0004020020FEB500905E
:10120000012000030025019000040290244885621B
:101210006946244800F05EFB224904200968086002
:10122000204800F05BFD002401211E4800F0F6FC80
:101230001C4800F0D7FB800502D51A4800F0D4FB0B
:10124000641CE4B2022CEFD3164800F075FD15487B
:1012500000F044FD144E00240121124800F0DEFC91
:10126000104800F0BFFB800504D50E4800F0BCFB21
:1012700061007052641CE4B21E2CEDD3094800F0EA
:101280005BFD00214800305A491C4519C9B21E298E
:10129000F8D31E212846FEF725FF80B2FEBD0000D0
:1012A0000024014068020020CC040020F0B587B083
:1012B00006460027142168460597FEF761FF0922BC
:1012C0004FA13046FEF77CFF344609344F4D0028CD
:1012D0003FD009224EA13046FEF772FF00284BD0C6
:1012E00008224EA13046FEF76BFF002850D009229D
:1012F0004DA13046FEF764FF002856D009224DA1CB
:101300003046FEF75DFF002866D009224CA130462A
:10131000FEF756FF002865D008224CA13046FEF7A4
:101320004FFF002865D009224BA13046FEF748FF49
:1013300000281FD12A894BA1684603F0CFFB6846DD
:10134000FEF729FF81B2684603F0C0FA022148A0E7
:101350000EE0204605AA47A1FEF742FF05980128A6
:1013600004D0022802D00C2143A001E0A8802EE086
:1013700003F0ACFA07B0F0BD204605AA3DA1FEF788
:101380002FFF012105980904884218D268811EE0C8
:101390003046083005AA37A1FEF722FF0598002243
:1013A000411C97410BDAA86411E0204605AA31A13F
:1013B000FEF716FF012105980904884202D31C217B
:1013C00031A0D5E77D212881C9004843686406F033
:1013D0000BFB082134A0CBE7052136A003F076FAF9
:1013E000AA8804E0052135A003F070FA6A8921A1DA
:1013F000A2E7042133A003F069FAAA6CF7E7000022
:10140000434D445F747970653D0000006001002029
:10141000434D445F616464723D000000434D445F8E
:1014200073736E3D00000000434D445F6D6F646553
:101430003D000000434D445F747970653F0000003B
:10144000434D445F616464723F000000434D445F5C
:1014500073736E3F00000000434D445F6D6F646521
:101460003F0000004D4F44453A256409000000004C
:101470000D0A000025640000696E7075742031202B
:101480006F7220320000000054686520696E70752C
:10149000742076616C756520697320746F6F206CA1
:1014A0006172676500000000736574206F6B0D0A40
:1014B00000000000545950453A0000004144445295
:1014C0003A00000053534E3A00000000C178827881
:1014D00009021143427800781202024308041043C3
:1014E000704700000FB410B500280FD009490978E3
:1014F00088420BD804AB7F210748039A03F002FB14
:101500000104090C02D0044800F008F810BC08BC23
:1015100004B01847880000200C05002070B50D4667
:101520000C4C0146A088FF220132121AAA4210DD9B
:10153000094A10182A46FEF70AFEA088401982B20E
:10154000A280E088002804D1E2800349034802F029
:101550000BF970BD880000208C060020BC03002021
:1015600002490A78904200D0087070478800002035
:1015700002498A68904200D0886070478800002045
:1015800030B5FF231846094D07E00C785C40630036
:10159000EC5AE3B24340200A491C1446521E92B250
:1015A000002CF2D10002184330BD0000B08A0008C0
:1015B00010B5024800F046FC10BD000048040020B1
:1015C00030B5056C0124AC40C56B6C600468636089
:1015D0004368102B036803D099600068C26030BD77
:1015E0009A600068C16030BD704700B5002200F00D
:1015F00001F800BD30B50E4B05465C7A0120012C88
:1016000015D8587A00241C54587A8000C0184560B8
:101610005D7A184608302A54587A421C5A72303083
:1016200008703A2048702F208870CC70002030BDA0
:10163000C00A002000290AD0002A08D0531E1342F5
:1016400005D10AC0002101604160012070470020DF
:1016500070478168C068401A704710B58368C268D7
:10166000D41A43689C4207D81A4003689954C16849
:10167000491CC160012010BD002010BD10B5C46818
:1016800082680023A41A8C4204D951184268006869
:101690001140435C184610BD30B50023002915D019
:1016A000002A13D0C56884682C1BA24201D92246A7
:1016B0000AE045688468521E2C4005682C5DCC54B5
:1016C0008468641C5B1C8460002AF2D1184630BD1B
:1016D00010B500F09BFC10BD06490020C86106480B
:1016E0000169042211430161016940221143016132
:1016F00070470000A00A002000200240064A002196
:10170000D16106490A6902231A430A6148610869DE
:101710004022104308617047A00A002000200240C8
:1017200010B5054B0022DA61044A136901242343F2
:101730001361018010BD0000A00A002000200240BB
:1017400010B50B4A0020D168CB060A4904D5C869F8
:1017500002231843C8611020D3685B0705D5CB6905
:1017600001242343CB6104210843D06010BD000055
:1017700000200240A00A002070B5054600F0D4FD0C
:101780000646104C0AE0681C08D0002D04D000F07A
:10179000CBFD801BA84201D9032070BDE068C007C3
:1017A000F1D1E068800601D52020E060E068C00645
:1017B00002D4E068400703D5FFF7C2FF012070BDE7
:1017C000002070BD00200240F7B59607002497085E
:1017D000B60F00F0EBFC002509E0009800590199D4
:1017E000091903F0A9F8241D6D1CA4B2ADB2BD42C5
:1017F000F3D3002E0DD000980259002007E0C3005B
:101800001146D9402518019B401C595580B2B04261
:10181000F5D300F081FCFEBDF7B5960782B0002439
:101820009708B60F00F0C2FC00250EE003980019DF
:10183000FFF74CFE0246029800230119022000F037
:1018400077FC241D6D1CA4B2ADB2BD42EED3002EB8
:1018500018D000206946FF22B04204D2039B25180D
:101860005B5D0B5400E00A54401C80B20428F3D3A3
:101870000846FFF72BFE02460298002301190220BA
:1018800000F056FC00F048FC05B0F0BD1FB500218B
:101890000190012003910091029000F087FC03A9C0
:1018A000684600F061FB0348C168C907FCD100F03D
:1018B00033FC1FBD0020024010B531230246DB433C
:1018C000A121034803F08AF8FEF7E8FF40B210BDFB
:1018D0006C890008F8B5002504464034009522784C
:1018E000012A39D00122227003689E68760767D4E6
:1018F000384F4E68BE424DD09E6A0F78BA401643AC
:101900009E620123826B1B079A421FD0012A1DD0C1
:10191000022A1BD0032A19D0042A17D0052A15D071
:10192000062A13D0072A11D002688B6856697607F9
:10193000760FB3420AD05369DB08DB0053610068BD
:1019400042690B7A5B075B0F1A4342610A68102AEF
:1019500004D0112A02D038E00220F8BD1E48836866
:10196000102A07D0012292051343836008681028CB
:1019700003D02AE00122D205F6E71948174900688A
:10198000FEF7B0FB0A21484300E0401E009000280B
:10199000FBD11AE0986A0E78B240904398620968C9
:1019A000102901D0112910D10B488268102904D0C8
:1019B000012189058A43826007E00121C905F9E711
:1019C000416C2022114341640125002020702846EB
:1019D000F8BD0000011000000027014040420F0048
:1019E00004020020406C70470068006C70470000E3
:1019F000F8B500250446002803D0606C002802D00A
:101A000008E00120F8BD0020A064402108552046D0
:101A100000F0A8F8606C1022C006002870DB206877
:101A2000816849076CD4616C1301994302231943FF
:101A3000616481688907890F012905D10168C90797
:101A40000FD1C16809040CD4C16818239943A36855
:101A50001943C160206801696368890089081943D6
:101A600001612068C1683D4B1940C160A069E1690E
:101A70008003C9030843216A4B031843636B012B9E
:101A800002D001231B0300E000231843E36818433E
:101A90002369022B09D000231843236B666A5B007D
:101AA00018430123012E02D00AE00423F4E70029A1
:101AB00027D0616C202631436164A16C1943A16475
:101AC000A16A0E46FF3EC23E02D0E66A3143084399
:101AD0002168CE680643CE600126A16B3607B1426D
:101AE00013D0012911D002290FD003290DD00429C8
:101AF0000BD0052909D0062907D0072905D010E009
:101B000028E0012109040843DAE721684E69F60854
:101B1000F6004E6121684E69278F7F077F0F3E4395
:101B20004E612168C9680E4E3140814207D10020C4
:101B3000A064606C80088000401C606408E0606CF9
:101B40000221884310436064A06C1843A0640125FF
:101B50002846F8BD606C10436064F8E71902FEFF88
:101B6000E7FF3F83F0B587B0044614216846FEF7CF
:101B700007FB27492068884247D1264882694115DA
:101B80000A43826182690A400592426949020A4316
:101B9000426142690A400592426949100A43426122
:101BA0004069032408400590102000256A4631C290
:101BB00009206946C00600F00DFB01260920694690
:101BC000C00600960295019400F004FB02206A46CC
:101BD00031C2114F6946384600F0FCFA6946384672
:101BE00000960295019400F0F5FA04206A4631C28D
:101BF00009206946C00600F0EDFA08206A4631C2A5
:101C000009206946C00600F0E5FA07B0F0BD000003
:101C1000002401400010024000040048F8B50446CA
:101C20004069254640350E4608280BD02068C0681C
:101C3000C00709D0606C2021084360640020287030
:101C40000120F8BD082700E00C2700F06DFB009094
:101C500011E0701C0FD0002E05D000F065FB00993C
:101C6000401AB04207D9606C042108436064002028
:101C700028700320F8BD206800683842E9D0606C05
:101C800001214902084360642068C16809058A0F80
:101C90000C21002A1AD1226A002A17D102681207E1
:101CA00014D5826853070122002B08DB43688B435D
:101CB0004360606C130298431043606406E0606CFC
:101CC000202318436064A06C1043A064A06900281E
:101CD00001D1206801600020F8BD000070B5044605
:101CE000216800208968490721D425464035297894
:101CF00001291CD001212970E169012904D0204665
:101D0000FFF73AFA002811D1616C0A4A1140FF220C
:101D10000132114361640021A164297022681C21F1
:101D2000116021688A6804231A438A6070BD02200A
:101D300070BD0000FEF1FFFF70B50546044640355A
:101D40002878012807D001262E702046FFF7B7F922
:101D5000002802D00CE0022070BD2046FFF7D8F921
:101D6000002805D1616CFF22013291433143616447
:101D70000021297070BD0020704710B504000DD0FF
:101D8000607F002803D12077204600F025F802204C
:101D900060772046FFF7EFFF002801D0012010BD3B
:101DA0006079002814D0206921680861216888685A
:101DB00060229043626910438860216888688022AD
:101DC0009043A2691043886001206077002010BD15
:101DD0000020C043E8E7000008B5006805498842D4
:101DE00007D10548426940210A43426140690840E1
:101DF000009008BD003002400010024070B5002481
:101E0000014620314A78022A03D00421816301244B
:101E100016E0026813680E25AB431360026813686E
:101E20005B085B0013600122056C1346AB40C56B79
:101E30006B604A7000220A70416B002900D088470D
:101E4000204670BDF0B4C16B0D6801680C680422B7
:101E5000066C1346B3402B420DD063070BD50B68BD
:101E60009B0602D40B6893430B60016C8A40C16BE4
:101E70004A60C16A19E00227B74002462F40012399
:101E80002032002F15D0A70713D50C68A40604D460
:101E90000C680A25AC430C605370036C0221994016
:101EA000C36B596000211170816A002916D0F0BC03
:101EB00008470827B7402F4210D024070ED50C68DA
:101EC0000E25AC430C60046C1946A140C46B6160E4
:101ED0008363537000211170016BE6E7F0BC70471B
:101EE000F8B504468C46203001780025012909D038
:101EF0000126067041780027012905D007700225C8
:101F00002846F8BD0220F8BD02214170A763206871
:101F1000016849084900016061462046FFF750FB0F
:101F2000E06A00282068016802D00E22114306E012
:101F30000A22114301602068016804229143016074
:101F40002068016831430160DAE731B500F0ECF94F
:101F5000009C0546601C00D0641C00F0E5F9401BA5
:101F6000A042FAD338BD0000F8B5054623480F4615
:101F7000017E012601290BD0012101762868204C21
:101F8000012807D02046FFF7F7FB002813D030E0E8
:101F90000220F8BD2046FFF7EFFB002829D1FFF70C
:101FA0009BFB2046FFF7E8FB064616480169042222
:101FB000914301611DE00020C04338606C6812E06D
:101FC0002046FFF79BFB0E48FFF7D6FB06460D4861
:101FD000026902218A430261002E01D03C6008E0C0
:101FE000012080022418A868810268680818A042AD
:101FF000E6D80248002101763046F8BDA00A00204C
:1020000050C300000020024070470000F8B5404D6A
:10201000E8680027C006FF4300263E4C002802DB8C
:10202000E868400708D5A0680090A760FFF788FB24
:10203000009800F07BF82670E868800655D52020CF
:10204000E8602078002850D0207801281ED0207821
:10205000022836D06068401E60606068002838D072
:10206000A068801CA060A06822696169120C0B0442
:102070001A43090C226161612969490849002961F3
:102080002169626989B2FFF74BFB2EE06068401E50
:102090006060606800280ED0A068FFF7B5FFA068F8
:1020A000012189024018A060296902229143296117
:1020B000FFF724FB19E03846A7602670FFF7A4FF5E
:1020C00013E028690421884328610020FFF79CFF62
:1020D0000AE02078032816D020780428A06814D0BD
:1020E000801FFFF791FFA76026702078002809D194
:1020F0002869C008C0002861286905218902884331
:1021000028612676F8BDA068EBE7801EE9E70000AD
:1021100000200240A00A00200348016980221143E8
:10212000016100207047000000200240704700005D
:10213000F0B51FB407461A480024017E15461E4616
:10214000012907D0012101761648FFF715FB002869
:1021500003D020E0022005B0F0BD012F02D0022FF5
:1021600000D00427220128463146FDF7D1FF81B275
:10217000019862001018FFF7D3FA0A48FFF7FCFA3B
:1021800009490A69520852000A61002803D1641CF7
:10219000E4B2BC42E6D3024900220A76DBE7000043
:1021A000A00A002050C30000002002400649002081
:1021B0000A69120607D5054A4A60054A4A60096954
:1021C000090600D501207047002002402301674521
:1021D000AB89EFCDF8B500238DE001249C40A446E7
:1021E00022407DD04C68022C01D0122C0CD1DC088E
:1021F000A40027183C6A5D07ED0E0F26AE40B443DD
:102200000E69AE4026433E6205685E000324B4407A
:102210000F79A543BF07BF0FB7402F4307604D6835
:10222000012D05D0022D03D0112D01D0122D0ED17C
:102230008568CF68A543B7402F43876047686546E8
:10224000AF430D79ED06ED0F9D403D434560C568F8
:10225000A5438C68B4402C43C4604C68E40049D565
:10226000284CA56901263543A561A4699D08344021
:102270000094254CAD002F19BC689D072E0F0F252B
:10228000B540AC430925ED06A84201D100250FE079
:102290001E4DA84201D101250AE01D4DA84201D1E1
:1022A000022505E01B4DA84201D1032500E00525CC
:1022B000B5402543BD60184C25684E689543F6032C
:1022C00000D51543256065684E689543B60300D573
:1022D00015436560A5684E689543F60202D500E097
:1022E00008E01543A560E5684E689543B60200D541
:1022F0001543E5605B1C0A681446DC4000D06CE7BF
:10230000F8BD000000100240000001400004004839
:1023100000080048000C004800040140002A01D0D9
:102320008161704781627047014800687047000012
:102330000002002070B504000FD021681348086027
:1023400021681348086003CC41602068083C21687C
:102350008860FFF7E9FF054608E0012070BDFFF740
:10236000E3FF401B272801D9032070BD2068C06807
:102370000028F4D120680269E1688A4201D0016135
:1023800001E004490160002070BD0000CCCC0000D9
:1023900055550000AAAA000000680249016000200B
:1023A00070470000AAAA000002480168491C0160A9
:1023B000704700000002002010B506480168102296
:1023C00011430160002000F007F800F017F800202A
:1023D00010BD00000020024010B5044600F042F994
:1023E0007D21C900FDF77EFE00F04AFE0022214655
:1023F000501E00F029F8002010BD000008B50C4860
:102400008169012211438161816911400091C26992
:1024100001040A43C261C0690022084000901146CD
:10242000032000F011F8032000F004F808BD0000BC
:1024300000100240C106C90E012088400149086011
:102440007047000000E100E010B501F0BFFB10BDD7
:10245000F8B505460068354CC00352D5E069002642
:10246000C00007D4E16920040143E161E169014052
:10247000012600912E480168C90510D40168821513
:1024800011430160FFF750FF074604E0FFF74CFFE0
:10249000C01B642824D826480068C005F6D5206AE9
:1024A00003273F02384020D06968394081421CD060
:1024B000206A226AB843012109040A432262226A7F
:1024C0008A4322622062C0070FD0FFF72DFF0090E1
:1024D00008E0FFF729FF0099411A1648814201D907
:1024E0000320F8BD206A8007F3D5206A6968B843E5
:1024F00008432062002E04D0E169012000078143D7
:10250000E1612878C00705D0206BA96880088000A9
:10251000084320632878800605D5206B1021884366
:10252000E968084320630020F8BD00000010024065
:102530000070004088130000F8B5054644480E4678
:102540000068C007C00FB0420AD24148016849087C
:102550004900314301600068C007C00FB0425CD140
:1025600028783C4C800705D56068F0218843A9682D
:10257000084360602878C0073FD06868012813D0FE
:102580002168022813D08907002946DA6168890882
:10259000890001436160FFF7C7FE696807460129AA
:1025A0000DD0022917D024E021688903ECE78901C6
:1025B000EAE7FFF7B9FEC11B2748814217D86068D8
:1025C0000007800F0128F4D117E0FFF7ADFEC11B13
:1025D000214881420BD860680007800F0228F4D19F
:1025E0000BE0FFF7A1FEC11B1B48814201D903206C
:1025F000F8BD60680007800FF3D115480168C9076E
:10260000C90FB1420BD90168490849003143016043
:102610000068C007C00FB04201D00120F8BD287883
:10262000400706D56068072109028843E968084326
:10263000606000F02DF86168084A0906090F515CD6
:10264000C840074908600020FFF7C6FE0020F8BD1B
:10265000002002400010024088130000B0900008E3
:1026600004020020014800687047000004020020B6
:102670000448054900684968044A4905490F515C06
:10268000C84070470402002000100240C0900008BB
:1026900010B512A30FCB88B06C460FC413A30FCB99
:1026A0000FC416494A680C20134603401448042BF3
:1026B0000FD0082B0DD193021B0F6C46E45CC96A46
:1026C00004AB0907090F595CD20304D5FDF70AFDD5
:1026D000604308B010BD0B486043FAE702030405ED
:1026E000060708090A0B0C0D0E0F10100102030457
:1026F00005060708090A0B0C0D0E0F10001002400A
:1027000000127A0000093D00FEB504460078D04D65
:10271000C00747D068680007800F012807D06868A5
:102720000007800F022809D16868C00306D5286811
:10273000800337D5606800287ED033E001206268CE
:102740000004012A11D08100002A01D0052A10D0EE
:102750002A6882432A6028688843286060680028C5
:1027600014D0FFF7E1FD06460CE02968014329601B
:10277000F4E72A680A432A60F7E7FFF7D5FD801BD4
:1027800064286FD828688003F7D50BE0FFF7CCFDED
:10279000064604E0FFF7C8FD801B6428F1D82868CE
:1027A0008003F7D420780126800700283BDA686888
:1027B0000007800F07D068680007800F022809D142
:1027C0006868C00306D42868800715D5E06801282A
:1027D00032D111E0E0680028286815D03043286025
:1027E000FFF7A2FD074604E0FFF79EFDC01B02288D
:1027F000C7D828688007F7D52868F8218843216959
:10280000C900084328600EE0400840002860FFF738
:102810008BFD074604E0FFF787FDC01B0228B0D8F8
:1028200028688007F7D42078000724D5E0690028BD
:10283000686A10D0304300E008E16862FFF774FD79
:10284000074604E0FFF770FDC01B022899D8686AAC
:102850008007F7D50FE0400840006862FFF764FD8D
:10286000074605E09DE0FFF75FFDC01B022888D802
:10287000686A8007F7D4207804274007002860DAC8
:1028800000200190E869C00008D4E969B806014356
:10289000E961E96901400120009101906D480168FA
:1028A000C90511D40168821511430160FFF73CFD91
:1028B000009005E0FFF738FD0099401A642870D8B1
:1028C00064480068C005F5D5A06801280AD0002832
:1028D00001D0052810D0286A400840002862286AE4
:1028E000B84301E0286A30432862A068002812D06B
:1028F000FFF71AFD00900AE0286A38432862F1E7E2
:10290000FFF712FD0099411A5348814249D8286ABD
:102910008007F5D50DE0FFF707FD009006E0FFF713
:1029200003FD0099411A4C4881423AD8286A800731
:10293000F5D40198002804D0E969012000078143FB
:10294000E9612078C00635D5606901280CD0401DAA
:10295000686B23D038436863686B40084000686345
:10296000FFF7E2FC064622E0686B38436863686B59
:1029700030436863FFF7D8FC064604E0FFF7D4FC59
:10298000801B02285BD8686B8007F7D5686BF8213D
:102990008843A169C900084368630BE0B8436863D2
:1029A000F4E74CE0FFF7C0FC801B022847D8686BB7
:1029B0008007F7D4206A002846D069680907890F84
:1029C000022943D0012636060228286805D0B043E4
:1029D0002860FFF7A9FC044633E0B0432860FFF706
:1029E000A3FC074604E0FFF79FFCC01B022826D883
:1029F00028688001F7D4E86AE16A00090001084309
:102A0000E862616AA06A084369683D221204914342
:102A100008436860286830432860FFF785FC044657
:102A200004E0FFF781FC001B022808D82868800119
:102A3000F7D509E0FFF778FC001B022801D9032035
:102A4000FEBD28688001F5D40020FEBD0120FEBD3A
:102A5000001002400070004088130000F8B5040028
:102A600007D0002625464035A662687F002802D0A0
:102A700005E00120F8BD2E77204600F04BF8022338
:102A80006B77206801684022914301600721E0686C
:102A90000902884201D9002201E0012212030F2716
:102AA0003F02B84202D0884200D0A662276B002FB6
:102AB00005D1884201D9236301E001202063A16888
:102AC0006068636908432169194308430123A169C8
:102AD0005B0219400843E1690843216A0843A16A7F
:102AE000084321680860616B606AA36908431B0C96
:102AF0000427E1683B4019430843216810434860BC
:102B00002068C1697A029143C16126660120687715
:102B10000020F8BD10B586B0044614216846FDF7C4
:102B20002FFB1149206888421CD11048826981140A
:102B30000A43826182690A400592426949010A4357
:102B40004261406908400590E02000900220019019
:102B50000021032003900291049109206946C006D8
:102B6000FFF738FB06B010BD0030014000100240F6
:102B7000FFB504460E464068FF2125460027053173
:102B8000403581B0884202D1A06800280CD0287F4F
:102B9000012815D001202877FFF7C6FB0090687F39
:102BA00001280FD0022789E004206877049800905C
:102BB000324611462046039B00F03EF905B0F0BDB9
:102BC0000220FBE7002E78D00398002875D004205F
:102BD00068770020206626640399A9800399E9801C
:102BE000A063A087E087E064206507200121E268F8
:102BF0000002090382422268536801D98B4300E036
:102C00000B4353600122A168D203914205D1216890
:102C10000A6801239B039A430A6021680A685206E6
:102C200003D40A6840231A430A60E168814218D934
:102C300034E020688168C90706D0007B3070E888DE
:102C4000401EE880761C0CE00498002824D0401C2C
:102C500007D0FFF769FB01460098091A04988142E2
:102C60001AD2E8880028E4D11BE020688168C907EF
:102C700006D0C0683080E888401EE880B61C0DE0B1
:102C80000498002808D0401C08D0FFF74DFB00999D
:102C9000411A0498814201D303270FE0E8880028F5
:102CA000E3D12046009A049901F065F8002801D08C
:102CB00020202066206E002800D0012701206877A0
:102CC00000202877384679E7FFB5064604464036A7
:102CD000307F002781B00D46012809D001203077D0
:102CE000FFF722FB0090707F012804D002279DE0AF
:102CF000022005B0F0BD002D72D0039800286FD0DF
:102D00000320707700202066A5630399A1870399AB
:102D1000E1872064B080F0802065E0640121A06834
:102D2000C903884205D1206801680122920311433A
:102D3000016020680168490603D4016840221143FC
:102D400001600720E16800028142606823D9002801
:102D500002D0E08F01281AD121682888C86005E0D8
:102D600020688168890706D52988C160E08F401EE8
:102D7000E087AD1C0BE0049800283ED0401C06D034
:102D8000FFF7D2FA0099411A0498814235D2E08FB8
:102D90000028E5D136E0002802D0E08F01282ED1AE
:102DA000E08F012803D921682888C8600CE02168D9
:102DB000287808730FE020688168890711D5E18FB2
:102DC000012906D92988C160E08F801EE087AD1CEB
:102DD00015E029780173E08F401EE0876D1C0EE03E
:102DE00023E00498002808D0401C08D0FFF79CFA84
:102DF0000099411A0498814201D3032716E0E08F1D
:102E00000028D8D12046009A049900F0F0FF00284D
:102E100001D020202066A068002803D12068C16866
:102E200080680090206E002800D001270120707774
:102E30000020307738465CE7FFB5044683B00120B8
:102E4000254640350090287F00270E4601280FD0E8
:102E500001202877FFF768FA0190687F61680128F0
:102E60000DD0CA1FFD3A08D1A168002905D102E0A2
:102E7000022007B0F0BD042801D00227FAE0002E9E
:102E80007CD005980028FBD006980028F8D0687FF1
:102E9000042801D005206877002020660599216468
:102EA0000699E9800699A980A6630699E1870699A3
:102EB000A187E06420650723E1681B02994202D8DC
:102EC000E888012806D920684268012109038A435D
:102ED000426005E02068416801221203114341600D
:102EE00020680168490603D401684022114301604B
:102EF000E1686068994242D9002802D0E08F012839
:102F000035D121683088C860E08F401EE087B61C4C
:102F10002DE0009800280ED0E08F00280BD020680C
:102F20008168890707D53188C160E08F401EE0873E
:102F30000020B61C0090E88800280ED02068816828
:102F4000C9070AD0C068059908800598801C0590BB
:102F5000E888401EE880012000900C98401C06D0B4
:102F6000FFF7E2F90199411A0C9881426DD2E08F86
:102F70000028CED1E8880028CBD16EE079E0002887
:102F800002D0E08F012862D1E08F012807D92168A3
:102F90003088C860E08F801EE087B61C57E021684B
:102FA00030780873E08F401EE087761C4FE0009871
:102FB000002818D0E08F002815D020688168890784
:102FC00011D5E18F012906D93188C160E08F801EBB
:102FD000E087B61C05E031780173E08F401EE08782
:102FE000761C00200090E888002824D020688168A2
:102FF000C90720D0E988012912D9C068059908803D
:103000000598801C0590E888801EE880E8880128E3
:103010000FD820684168012212031143416008E083
:10302000017B059801700598401C0590E888401EBA
:10303000E880012000900C98401C08D0FFF774F93C
:103040000199401A0C99884201D3032712E0E08FBE
:103050000028ACD1E8880028A9D12046019A0C9913
:1030600000F0C5FE002801D020202066206E002838
:1030700000D0012701206877002028773846F8E63D
:10308000094910B5401E884201D9012010BD074CE6
:1030900060610321081F00F099FD0020A061072056
:1030A0002061002010BD0000FFFFFF0000E000E0F5
:1030B0007047704770B5040005D025462035687FFD
:1030C000002802D006E0012070BD002028772046AD
:1030D00000F00AF802206877211D206801F07AF8D4
:1030E00001206877002070BD08B5104A01681048BB
:1030F00091420FD1C26910210A43C261C069002206
:103100000840009011461120FFF79EF91120FFF7AB
:1031100091F908BD074A9142FBD182690121090456
:103120000A43826180690840009008BD0010004099
:1031300000100240004001400268D36801210B43A7
:10314000D360006802680A4302600020704770473D
:1031500070B50446006801690025C9438907002944
:1031600015DBC168C943890711D4E91E016101203B
:103170002077206880698007204602D0FFF7E7FFAC
:1031800004E000F096F8204600F046F92577206824
:103190000169C943490717D4C168C943490713D412
:1031A0000421C943016102202077206880698005DD
:1031B000800F204602D0FFF7CAFF04E000F079F844
:1031C000204600F029F9257720680169C9430907DD
:1031D00016D4C168C943090712D40821C943016143
:1031E000042020772068C0698007204602D0FFF7BE
:1031F000AEFF04E000F05DF8204600F00DF9257701
:1032000020680169C943C90617D4C168C943C90602
:1032100013D41021C9430161082020772068C069B8
:103220008005800F204602D0FFF791FF04E000F0F8
:1032300040F8204600F0F0F8257720680169C9437E
:10324000C90708D1C168C943C90704D1891E0161F2
:10325000204600F045F920680169C943090609D4F0
:10326000C168C943090605D48021C94301612046CC
:10327000FFF71EFF20680169C943490609D4C168E8
:10328000C943490605D44021C9430161204600F0E5
:1032900028F920680169C943890609D4C168C9436E
:1032A000890605D42021C94301612046FFF701FFAB
:1032B00070BD7047F8B5064604462036307F0D468F
:1032C00001280DD001203077022070770427002AD2
:1032D00008D0042A16D0082A2AD00C2A4DD137E06B
:1032E0000220F8BD206800F0C5FF2068816908222F
:1032F0001143816120688169B943816120688169D6
:103300002A6912E0206800F0F9FF20688269012133
:10331000C9020A43826120688169012292029143B5
:103320008161206881692A6912021143816124E068
:10333000206801F023F82068C26908210A43C261AD
:103340002068C169B943C1612068C1692A6912E076
:10335000206801F055F82068C1690122D2021143AA
:10336000C1612068C269012189028A43C261206863
:10337000C1692A6912021143C161012070770020DE
:103380003077F8BD70B5040005D025462035687F3C
:10339000002802D006E0012070BD002028772046DA
:1033A00000F00AF802206877211D206800F012FF63
:1033B00001206877002070BD10B586B00446142146
:1033C0006846FCF7DDFE1149206888421CD1104890
:1033D0004269012189040A43426142690A40059217
:1033E000826989100A43826180690840059048100B
:1033F000009002200121019003200291049103908A
:1034000069460448FEF7E6FE06B010BD00400140E4
:1034100000100240000400487047000010B5044648
:103420000068012200F01AFF0C482168814208D090
:103430000B48814205D00B48814202D00A488142A4
:1034400004D1486C0122D20310434864206801680B
:10345000012211430160002010BD0000002C01403A
:1034600000400140004401400048014030B504469E
:103470000068002200F0F2FE154A144821689310FB
:10348000814208D01348814205D01348814202D0BE
:10349000124881420AD1086A104207D1086A1842CC
:1034A00004D1486C0125ED03A84348642068016AF3
:1034B000114206D1016A194203D101684908490045
:1034C0000160012020346077002030BD002C0140D5
:1034D000111100000040014000440140004801403B
:1034E0007047704770470000F8B503680446D96913
:1034F00018680D072D0F07D18A0605D5820603D55A
:10350000204601F0D9F8F8BD9A68002D64D0D5079F
:10351000ED0FFF26213606402E435DD0CE0706D0A4
:10352000C60504D501261E62E36E3343E3668F07AA
:1035300002230426002F06DAD70704D027683B624F
:10354000E76E3743E7664F0706D5D20704D02268F7
:103550001662E26E1A43E2660A0709D5202202408B
:103560002A4305D0236808221A62E36E1343E366F8
:10357000E26E002AC7D0890604D5800602D520460F
:1035800001F09AF8E06E000703D4206880684006D6
:103590001CD5204601F042F820688168490611D503
:1035A0008168402291438160606E00280AD01249F0
:1035B0004163606EFEF722FC0028A4D0606E416B70
:1035C0008847F8BD2046FFF78DFFF8BD2046FFF77E
:1035D00089FF0020E066F8BD0A0605D5020603D57E
:1035E000204601F03FF9F8BD4906FCD54006FAD562
:1035F000204601F022F8F8BD8545000870B50400AA
:1036000005D025466035687A002802D006E0012002
:1036100070BD00202872204600F026F82420687231
:1036200020680168490849000160204601F082F8DD
:103630000128EDD0606A002802D0204600F034FF57
:10364000206841680122D20291434160206881686C
:1036500008229143816020680168012211430160C2
:10366000204600F086FF70BD10B586B004461421D8
:103670006846FCF785FD17492068884227D116481F
:103680008269012189030A43826182690A400592A5
:103690004269C9000A43426140690840059003201D
:1036A000400200900220019000200290032003902D
:1036B0000120049009206946C006FEF78BFD002218
:1036C00011461B20FEF7C0FE1B20FEF7B3FE06B01E
:1036D00010BD0000003801400010024070B50346E4
:1036E00060339C7A202C39D100290BD0002A09D0D4
:1036F000012584682D03AC4206D10669002E03D152
:10370000CE0701D0012070BD1E7A012E26D00126E1
:103710001E724165014640310A834A83FF22AC4252
:1037200004D10469002C07D10D4A05E0002C04D116
:103730000469002C00D07F228A830021C1662222E6
:103740009A72197201688A6832438A600068016857
:10375000FF22213211430160002070BD022070BDA4
:10376000FF01000070470000F8B5054604466035CB
:10377000687A20283BD100290BD0002A09D00123E8
:10378000A0681B03984206D12069002803D1C8070E
:1037900001D00120F8BD287A012828D00120287204
:1037A00020464030E164028242820026E666212003
:1037B0006872216E0F488862216E0F48C862216EC0
:1037C0000E480863206E134646632768E16C3A464C
:1037D0002832206EFEF784FB2168402008622E729A
:1037E000206881688022114381600020F8BD02209A
:1037F000F8BD0000E345000813460008994500089D
:1038000030B5034660335C7A202C23D100290BD0DD
:10381000002A09D0012584682D03AC4206D1046931
:10382000002C03D1CC0701D0012030BD1C7A012C23
:1038300010D0C164014640310A824A820021C1662B
:1038400021225A72197200680168802211430160B6
:10385000002030BD022030BD10B5012100224903F7
:103860000848FEF75BFD0848C28881888A4206D175
:1038700000218180C18005490120087010BDC180F0
:1038800010BD000000080048880000200000002053
:10389000704710B502F09AFC02F024FC10BDFEE760
:1038A0000EB5002112480091019102910F4A41602A
:1038B00002608160012204230C300EC0016041606F
:1038C000FF23C160C23382600361C2614161183865
:1038D000FEF78EF8092000900120000301900004FB
:1038E000029069460248FDF7F5FF0EBD0024014035
:1038F0006802002010B504490448FDF776FE02492D
:10390000491E087010BD0000810000206C000020DE
:10391000F0B587B014216846FCF732FC5F48416976
:103920000120C0045D4A0143516151690140059184
:103930005169C000014351615169014005915169CC
:10394000401101435161516901401046059141699F
:103950000120800401435161516944110140504FDD
:103960000591012221463846FEF7D8FC01221602B5
:1039700009203146C006FEF7D1FC002261104948FB
:10398000FEF7CCFC012248494648FEF7C7FC0094EC
:103990000024012501950294694638460394FEF7F8
:1039A00019FC022709206946C00600970295019478
:1039B000FEF710FCE8030090092002946946019587
:1039C0000394C006FEF706FC694636480096029549
:1039D0000194FEF7FFFBE8026A4631C209206946FE
:1039E000C006FEF7F7FB6802009001956946029554
:1039F00003942C48FEF7EEFB280300900920019564
:103A0000694602950394C006FEF7E4FB00226902B2
:103A10002448FEF783FC092000222903C006FEF794
:103A20007DFC0C206A4691C269461E48FEF7D2FB17
:103A300007200003009002946946019503941948F9
:103A4000FEF7C8FB009603260920019502946946FB
:103A5000C0060396FEF7BEFB082000906946039659
:103A6000019502940F48FEF7B5FB70200090019479
:103A7000694602940B48FEF7ADFB80206A4631C2CE
:103A800069460848FEF7A6FBE8026A4631C20920EB
:103A90006946C006FEF79EFB07B0F0BD001002406D
:103AA0000008004800040048086000001CB51B48DE
:103AB00019490160FF21002405318460416007211C
:103AC00009020461C160012141614902816104620E
:103AD000446228218462C161046307214463C16296
:103AE000FEF7BCFF68460470012000060924E406C6
:103AF000A0610520FEF729FA0A230122694607483A
:103B0000FFF7E2F81423032201A90448FFF730F875
:103B1000FF200130A0611CBD00300140D802002010
:103B200030B587B01C216846FCF72AFB16491748B8
:103B3000002412C0164D298884600460C460491EA8
:103B4000046141600838FFF71DFC002801D0FDF733
:103B50004BFD602005940294049403940694009015
:103B60000C4928880978401E48436421FCF7BAFABA
:103B70000190042269460548FFF79CFB002801D00C
:103B8000FDF732FD07B030BD004001407C0300204E
:103B9000CA000020B800002010B50A48084901609A
:103BA000E1214902416000218160C16001618161C0
:103BB000C1610C22016242614162FFF71FFD10BD2D
:103BC00000380140BC030020704700008307FF223B
:103BD000DB0E9A408907090E994000280BDA00078E
:103BE000000F0838830808489B001818C3699343DE
:103BF0000B43C3617047830804489B001B18186877
:103C0000904308431860704700ED00E000E400E0D6
:103C100070B5012509260024ED03F6062246294643
:103C20003046FEF77BFBC820FEF78FF901222946BC
:103C30003046FEF773FBD321332004F0A1FC0A20A9
:103C4000FEF783F95A21C92004F09AFC444DE000A4
:103C500041198988285C04F093FC641CA4B2032CED
:103C6000F5D30021702004F08BFC0021022004F029
:103C700087FC3C49172004F083FC3A491820091DB1
:103C800004F07EFC374919201A3104F079FC3649DA
:103C90001A2004F075FC34491B20553904F070FCDF
:103CA00031491C20AA3904F06BFC3D211E2004F090
:103CB00067FC2221702004F063FC2C4C0D2021466F
:103CC00004F05EFC21460E2004F05AFC21460F2031
:103CD00004F056FC2146102004F052FC214611202D
:103CE00004F04EFC2146122004F04AFC002164201E
:103CF00004F046FC0021652004F042FC002166200F
:103D000004F03EFC1A4C0420214604F039FC214604
:103D1000052004F035FC2146062004F031FC214644
:103D2000072004F02DFC2146082004F029FC214640
:103D3000092004F025FC21460A2004F021FC21463C
:103D40000B2004F01DFC21460C2004F019FC5A2124
:103D5000C943C92004F014FCFA20FEF7F6F870BD40
:103D6000789200080BDB0000EF630000050F0000F5
:103D7000D3FF00007047F7B504464068FF260536BC
:103D800082B01546B0420CD10121A068C903884217
:103D900002D04911884204D1206801684022914331
:103DA00001600095002280212046039B00F090F8DE
:103DB0002027002813D16068B04216D1A068B9024C
:103DC000884202D0491188420FD103210095002278
:103DD00049022046039B00F030F8002805D0206EF1
:103DE00038432066032005B0F0BD0020FBE7F8B59E
:103DF0000F460B4615460092032104460022C902D5
:103E000000F01BF82026002812D13B46002280211A
:103E10002046009500F05CF8002809D103213B46BC
:103E2000002249022046009500F007F8002803D040
:103E3000206E304320660320F8BDF8B51D461746B6
:103E40000E4604463DE0032149028E4205D1002F73
:103E500003D1017B684601700078681C31D0002DC9
:103E600005D0FEF761FA0699401AA84229D32068C6
:103E70004168E022914341606068C11FFD390CD167
:103E80000121A068C903884202D04911884204D1A7
:103E9000206801684022914301600120A16A40032B
:103EA000814207D121680A6882430A6021680A6852
:103EB00002430A600120403460770020207703200D
:103EC000F8BD206881683140B942BCD10020F8BDFE
:103ED000F8B51D4617460E46044633E0681C31D03F
:103EE000002D05D0FEF720FA0699401AA84229D3E2
:103EF00020684168E022914341606068C11FFD393C
:103F00000CD10121A068C903884202D0491188421E
:103F100004D1206801684022914301600120A16A18
:103F20004003814207D121680A6882430A60216800
:103F30000A6802430A60012040346077002020773D
:103F40000320F8BD206881683046884304D00020F3
:103F5000B842C3D10020F8BD0120F9E77047000046
:103F600010B50648818D017605494185FFF7D8FDDA
:103F700004210448FFF752FA10BD0000A000002001
:103F80009A0200007C03002010B5FEF70DFA10BD68
:103F900070B594B030216846FCF7F2F80024012592
:103FA0000F94112005951094009001951020069013
:103FB0000E941394000309900D9400010C94129434
:103FC00002260A90119408960B946846FEF79CFB13
:103FD00007200C900E9401210D960F940CA8FEF76B
:103FE000ABFA10A810951294FEF732FA14B070BD17
:103FF000134801680122114301604168114A1140D0
:1040000041600168104A1140016001680122920478
:104010009143016041683F22120491434160C16AAB
:1040200009090901C162016BFF2214329143016346
:10403000416B4908490041630021816070470000DD
:10404000001002400CB8FF08FFFFF6FE10B50C1D73
:10405000486828A1FCF7A6F800281CD027A12068F2
:10406000FCF7A0F800282BD026A12068FCF79AF8CE
:10407000002828D025A12068FCF794F8002837D123
:10408000606804F027FA0346C0B2FDF769FA1A46E1
:1040900021A102202AE0606804F01CFA04460246CE
:1040A00027A10320FDF71EFA601DFDF74EFFBFF3A9
:1040B0004F8F2E492C48C860BFF34F8F00BFFDE7DC
:1040C0002BA22FA111E035A16068FCF76BF8002846
:1040D00006D033A16068FCF765F8002801D002E043
:1040E0000120FDF745FA62682EA10320FDF7FAF9D9
:1040F00010BD000072657365740000007665727310
:10410000696F6E006563686F000000006C6F676C1C
:104110006576656C0000000077617272696E673EBB
:104120002053797374656D206C6F67206C657665BC
:104130006C2073657420746F3A25642E0D0A00009C
:104140006C6F673E2053797374656D2057696C6C92
:104150002052657365742025646D73206C617474DE
:1041600065722E0D0A0000000400FA0500ED00E063
:1041700041432D31325F464D5F56302E31000000F5
:104180006C6F673E204669726D7761726520766557
:104190007273696F6E3A25730D0A00006F6E00002E
:1041A0006F6666006C6F673E20436F6E736F6C6561
:1041B00020736574206563686F3A25732E0D0A00BD
:1041C00010B50348FEF7C4FF02F094FE10BD0000D6
:1041D0003C030020F0B502681A4B1B4C984201D0FA
:1041E000A04203D17025AA434D682A43174D184EAB
:1041F000184F98420AD0A04208D0174CA04205D0D0
:10420000A84203D0B04201D0B84205D114460322DF
:1042100012029443CA6822438024A2434C69224379
:1042200002608A68C2620A688262984205D0A84227
:1042300003D0B04201D0B84201D109690163012124
:104240004161F0BD002C01400004004000400140ED
:1042500000440140004801400020004010B5012307
:10426000046A8B409C430462036A8A4013430362DE
:1042700010BD0000F0B5026A520852000262056AE1
:10428000436882697024A24392080C689200144328
:10429000022295438A68164E2A43144DA84207D03D
:1042A000B04205D0134FB84202D0134FB84206D1E6
:1042B0000827BA43CF681743042297433A46A842D7
:1042C00007D0B04205D00B4DA84202D00A4DA842FB
:1042D00006D103252D02AB434D691D438B692B434A
:1042E00043608461496841630262F0BD002C014073
:1042F00000400140004401400048014070B5026A9E
:1043000010239A430262056A426883697324240277
:10431000A3430C6824021C4320239D438B681B018C
:104320002B43124DA84208D11D46CB688026B543C9
:104330001B012B434025AB4308E00D4DA84205D09F
:104340000C4DA84202D00C4DA84208D10325AD0265
:10435000AA434D69AD0015438A6992002A43426021
:10436000846149688163036270BD0000002C0140D4
:1043700000400140004401400048014070B5026A1D
:10438000FF2301339A430262056A4368C2697024BD
:10439000A24392080C6892001443012252029543F2
:1043A0008A6812022A43124DA84208D11546CA68EB
:1043B000C614B54312022A430515AA4308E00D4D61
:1043C000A84205D00C4DA84202D00C4DA84208D1FD
:1043D00003252D03AB434D692D011D438B691B0143
:1043E0002B434360C4614968C163026270BD000031
:1043F000002C0140004001400044014000480140C1
:1044000030B5026A01231B039A430262046A4268C0
:10441000C36973252D02AB430D682D021D43012393
:104420005B039C438B681B0323430C4CA04208D0C6
:104430000B4CA04205D00B4CA04202D00A4CA0422B
:1044400005D10124A403A2434C69A4012243426084
:10445000C56149680164036230BD0000002C014061
:104460000040014000440140004801400D48417CAB
:10447000012911D1017A00290ED1C17900290BD16E
:104480000179002908D18179002905D141780029D5
:1044900002D1417B002902D00021817470470121A3
:1044A000FBE70000A000002010B5818CC90707D0F1
:1044B00001684A6801235B049A43836A1A434A608D
:1044C000818C890707D501684A6801231B049A4338
:1044D000C36A1A434A60818C490707D501684A6854
:1044E00001239B049A43036B1A434A60818C09079A
:1044F00007D501684A680123DB039A43436B1A43DB
:104500004A60818CC90607D50268916801231B03A4
:104510009943836B19439160818C890607D50168A3
:104520008A6801235B039A43C36B1A438A60818CB8
:10453000490612D503685A6801210905046C8A43AB
:1045400022435A60026C8A4207D1026851680323F1
:104550005B059943436C19435160818C090607D56B
:1045600001684A680123DB04806C9A4302434A6075
:1045700010BD0021C1662022603042728272017239
:104580000846704710B5406A0022014640314A8310
:104590004A82FEF7A7FF10BD70B5446A2546603514
:1045A000687A0026212808D120688068000604D592
:1045B00052200653204600F04DF8A87A222808D150
:1045C00020688068400604D55A200653204600F033
:1045D00025F8E06E10210843E0662046FEF782FFD2
:1045E00070BD10B501460968406A096889060DD496
:1045F000002252210A5201688A6880239A438A6005
:104600000068016840221143016010BDFFF724F9E2
:1046100010BD10B5406AFFF73BF910BD01680A688C
:10462000FF2321339A430A6001688A6852085200C6
:104630008A60202160308172704710B501680A6875
:1046400040239A430A60202269210A54FFF704F9A3
:10465000002010BD01680A68C0239A430A60202127
:10466000603041727047000010B500281ED000680D
:10467000C169C943890602D40168890603D4C169A6
:10468000C943090712D4808CC4B202F0DDFB7D223D
:104690000749120182184860904201D90020486001
:1046A00021460448FCF7D9FF012010BD002010BDB1
:1046B000CC0100208009002070B50246403203463C
:1046C0006033948B9D7A0168222D05D08869082279
:1046D00010438861022070BD898C012685683603ED
:1046E000B54202D10569002D0BD02140446D651CF7
:1046F00045652170518B491E0904090C518307D06F
:1047000015E0456D21402980416D891C4165F1E727
:1047100001680A68FF242134A2430A6001688A689C
:10472000520852008A6020219972FFF71BF800207E
:1047300070BD0000F8B504462369A268E5691A4314
:10474000636910202B43002125681A432B680E460D
:104750003E4F3B4013432B6023685A6803252D03CB
:10476000AA43E5682A435A60236AA26925681A4366
:10477000AB680B273F02BB431343AB60344A256849
:10478000954210D1334A126B9207920F0ED0012A34
:1047900005D0022A05D0032A09D1022007E004200F
:1047A00005E0082003E02C4A954200D100200122B8
:1047B000E369D203934224D100280CD002280DD003
:1047C000042813D0082817D001260A091201080767
:1047D000400F10432FE0FDF74BFF09E061681F4ACF
:1047E00048088018FBF77EFC81B2EEE7FDF750FF2A
:1047F000616840004A08F4E7616801224808120431
:10480000EFE7002808D0022809D004280BD0082898
:1048100014D001263046F8BDFDF72AFF05E0616897
:104820000F4A48080CE0FDF733FF61684A0880181A
:10483000FBF758FC80B22168C860EBE76168480864
:104840008018FBF74FFC80B2E860E3E7F369FFFFF5
:104850000038014000100240004400400024F400F1
:1048600000127A006921095C212901D002207047D9
:1048700002464032518A002912D0012381681B036D
:10488000994202D10169002915D0C16C4B1CC36447
:10489000006809780185508A401E508200207047C8
:1048A00001680A6880239A430A6000680168402210
:1048B00011430160F2E7C16C03680988C905C90D9D
:1048C0001985C16C891CC164E5E7000070B50C4610
:1048D0000546012251030648FDF720FD3220FDF771
:1048E00034FB224629460348FEF78AFF70BD0000CC
:1048F00000080048BC03002010B50348FFF7B4FED1
:104900000148FEF7F1FD10BDBC0300200248012163
:104910000170007870470000680000200120704797
:1049200000207047024801210170007870470000A4
:10493000680000200020704710B50022D400034614
:10494000E3408B54521CD2B2042AF7D310BD0000AE
:10495000F0B5134901254D754E6D8A6F2C03B71ABA
:10496000104B0022C82F09D38E670E7F002E0FD068
:104970009D049D61CD7E6D1CCD760A77CD7E8542EE
:104980000CD94A759C61087D072804D90A7504E092
:104990009C610D77F2E7401C0875CA76F0BD0000F7
:1049A000A00000200004004810B50A49FF244B6F06
:1049B0004A6DF534D31AA34206D34A670649002844
:1049C00003D088048861002010BD012000038861A5
:1049D000012010BDA000002000040048FFB50D46D6
:1049E00083B017461E460021039A00916B0003997D
:1049F0009A18403A0988D28F3648374C94468E46EA
:104A0000614502D9012100911AE0F4455BD90021EA
:104A10000AE0039A4B00D25ABA4204D8009B9A4249
:104A200001D00C460092491CA942F2DB19E06A1A37
:104A300053000192039AD25ABA4200D8019C491CF1
:104A4000A942F4DD009900290BD003D0BE453AD32A
:104A5000BC4538D8002C38DD002E07DD281B801B14
:104A600006E0BE452FD8BC452DD3F3E7281B80199F
:104A7000401EFBF7DFFE691E8C4224D0039A6100C2
:104A8000525A039B0092C918498801918A421AD050
:104A9000B81AFBF7CFFE074600990198401AFBF7BA
:104AA000C9FE01463846FBF7F4FC0746002E02DD3E
:104AB000281B801B01E0281B8019401EFBF7BAFE53
:104AC0003946FBF750FC07B0F0BD7019401EFBF7EC
:104AD000B1FEF8E700FF7F47FFFF00000FB410B5FD
:104AE00004A9074B02AA039800F072FC044602A92D
:104AF000002001F014F8204610BC08BC04B0184790
:104B00001F5B00087CB51546024600201C460029A4
:104B10000BD0491E00920191044B6A46214628465B
:104B200000F056FC009A002111707CBD095B000862
:104B30002021020C01D010211046020A01D010469B
:104B40000839020901D01046091F820801D0104619
:104B5000891E420801D0881E7047081A7047F0B4B9
:104B6000040C8BB2264682B25E430D0C1046370C05
:104B70005843360480190021794116466E43370C9C
:104B800036048019794126466E438919F0BC704776
:104B900030B47446641E2578641CAB4200D21D46B6
:104BA000635D5B00E31830BC184700004900CA028F
:104BB0000243100000D004204A0D01D0012210430E
:104BC000044A490D914201D102210843012800D134
:104BD00005207047FF070000F7B596B01446002186
:104BE000A160D160179909914D00CD496D088D42A2
:104BF00005DC179961602060002019B0F0BDC9493B
:104C0000C94E8D4238DAD32709997F050029C74A52
:104C10001799334617DDFBF71FFDB54206D0C44A8E
:104C2000C44BFBF719FD6160206009E03A46C14BB7
:104C3000FBF712FDC04AC14BFBF70EFD616020601F
:104C4000012019B0F0BDFBF763FCB54206D0B84AAD
:104C5000B84BFBF75DFC6160206009E03A46B54B5C
:104C6000FBF756FCB44AB54BFBF752FC6160206081
:104C70000020C04319B0F0BDB1498D42179977DCCF
:104C8000490049080746AF4AAF4B0491FBF7F2FCD5
:104C90000022AE4BFBF73CFCFCF7C2F90A90FBF795
:104CA000DBFDA24A334603910290FBF7E3FC3A4650
:104CB000049BFBF7D7FC06460F469D4A9D4B039984
:104CC0000298FBF7D7FC2A0D01250C9232463B4691
:104CD000FBF7C8FC61602060032D39D04800410D0E
:104CE0000C98401A690169181139814230DA9849E3
:104CF0002801794408960D900818049743680268C3
:104D000003990298FBF7B6FC02460B460791069002
:104D100004990898FBF7A0FC06460F46049B089AE6
:104D2000FBF7A0FC079B069AFBF796FC05918949C7
:104D3000049079440D984018C368826803990298DA
:104D4000FBF798FC059B049AFBF786FC6D1CBDE7FE
:104D50000998002809DA01226068D2075040606093
:104D60000A9819B04042F0BD02E00A9819B0F0BDAF
:104D700009030122090B12050E908918179810914A
:104D800040007549400D40184111C006C00E0D91FC
:104D900013902021081A14900020069005250790F2
:104DA000139800280D980CD0401982006B48784465
:104DB000875813998F40101841681498C1400F43C9
:104DC00004E04019810066487844475810993846F5
:104DD000FFF7C5FE06460A9138460E99FFF7BFFE5B
:104DE0008A190A9B8A4201D2012100E00021C918D8
:104DF0008C46AF00694679188B684E68C3188342A9
:104E000001D2012000E0002096193618002802D0B7
:104E1000964202D903E0964201D2012000E0002030
:104E2000624612184E6068468B60C25128466D1E5D
:104E30000028B5DC0121029849074018800F139023
:104E4000029805998000039E049D0B91FBF704FDD9
:104E5000074630460891FBF713FD1D22D243FCF7AD
:104E6000C9F810900F912846FBF70AFD3D22D24366
:104E7000FCF7C0F80E900D910B98FBF701FD5D2239
:104E8000D243FCF7B7F80B910C900D9B0E9AFBF7F1
:104E90003FFB0F9B109AFBF73BFB3A46089BFBF747
:104EA00037FB00250E463A462846089BFBF7D4FB05
:104EB0000F9B109AFBF7D0FB0D9B0E9AFBF7CCFBD8
:104EC0000B9B0C9AFBF7CEFB264A274BFBF7D2FB3A
:104ED00007460D91254A264B31462846FBF7CAFB6B
:104EE0003A460D9BFBF714FB0F4615220C909206D9
:104EF0001D4B31462846FBF7BDFB3B460C9AFBF7A2
:104F000007FB179A002A05DA139A524213920122DC
:104F1000D207514061602060139819B0F0BD0000C5
:104F2000FB21E93F7CD90240FB21F93F00004054BE
:104F30003163621A61B4D03D7370032E8A19A33BAA
:104F4000FB21394183C8C96D305FE43F0000E03F79
:104F50008A4400004A4400000BFCFFFFFE430000AF
:104F6000E4430000182D4454FB21F93D3326A611DB
:104F7000460B113CF0B51FB44E00F92076088005B1
:104F800084B00F46864204DA0498FCF749F80028FA
:104F900038D0049A3B4610461946FBF76BFB044693
:104FA00002462C480D460B460621784400F05CF87A
:104FB00022462B46FBF75EFB019100903946079B8A
:104FC000069A0498FBF756FB0746029120462946AD
:104FD000019B009AFBF74EFB3A46029BFBF73CFB1A
:104FE000074600220091D24320462946FCF702F8EA
:104FF000194A96420ADA3A46009BFBF72DFB00223B
:10500000164B23E00020154909B0F0BD144A964222
:1050100002DD0024134D03E001225205B51A0024DD
:1050200022462B46FBF718FB0646019122462B46EB
:1050300000200A49FBF710FB0D4604463A4630466D
:10504000009B0199FBF708FB22462B46FBF70AFB66
:1050500009B0F0BDA24100003333D33F0000F03F60
:105060000000E93F0000D23FF8B504464F1EC800DB
:105070000838211815461E46086849683A4606232E
:105080009A4310D02A463346FBF7F4FA3A46D20048
:10509000083AA3181A687F1E5B68FBF739FA0622E4
:1050A0003B469343EED1022F23D0042F11D0062F7D
:1050B0002FD12A463346FBF7DDFAE36AA26AFBF7F3
:1050C00027FA2A463346FBF7D5FA636A226AFBF7CA
:1050D0001FFA2A463346FBF7CDFAE369A269FBF7CC
:1050E00017FA2A463346FBF7C5FA63692269FBF7CC
:1050F0000FFA2A463346FBF7BDFAE368A268FBF7CE
:1051000007FA2A463346FBF7B5FA63682268FBF7CD
:10511000FFF9F8BDF0B51FB4054648000C46F9216B
:105120004008890586B088420BDA28462146FFF7F9
:105130003DFD042801D100F071F8284621460BB04E
:10514000F0BD2A46234610461946FBF793FA064659
:105150000F462A462346FBF78DFA00902548019119
:1051600032463B4605217844FFF77EFF02901098B7
:105170000391002829D0204A204B01990098FBF781
:1051800079FA0490059168460FC8FBF773FA00227C
:1051900001910090D24309990898FBF72BFF019BDE
:1051A000009AFBF759FA32463B46FBF763FA099B34
:1051B000089AFBF751FA059B049AFBF74DFA2A4629
:1051C0002346FBF74FFA0BB0F0BD0B46304639468D
:1051D000029AFBF74FFA084A084BFBF799F9019B33
:1051E000009AFBF747FA2A462346FBF791F90BB0E2
:1051F000F0BD0000DE400000495555555555C5BF6E
:1052000010B50122FBF7F6FE10BD002210B51346C3
:1052100010461146FBF796FA10BD0000034A10B580
:1052200000201107FBF7E6FE10BD000001FDFFFFA7
:1052300002E008C8121F08C1002AFAD1704770475F
:10524000002001E001C1121F002AFBD170470000BD
:10525000014908607047000008020020F0B51FB443
:1052600086B00998089A030D0021024314D05148D2
:10527000514A1818504305141198012810981AD053
:10528000281A401C00264D4F4D490096019104906C
:10529000002812DA444211E01198012449A30128A0
:1052A00001D11098C1430698119A84600360C260CE
:1052B00041600BB0F0BD4042E4E704462105002008
:1052C0003F4A001C51410391029012E0E00707D0D1
:1052D00032463B4601990098FBF7CCF901910090CA
:1052E00032463B4610461946FBF7C4F906460F46C0
:1052F0006410002CEAD10498039B0028029A0999B3
:10530000089806DAFBF7B6F9019B009AFBF7B2F9A9
:1053100005E0FBF717FA019B009AFBF713FA044626
:105320000E460022284BFBF72DFB03D80020C0437C
:10533000014607E00022254B20463146FBF7E8F8FE
:10534000FBF78AFC102409E0002C0ADB0A22002368
:10535000FBF748FB079B30321A55641E02460A438E
:10536000F2D11122641C079B121B1C19119B012BEB
:1053700003D0012308430ED10AE0084304D01120D2
:1053800010900020119077E71098151A6D1E0BE011
:105390001098824202DD00236D1C03E0824201DA94
:1053A00000236D1E002BEED0069811998260C1601B
:1053B00030C07EE701FCFFFF104D000000001440EC
:1053C0000000F03F300000000000F0430000E03F2C
:1053D000FFB597B00646002518E2252877D10024AE
:1053E0002746FD49049400E00443761C32780120EE
:1053F000203A90400842F7D130782A280ED0022275
:10540000307801463039092916D804990A235943BE
:10541000303940181443761C0490F1E7189802C8FC
:1054200004911890002904DA012040030443484203
:10543000049002200443761C30782E2814D10420D6
:1054400004437078761C2A2809D11898761C80C8E5
:10545000189009E00A214F43303FC719761C307875
:10546000014630390929F5D930786C2810D006DC8E
:105470004C281AD068280ED06A2817D104E0742866
:1054800013D07A2812D110E00120400504430CE02B
:105490000121090501E0032109050C4371788142CE
:1054A00003D1012000052418761C761C3078119059
:1054B00066280BD013DC58287DD009DC00287BD06F
:1054C0004528F6D04628F4D047281AD1A5E118E09F
:1054D000632835D0642870D0652812D19DE17028EA
:1054E0006CD008DC6728F1D069287BD06E280DD0FD
:1054F0006F2806D1BAE073282ED0752871D078288D
:1055000059D01A9A199990476D1C7EE16002400F9C
:10551000022809D003280DD00428189801680DD05E
:105520000D60001D189070E11898EA1701680D6071
:105530004A60F6E7189801680D80F2E70D70F0E711
:1055400018986A4601781172001D18900020507258
:1055500002A80090012005E0189802C818900020C9
:105560000091C04361070DD5002101E00199491C5C
:105570000191B94212DA8142F8DB009A515C0029AC
:10558000F4D10BE0002101E00199491C0191814215
:10559000FADB019A0099895C0029F5D101990498F8
:1055A0001A9B471A21463846199A00F097FA019932
:1055B000401945180BE04FE02CE113E04EE0009855
:1055C00000990078491C00911A9A199990470198FE
:1055D000401E0190401CF2D1214638461A9B199A70
:1055E00010E137E00A200021009001916002410F94
:1055F000022907D0189A01CA1892C21794460329A3
:1056000008D00AE01898C01DC108C90005C9189142
:10561000944607E000B2C2179446042902D140B272
:10562000C1178C4600226146944506DA0A460021DD
:10563000404291418C462D2102E0210504D52B21C9
:105640006A461173012103E0E10701D02021F7E749
:10565000029155E00A200AE0102008E01020009096
:105660000021042004430191082703E008200021C1
:10567000019100906002410F022907D0189A01CAD7
:10568000189200229446032908D008E01898C01DFB
:10569000C108C90005C91891944603E080B20429E5
:1056A00000D1C0B200210291210729D5119970299A
:1056B00006D0009A1021019B4A401A4305D00EE003
:1056C00040216A461173012108E06146014306D07A
:1056D00030216A4611731199517302210291009A87
:1056E0000821019B4A401A430AD16146014301D176
:1056F000610705D530216A46117301217F1E029191
:105700001199582904D035A10E910DA90D910DE0E4
:1057100037A1F9E76146019B009AFBF763F90E9BFD
:105720008C469B5C0D9A521E0D921370614601438C
:10573000F0D10D9805A9081A20300190600703D513
:1057400001200004844300E001270198874201DD25
:10575000381A00E0002001990090411802980918B9
:105760000498401A0490E00306D421461A9B199A23
:10577000049800F0B3F94519002706E003A81A9A27
:10578000C05D199990476D1C7F1C02988742F5DB1C
:10579000E0030CD521461A9B199A049800F09EF953
:1057A000451904E01A9A3020199990476D1C009908
:1057B000481E00900029F5DC08E00D980D9900784E
:1057C000491C0D911A9A199990476D1C0199481E10
:1057D00001900029F1DC63E1092801003031323306
:1057E000343536373839616263646566000000001D
:1057F0003031323334353637383941424344454607
:105800000000000000F05AF94519761C3078002895
:1058100000D0E2E528461BB0F0BD600700D40627A3
:105820001898C01DC108C90048680A680831C30F2C
:10583000DB071891190001D09CA108E0210501D5D2
:105840009BA104E0E10701D09AA100E09AA14300E6
:1058500011985B08109165280CD006DC452809D00A
:1058600046281DD0472841D141E0662818D0672836
:105870003CD13CE00021112F01DB112000E0781C1D
:105880000191009008A911A8FFF7E8FC1399059170
:105890000021119A15927F1C12980197009150E0F7
:1058A0000120C00703900120019008A9009711A8CA
:1058B000FFF7D4FC139A149905920022119B0092D1
:1058C00012981593059A0192002901D0104602E022
:1058D000791C40180190381A01D5019804E0404223
:1058E000401E0090781C0190C01B029043E0012FE5
:1058F00000DA01270021112F01DD112000E03846D8
:105900000191009008A911A8FFF7A8FC139905912F
:10591000119A0021129815920091019721070CD439
:105920000599B94201DB019900E00191012904DDEB
:10593000159A491E515C302906D0B84201DA011D82
:1059400005DA0121029115E00199491EEDE70028D1
:1059500005DC0099411800910199091A03E0019AA8
:10596000411C914200DD01910099401A401C0290B7
:105970000120C0070390200706D4029901988142B4
:1059800002DB0020C043029000206946C87707AFC1
:10599000012103980337C907884224D002201190BF
:1059A0002B201290039800280CDA404203902D20FF
:1059B000129007E00A210398FAF794FB30317F1E1A
:1059C000039039701199481E11900029F2DC039858
:1059D0000028EFD1791E12980870307820210840F5
:1059E0004530BF1E387006A8C01BC01D039010981C
:1059F0000078002800D00120019941180298C017B2
:105A00000918039809180498401A401E0490E003EE
:105A100006D421461A9B199A049800F05FF845199C
:105A200010980078002803D01A9A199990476D1C95
:105A3000E00324D521461A9B199A049800F04EF8E9
:105A400045191CE00098002807DB0099059888425A
:105A500003DD1598405C199901E0199930201A9AD4
:105A6000904700986D1C401C00900298401E0290C8
:105A7000002804D11A9A2E20199990476D1C01997B
:105A8000481E01900029DDDC05E038781A9A7F1C59
:105A9000199990476D1C0399481E03900029F4DC66
:105AA00021461A9B199A0498ACE600002D000000CC
:105AB0002B0000002000000000000000F8B50446A4
:105AC00000251E461746880404D405E039462020E8
:105AD000B0476D1C641EF9D52846F8BDFFB50446D5
