:020000040800F2
:10000000386F00209D010008DB1E00088D1A0008D3
:10001000D91E000871030008E9280008000000004C
:10002000000000000000000000000000F51F0008B4
:10003000A103000800000000DD1E0008F91F0008F1
:10004000B7010008B7010008B7010008B7010008B0
:10005000B7010008B7010008B7010008B7010008A0
:10006000B7010008B7010008B7010008B701000890
:10007000B7010008B7010008B7010008B701000880
:10008000B7010008B7010008B7010008B701000870
:10009000B7010008B7010008B7010008B701000860
:1000A000B7010008B1200008B7010008B701000837
:1000B000B7010008B7010008B7010008B701000840
:1000C000B7010008B7010008B7010008B701000830
:1000D000B701000885280008B7010008B70100082B
:1000E000B7010008B7010008B7010008B701000810
:1000F000B7010008B7010008B7010008B701000800
:10010000B7010008B7010008B7010008B7010008EF
:10011000B7010008B7010008B7010008B7010008DF
:10012000B7010008B7010008B7010008B7010008CF
:10013000B7010008B7010008B7010008B7010008BF
:10014000B7010008B7010008B7010008B7010008AF
:10015000B7010008B7010008B7010008B70100089F
:10016000B7010008B7010008B7010008B70100088F
:10017000B7010008B7010008B7010008000000003F
:10018000B7010008B7010008DFF80CD000F07AF8DA
:1001900000480047752A0008386F0020064880474D
:1001A00006480047FEE7FEE7FEE7FEE7FEE7FEE75C
:1001B000FEE7FEE7FEE7FEE795200008890100085C
:1001C0002DE9F05F0546002092469B46884606468C
:1001D000814640241BE0284641464746224600F01F
:1001E00041F853465A46C01A914110D31146184659
:1001F000224600F028F82D1A67EB01084F462246E8
:100200000120002100F01FF817EB00094E41201ECD
:10021000A4F10104DFDC484631462A464346BDE8E6
:10022000F09FD2B201E000F8012B491EFBD27047CB
:100230000022F6E710B513460A4604461946FFF7B2
:10024000F0FF204610BD202A04DB203A00FA02F11C
:10025000002070479140C2F1200320FA03F31943B4
:1002600090407047202A04DB203A21FA02F0002156
:10027000704721FA02F3D040C2F1200291400843B6
:1002800019467047064C074D06E0E06840F0010350
:1002900094E8070098471034AC42F6D3FFF778FF94
:1002A0007C2B00089C2B000870B58D1810F8014BB2
:1002B00014F0030201D110F8012B231106D110F81C
:1002C000013B03E010F8016B01F8016B521EF9D1FC
:1002D000ABB110F8012B04F00C048A1A0C2C03D0DB
:1002E000A2EB84129B1C08E010F8014BA2EB042245
:1002F000F8E712F8014B01F8014B5B1EF9D5A94252
:10030000D4D3002070BD70B514460D46064608E0F3
:100310003046711C8EB200F007F8641E05F8010B20
:10032000A4B2002CF4D170BD70B5044601F06CFC91
:10033000250AA02000EB4500C0B201F02DFC01F021
:10034000AFFCE0B201F028FC01F0AAFC01F05CFC7B
:10035000A12000EB4500C0B201F01EFC01F0A0FCA2
:10036000002001F0E1FB044601F074FC204670BD62
:10037000FEE7000010B54FF6FF72084B09E000BF22
:1003800010F8014B84EA1224E4B233F8144084EAF2
:100390000222491E89B2F3D290B210BD044000205F
:1003A000704744F61F6303E01946491E89B2FCD228
:1003B000401E80B2F8D2704703E01321491E89B273
:1003C000FCD2401E80B2F8D2704772B6FEE7000041
:1003D000002229B101291AD002291BD04FF4407202
:1003E0000E490B6823F440730B600B6813430B60DA
:1003F0000A6822F0F8020A600A68022303EBC000D0
:1004000002430A60086840F48030086070474FF487
:100410008072E5E74FF40072E2E70000103C024012
:100420001348016889050FD5016821F40071016046
:10043000016841F400610160016821F4006101601C
:10044000016841F400710160016849050FD5016838
:1004500021F480610160016841F48051016001680C
:1004600021F480510160016841F4806101607047AE
:10047000003C024008490A6822F440720A600A6897
:1004800042F004020A600A684FF4803343EA002015
:1004900002430A6070470000103C0240064A13689D
:1004A00023F44073136013681360136843F001036F
:1004B0001360017070470000103C0240094910B5FC
:1004C0000C6824F440740C600C6844F440740C60B4
:1004D0000C6844F001040C600260BFF36F8F43604E
:1004E00010BD0000103C0240074A136823F440731B
:1004F0001360136843F480731360136843F00103BF
:100500001360018070470000103C0240074A1368E6
:1005100023F440731360136843F40073136013688B
:1005200043F001031360016070470000103C02407B
:1005300017490868C206174805D5C26942F010027B
:10054000C26110220A600A68920605D5C26942F0AB
:100550000802C26120220A600A68520605D5C269F3
:1005600042F00402C26140220A600A68120605D500
:10057000C26942F00202C26180220A600A689207E0
:1005800005D5C26942F02002C261022008607047AE
:100590000C3C0240185F002070B511490446002051
:1005A000C86100F07FFA06460E4D09E0601C07D0D6
:1005B00024B100F077FA801BA04201D9032070BD5E
:1005C0002868C003F2D42868C00701D00120286041
:1005D000286810F0F200F2D0FFF7AAFF012070BDEA
:1005E000185F00200C3C024090F83510022903D01F
:1005F0008021416501207047052180F83510006891
:10060000016821F001010160002070472DE9F047E9
:10061000044622480F46017E01290AD00121804666
:1006200001764CF250394846FFF7B6FF020003D07E
:100630002FE00220BDE8F0874FF0FF3038602068DF
:10064000174D012801D0A6681CE0207C6168FFF7E7
:1006500011FF4846FFF7A0FF0246286820F004007B
:10066000286014E0217C3046FFF7B2FE4846FFF7D1
:1006700093FF0200286820F0FA00286001D03E6055
:1006800005E0761CD4E902100844B042EAD8FFF72E
:10069000C7FE002188F818101046CBE7185F00202D
:1006A000103C02400348016841F000410160002015
:1006B00070470000103C02402DE9F0471B4E0546F4
:1006C0001446307E1F468946012808D00120307626
:1006D0004CF250384046FFF75FFF18B114E002209B
:1006E000BDE8F0879DB1012D16D0022D19D022460C
:1006F0003B464846FFF7E2FE4046FFF74DFF0C49F8
:100700000A6822F001020A6000213176E8E7E1B2CE
:100710004846FFF7C3FEEFE7A1B24846FFF7E4FE05
:10072000EAE721464846FFF7F1FEE5E7185F0020BB
:10073000103C0240074900200A68002A09DA054AED
:10074000054B0C3A1360054B13600968002900DA69
:1007500001207047103C024023016745AB89EFCD73
:100760002DE9F04F0022DFF838B101264FF00F09D4
:1007700006FA02F401EA0403A3427DD122F0030742
:100780005F44D7F8088895074FEA157C09FA0CFAF8
:100790000AEA0805DFF80C81404502D14FF0000855
:1007A00032E0DFF80481404502D14FF001082BE030
:1007B000DFF8F880404502D14FF0020824E0DFF86E
:1007C000F080404502D14FF003081DE0DFF8E480DF
:1007D000404502D14FF0040816E0DFF8DC804045C8
:1007E00002D14FF005080FE0DFF8D080404502D17C
:1007F0004FF0060808E0DFF8C880404502D14FF00E
:10080000070801E04FF0080808FA0CF8A84522D1C3
:100810002C4DD5F800C02CEA030CC5F800C005F13A
:10082000040CDCF800509D43CCF800500CF104059A
:10083000D5F800C02CEA030CC5F800C02D1DD5F872
:1008400000C02CEA030CC5F800C0D7F8085825EA08
:100850000A05C7F80858056857000323BB409D43A5
:100860000560D50800EB8505D5F820C057074FEA8D
:10087000D76809FA08F700E00CE02CEA070CC5F885
:1008800020C0C5689D43C5604568A5434560846830
:100890009C438460521C102AFFF46AAFBDE8F08FBD
:1008A0000030014000000240000402400008024005
:1008B000000C0240001002400014024000180240E8
:1008C000001C0240003C01402DE9F84F00224FF08F
:1008D000010803254FF00F0E0B6808FA02F42340BD
:1008E000A3426ED14E68012E05D0022E03D0112EE8
:1008F00001D0122E12D186684FEA420C05FA0CF78D
:10090000BE43CF6807FA0CF7374387604668A643B3
:100910000C79C4F30014944034434460C668570013
:1009200005FA07FC8C6826EA0C06BC403443C46018
:100930004C68022C01D0122C13D1D40800EB840493
:10094000A346D4F8209054074FEAD46A0EFA0AF668
:1009500029EA06090E6906FA0AF646EA0906CBF8FC
:10096000206006680C7926EA0C0604F00304BC40FB
:10097000344304604C68E40065D5364C266846F480
:1009800080462660246822F0030604F48044009424
:10099000314C3444A446D4F808489607370F0EFA71
:1009A00007F6B4432D4EB04201D1002624E02C4E70
:1009B000B04201D101261FE02A4EB04202D10226E8
:1009C0001AE040E0284EB04201D1032614E0274E41
:1009D000B04201D104260FE0254EB04201D10526D8
:1009E0000AE0244EB04201D1062605E0224EB04274
:1009F00001D1072600E00826BE402643CCF808684F
:100A00001E4E34684F689C43FF0300D51C4334607E
:100A10001A4C241D26684F689E43BF0300D51E4311
:100A20002660164E083634684F689C43FF0200D596
:100A30001C433460114E0C3634684F689C43BF022F
:100A400000D51C433460521C102AFFF445AFBDE8AA
:100A5000F88F00004438024000300140000002409E
:100A60000004024000080240000C02400010024056
:100A70000014024000180240001C0240003C0140EB
:100A80000069084000D001207047426931EA020243
:100A900000D10904816170470AB18161704709047E
:100AA000FBE700000148806870470000104200200A
:100AB000024881680278114481607047104200202A
:100AC0000B4810B5016841F400710160016841F400
:100AD00080610160016841F480710160032000F0D1
:100AE0007FF80F2000F006F800F024F8002010BD79
:100AF000003C024070B50D4D04464FF47A712878E1
:100B0000B1FBF0F00A490968B1FBF0F000F03FFCDE
:100B100048B9102C07D200222146501E00F040F8A0
:100B200000206C6070BD012070BD000010420020EC
:100B30001C4200200A4808B5016841F48041016068
:100B4000006800F4804000900548001F016841F0F3
:100B500080510160006800F08050009008BD0000E6
:100B60004438024000280DDB00F01F0201219140B3
:100B70004009800000F1E020C0F88011BFF34F8FE2
:100B8000BFF36F8F7047002809DB00F01F020121BF
:100B900091404009800000F1E020C0F8001170474A
:100BA000F0B40E4B1B680C46C3F30223C3F10705D8
:100BB000042D00D90425191D072901D2002300E0C6
:100BC000DB1E012606FA05F1491E214099409E4090
:100BD000761E16403143F0BC01F087BE0CED00E0FC
:100BE000064900F0070208684FF6FF03184040EA84
:100BF0000220034A10430860704700000CED00E03B
:100C00000000FA052DE9F843054600684FF0010998
:100C1000C1074FF0000601D1400727D5DFF80C814E
:100C2000C8F86860FFF73EFF0746414C05E000BF8B
:100C3000FFF738FFC01B022857D820680001F7D4FF
:100C400068688101287A41EA007039498431086076
:100C5000C8F86890FFF726FF074604E0FFF722FF79
:100C6000C01B022841D820680001F7D528788007EA
:100C700052D52F484030016841F080510160006832
:100C80002C4C00F080500090206840F48070206070
:100C9000FFF708FF074604E0FFF704FFC01B022828
:100CA00023D82068C005F7D5214C7034206810F493
:100CB000407020D0A98901F4407181421BD0206886
:100CC0001D4920F44070C1F800900E60206020683B
:100CD000C00710D0FFF7E6FE064641F2883707E06E
:100CE000FFF7E0FE801BB84202D90320BDE8F8837D
:100CF00020688007F4D5E9680D48C1F30122083067
:100D0000032A0BD0016821F4F81101602068A98939
:100D1000C1F30B01084320600020E7E70268074B9E
:100D200022F4F81219400A430260EFE7000047423C
:100D30000038024000700040400E4742FFFCFF0FA9
:100D40002DE9F0470E46050065D0DFF81481D8F88C
:100D50000000F7B200F00F00B04207D288F8007030
:100D6000D8F8000000F00F00B04254D128683D4C84
:100D7000810712D5400703D5206840F4E050206079
:100D80002878000703D5206840F460402060206880
:100D9000A96820F0F000084320602878C0072DD013
:100DA000304968680839012812D0022813D0032876
:100DB00011D00968890700292DDA216821F0030183
:100DC00001432160FFF76EFE814641F2883A0EE052
:100DD00009688903EFE709688901ECE7FFF762FE1C
:100DE000A0EB0901514502D90320BDE8F087206836
:100DF000696800F00C00B0EB810FEFD1D8F800105B
:100E0000404601F00F01B14207D90770006800F0B9
:100E10000F00B04201D00120E7E72878400705D550
:100E20002068E96820F4E050084320602878000733
:100E300006D52068296920F4604040EAC10020609E
:100E400000F038F82168084AC1F30311515CC8402A
:100E50000649086006480068FFF74CFE0020C4E71A
:100E6000003C024008380240642B00081C4200206D
:100E7000144200200448054900680968044AC1F387
:100E80008221515CC84070471C4200200838024053
:100E9000742B00080448054900680968044AC1F336
:100EA0004231515CC84070471C4200200838024063
:100EB000742B0008154810B5006810F00C02144897
:100EC00013D01449042A0FD0082A0ED10F4C241F26
:100ED0002268236802F03F025B0207D52068C0F356
:100EE0008810A0FB010106E0084610BD2168C1F38F
:100EF0008811A1FB00010023FFF762F92168C1F30B
:100F00000141491C4900B0FBF1F010BD0838024016
:100F10000024F400001BB7002DE9F84F04006ED048
:100F20002078DFF83C93C007A9F104054AD009F105
:100F300004000168C1F38101012908D00068C0F3F1
:100F4000810002280AD1D9F80000400206D528689D
:100F5000800337D560680028E1D033E060684FF443
:100F60008036B04203D1286840F4803009E0B0F503
:100F7000A02F28680CD020F480302860286820F446
:100F800080202860606880B1FFF78CFD074608E08C
:100F900040F480202860E6E7FFF784FDC01BB042E4
:100FA00073D228688003F7D50CE0FFF77BFD074676
:100FB00005E000BFFFF776FDC01BB042F0D2286805
:100FC0008003F7D42078DFF89C8280074FF0000A76
:100FD0003ED5A348001D016811F00C0F08D0006831
:100FE000C0F3810002280BD1D9F80000400207D4D9
:100FF0002868800716D5E068012800D112E02BE1AF
:10100000E068B8B10120C8F80000FFF74BFD0646C4
:1010100005E000BFFFF746FD801B022835D8286891
:101020008007F7D52868216920F0F80040EAC10060
:1010300028600DE0C8F800A0FFF734FD064604E084
:10104000FFF730FD801B02281FD828688007F7D4DF
:101050002078000722D5824E83486169703671B1CD
:1010600001210160FFF71EFD074604E0FFF71AFDAE
:10107000C01B022809D830688007F7D50EE0C0F8F9
:1010800000A0FFF70FFD074605E082E0FFF70AFD2D
:10109000C01B02287DD830688007F7D4207840072D
:1010A00068D5DFF8BCB100270BF13C0BDBF8000082
:1010B000C0000BD4DBF8001041F08051CBF80010D9
:1010C000DBF80000012700F080500090674E306888
:1010D000C00510D4306840F480703060FFF7E2FC47
:1010E000009005E0FFF7DEFC0099401A022850D876
:1010F0003068C005F6D55A4EA0686C3601280FD06E
:101100000528306810D020F001003060306820F0F1
:1011100004003060A068B8B1FFF7C4FC00900FE095
:10112000306840F00100F4E740F004003060F7E779
:10113000FFF7B8FC0099411A41F28830814266D825
:1011400030688007F4D50EE0FFF7ACFC009007E0B4
:10115000FFF7A8FC0099411A41F28830814256D825
:1011600030688007F4D42FB1DBF8001021F08051F3
:10117000CBF80010A069C8B33949091D0968C1F34B
:10118000810102294AD00228504607D0C8F86000E1
:1011900000E03CE0FFF786FC04463BE04746C8F829
:1011A0006000FFF77FFC064605E000BFFFF77AFC12
:1011B000801B02282BD828688001F7D4D4E90701C6
:1011C0000843A16A2A4A490802EB0141626A41EADE
:1011D0008211084394F82C1040EA0161C9F800100C
:1011E00001203866FFF75EFC044606E036E000BFEB
:1011F000FFF758FC001B022809D828688001F7D5A2
:101200002CE000BFFFF74EFC001B022802D9032090
:10121000BDE8F88F28688001F4D41FE00128F7D0DA
:10122000D9F80000E26900F48001914214D1226AE9
:1012300000F03F0191420FD147F6C071626A014050
:10124000914209D1A26A00F44031914204D1E16A8D
:1012500000F07060884201D00120D9E70020D7E774
:101260000438024000004742800E474200700040B0
:101270000000FFFF70B5040002D0607F10B106E0EF
:10128000012070BD00202077204600F049F80220A0
:1012900060772168CA20486221685320486220464E
:1012A00000F01EFEFF25042618BB206881681B4A3B
:1012B000114081602168886862681043D4E9042382
:1012C0001A43104388602168E0680861206801695A
:1012D000228941EA024101612068C16821F0800150
:1012E000C16020688068800607D4204600F034F88A
:1012F00018B1206845626677C2E72068016C21F466
:10130000802101642068016CA26911430164206896
:10131000456201206077002070BD0000BFFF8FFF95
:101320001FB50021009101910291039100680849C5
:1013300088420CD102200090000203906846FFF71B
:1013400061FC08B1FFF741F80249012008601FBDA8
:10135000002800403C0E474270B504460068C16852
:1013600021F0A001C160FFF79DFB05464FF47A769E
:1013700007E000BFFFF796FB401BB04201D90320F6
:1013800070BD2068C0688006F4D5002070BD10B51F
:10139000401EB0F1807F01D3012010BD4FF0E0244A
:1013A00060610F21601701F0A0FA0020A061072002
:1013B0002061002010BD70477047000070B590F8A4
:1013C0003C20012A32D0012480F83C40022280F8DF
:1013D0003D2003685A689D6822F070060A6832430F
:1013E0005A60134B02689A4214D0B2F1804F11D068
:1013F000104B9A420ED0104B9A420BD00F4B9A4290
:1014000008D00F4B9A4205D00E4B9A4202D00E4B99
:101410009A4204D1496825F080031943916080F80D
:101420003D40002180F83C10084670BD022070BD90
:10143000000001400004004000080040000C004093
:1014400000040140004001400018004010B50400B5
:1014500003D094F83D0010B107E0012010BD00203A
:1014600084F83C00204600F01FF8022084F83D007C
:10147000211D206800F022FE012084F83D0000209C
:1014800010BD000000680649884207D10548016880
:1014900021F0010101601920FFF764BB70470000D3
:1014A000000001404438024008B500680B498842FA
:1014B00012D10B48016841F001010160006800226F
:1014C00000F00100009006211920FFF769FBBDE83C
:1014D00008401920FFF757BB08BD0000000001407D
:1014E000443802400168CA6842F00102CA600068DC
:1014F000816801F00701062903D0016841F001016C
:1015000001600020704770B5044690F83C00012847
:1015100017D0012584F83C50022084F83D00206853
:10152000826822F0770222F47F42826008685028A5
:1015300030D00DDC20284DD005DC98B310283BD1ED
:1015400048E0022070BD302844D0402834D139E032
:10155000602828D0702806D0B0F5805F2CD0B0F578
:10156000005F29D10AE0CB68D1E90121206800F0B1
:1015700009FE2068816841F0770109E0CB68D1E974
:101580000121206800F0FEFD2068816841F480415F
:10159000816011E0CA684968206800F005FE5021AA
:1015A000206807E016E0CA684968206800F00DFE70
:1015B0006021206800F0F0FD84F83D50002084F8A0
:1015C0003C0070BDCA684968206800F0EDFD40210C
:1015D0002068EFE7226801461046EBE7704770B5D8
:1015E0000446006801694FF00005C943890715D416
:1015F000C168C943890711D4E91E01610120207720
:10160000206880698007204602D0FFF7E7FF04E0EA
:1016100000F098F8204600F096F8257720680169D8
:10162000C943490717D4C168C943490713D46FF0A8
:1016300004010161022020772068806910F4407F56
:10164000204602D0FFF7CAFF04E000F07BF82046F6
:1016500000F079F8257720680169C943090716D495
:10166000C168C943090712D46FF008010161042061
:1016700020772068C0698007204602D0FFF7AEFFC0
:1016800004E000F05FF8204600F05DF82577206860
:101690000169C943C90617D4C168C943C90613D42F
:1016A0006FF010010161082020772068C06910F4F4
:1016B000407F204602D0FFF791FF04E000F042F89F
:1016C000204600F040F8257720680169C943C90722
:1016D00008D1C168C943C90704D1891E01612046E8
:1016E00000F032F820680169C943090609D4C168CD
:1016F000C943090605D46FF0800101612046FFF758
:101700005AFE20680169C943490609D4C168C94322
:10171000490605D46FF040010161204600F015F83C
:1017200020680169C94389060BD4C168C943890689
:1017300007D46FF0200101612046BDE87040FFF73B
:101740003BBE70BD704770477047704770470000E0
:1017500070B5026804461068D168536910F00F0F25
:1017600053D003F0010501F490762E435FD0C207F9
:1017700005D0CA0503D5E26B42F00102E2634207DD
:1017800005D5DA0703D0E26B42F00202E26382077A
:1017900005D5DA0703D0E26B42F00402E2630207E8
:1017A00007D501F020022A4303D0E26B42F0080281
:1017B000E263E26B002A34D0800604D5880602D5A5
:1017C000204600F01BFF20684069E16BC0F38010E9
:1017D00001F008010143204624D000F001FF2068F9
:1017E000416949061AD5416921F040014161606BA8
:1017F000A0B11B490165606BFEF7F6FE002810D012
:10180000606B016DBDE87040084783060FD58B06FD
:101810000DD52046BDE8704000F0F0BE2046FFF731
:1018200095FF70BDFFF792FF0020E06370BD0306D7
:1018300006D50B0604D52046BDE8704000F0BEBFBB
:101840004006F3D54806F1D5D168204621F0400185
:10185000D160202184F8391000F017F970BD000024
:10186000D125000870B5040004D094F83900002593
:1018700010B106E0012070BD84F83850204600F019
:101880003FF8242084F839002068C16821F4005111
:10189000C160204600F0FEFE2068016921F49041FD
:1018A00001612068416921F02A0141612068C16815
:1018B00041F40051C160E563202084F8390084F8C8
:1018C0003A00002070BD000010B500680949884248
:1018D0000ED10948016821F0100101604FF4C06188
:1018E0000648FEF73DFFBDE810402520FFF73AB956
:1018F00010BD0000001001404438024000000240CA
:1019000010B586B0044614216846FEF791FC1849CC
:101910002068884229D117480021026842F010024D
:101920000260006800F01000059012481438026848
:1019300042F001020260006800F0010005904FF4DF
:10194000C06000900220CDE9010103200390072030
:10195000049069460848FEF7B7FF002205212520BC
:10196000FFF71EF92520FFF70EF906B010BD0000A5
:1019700000100140443802400000024090F83A3024
:10198000202B22D1F9B1F2B190F83830012B1CD0C4
:1019900081628285C2850021C163222280F83A20BB
:1019A00080F838100168CA6842F48072CA60016821
:1019B0004A6942F001024A610068C16841F02001B1
:1019C000C1600020704701207047022070477047B7
:1019D0002DE9F843044690F839001F4616460D4697
:1019E000202850D1B5B1AEB194F8380001284AD0C2
:1019F000012084F838004FF00008C4F83C80212012
:101A000084F83900FFF74EF8A6848146E68484F80E
:101A1000388026E00120BDE8F883E08C401EE08499
:101A2000A0684B46B0F5805F4FF000024FF0800198
:101A30002046009703D000F0F2FEE8B90DE000F078
:101A4000EEFEC8B928882168C0F308004860206904
:101A500008B16D1C05E0AD1C03E0216815F8010B11
:101A60004860E08C0028D8D14B4600224021204617
:101A7000009700F0D4FE08B10320CCE7202084F8C2
:101A800039000020C7E70220C5E77047FEE70000E5
:101A900070B5114D4FF48074002221462846FEF7A0
:101AA000FBFF002000F03AFA002261002846FEF712
:101AB000F3FF0220FEF780FC012221462846FEF7B4
:101AC000EBFF0220FEF778FC21462846BDE8704077
:101AD0000022FEF7E1BF00000004024070B5114D86
:101AE0004FF48074002221462846FEF7D5FF0020DF
:101AF00000F014FA012251022846FEF7CDFF022021
:101B0000FEF75AFC012221462846FEF7C5FF0220B7
:101B1000FEF752FC21462846BDE870400022FEF741
:101B2000BBBF0000000402402DE9F04780460024BE
:101B3000012000F0F3F9174F00254FF480764FF4A1
:101B40000079002231463846FEF7A6FF0220FEF754
:101B500033FC012231463846FEF79EFF6006040E34
:101B600049463846FEF78CFF08B1641CE4B20120F8
:101B7000FEF722FC6D1CEDB2082DE2D3B8F1000F88
:101B800004D0FFF785FF2046BDE8F087FFF7A6FFEA
:101B9000F9E70000000402402DE9F041054600206D
:101BA00000F0BCF9174F4FF48076002231463846DA
:101BB000FEF772FF00244FF40078280601D40022BB
:101BC00000E0012241463846FEF766FF6806050E32
:101BD0000220FEF7F1FB012231463846FEF75CFF9A
:101BE0000220FEF7E9FB002231463846FEF754FF9B
:101BF0000220FEF7E1FB641CE4B2082CDDD3BDE853
:101C0000F08100000004024070B5002000F086F969
:101C100001220F4D540221462846FEF73DFF0122C6
:101C2000160231462846FEF737FF0420FEF7C4FBB4
:101C3000002221462846FEF72FFF0420FEF7BCFBBA
:101C400031462846BDE870400022FEF725BF00005F
:101C50000004024070B5002000F060F90F4D4FF411
:101C60008074002221462846FEF716FF66000022F7
:101C700031462846FEF710FF0420FEF79DFB0122A7
:101C800021462846FEF708FF012231462846FEF786
:101C900003FFBDE870400420FEF78EBB0004024045
:101CA0002DE9F0410024012000F038F90122144D03
:101CB000560231462846FEF7EFFE0120FEF77CFB78
:101CC0000122170239462846FEF7E6FE0120FEF7FC
:101CD00073FB08E0641CE4B2FA2C04D9FFF7BAFFE6
:101CE0000120BDE8F08131462846FEF7C9FE0028F4
:101CF000F0D1002239462846FEF7CEFE0020F0E75C
:101D0000000402402DE9F04387B014216846FEF735
:101D10008FFA38480024016841F010010160016821
:101D200001F010010591016841F080010160016836
:101D300001F080010591016841F001010160016835
:101D400001F001010591016841F0020101600068A4
:101D5000294F00F002000590002204213846FEF7CA
:101D60009BFEDFF8989000224FF440714846FEF742
:101D700093FE012280214846FEF78EFEDFF8808028
:101D80004FF40045002229464046FEF785FE042018
:101D900000900126CDE90164694638460394FEF7B8
:101DA00093FDCDE900560225CDE90254694640462F
:101DB000FEF78AFD80200090CDE90165694648461E
:101DC0000395FEF781FDE801CDE900066946484626
:101DD000CDE90245FEF778FD2802009001AA112006
:101DE00082E8310069464846FEF76EFD07B0BDE85F
:101DF000F08300003038024000100240000402402E
:101E0000000002400B4810B50949016000217F2203
:101E1000C0E90112FF22C0E9032141618161FFF79E
:101E200029FA002803D0BDE81040FEF7CEBA10BD55
:101E3000002800402C5A002010B586B00024174816
:101E4000009401940294039404941349059401604E
:101E5000A721C0E9011442F20F71C0E903144461E3
:101E60008461FFF7F3FA08B1FEF7AFFA4FF4805040
:101E7000009069460948FFF746FB08B1FEF7A5FA4E
:101E8000049404A905480594FFF798FA002801D0A6
:101E9000FEF79BFA06B010BD000001404C5A00202E
:101EA0000C4810B50A4901604FF4E131416000214E
:101EB00081600C22C160C0E904128161C161FFF739
:101EC000D1FC002803D0BDE81040FEF77EBA10BD5B
:101ED000001001408C5A0020FEE7FEE7704700002A
:101EE00070B504460068C168490614D44FF0FF314C
:101EF000C160FEF7D7FD05464FF47A7607E000BFD4
:101F0000FEF7D0FD401BB04201D9032070BD206810
:101F1000C0684006F4D5002070BD000010B586B042
:101F2000044614216846FEF783F94FF400700090D0
:101F30005CB10020019001200290022003906946CC
:101F40000348FEF7C1FC06B010BD1120F2E7000007
:101F5000000402401C49884201D2002070471B49FE
:101F6000884201D2012070471949884201D20220DB
:101F700070471849884201D20320704716498842A9
:101F800001D2042070471549884201D205207047CC
:101F90001349884201D2062070471249884201D273
:101FA000072070471049884201D2082070470F4926
:101FB000884201D2092070470D49884201D20A2087
:101FC00070470B20704700000040000800800008A8
:101FD00000C000080000010800000208000004081A
:101FE000000006080000080800000A0800000C08AD
:101FF00000000E087047000002484188491C4180DB
:10200000FEF756BD0A42002030B593B03021684635
:10201000FEF70EF914210CA8FEF70AF91B4800255B
:10202000016841F080510160006800F0805011901B
:102030001748016841F4804101600068022400F4FF
:1020400080401190092000904FF4803001900120D1
:10205000CDE905048005079006200890A820CDE969
:10206000090404200B906846FEF756FF0CA90F20C8
:1020700081E831004FF4A0500F90E002109005214C
:102080000CA8FEF75DFE13B030BD000040380240E2
:10209000007000400548016841F470010160034987
:1020A0004FF00060803908607047000088ED00E064
:1020B0000148FFF794BA00004C5A0020F0B50268BE
:1020C000254C264D264E274F274B4FF0804CA042E3
:1020D00009D0604507D0A84205D0B04203D0B8422D
:1020E00001D0984204D122F0700E4A6842EA0E02F2
:1020F000A0421BD0604519D0A84217D0B04215D0DD
:10210000B84213D0984211D0184DA8420ED0184DA5
:10211000A8420BD0174DA84208D0174DA84205D0B1
:10212000164DA84202D0164DA84203D122F44075A4
:10213000CA682A434D6922F080022A4302608A68F5
:10214000C2620A688262A04201D0984201D1096944
:10215000016301214161F0BD000001400004004025
:1021600000080040000C0040000401400040014015
:10217000004401400048014000180040001C00409D
:102180000020004010B5846842EA032224F47F4412
:102190000A432243826010BD826822F070020A4323
:1021A00042F007018160704710B5036A046A24F0A9
:1021B00001040462846924F0F00444EA021423F068
:1021C0000A020A438461026210BD10B5036A23F05B
:1021D000100303628369046A23F4704343EA023202
:1021E00024F0A00343EA01118261016210BD0000E6
:1021F0002DE9F04FADF6244D14210DF50060FEF7EA
:1022000017F855208DF80008E44CAA208DF8010835
:10221000A0780227BB2204210DF500668DF8020884
:102220004FF0030AA12809D00025DFF874B3DFF8C6
:102230007493B12826D0032870D0A6E110208DF821
:1022400003080420D84B00215C5C3454401C491C1A
:10225000C9B2C0B20829F7D33754401CC0B20E210E
:102260003254401CC4B23046FEF784F8000A3055A0
:10227000641CE4B20E210DF50060FEF77BF83055CA
:10228000102243E008208DF80308884605268DF8C3
:1022900004283146C148FEF76DF86179B1EB102F83
:1022A00038D10521BD48FEF765F8A179C0B2884252
:1022B00030D1E078072802D08DF8058815E0D9F8EC
:1022C00000004C46401C0ED0B848FFF7DBF8B84879
:1022D000FFF7FAFACBF8005072B685F31188204662
:1022E00000F0B6FB02E08DF80578062606210DF514
:1022F0000060FEF73FF80DF50064000AA0550621C6
:102300002046761CFEF736F8A05508220DF5006130
:10231000A84838E18DF805A8E7E7FFE70720DFF8D0
:1023200098828DF80308E17888F80010217988F800
:102330000110E279A379C80702EB0322A8F8042070
:1023400073D04FF400619D48FDF772FF44460026AC
:10235000DFF86C8209E03044827A98488255FEF7B3
:1023600009F8761CA8F80000B6B2A1888B488E4206
:10237000F1D3427A007A02EB00229148008882422F
:102380007BD163782078834278D100208AB2EE46F0
:102390008A4E05E036F810802EF81080401C80B27E
:1023A000B0EB520FF6D34A0858084E4609EBC0204E
:1023B000714600F0C7FA6420FDF7F3FF61788148A9
:1023C00000EB8120A188FDF7D5FF7D498880098831
:1023D00081427DD13068401C7BD08DF804580521A6
:1023E0000DF50060FDF7C6FF000A8DF80508052110
:1023F0000DF50060FDF7BEFF8DF8060807220DF50C
:1024000000616C4800F0A2FB0A20FDF7CAFF674894
:10241000FFF738F86648FFF757FACBF8005072B666
:1024200085F3118830468CE0FFE744460026DFF84C
:1024300090810FE0614A30443244807A82F800048F
:102440000DF6140290551046FDF794FF761CA8F87F
:102450000200B6B2A18851488E42EBD3427A007A8C
:1024600002EB0022B8F80200824276D18AB2002044
:102470006B46524E02F5806208E06EE067E000BFF6
:1024800036F810C023F810C0401C80B2B0EB520FD9
:10249000F6D3607801F580614B4E4A08400806EBA0
:1024A000C020194600F04EFA6420FDF77AFF6078EC
:1024B000711406EB8020FDF75DFFA8F80400617839
:1024C0004048464600EB8120A188FDF753FF01E01C
:1024D00040E039E0F0803188B28891423AD1718889
:1024E000814237D160782178884230D1D9F8000014
:1024F0004C46401C28D08DF8045805210DF500608D
:10250000FDF738FF000A8DF8050805210DF500607C
:10251000FDF730FF8DF8060807220DF500612B4806
:1025200000F014FB0A20FDF73CFF2048FEF7AAFF4D
:102530001F48FFF7C9F9CBF8005072B685F3118830
:10254000204600F085FA0BE08DF804A808E08DF82D
:10255000045805E08DF8047802E001208DF80408A5
:1025600005210DF50060FDF705FF000A8DF805084F
:1025700005210DF50060FDF7FDFE8DF80608072228
:102580000DF50061114800F0E1FA40F24C410348BA
:10259000FDF74EFE0DF6244DBDE8F08FCC5A00201D
:1025A0003C0E4742000001085C2B00084C5A0020FA
:1025B0008C5A002000480040044200202052002095
:1025C000205A002000FC000800F80008001001401C
:1025D00010B5806B0021C185C184FFF7B7F810BD2D
:1025E0000168CA6822F49072CA6001684A6922F0E0
:1025F00001024A61202180F83A10704710B590F826
:102600003A10222901D0022010BD8168B1F5805F07
:1026100011D00169002901681FD0496801F07F03CA
:10262000816A4A1C82620B70C18D491E0904090C23
:10263000C18518D02BE00269816A002A02685268BD
:1026400005D0D2B20A80816A491C8162ECE7C2F3EC
:1026500008020A80816A891CF7E74A68816A4B1C74
:1026600083620A70E0E70168CA6822F02002CA604B
:102670000168CA6822F48072CA6001684A6922F05F
:1026800001024A61202180F83A10FFF7A0F90020EA
:1026900010BD00002DE9F041044600680169E268C0
:1026A00021F44051114301612169A068E2690843A6
:1026B0006169114308432168CA6849F20C639A436F
:1026C0000243CA6020684169A26921F44071114344
:1026D0004161E069192764253226B0F5004F354A7B
:1026E000354920684FF0000806D0884201D090425A
:1026F00036D1FEF7CFFB35E0884201D0904202D1BF
:10270000FEF7C8FB01E0FEF7B5FB61684A18A0FBC5
:10271000070148EB0803FDF753FD0146B0FBF5F058
:102720000201B1FBF5F06FF01803584301EB800094
:1027300006EBC000B0FBF5F000F0F80002EB400241
:10274000B1FBF5F0584301EB800006EBC000B0FB95
:10275000F5F000F00700216810448860BDE8F081C2
:10276000FEF788FB61688B0F8A00A0FB0701FDF76D
:1027700027FD0146B0FBF5F06FF01802504301EB66
:10278000800006EB0010B0FBF5F000F0F002B1FBAA
:10279000F5F002EB0012B1FBF5F06FF018035843AF
:1027A00001EB800006EB0010B0FBF5F000F00F002D
:1027B000D1E70000001401400010014090F83910EA
:1027C000212901D0022070478168B1F5805F016A3C
:1027D0000BD04A1C0262026809785160C18C491E04
:1027E0000904090CC1840ED017E009880268C1F3FE
:1027F0000801516001690029016A02D0491C016287
:10280000ECE7891CFBE70168CA6822F08002CA6015
:102810000068C16841F04001C160002070472DE9A7
:10282000F041984617460E460446069D1DE0681C7A
:102830001BD02DB1FEF736F9A0EB0800A84214D941
:102840002068C16821F4D071C1602068416921F01D
:1028500001014161202084F8390084F83A00002009
:1028600084F838000320BDE8F0812068006836EA6B
:10287000000004D00020B842D9D00020F3E70120A6
:10288000F9E7000038B5154C20680168C943C9064E
:102890001ED4C168C9061BD5016840680090104865
:1028A000104940F24C4585800A78AA2A04D149781B
:1028B000552901D101210170FFF7F2FA2068C168A2
:1028C00041F01001C1602A4606490448FFF756F856
:1028D000BDE838400148FEF73BBF00008C5A00209D
:1028E0000A420020CC5A0020FEE70907090E002802
:1028F00004DB00F1E02080F80014704700F00F00C6
:1029000000F1E02080F8141D704702E008C8121F93
:1029100008C1002AFAD170477047002001E001C1C8
:10292000121F002AFBD1704710B5002306E000BF3C
:1029300030F8024B21F813405B1C9BB29342F7D353
:1029400010BD00002DE9F04FA0F1006487B01546DE
:1029500089468346B4F1005F5ED2FDF7EBFEE70ADD
:10296000C4F34906C6F58064A54200D82C46DFF8BA
:10297000B08000BF4FF0006000EBC72082464FF4EC
:1029800080622749FFF7D0FF00204FF6FF7106E075
:10299000331838F813208A4203D1401C80B2A04279
:1029A000F6D3A04232D20020009001200390019083
:1029B0005846FFF7CFFA02900220049005A9684616
:1029C000FDF724FE0020424607E000BF39F8103032
:1029D0008119401C22F8113080B2A042F6D3104970
:1029E00050464FF4806200BF00F01CF8A54211D0A1
:1029F000281B09EB44090BEB440B002685B24FF46E
:102A000080647F1CA542B5D82C46B3E722464946D0
:102A10005846E9E7FDF746FE07B0BDE8F08F000035
:102A2000204200202DE9F04116460F4605460024BD
:102A30000AE000BF37F81420002329460120FDF7E3
:102A40003BFE641CA4B2AD1CB442F3D3BDE8F081DC
:102A50000168064A1140B1F1005F06D14168044A9D
:102A60001160006880F30888084770470000FE2F57
:102A700000400020FEF724F8FFF7C6FAFFF742F9FE
:102A8000FFF7DAF9FFF70CFAFFF7BCF90222570259
:102A900024493846FDF737FC0120FDF782FC214828
:102AA00000240178AA2914D04078BB2811D01E4DEB
:102AB0002868401C0DD01D48FEF7E4FC1C48FEF7BA
:102AC00003FF1C48046072B684F311882846FFF7A0
:102AD000BFFF17480068C16841F01001C16040F2B3
:102AE0004C4215491248FEF749FF1048FEF7FAFC20
:102AF000124EDFF84C80DFF84C90134D3088C82818
:102B000008D9348004214046FDF7BFFF39464846C6
:102B1000FDF7BBFF28780128F0D1FFF769FB2C7087
:102B2000ECE7000006420020000001084C5A00209B
:102B30008C5A00203C0E4742CC5A00200C42002008
:102B400000100240000C02400A4200204FF47A7349
:102B50000148FEF73DBF00008C5A00200100000133
:102B60001419041500000000000000000102030415
:102B70000607080900000000010203049C2B00085E
:102B80000040002020020000A8020008B42D000828
:102B900020420020182D00001A29000832000100F0
:102BA000FF002110422063308440A550C660E770CA
:102BB000088129914AA16BB18CC1ADD1CEE1EFF171
:102BC0003112100273325222B5529442F772D66219
:102BD000399318837BB35AA3BDD39CC3FFF3DEE3C1
:102BE0006224433420040114E664C774A444855469
:102BF0006AA54BB528850995EEE5CFF5ACC58DD511
:102C00005336722611163006D776F6669556B446B8
:102C10005BB77AA719973887DFF7FEE79DD7BCC760
:102C2000C448E5588668A778400861180228233808
:102C3000CCC9EDD98EE9AFF9488969990AA92BB9B0
:102C4000F55AD44AB77A966A711A500A333A122A58
:102C5000FDDBDCCBBFFB9EEB799B588B3BBB1AAB00
:102C6000A66C877CE44CC55C222C033C600C411CA8
:102C7000AEED8FFDECCDCDDD2AAD0BBD688D499D50
:102C8000977EB66ED55EF44E133E322E511E700EF8
:102C90009FFFBEEFDDDFFCCF1BBF3AAF599F788FA0
:102CA00000FF008891A981CAB1EBA10CD12DC14EC2
:102CB000F16FE18010A100C230E3200450254046AE
:102CC000706760B9839893FBA3DAB33DC31CD37FCD
:102CD000E35EF3B1029012F322D2323542145277FE
:102CE000625672EAB5CBA5A89589856EF54FE52C9D
:102CF000D50DC5E234C324A014810466744764244E
:102D0000540544DBA7FAB79987B8975FE77EF71DAC
:102D1000C73CD7D326F2369106B01657667676159D
:102D20004634564CD96DC90EF92FE9C899E9898AFC
:102D3000B9ABA94458654806782768C018E10882ED
:102D400038A3287DCB5CDB3FEB1EFBF98BD89BBB0C
:102D5000AB9ABB754A545A376A167AF10AD01AB33D
:102D60002A923A2EFD0FED6CDD4DCDAABD8BADE85C
:102D70009DC98D267C076C645C454CA23C832CE08D
:102D80001CC10C1FEF3EFF5DCF7CDF9BAFBABFD9EC
:102D90008FF89F176E367E554E745E932EB23ED1DD
:102DA0000E9004F01E00011A010E62100D000400C6
:042DB00024F4000007
:040000050800018965
:00000001FF
