:020000040800F2
:10000000D81F0020D5000008554300085D3C0008BB
:1000100000000000000000000000000000000000E0
:10002000000000000000000000000000358400080F
:100030000000000000000000C57800089984000856
:10004000E7000008E7000008817A0008E7000008E0
:10005000E7000008E7000008D51B0008ED1B0008BA
:10006000E7000008E7000008E7000008E7000008D4
:10007000E7000008E700000800000000E7000008B3
:1000800000000000E7000008000000000000000081
:10009000E700000800000000E7000008E700000893
:1000A0005F3C0008E7000008E7000008E7000008E0
:1000B000E700000809790008E7000008A196000899
:1000C0000348854600F002FD0048004721CD0008A6
:1000D000D81F00200448804704480047FEE7FEE799
:1000E000FEE7FEE7FEE7FEE729850008C1000008FD
:1000F00030B50B46014600202022012409E00D46C0
:10010000D5409D4205D31D469540491B2546954047
:1001100040191546521E002DF1DC30BD70B500248B
:100120002546002801DA01244042002901DA012590
:100130004942FFF7DDFFAC4200D04042002C00D026
:10014000494270BD03460B439B0703D009E008C931
:10015000121F08C0042AFAD203E00B780370401C77
:10016000491C521EF9D27047D2B201E00270401C05
:10017000491EFBD270470022F6E710B513460A4627
:1001800004461946FFF7F0FF204610BD10B50022C7
:1001900000E0521C835C8C5CA34201D1002BF8D19F
:1001A000D8B2E1B2401A10BD0321001D401E0378F1
:1001B00012021A43491EF9D510467047F8B5024697
:1001C0004A40D40F42004B0052085B089A4202D2C8
:1001D0000246084611464A0023D0C30D4A00DDB24C
:1001E000120EAD1A202D35DA49020126490AF6050C
:1001F0008A19002C00D0524220214F1B1146B940D1
:100200002A411018C20D9A4221D0002C17D0012D7E
:1002100008DCDA05801AD20F8019D207DBB200F0B1
:1002200089FBF8BDDA05801A012340001B06C018BF
:1002300080185A428018CA0F1043490007E0490845
:10024000C2071143DA05801A80194008801800F0AF
:1002500069FBF8BD61000122511A001BF7E701227A
:10026000D2075140AAE70122D2075040A6E7024632
:1002700070B54A40D30FDB0740002DD04A002AD08A
:10028000010E140E000212020919400A520A8418C3
:10029000E50104465443000A120A2E045043A419EF
:1002A0004219200CC543AA18120C0125AD03521C9B
:1002B000521912047F39240400D0521C104301D477
:1002C0004000491EC2B20C06C0092018401C40085C
:1002D000802A02D003E0002070BD400840000029C1
:1002E00000DA0020184370BD70B502464A40D50FB1
:1002F00040004A00ED0740085208002814D0002AA8
:1003000012D0C40DD30D41020120C0055202490A8A
:10031000520AE41A091812187D34914201D3641C60
:1003200000E04900002C01DA002070BD002391425A
:1003300001D3891A0343400849000028F7D1002956
:100340000AD0914202D10121C90705E0914201D2B0
:10035000012101E00121C943E005C018401900F066
:10036000E1FA70BD420005D04200120E52428A42AC
:1003700001DB00207047C90508187047F0B5074633
:100380000846584087B0C00F049048000E465900F8
:1003900040084908BC1A884105D2384631461E46F5
:1003A00017460B4602465800400810434CD0300D0B
:1003B000039040055900400D490D0590401A0290E8
:1003C000402872DA18030121000B09050843019047
:1003D00004980092002805D00199524200208841DB
:1003E00000920190029840210A1A0199009800F0A9
:1003F00065FA05460C466B4607CB00F080FAC0193B
:100400007141039A0E0D0023D71756401A467A40C1
:10041000164344D0049A002A2DD0029A012A039A46
:1004200015DC1205C01A914101263605001C7141E8
:10043000D20F059ED2070093019202962A462346C8
:1004400000F0BEFA07B0F0BD38463146FAE71605AF
:10045000224A0F46B218C01AB74101210905001CF3
:100460004F4100187F41114618187941E20F10439F
:100470006D19644113E0E2076D0815436408C20773
:100480001443039A01261205C01A91413605001C37
:100490007141CE07400830434908C01851412A46EF
:1004A000234600F080FACDE7FFE7049801224000E0
:1004B000C117121A00238B4104983146C417381A09
:1004C000A141EEE730B40124E407634030BC55E7B6
:1004D00030B40124E407614030BC4FE70000E0FF86
:1004E000F0B51FB488B00B990998002448400999C9
:1004F000C00F490049080991C0070B9900904900B5
:1005000049080B9109990898A64608431CD00B99F5
:100510000A98084318D0099801244000420D480069
:10052000410D099824050003000B204309900B9806
:100530000003000B20430B9050181C494018002268
:1005400001901446104605E0002001460DB0F0BDB4
:10055000032801DA034600E003239C46C11A0AAED1
:100560000AE05F0008ADED5B4F00F75B7D430027BD
:10057000AA187C41491C5B1E6145F2DD410004ABB9
:100580005A522104120C0A43240C401C0828DFDBB9
:10059000019802900099704601910090059B049A81
:1005A0000799069800F00CFAD0E700000DFCFFFF59
:1005B000F0B50C465C4085B0E40FE40703944C00B2
:1005C00000266408590094464908024602962243D0
:1005D00021D062460A431ED06200570D4A000E0326
:1005E0002303550D012402462C492405781B1B0BBF
:1005F000360B401823432643614600901C46501A90
:10060000B44103D30098401C009002E09218009877
:100610005B41002803DA0020014605B0F0BD002050
:10062000012109050746864611E064461D46141B54
:10063000B54106D36546521BB341744607430C438C
:10064000A646CD0740084908284392185B41054655
:100650000D43EAD11046184313D060461946504066
:100660007140084306D06046101AB34106D20122F9
:10067000002306E000220123DB0702E00122D2432F
:100680005310009874460105381C6141029C039D7B
:100690000019694100F087F9BFE70000FD03000081
:1006A00070B54B005B0803430BD04B005C0D00267C
:1006B00033466542B341D417AD1AA34102DB002093
:1006C000014670BD12053018514170BDC217C10FEF
:1006D000504010B54018CA079623002100F02AF9AF
:1006E00010BD10B500229623114600F023F910BD6D
:1006F0000EB5C217C10F5040CA0740180021054B64
:100700000293019200910A460B4600F059F903B09A
:1007100000BD0000330400000EB505490291002120
:1007200000910A460B46019100F04AF903B000BD62
:10073000330400000EB5054A0292002200921346CF
:10074000019200F03DF903B000BD00003304000049
:10075000410040020122400AD205090E80187F297B
:1007600001DA00207047962903DC9622511AC8400E
:10077000704796398840704770B5CD0F4A0009031D
:100780000123090B1B0519430B4BED070024520DE8
:100790009A4201DA002070BD074B34339A4203DCE1
:1007A0009A1A00F09BF802E00449511888402C4343
:1007B000F1D0404270BD0000FF030000CDFBFFFF01
:1007C0004A0009030123090B1B051943094B10B506
:1007D000520D9A4201DA002010BD064B34339A4282
:1007E00003DC9A1A00F07AF810BD034951188840CA
:1007F00010BD0000FF030000CDFBFFFFC20FD207BA
:10080000400040080BD0C10D0723DB01C91840028E
:100810000905400A1143C2084007114370470020F0
:1008200001467047CB0FDB07490010B54908024667
:100830000A4307D00A0D07240903E401090B121B20
:10084000002A01DC002010BDC900440F0C43C10088
:10085000E018D205801800F065F810BDF0B51FB49F
:100860000646002082B005464024019100901BE01E
:10087000019922460F46304600F030F8049A059B55
:10088000801A994110D310461946224600F016F8F6
:10089000361A8F410197224601200021009F00F067
:1008A0000DF838184D4100902046641E0028DFDC0A
:1008B000019B00982946324607B0F0BD10B5202AAA
:1008C00004DB0146203A9140002010BD91402023D6
:1008D0009C1A0346E3401943904010BD10B5202AEE
:1008E00004DB0846203AD040002110BD0B46D3401F
:1008F000D0402024A21A91400843194610BD10B5DB
:10090000202A06DBCB170846203A1041C1170B43BB
:1009100006E00B461341D0402024A21A9140084320
:10092000194610BD002904DA401C490001D14008D5
:100930004000704770B40024050C05D11024000459
:1009400002D1002921D01124050E01D10002083462
:10095000050F01D10001241D850F01D18000A41CC9
:10096000002801DB4000641C002908D020252E1B34
:100970000D46F540A14000D001212943084301065E
:100980001B1B000ADB1D02D5002070BC7047DB0575
:10099000181880180029F8DA401C4900F5D170BCFD
:1009A00040084000704710B5002B08DA0024401CB6
:1009B000614192185B411A4301D14008400010BDCB
:1009C000F0B51FB482B005460C0003D0084608F00D
:1009D00083FE02E008F080FE2030024600902146AF
:1009E0002846FFF76BFF049B059A04460F46184301
:1009F0001143084314D0184610431BD000984021DF
:100A00000A1A18460599FFF769FF05460E46009A2F
:100A100005990498FFF752FF084305D0012004E030
:100A20002046394607B0F0BD0020C11705430E43EC
:100A30002C43374300990E986305401A7905E40A60
:100A400000220C43FD0A0A3002D500200146E9E7E6
:100A50000105101969410C9C0D9D00196941FFF7B2
:100A6000A2FFDFE74A0009030123090B1B05194315
:100A70000A4B10B5520D9A4202DA0020014610BD11
:100A8000064B34339A4203DC9A1AFFF727FF10BD56
:100A9000034BD218FFF712FF10BD0000FF03000048
:100AA000CDFBFFFF10B5002904DB0124E407404221
:100AB0008C412146002B04DB1C460123DB075242FC
:100AC000A341994200D1904210BD0000064C01257F
:100AD000064E05E0E36807CC2B430C3C98471034E6
:100AE000B442F7D3FFF7F0FAA4FE0008C4FE0008F2
:100AF00070B58C180578401C6B075B0F01D103782B
:100B0000401C2A1106D10278401C03E006780E70C2
:100B1000401C491C5B1EF9D12B0705D40023521E33
:100B20000DD40B70491CFAE70378401CCB1A921CB9
:100B300003E01D780D70491C5B1C521EF9D5A142C3
:100B4000D8D3002070BD0000F0B5134887B0C26A4A
:100B500004210A43C262C06A0224084005900820AA
:100B6000012500266A46039461C20C4F6946384647
:100B700001F090F801220821384601F03AF96A465E
:100B800070C26946384601F085F8002202213846D5
:100B900001F02FF907B0F0BD00100240000800502E
:100BA000F0B587B0FFF7D0FF634D686B634908432A
:100BB0006863634E30698000800830613069C9071E
:100BC00008433061F0680A0C1043F060880BB06293
:100BD00070690722104370615A4882684B0A1A43B1
:100BE00082605948026AFF2302331A430262564860
:100BF000006A4000FBD5B068C00703D0B068400869
:100C00004000B060B0680843B06030680005FCD5B3
:100C100030680121C9020843306001F015F8B1685D
:100C200004200143B16031684907FCD5444F403787
:100C30003968B16804200143B16030684007FCD5D1
:100C4000386882B200203968401C89188AB2192895
:100C5000F9D31A211046FFF74BFA01469920C00339
:100C6000FFF746FA84B200F09FFFE96A28460425A0
:100C70002943C162C06A0095284005900320019075
:100C8000002002906946314801F004F80020B0626B
:100C9000B06A2F490843B06200F0D6FFB068002266
:100CA0002843B06030684007FCD5386881B2B0682E
:100CB0002843B06030684007FCD53868B36880B21C
:100CC0002B43B36033685B07FCD53B689B1800225D
:100CD0003D68521CEB18192AFAD30818C0181C21B9
:100CE000FFF706FA60430001000C1A4A211A50432C
:100CF000FFF7FEF907F066FD1749088000F054FF82
:100D000000F052FF114C00220821204601F071F83A
:100D100000220221204601F06CF80A490020886078
:100D20000948016A490849000162016A8215914334
:100D3000016207B0F0BD0000001002400102000097
:100D4000002401400027014000000140000800503D
:100D500000100030A086010088020020014600B586
:100D600041390B0008F0CFFC060406080A0C0E05FA
:100D7000412000BD422000BD432000BD442000BDF5
:100D8000452000BD462000BD0FB4F8B50123002466
:100D9000DA1E0A2106A801F0A7F94023DA43002150
:100DA00006A801F0A1F90423621F002106A801F0A2
:100DB0009BF901267602F74333463A460C2106A8F2
:100DC00001F092F908256000291A33463A4606A830
:100DD00001F08AF9641C042CF5DBF8BC08BC04B0F3
:100DE000184700000FB4F8B5159800240E26169D7C
:100DF000030008F088FC091306172533414F5D6A8C
:100E000013002027FF43285D3A4643016000311A52
:100E100006A801F069F9641C072CF4DBF8BC08BCD7
:100E200004B018471027FF43285D3A4603016000CD
:100E3000311A06A801F058F9641C072CF4DBEDE721
:100E40000827FF43285D3A46C3006000311A06A810
:100E500001F04AF9641C072CF4DBDFE70427FF43A9
:100E6000285D3A4683006000311A06A801F03CF97B
:100E7000641C072CF4DBD1E74027FF43285D3A468A
:100E800083016000311A06A801F02EF9641C072CBA
:100E9000F4DBC3E78027FF43285D3A46C3016000C7
:100EA000311A06A801F020F9641C072CF4DBB5E721
:100EB0000C4F285D3A4603026000311A06A801F083
:100EC00013F9641C072CF4DBA8E7074F285D3A46AA
:100ED00003026000311A06A801F006F9641C072C11
:100EE000F4DB9BE7FFFEFFFFFFFDFFFF30B504468D
:100EF000114887B0C26A04210A43C262C06A08402E
:100F000005900E496000085A0090002002900320CE
:100F100001900B49A0000858694600F0BBFE074D40
:100F200000222D1F2857032101F046F9285701F010
:100F30002FF907B030BD00000010024080F5000816
:100F40001801002030B50446114887B0C26A042158
:100F50000A43C262C06A084005900E496000085A00
:100F60000090012002900C4801900C49A000085804
:100F7000694600F08FFE074D00222D1F28570321E0
:100F800001F01AF9285701F00DF907B030BD000043
:100F90000010024080F50008000021101801002018
:100FA00030B50446114887B0C26A04210A43C262C0
:100FB000C06A084005900E496000085A0090002061
:100FC0000290032001900B49A0000858694600F0E8
:100FD00061FE074D00226D1F2857012101F0ECF83A
:100FE000285701F0D5F807B030BD000000100240CE
:100FF00082F500081C01002030B50446114887B076
:10100000C26A04210A43C262C06A084005900E49C0
:101010006000085A0090012002900C4801900C4991
:10102000A0000858694600F035FE074D00226D1FEC
:101030002857012101F0C0F8285701F0B3F807B094
:1010400030BD00000010024082F5000800002110B1
:101050001C01002030B50F490446C86A87B004223D
:101060001043C862C86A10400590481500900020DF
:101070000290032001906946074800F00BFE074DDF
:1010800000222857022101F097F8285701F080F834
:1010900007B030BD00100240000800507EF5000887
:1010A00030B5174A87B0D36A044604200343D3629D
:1010B000D26A144B02400592C2010220002914D0CA
:1010C000012910D1029010480190009269461846FB
:1010D00000F0E0FD0D4D00222857022101F06CF8D0
:1010E000285701F05FF807B030BD00210290019150
:1010F000039000926946184600F0CCFDF3E700002B
:101100000010024000080050000011107EF5000899
:101110000FB4F0B59FB038A003C800271CAA339CB9
:1011200083C27D21C9002046FEF7E2FF0846642104
:10113000FEF7DEFF18AA107664212046FEF7D8FFDE
:1011400008460A21FEF7D4FF18AA50760A21204645
:10115000FEF7CEFF18AA917600241CAD1EAE20E04B
:101160002F54401CC0B20728FAD3352224A90DA859
:10117000FEF7E8FF30A9487918A9487232981B9009
:10118000601DC0B20B902C2211A90C956846FEF789
:10119000D9FF0DA80FC8FFF725FE641CE4B2032C8D
:1011A00002D2305D0028DBD011AF1DE0305D1CA9FC
:1011B00002F056FD352224A90DA8FEF7C3FF30A981
:1011C000487918A9487232981B90601DC0B20B90E4
:1011D0002C2239460C956846FEF7B4FF0DA80FC8BF
:1011E000FFF700FE641CE4B2032CDFD31FB0F0BC99
:1011F00008BC04B018470000010101000101010012
:10120000F0B591B000252F4605951822AD4906A8E6
:101210000E95FEF797FF0122ABA1AC480AF07AFDCC
:101220000D2862D100221146A7A00AF0D1FA0122AE
:10123000A5A1A6480AF06EFDA2486C4618300FC85A
:101240000FC40126760230460DF0ECFA04466755CD
:101250006D1CB542FBD300210B4608466D462A5C47
:10126000002A77D0012BFCD04718E255401C0B28F0
:10127000F5D360180822C272F22181757821C175F8
:101280009B2101764C2141760122204607F01CFA71
:1012900006228FA192480AF065FD0020FF2121540B
:1012A000401CB042FBD300258E4B324621468C4871
:1012B0000AF0B5FE6D1C082DF6D389480AF0D3F963
:1012C000062289A186480AF04DFD0025854B32464D
:1012D000214683480AF0A3FE6D1C032DF6D38048F7
:1012E0000AF0C1F920460DF091FA824800F0C8FAE0
:1012F000022869D37F481C3000F0C2FA012863D06D
:101300007C482C3800F0BCFAC4B27A48283800F087
:10131000B7FA030E020C010A303AD6B23038C2B224
:101320007448303B3039DDB2CFB22438019200F03E
:10133000A7FA010A3039C9B2C0B20091FFF70EFD19
:10134000019A009902922B4601970096039104900E
:10135000224600E03AE068A16C4808F0A9F96B4A1F
:101360006BA106A808F0A4F96248183800F088FAC2
:1013700000906048203800F083FA0102090E0391C2
:101380000104C5B25B480C0E1C3800F079FA01026A
:101390000F0E0104C0B20F900120000504905548C3
:1013A0000E0E2C3000F06CFAC0B2109000980C9029
:1013B000002809D0062206A949480AF0D3FC0028D3
:1013C00009D047480AF04FF911B0F0BD2022431868
:1013D000E25401234AE74248C1680AF052F90EABD1
:1013E0001F224EA13E480AF01AFE002049E00222C8
:1013F00005A8049906F02EFE04986946801C049006
:10140000487D097D0002401800B2FFF75FF94B49A3
:10141000FEF76AFF0F99F2B2009201910290FBB2BF
:10142000AAB22146039800F08BF81098301886B2C3
:101430003C2E24D33C213046FEF75AFEC01987B219
:101440000E46182F1BD3182138466D1CFEF750FE90
:101450000F46042C1AD0062C18D0092C16D00B2CB1
:1014600014D0022C15D0202D02D30125641CA4B267
:101470000C2C04D90398401C80B2012403900D98D1
:10148000401C0C990D908842B1D39AE71F2DECD2E5
:10149000EEE70398800705D164210398FEF728FE44
:1014A000002909D1FF2191310398FEF721FE00297F
:1014B00002D01D2D02D2E2E71E2DE0D30125032428
:1014C000DDE7000084F50008303A0000080700203E
:1014D000303A2F73657474696E672E7478740000E7
:1014E0003809002034010020303A2F737973746575
:1014F0006D0000003C000808253032642564256436
:10150000256425642564256300000000580C002034
:10151000303A2F25732E43535600000059592F4D52
:101520004D2F44442C48482F4D4D2F53532C546578
:101530006D70657261747572652C0A00000020413F
:10154000F0B595B00E46074600201C9913901D4635
:1015500014460846FFF752F9059104901B991A9812
:101560000391029033463A46019500940BA106A8D8
:1015700008F09EF8002406A800E0641C015D002924
:10158000FBD11048C1680AF07CF813AB224606A9CB
:101590000C480AF044FD15B0F0BD0000253032645F
:1015A0002F253032642F25303264092C25303264E7
:1015B0003A253032643A253032642C25302E31669B
:1015C0002C0A0000380900200FB4F0B5B1B007466E
:1015D000FF2101314B48489E00F006FC49904A48E3
:1015E00000F04EF90025C0B22C46012800D101259B
:1015F00020A94C9808874D9848874E988887469828
:10160000C887499800286CD10121FFF7C9FC012146
:101610000020FFF76BFC13A8309037A800F022FCE5
:1016200001223A493A4801F0EBFF032C19D1352247
:1016300037A90DA8FEF786FD40A9487C18A9487275
:1016400045981B9033490020085E0B902C2211A96D
:101650000C966846FEF776FD0DA80FC800F060F8FE
:101660000646352237A910A8FEF76CFD40A9487C34
:1016700018A9487545981E9062002EA9895E4F985A
:101680000F900CA832C0302268463099FEF75AFD00
:1016900010A80EC81FA800F079F81FA9352237A896
:1016A000FEF750FD28A9487C40A948742D98459024
:1016B0000121084601F052FB641CE4B2042CACD3B7
:1016C00001210020FFF798FC01210020FFF73AFCE0
:1016D000114901220888801E088010490C4801F039
:1016E0008FFF352237A93846FEF72CFD40A8417CF4
:1016F0003520C1554598B86331B0F0BC08BC04B082
:1017000018470000000800507C0108085D33000005
:10171000D804002088020020AC000020E69F0000D2
:101720000FB410B59CB01EA82E9C00F09BFB002CA3
:1017300002D0012C0DD022E035221EA90CA8FEF704
:1017400001FD28A9487B18A948712C981A900020FF
:101750000BE035221EA90CA8FEF7F4FC28A9487B53
:1017600018A948712C981A9003200B902C2210A9CC
:101770006846FEF7E7FC0CA80FC806F05CFE2046A2
:101780001CB010BC08BC04B0184700000FB4F0B582
:101790009DB004463648349F359E329D00F070F867
:1017A000C0B201280ED12846FEF7A2FF314A324BC3
:1017B000FEF796FE0022314BFEF7E0FDFEF7DCFF60
:1017C00005B20127352223A90BA8FEF7BBFC30A9DF
:1017D000487818A94870319819902C220FA96846AA
:1017E000FEF7B0FC0BA80FC8FFF7CEFA352223A9ED
:1017F0000CA8FEF7A7FC30A9487818A948713198C1
:101800001A902C2210A968460B96FEF79BFC0CA898
:101810000FC8FFF77DFC352223A90EA8FEF792FC26
:1018200030A9487818A9487331981C903398F9B2B8
:10183000C0B20C910D902C220B9512A96846FEF7B0
:1018400081FC0EA80FC800F065F823A800F026FC64
:10185000352223A92046FEF775FC30A949783520AA
:1018600001553198A0631DB0F0BC08BC04B0184706
:101870007C010808CDCCCCCCCCCCFC3F0000744023
:1018800005490A6840231A430A600A6802231A437A
:101890000A600068704700000020024010B50C4A42
:1018A0000A4BD3600B4BD3605368DB07FCD1536802
:1018B000FF24013423435360536823435360016082
:1018C000506801210843506010BD0000EFCDAB8986
:1018D000002002400504030210B50C4A0A4BD360F5
:1018E0000B4BD3605368DB07FCD15368FF240134F2
:1018F00023435360536823435360016050680121C0
:101900000843506010BD0000EFCDAB8900200240BD
:10191000050403020FB4F0B59FB065A0002705C809
:101920003499359C1CAD85C5FE1E002902D00129C5
:1019300008D019E002233246062124A800F0D4FB87
:10194000002306E000233246062124A800F0CCFB49
:1019500002233246042124A800F0C6FB00233246AD
:10196000022124A800F0C0FB0025ED43002C06D086
:10197000012C07D0022C14D0032C2CD023E00223FE
:1019800032462AE000232A460C2124A800F0ACFBB2
:10199000022332460A2124A800F0A6FB00232A468F
:1019A0000DE000232A460C2124A800F09DFB002313
:1019B0002A460A2124A800F097FB02233246082178
:1019C00024A800F091FB1EA9339805F07CFF0024A9
:1019D0001CAD1EAE28E000232A460C2124A800F0EE
:1019E00083FB00232A46D5E72F54401CC0B20728AA
:1019F000FAD3352224A90DA8FEF7A4FB30A9487913
:101A000018A9487232981B90641CE0B20B902C22EB
:101A100011A90C956846FEF795FB0DA80FC8FFF7B6
:101A2000E1F9E4B2022C02D2305D0028DCD011AF23
:101A30001CE0305D1CA902F013F9352224A90DA881
:101A4000FEF780FB30A9487918A9487232981B909C
:101A5000641CE0B20B902C2239460C956846FEF7C8
:101A600071FB0DA80FC8FFF7BDF9E4B2042CE0D359
:101A700020223398D243002818DA40420E4900B29F
:101A8000884209DD2023002124A800F02DFB1FB08F
:101A9000F0BC08BC04B01847632801DD202303E034
:101AA0000028F4DD1023DA430821EDE70023EAE7FC
:101AB0000101010001010100E70300000FB4F0B5CE
:101AC0009FB02BA106C900271CAB339886C31EA963
:101AD00005F0F9FE00241CAD1EAE1FE02F54401C83
:101AE000C0B20728FAD3352224A90DA8FEF72AFB95
:101AF00030A9487918A9487232981B90641CE0B24A
:101B00000B902C2211A90C956846FEF71BFB0DA823
:101B10000FC8FFF767F9E4B2032C02D2305D00284A
:101B2000DCD011AF1CE0305D1CA902F099F8352221
:101B300024A90DA8FEF706FB30A9487918A9487218
:101B400032981B90641CE0B20B902C2239460C9505
:101B50006846FEF7F7FA0DA80FC8FFF743F9E4B29D
:101B6000042CE0D31FB0F0BC08BC04B01847000040
:101B700001010100010101007FB57D24240100194C
:101B80006D462880A970AA8002A8019A00990CF0DD
:101B90005DFE2889011B03480170A97A4170A9895B
:101BA00081707FBD2001002009488168490703D565
:101BB00081681022114381608168C906FCD4816864
:101BC0000222114381608168C907FCD1704700007F
:101BD0000024014010B5FF20013000F04FF8024909
:101BE0000120087010BD0000A4000020F8B5144CBE
:101BF000FF210131204600F0F7F8054680212046FC
:101C000000F0F2F8074601214902204600F0ECF806
:101C10000646284601240B4D002803D1200200F07F
:101C20002DF82C70002F03D1802000F027F8EC71E4
:101C3000012E03D1700200F021F86C70F8BD000095
:101C400000080050A40000200548816801221143CB
:101C50008160C168090402D40168C907FCD07047DB
:101C60000024014031B500F0CBF8044600F0C8F87C
:101C70000099001B8842F9D338BD704710B504495C
:101C80004A69024202D04861FFF7F7FF10BD000029
:101C900000040140F0B5002292E001249440A446E3
:101CA00023407DD04C68022C01D0122C0CD1D408DA
:101CB000A40027183D6A5407E40E0F26A640B5433A
:101CC0000E69A6402E433E624C68012C05D0022CC2
:101CD00003D0112C01D0122C11D185685400032699
:101CE000A640B543CE68A6402E438660446865464C
:101CF000AC430D79ED06ED0F95402543456007682F
:101D000054000325A5400E79AF43B607B60FA64091
:101D10003E430660C668AE438D68A5403543C56046
:101D20004C68E4004BD5294D6C6B012634436C6341
:101D30009508274CAD002F19BD689407240F0F2676
:101D4000A640B54305263607B04201D1002614E06F
:101D5000204EB04201D101260FE01F4EB04201D10A
:101D600002260AE01D4EB04201D1032605E01C4EBA
:101D7000B04201D1052600E00626A6402E43BE60F3
:101D8000184D2C684E689C43F60300D51C432C600C
:101D90006C684E689C43B60300D51C436C6000E041
:101DA0000DE0AC684E689C43F60200D51C43AC6065
:101DB000EC684E689C43B60200D51C43EC60521C94
:101DC0000B681C46D44000D067E7F0BD001002400D
:101DD000000001400004005000080050000C0050BA
:101DE000001C0050000401400069084000D00120A0
:101DF0007047002A01D081617047816270470000FE
:101E000001480068704700008C0200200248016809
:101E1000491C0160704700008C02002010B5064884
:101E20000168402211430160002000F007F800F033
:101E300097F9002010BD00000020024010B50446B4
:101E400007487D21C9000068FEF752F901F094FEB1
:101E500000222146501E00F0AFF9002010BD000006
:101E600090020020F8B5044605462034607D012824
:101E700004D0607D022801D00120F8BD207D01281A
:101E800008D00120207502206075FFF7B9FF0746D2
:101E900000260DE00220F8BDFFF7B2FFC11B7D2038
:101EA000C000814204D90220A86326750320F8BD32
:101EB00028688068C0434007EED5002188002A6862
:101EC00014301650491C0F29F8D9284600F0E6F8BE
:101ED0000020F8BDF8B500250446002806D02646A7
:101EE0002036707D0027002802D005E00120F8BDD3
:101EF0003775204600F06CF8022070752068016884
:101F0000490849000160A800216814300F506D1C79
:101F1000EDB20F2DF7D9206881680422114381604A
:101F20006168A068E26A0143A06A10430143E06966
:101F30000143206A0143A0690143606A01432068AC
:101F40004268224B1A4011434160204601F0A8FE2E
:101F5000E1682069226B01436069104301432068F6
:101F60000268FE239A431143016020680168012240
:101F700011430160FFF744FF054608E0FFF740FF0B
:101F8000411B7D20C000814201D9082010E020685B
:101F90008068C043C007F1D1FFF732FF05460AE071
:101FA000FFF72EFF411B7D20C000814203D9102086
:101FB000A0630320F8BD20688068C043C006EFD44A
:101FC000A763012070750020F8BD00000F0000FC21
:101FD000F0B500682A4987B088424ED12948816B04
:101FE000421511438163C16A04263143C162C16A4B
:101FF00031400591C16A02242143C162C16A214076
:102000000591C26A08210A43C262C26A0A40059267
:10201000C16A01252943C162C16A29400591C26A8A
:1020200080210A43C262C06A002708400590164812
:10203000694691C105206946000703970495FFF79B
:1020400029FE1248694691C16946114803970495D3
:10205000FFF720FE07208002694691C169460D48BE
:1020600003970495FFF716FE029769460A480397FF
:10207000009604950194FFF70DFE07B0F0BD000037
:102080000024004000100240CE0700003B02000088
:102090000004005000080050000C0050F8B5044641
:1020A00021680820C860206881680427394381605E
:1020B000FFF7A6FE2546064620350BE0FFF7A0FEFB
:1020C000811B7D20C000814204D9A76300202875B0
:1020D0000320F8BD20688068C0430007EED40120CB
:1020E000687500202875F8BDFFB504460546203404
:1020F000607D81B0012805D0607D022802D00120DA
:1021000005B0F0BD607D01281DD1207D012807D0DC
:102110000120207502276775FFF772FE06460DE065
:102120000220EDE7FFF76CFE811B7D20C00081429D
:1021300004D9AF63002020750320E1E72868806898
:10214000C0434007EED502982968800014300A5831
:10215000039B1A40049B1A430A500020D0E700005A
:1021600010B50A48416B0122114341630022114618
:10217000501F00F021F800221146901E00F01CF8BC
:1021800000221146501E00F017F810BD001002404A
:10219000C106C90E0120884001490860704700004F
:1021A00080E100E0C106C90E0120884001490860B5
:1021B0007047000000E100E010B502F0CDF810BD5E
:1021C000BFF34F8F04490348C860BFF34F8F00BF70
:1021D000FDE700000400FA0500ED00E010B50C0674
:1021E00006D54906490E1C2461430818283004E02E
:1021F0001C2461430818FF30093099B2002A06D028
:1022000001228272C180190C0181002010BD0022C0
:1022100082728180F9E71C224A43121810B5FF3000
:10222000FF300230926BC06906F047FE10BD1C22E1
:102230004A43121810B5FF30FF32FF30013202302E
:102240009269C06906F094FE10BD0000F0B54B061F
:102250005B0E1C225A43CC091218002C01D02832E4
:1022600001E0FF32093213700346C909FF33517090
:10227000E133197A01293DD001211972947A494933
:10228000002C547838D0002C147805685CD0A40059
:102290002E5B760404D52E5B434F0E403E432E53F7
:1022A00014780568A4002E5B760604D52E5B3F4F9C
:1022B0000E403E432E5315780468AD00665B0E4019
:1022C00039490E43665314780168A4000E5B354DFE
:1022D00030352E40354D403D2E430E531178006869
:1022E0008900425A304CF13C22402A43425200209D
:1022F0001872F0BD0220F0BD002C147805680FD0D4
:10230000A4002E5B760604D52E5B0E4027490E43B3
:102310002E53117800688900425A224C30340EE066
:10232000A4002E5B760404D52E5B0E401E490E439E
:102330002E53117800688900425A1B4CF13C224010
:102340001A4C403C2243D1E7A4002E5B760404D50E
:102350002E5B154F0E403E432E5314780568A400A3
:102360002E5B760604D52E5B104F0E403E432E5357
:1023700015780468AD00665B0E400C490E43665349
:1023800014780168A4000E5B074DF13D2E40074D07
:10239000403D2E430E53117800688900425A014C8B
:1023A0003034A1E78F8F000080C00000C0800000A3
:1023B000F0B54B06CA095B0E002A04D01C225A4312
:1023C0001218283204E01C224A431218FF32093244
:1023D000002494701370C90951700146FF31E13136
:1023E0000B7A012B1DD001230B7253781B4D002B50
:1023F0001B4E1378046816D09B00E75A7F0605D55C
:10240000E75A2F40164D40352F43E75212780068A7
:102410009200835A114C303423401024634020240E
:1024200015E00220F0BD9B00E75A7F0404D5E75A6F
:102430002F400C4D2F43E752127800689200835AC8
:10244000084CF13C234001242403634064006340B2
:102450003343835200200872F0BD00008F8F0000CC
:102460008080000080C00000002070474906490EAF
:102470001C2251430818FF300130008C80B2704795
:10248000F0B54D066D0E1C246C43CE092418002EA9
:1024900001D0283401E0FF3409342570C909617086
:1024A0000146FF31E260E131E3708C46097A01298F
:1024B0000DD0012261460A72E1789A4B002908D0BA
:1024C00001291ED002290DD0032923D111E00220B9
:1024D000F0BD2278016892008D5A1D40FF35FF350E
:1024E000023504E02278016892008D5A1D408D5219
:1024F00010E02278016892008D5A1D4003235B0290
:1025000006E02278016892008D5A1D4001239B024B
:10251000EB188B5225780168AB00CE5A824A1640E0
:10252000824A16432E43CE52A17A002959D02178EF
:1025300007688B00FD5A7C497D4E0D403543FD52A6
:10254000E38850265D0803686D00F65AF618237874
:10255000DF0001239B02FB18F552238950265D08FA
:1025600003686D00F65AF6182378DF005311FB1844
:10257000F55263780768002B23787CD09B00FD5AC6
:102580006D0404D5FD5A6B4E0D403543FD52237842
:1025900007689B00FD5A6D0605D5FD5A634E0D4038
:1025A00040363543FD5225780368AD005E5B0E4032
:1025B00060490E435E53237801689B00CD5A5A4E02
:1025C000303635401543CD52217800688900435A92
:1025D000584CF13C2340134343520020614608729B
:1025E000F0BD61780029A18822D04B0801685025F0
:1025F0006D5A5B006D182178CE0001218902711897
:102600006B522178036889005D5A6D0606D55D5AC4
:10261000454E3540454E403635435D522178006881
:102620008900435A404C3034234020246340D2E791
:102630004B08016850256D5A5B006D182178CE005B
:102640003D4971186B52016850235B5A3A4D591835
:102650002378AD1CDB005B19CD18E1683E290BD94E
:10266000CB021B0CC90601D15B1E9BB29902012350
:10267000DB03194307E022E0CB031B0CC90701D0A1
:102680005B1C9BB2990229802178036889005D5AFE
:102690006D0405D55D5A244E3540264E35435D52B6
:1026A0000168207880000B5A224CF13C2340012421
:1026B000240363406400634013430B528DE79B0087
:1026C000FD5A6D0404D5FD5A1A4E0D403543FD5296
:1026D000237807689B00FD5A6D0605D5FD5A134EF9
:1026E0000D4040363543FD5225780368AD005E5BF2
:1026F0000E400E4940310E435E53237801689B0023
:10270000CD5A0C4EF13E3540012636037540760019
:1027100075401543CD52217800688900435A024C18
:10272000303457E78F8900008F8F000080800000D1
:102730008081000080C0000004040000F0B549065C
:10274000490E1C244C432418FF34002519342CC492
:102750001C3C03466570FF332170E133197A01296F
:1027600008D0012119726269E1688A4204D9521ABB
:10277000626103E00220F0BD11466561A27A002A81
:1027800005D06278002A19D0012A37D059E00268B2
:102790005026B65AB6182278D700324ABA18B61858
:1027A0003E293ED9CA02120CC90637D09102012235
:1027B000D203114300E09102318042E002685026CA
:1027C000B65AB6182278D700264A121FBA18B61879
:1027D0003E290AD9CA02120CCF0601D1521E92B26A
:1027E00092020127FF033A4306E0CA03120CCF0707
:1027F00001D0521C92B29202328009E00268502647
:10280000B65AB6182278D700164A121FBA18B15213
:102810006278002ABBD0012A0AD012E0521E92B27E
:10282000C4E7CA03120CC907C5D0521C92B2C2E752
:1028300002685026B65AB6182278D700094ABA1844
:10284000B152217800688900425A074C2240012485
:102850002403624064006240044C224342521D72D1
:102860000020F0BD060400008FBF00008080000043
:10287000F0B50346FF33E1331A7A012A0BD0012564
:102880004A06CC09520E1D72002C06D01C2454435B
:102890002418283406E00220F0BD1C244C432418E0
:1028A000FF340934A5702270CD0965700126360306
:1028B00010270F4C002A09D049060068C90D425A5A
:1028C000002D0CD00B4D2A407A400CE000680188A6
:1028D000094A1140714079402143018005E0064DCD
:1028E000303D2A4072402243425200201872F0BD0F
:1028F00080800000BF8F0000BFBF0000F0B506461B
:102900004806400E1C2141438C19E3630021A26359
:1029100021640121283437466170FF372070E13788
:10292000387A012806D03972E5686069A84203D96F
:10293000401B03E00220F0BD054600206061A07A44
:10294000002807D060780121C903002812D001288F
:102950002DD061E0ABB2A2882169306801F0CFFED2
:1029600030685021095A09182078C20045481018CB
:102970000D5274E030685022125A12182078C300A9
:102980004048181812183E2D08D9E802000CEB0632
:1029900001D1401E80B28002084306E0E803000C2B
:1029A000EB0701D0401C80B28002108008E0306844
:1029B0005022125A12182078C300324818181552A3
:1029C000304A6078121D002802D001281CD023E074
:1029D000306850231B5A18182378DB009A18821885
:1029E0003E2D08D9E802000CEB0601D1401E80B252
:1029F0008002084306E0E803000CE90701D0401C10
:102A000080B28002108007E030685021095A08180F
:102A10002178C90089184552217830688900415AC7
:102A2000490601D5228900E0E288ABB2216901F0B4
:102A300066FE6078144A002802D0012807D00EE014
:102A4000217830688900435A1340104A05E0217804
:102A500030688900435A13400D4A1343435221788A
:102A600030688900425A084B30331A4010235A40CC
:102A700020235A40054B403B1A43425200203872F3
:102A8000F0BD0000020400008F8F0000C080000035
:102A900080C0000070B50446006840308088C00BDC
:102AA00002D0204601F084FC20684030818849052E
:102AB0000AD58188334A11408180204600F0D6F83B
:102AC0000021204600F0FCF820684030818849044D
:102AD00003D581882C4A114081802068403081884C
:102AE000890403D58188294A1140818020684030BB
:102AF00081880425C904002910DA0188A9430180CE
:102B0000BD202168000240310880204600F0BAF85C
:102B10002068403081881E4A114081802068403002
:102B20008188090517D581881A4A1140818020685B
:102B3000403001880822114301802068403001881C
:102B400029430180206840308088C043C00402D5FA
:102B5000204600F0DFF8206840308188890506D5DE
:102B600081880D4A11408180204600F0A1F820683C
:102B700040308188C90503D58188084A1140818089
:102B800070BD0000FFFB0000FFBF0000FFDF000082
:102B9000FFEF0000FFF70000FFFD0000FFFE000058
:102BA000F8B500270446002807D02546FF35E13553
:102BB000687A0026002802D005E00120F8BD2E72B8
:102BC000204600F03BF80320687201220BE01C2035
:102BD00078430019014620314A720F72CE72466363
:102BE00086637F1CC6636068B842F0D800210BE0A2
:102BF0001C2048430019FF30013046720172C67232
:102C000046618661491CC66160688842F0D82068C8
:102C10004030028020684030068020684030868046
:102C2000206840300682BD202168000240310880C3
:102C3000203426716A720020F8BD000010B50068CB
:102C4000084988420DD10848816B0122D205114301
:102C50008163032202211F20FFF7AEFA1F20FFF736
:102C6000A1FA10BD005C00400010024010B5C41D68
:102C7000FF34FA340121E06906F05FFAE06906F0FA
:102C800024FA10BD10B504468069002806D0074814
:102C9000016906229143016105F004FCFF34FF3411
:102CA0000234E06906F034FA10BD000000ED00E0E7
:102CB000FF3010B5FF300230C06906F02FFA10BDAA
:102CC0000246FF32E132137A012B08D0012313723E
:102CD000002906D0203001710020107270470220B8
:102CE00070470068802140308181F5E710B5872169
:102CF00089000A580146FF31ED31104606F029FAE5
:102D000010BD00684030018B0122D20311430183C2
:102D10000020704710B50446FF30FF300230C06914
:102D200006F058FAA069002804D003480169062279
:102D30001143016110BD000000ED00E00248016890
:102D4000021511430160704700700040024801689D
:102D50004215114301607047007000400A4B1A6829
:102D60009208920002431A600848026904231A4339
:102D70000261012906D040BF20BF20BF01699943ED
:102D80000161704730BFF9E70070004000ED00E0DE
:102D9000F8B5044600685C4D810601D400056FD586
:102DA000594940390A68032760693F0503463A409C
:102DB0003B409A4205D10B68A2693B403A4093429E
:102DC00008D08003800F032804D10868800301D550
:102DD0000120F8BD4C484038816B020411438163E7
:102DE0004A480168821511430160FFF709F8064659
:102DF00004E0FFF705F8801B64282AD843480068E0
:102E0000C005F6D5286903210904626908400A4013
:102E1000904205D12A69A0690A40084082422FD019
:102E2000286903210904884329690122D204114336
:102E30002961296991432961286180050ED5FEF732
:102E4000DFFF064607E0FEF7DBFF811B30488142CB
:102E500001D90320F8BD28698005F4D56069810394
:102E6000890F032948D0284840380168B9430160D8
:102E700029690320000462698143024011432961EA
:102E80002078C00705D0E8686168800880000843A2
:102E9000E8602078800705D5E8680C218843A168A0
:102EA0000843E8602078400706D5E86803218902D6
:102EB0008843E1680843E8602078000706D5E868A1
:102EC00003210903884321690843E860207840060C
:102ED00006D5E868012189068843E1690843E8606E
:102EE0002078000606D5E868032189048843216A12
:102EF0000843E8600020F8BD034A403A11683840B2
:102F0000B94301431160B3E7401002400070004034
:102F100088130000F8B5044653480E460068C00701
:102F2000C00FB0420AD250480168490849003143F5
:102F300001600068C007C00FB0426FD120784B4FCE
:102F4000800705D5F868F0218843A1680843F86038
:102F50002078C00752D06068022817D0002818D007
:102F60003968032818D04907002957DAF968890811
:102F700089000143F960FEF743FF054660680228B7
:102F800012D003281CD0002826D032E039688903EB
:102F9000EAE739688905E7E78901E5E7FEF730FFE9
:102FA000411B3348814222D8F8680007800F02286D
:102FB000F4D123E0FEF724FF411B2D48814216D8AF
:102FC000F8680007800F0328F4D117E0FEF718FF18
:102FD000411B274881420AD8F8680007800FF5D1C5
:102FE0000CE0FEF70DFF411B2148814201D903206F
:102FF000F8BDF8680007800F0128F2D11A4801686F
:10300000C907C90FB1420BD30168490849003143D0
:1030100001600068C007C00FB04201D00120F8BDB8
:103020002078400706D5F868072109028843E1683F
:103030000843F8602078000707D5F8680721C9021F
:1030400088432169C9000843F86000F03DF8F96839
:10305000084A0906090F515CC8400749086000206A
:10306000FEF7ECFE0020F8BD0020024000100240F8
:103070008813000038FE0008900200200148006814
:103080007047000090020020044805490068C968A4
:10309000044A4905490F515CC8407047900200201E
:1030A0000010024051FE0008044805490068C96844
:1030B000044A8904490F515CC840704790020020BF
:1030C0000010024051FE000810B51A4B5868D9682C
:1030D0000004420F0C200140174805D0042906D0F7
:1030E00008290BD00C290BD0521C904010BD186839
:1030F000C00601D5114810BD114810BD114810BDC2
:10310000D868D9688002104A000F105C0902DA689A
:10311000890F01242404491C224204D11A68D206D2
:1031200003D5064A02E0074A00E0054A5043FCF78F
:10313000DFFF10BD001002400080000000093D00CC
:103140000024F40000127A0048FE0008FEB5044690
:103150000078F94EC0074CD0F0680007800F0228B5
:1031600007D0F0680007800F032809D1F068C0037A
:1031700006D5306880033CD56068002874D038E0FC
:10318000012160680904884202D13068084313E0D5
:10319000052301221B0492049842306805D188431C
:1031A0003060306810433060EFE78843306030684B
:1031B00008400090306890433060606800280CD070
:1031C000FEF71EFE054604E0FEF71AFE401B6428CB
:1031D0007ED830688003F7D50BE0FEF711FE054678
:1031E00004E0FEF70DFE401B6428F1D83068800330
:1031F000F7D42078800740D5F0681F270007800F9C
:103200003F02012807D0F0680007800F032809D18A
:10321000F068C00306D43068400717D5E06801287D
:1032200022D113E0E0680921002816D032688A43D1
:1032300002433260FEF7E4FD054604E0FEF7E0FDE0
:10324000401B0228C4D830684007F7D57068216950
:10325000B8430902084370600FE03068884330606B
:10326000FEF7CEFD054605E0A0E0FEF7C9FD401BD8
:103270000228ADD830684007F7D42078C00658D56A
:10328000F068AE4F0007800F0BD0E06900283FD0F8
:103290003068FF21013108433060FEF7B1FD05467B
:1032A00026E03068800502D5E06900287ED070688D
:1032B000616AB843084370607068218C0002000A9C
:1032C000090608437060FFF7FFFEF168090600E099
:1032D000E4E09B4A090F515CC8409A49086000200D
:1032E000FEF7ACFD25E0FEF78BFD401B0228A9D8B8
:1032F00030688005F7D57068616AB843084370602C
:103300007068218C0002000A09060843706010E012
:103310003168FF20013081433160FEF771FD0546C1
:1033200004E0FEF76DFD401B02288BD83068800555
:10333000F7D42078844D000722D5606900282869D9
:103340000FD0012108432861FEF75AFD074604E02B
:10335000FEF756FDC01B02288BD828698007F7D5D9
:103360000EE0400840002861FEF74AFD074604E0F1
:10337000FEF746FDC01B0228B9D828698007F7D49C
:10338000207880062FD57149A0694B14002817D0EA
:10339000B26801200243B260726B02437263086A32
:1033A00018430862FEF72CFD074605E0E9E0FEF74A
:1033B00027FDC01B022871D8B0688007F7D512E03E
:1033C000B06840084000B060086A98430862FEF7A1
:1033D00017FD074604E0FEF713FDC01B02285DD869
:1033E000B0688007F7D42078400771D5002002909C
:1033F0000190B06BC00006D4B06B012109070843EF
:10340000B0630120029052480068C00513D45048B0
:10341000016882151143016001200190FEF7F0FC64
:10342000074604E0FEF7ECFCC01B642836D8484889
:103430000068C005F6D5FF27A0680137B84202D161
:10344000286938430CE001218902002803D00522B5
:10345000120290420CD02869B84328612869884339
:103460002861A068002815D0FEF7CAFC00900DE086
:103470002869B8432861286908432861E0E7FEF716
:10348000BFFC0099411A3348814273D828698005EE
:10349000F5D50EE0FEF7B4FC009007E06AE0FEF719
:1034A000AFFC0099411A2B48814263D828698005F6
:1034B000F5D40198002803D025480168B94301607C
:1034C0000298002804D0B06B012109078843B0633B
:1034D000A06A002853D0F1680907890F032950D04A
:1034E00001273F060228306805D0B8433060FEF758
:1034F00087FC044640E0B8433060FEF781FC054697
:1035000004E0FEF77DFC401B022833D830688001C0
:10351000F7D4616B206BF2680843E16AFD231B045A
:103520009A4311430843F060306838433060FEF737
:1035300067FC044615E000000010024000E00000B7
:1035400038FE0008900200204010024000000140B8
:103550000070004088130000FEF752FC001B022898
:1035600008D830688001F7D509E0FEF749FC001B58
:10357000022801D90320FEBD30688001F5D4002067
:10358000FEBD0120FEBDF8B505460446203528786D
:10359000012819D001202870022068702168CA20F3
:1035A00048622168532048622068816801229202A3
:1035B0009143816020688168120191438160FEF728
:1035C0001FFC064600270FE00220F8BDFEF718FC9E
:1035D000811B7D20C000814206D92168FF204862FE
:1035E000032068702F70F8BD2068C0684007EDD5D3
:1035F0002168FF204862012068702F700020F8BD0C
:10360000F7B50546044620352878012813D0012057
:103610002870022068702168CA20486221685320FF
:1036200048622068806800274005002810DAFEF70D
:10363000E7FB064608E00220FEBDFEF7E1FB811B2A
:103640007D20C00081421BD82068C0684007F4D4A8
:1036500020688268012189028A4382602068C168EB
:1036600080221140204A8918C160FEF7C9FB064636
:103670000DE0FEF7C5FB811B7D20C000814206D90D
:103680002168FF204862032068702F70FEBD20680B
:10369000C0684007EDD521680198486120688168BD
:1036A000C908C900816020688168029A114381605D
:1036B0000E4801680122120511430160816811431F
:1036C000816020688168921111438160206881685F
:1036D0001211114381602168FF2048620120687047
:1036E0002F700020FEBD00007FFBFFFF00040140A3
:1036F00002480168042211430160704700700040D5
:1037000010B504460068C068400509D52046FFF79B
:10371000EFFF2068C16880221140054A8918C16006
:10372000012004490005486101202034607010BD6B
:103730007FFBFFFF0004014010B500680B464068A6
:10374000C021C94301400002000ECC04D870E40E31
:103750005C708C06A40E0904490F9C701970002A35
:103760000AD104F05DF9D870587804F059F958700E
:10377000987804F055F99870002010BD30B50B46CC
:103780000168896A5960016809694904490C9960AE
:10379000006804680F482146014088024D04800EED
:1037A00018706D0E49065D70490E99706102490EE0
:1037B00040242140D970002A0AD104F031F9187050
:1037C000587804F02DF95870987804F029F9987019
:1037D000002030BD7F7F7F0070B5040005D02546F6
:1037E00020356878002802D006E0012070BD002056
:1037F0002870204600F042F8022068702168CA2034
:103800004862216853204862204604F01CF9FF21D9
:103810000028206803D0416204206870E5E78268D0
:10382000154B1A408260206882686368A6691A4353
:10383000236933431A4382602268E068106120687C
:10384000026923891B041A4302612068C26880232D
:103850009A43C2602068C26C92089200C264E26916
:10386000606902432068C36C1A43C26420684162E5
:1038700001206870002070BDBFFF8FFF0068054900
:10388000884205D104480169012292041143016173
:10389000704700000028004040100240F8B505467F
:1038A0000446203528780B46012822D001202870B4
:1038B000022068705878002A1DD004F0B1F898787A
:1038C00004F0AEF8D8789E7800040643587819784A
:1038D00000024903084306432168CA204862216860
:1038E00053204862204604F0AEF8002700282AD171
:1038F00017E00220F8BDC10603D5EF2108400A30C9
:103900005870D87804F094F80604587804F090F8C9
:1039100000020643987804F08BF8064318784003B9
:10392000D9E711480640206846602068C1688022B7
:103930009143C1602068806880060CD4204600F066
:103940008DF8002807D02168FF20486204206870A5
:103950002F700120F8BD2168FF20486201206870A7
:103960002F700020F8BD00003FFFFF00F8B50646AD
:103970000446203630780D4601280ED001203070E4
:1039800002207070206800278068002A07D0400657
:103990001AD5287804F044F817E00220F8BD400654
:1039A00000D4EF70287804F043F80204687804F03B
:1039B0003FF800020243A87804F03AF80243E8789E
:1039C0000004024300920BE0EF702978A878090404
:1039D00008436978EA780902120411430843009009
:1039E0002168CA204862216853204862204604F0BA
:1039F0002AF800281FD1184900980840216808605B
:103A0000206881680122920491438160E9682869F5
:103A1000014320688268114381602068C168802268
:103A20009143C1602068806880060CD4204600F075
:103A300015F8002807D02168FF2048620420707024
:103A400037700120F8BD2168FF20486201207070A6
:103A500037700020F8BD00007F7F7F0070B50546FD
:103A60000068C168A0229143C160FEF7C9F97D26B4
:103A70000446F60006E0FEF7C3F9001BB04201D988
:103A8000032070BD2868C0688006F4D5002070BD92
:103A900070B5040006D025464035687C0026002815
:103AA00002D005E0012070BD2E74204600F032F8EF
:103AB0000220687420680168402291430160A16877
:103AC000606822690843E168114308436169012283
:103AD0000843A169520211400843E1690843216A81
:103AE0000843A16A084321680860A0690421000C0A
:103AF0000840616A0843216848602168E06A0861FB
:103B00002068C16992009143C161666501206874B3
:103B1000002070BD00B500680C4985B0884213D103
:103B20000B48816B012292031143816307204003FC
:103B30000090022000210190032002910491039043
:103B400069460448FEF7A6F805B000BD00380040FD
:103B500000100240000400500422044904280869AF
:103B600002D09043086170471043FBE700E000E09B
:103B700010B5FEF74BF910BD094910B5401E88423B
:103B800001D9012010BD074C60610321081F00F01E
:103B9000E3FB0020A06107202061002010BD000091
:103BA000FFFFFF0000E000E010B5FFF7E1FF10BDF0
:103BB00070B5040005D025466035687A002802D02B
:103BC00006E0012070BD00202872204600F024F895
:103BD0002420687220680168490849000160204675
:103BE00004F0C2FE606A002802D0204604F02AFEDB
:103BF000206841680922D2029143416020688168AF
:103C00002A229143816020680168012211430160EA
:103C1000204604F07DFE70BD00B501680C4885B0FB
:103C2000814212D10B48816B0122920411438163BE
:103C30003020009001210220029103210190039184
:103C4000049069460448FEF725F805B000BD000061
:103C5000004800400010024000080050FEE7704796
:103C600070B58CB00D46064600242C220B496846E0
:103C7000FCF768FA0A2E02D8B00069460C581822E0
:103C800000202146D1400907090F2954121F401C6A
:103C9000C0B2D2B20728F4D30CB070BDA4F40008AF
:103CA00070B50546FEF7ACF87D260446F60008E040
:103CB000FEF7A6F8001BB04203D90120A863032039
:103CC00070BD28688068C0438006F1D4002070BDB4
:103CD00030B504249DB0A0010790059405A8FFF716
:103CE00035FA032080021690139413A8FFF750F8BA
:103CF0001448C16A2143C162C16A21401C91C16A52
:103D00002143C162C16A21401C91816B220411438D
:103D1000816310200224009000200B4D029001943A
:103D20000394694604942846FDF7B4FF202101203E
:103D300000910290049469462846FDF7ABFF1DB040
:103D400030BD000000100240000800500249CA695E
:103D50001206FCD5886270470048004000B58FB05D
:103D600004200090800102906846FFF7EFF90FB041
:103D700000BD70B50546FF30FF3002308469E11D9B
:103D8000FF31FA31087E002809D14869002806D0A1
:103D9000607A002803D10121284605F009FA812123
:103DA000284605F005FA607A022807D183208000B2
:103DB00022181F230121284605F07EF970BD00005E
:103DC000F8B5C71DFF37FA37BC690646E51DFF3554
:103DD000FA3528692863686968630121304605F06F
:103DE0000CF91F280BD12649E868884207D1697E63
:103DF000012904D8A87E002801D0102808D9697E9E
:103E000020230522304604F0A2F80220607209E067
:103E10001C482218304603F083FE0028207A07DA77
:103E2000052803D03046FFF7A4FFF8BD012123E0A9
:103E30000228FAD00128F8D00328F6D06389002B95
:103E400019D0B9692246CD1DFF35FA356C690C329F
:103E500030469C4200D223466C6B9BB2E41A6C63E2
:103E600011256D0100244D192C7604240C7281213A
:103E700005F0B8F9F8BD0021304600F095F8F8BD1E
:103E8000555342431B02000010B54322D200145880
:103E9000627A022A07D0C90904D0012A02D001217E
:103EA00000F082F810BD812105F082F900206072D7
:103EB00010BD000010B50446FF30FF3002308269AB
:103EC000117A022905D0032901D004290ED100213D
:103ED00009E00748815C801C1218204603F020FE90
:103EE000002803DA0121204600F05EF810BD000032
:103EF0001902000010B50446FF30FF30023082691D
:103F0000117A00290FD001290CD10948815C801C4D
:103F10001218204603F004FE002803DA012120468F
:103F200000F042F810BD2046FFF74AFF10BD000028
:103F300019020000FF30FF30023080690021017259
:103F4000704770B5C51DFF35FA35AC6906460020CF
:103F50000921207289016072611848770877E86941
:103F60000168002088470121304605F03DF8812195
:103F7000304605F039F88320800022181F230121E4
:103F8000304605F099F870BD10B54321C9000958B5
:103F900000220A7201224A72832292008A181F2389
:103FA000012105F089F810BD70B50546FF30FF30DE
:103FB000023084698B200D4A80000251112040019B
:103FC00020180176002020728B20800022180D23FB
:103FD0008121284605F006F98320800022181F233E
:103FE0000121284605F068F870BD00005553425382
:103FF00000B50B4887B0C26A02210A43C262C06A98
:1040000008400590C8020090012001900020029015
:10401000039069460348FDF73DFE07B000BD000070
:1040200000100240000400500FB430B59BB00446AD
:10403000FFF7DEFF44481F900120800520900320F9
:104040000021800421901020229023912491259119
:1040500001252691279029912A9128952B911FA817
:10406000FDF738FF00284DD0E802259035221FA922
:104070000BA8FCF767F828A9487C18A948702D9868
:1040800019902C220FA96846FCF75CF80BA80FC802
:1040900000F09AF8002835D00320800225903522C0
:1040A0001FA90BA8FCF74EF828A9487C18A948704E
:1040B0002D9819902C220FA96846FCF743F80BA8FD
:1040C0000FC800F081F800281CD028032590352265
:1040D0001FA90BA8FCF736F828A9487C18A9487036
:1040E0002D9819902C220FA96846FCF72BF80BA8E5
:1040F0000FC800F069F8002804D01F9800681F99C5
:10410000A84308601F9840681F99284348601FA86B
:10411000FFF7C6FD1F9840681F994008400048609F
:104120001FA8FFF7BDFD35221FA92046FCF70AF89E
:1041300028A8417C352001552D98A0631BB030BCC8
:1041400008BC04B018470000002400400FB410B5AC
:10415000AAB0044635222DA90CA8FBF7F3FF38A915
:10416000487A18A948713B981A9030220FA96846DE
:10417000FBF7E8FF0CA80EC81BA8FFF755FF1BA90B
:1041800035222DA8FBF7DEFF28A9487838A9487208
:1041900029983B9000F092F8012211030948FDF79D
:1041A00028FE35222DA92046FBF7CCFF38A9497AF5
:1041B000352001553B98A0632AB010BC08BC04B060
:1041C00018470000000400500FB470B50699059818
:1041D0000F9A08430E99114308430B9908430C9911
:1041E00008430A9908430D990843049949680F4AFE
:1041F0001140084304994860FDF702FE7D240546FE
:10420000E4000BE0FDF7FCFD401BA04206D91020A6
:104210001290032070BC08BC04B018470498806852
:10422000C043C006EED40020F4E700000F0000FCFD
:104230000FB470B520200A90C0020F900AA8FEF7B4
:10424000A7FD1A480169012292041143016118492E
:104250001848002412C07F21016084600461FF219E
:10426000446141600838FFF7B7FA134D6946287872
:10427000C87468784874A8788874012204A90D4825
:10428000FFF70CFBE8786946087528794875687966
:104290008875CC750894012205A906480994FFF792
:1042A00065FB70BC08BC04B0184700004010024019
:1042B00000280040D8040020AE000020F0B51C48C3
:1042C0009BB0816B01229203114381635010022540
:1042D000012616A961C1174F002416A93846199561
:1042E0001A94FDF7D7FC03208003169016A91A94A0
:1042F0003846FDF7CFFC10480090FF2005300190B4
:1043000038200294079007200B900A9403A970C1EB
:1043100028020690089409946846FFF7B9FB0098B4
:10432000006840210843009908601BB0F0BD000000
:104330000010024000040050003800400FB410B5D7
:104340000123DA1E082102A8FDF7CEFE10BC08BC2E
:1043500004B01847704700008307FF22DB0E9A4025
:104360008907090E994000280BDA0007000F08386A
:10437000830808489B001818C36993430B43C36123
:104380007047830804489B001818036893430B4345
:104390000360704700ED00E000E400E00346012008
:1043A000002201E05843521C8A42FBD370470000B0
:1043B000F0B585B0044600206946088020462030CC
:1043C000029074E19A891607360F26D0B100019148
:1043D000415A1980198809046FD50199415ABB4A7D
:1043E0001140019A81521C2070430519FF3509358F
:1043F000A87A002820687DD029788A00825A520441
:1044000079D55022125ACB00B14912185918515A75
:104410008F05BF0D70D0EA88BCE09A89D2062AD4F5
:104420000188AC4A1140018020685021095A254674
:10443000283509182878C200A5481018085A8005A0
:10444000800D2064A16B0818A06300212046FDF7B1
:10445000E2FE029800790028B3D068690028B0D144
:1044600002980079802108432168403188810299AF
:10447000002008711BE12546FF35028809351A80A6
:104480001A8812051AD5098A09182878C200904896
:10449000001D1018085A294683059B0DAB61AA8898
:1044A000E431206800F01CF920680188874A114037
:1044B00001802046FEF71AFCF9E08FE01988090414
:1044C000D8D50188814A1140018020685021095ABD
:1044D0007F4E08182978361DC9008919405A83056E
:1044E0009B0DAB610CD0AA882969206800F0F8F810
:1044F000A96902E030E041E050E0286940182861F5
:1045000000212046FDF793FE20685021095A081823
:104510008219E8683E280AD9C102090CC00601D1F7
:10452000491E89B288020121C903084306E0C1037C
:10453000090CC00701D0491C89B28802108020688C
:104540000188654A11400122120351405200514036
:10455000624A11430180AAE05021095A0A182978B9
:10456000CB005B49091D5918515A8F05BF0D20D04A
:10457000AA883B46296900F0B3F81AE05022CB0024
:10458000125A53491218091D5918515A8F05BF0D57
:1045900004D02A893B46296900F0A2F829782068CE
:1045A0008900425A4B4B80331A404C4B40331A43DC
:1045B0004252A869C019A8612869C2192A616B69A9
:1045C000002B02D0E868B84204D929782046FDF7CC
:1045D0002EFE03E029782046FEF7B0F868460088F2
:1045E000000664D51C204643206801993519415ABC
:1045F000384A1140019A81522835A87A002820684B
:1046000011D029788A00825A52061ED55022125A99
:10461000C90012182E480818105A83059B0DAB616B
:1046200024D0EA881EE05021095A09182878C200CF
:1046300027481018085A83059B0DAB6121D0AA8822
:104640002969206800F05BF81BE05022125AC9006B
:1046500012181F48001D0818105A83059B0DAB61E6
:1046600004D02A892969206800F049F8297820684F
:104670008900425A174B80331A40174BF1331A43C3
:10468000425220685021095A09182878C20010485F
:104690001018085A8005800DA86129690A182A6136
:1046A0006B692978002B20460DD0FEF727F920688A
:1046B000014640318A886B469A81120400D581E612
:1046C000002005B0F0BDFDF7A6FDF0E78F0F00005C
:1046D000020400000F8F00008FBF000080800000E8
:1046E000101801225B1C92025B088018002B05D079
:1046F00002880A80801C891C5B1EF9D17047101843
:1047000001225B1C920210B55B088018002B08D0B8
:104710004C780A78240214430480801C891C5B1E98
:10472000F6D110BDF0B50020B9B010901A901490D9
:1047300006901B900A9009901F900746044625900A
:104740002890279024901822FD492BA8FBF7FAFC0B
:104750001420119000202690FA48FDF791F80228C5
:104760007ED3F948FDF78CF8C0B20790F5482430A5
:10477000FDF786F8C0B22990F3481838FDF780F8A5
:10478000C6B2F148001DFDF77BF8C0B21390ED48AA
:104790002C30FDF775F8C0B20C90082E00D9082611
:1047A000EA4D13E0E7483F1DBFB230303818FDF73F
:1047B00067F861006852E34870303818FDF760F818
:1047C000E249A2001031641C8850A4B2B442E9D37B
:1047D000DD4F0024583F07E0A000C019FDF750F856
:1047E000DB490855641CA4B2B442F5D3D74C002071
:1047F000205EFBF76BFFD74D2946FBF775FD1E903A
:104800000220205EFBF762FF2946FBF76DFD1D903D
:10481000CC482C38FDF734F80104C0B20890C948E0
:10482000090E0E912838FDF72BF8040E030C010A2F
:104830003038303CC5B2E4B2303BC248DBB230392C
:1048400001940093CCB22438FDF71AF8010A3039EC
:10485000C0B2CFB2FCF782FA059002A8B0C000E067
:1048600086E2019C009BB94801930094BAA1603094
:10487000089B0E9A04F01CFF0320400209F0D2FFAF
:1048800004460B2009F0CEFF052009F0CBFF0720DE
:1048900009F0C8FF092009F0C5FF042009F0C2FF94
:1048A0000A2009F0BFFF0C2009F0BCFFB0A0009067
:1048B000B2A00390B3A00290B4A00190B6A008905B
:1048C000B7A00590B9A0049003226C21204603F004
:1048D000E9FE00200099225C09788A421ED100215D
:1048E0004218A35C009A525C934203D1491C89B2DE
:1048F0000B29F5D30B2911D1954D002165354218AF
:104900001219D37A292B02D1127B0D2A04D06B54B1
:10491000491C89B20C29F2D300226A540399225C03
:1049200009788A4220D100214218A35C039A525C84
:10493000934203D1491C89B20529F5D3052913D126
:10494000834D00210835421813195A792E2A09D0AF
:104950003E2A02D19B793E2B04D06A54491C89B26D
:104960001E29F0D300226A540299225C09788A42F7
:1049700020D100214218A35C029A525C934203D1D9
:10498000491C89B20729F5D3072913D1704D00219D
:10499000273542181319DA792E2A09D03E2A02D176
:1049A0001B7A3E2B04D06A54491C89B21E29F0D3CD
:1049B00000226A540199225C09788A4220D10021A0
:1049C0004218A35C019A525C934203D1491C89B2FC
:1049D0000929F5D3092913D15D4D00214635421827
:1049E00013195A7A2E2A09D03E2A02D19B7A3E2BDD
:1049F00004D06A54491C89B21E29F0D300226A549B
:104A00000899225C09788A4227D100214218A35CC8
:104A1000089A525C934203D1491C89B20429F5D308
:104A200004291AD14A4D00217135421813191A79F7
:104A30002E2A02D03E2A04D006E05B790D2B08D046
:104A400002E05B793E2B04D06A54491C89B21E29CE
:104A5000EBD300226A54012126910599225C097842
:104A60008A4220D100214218A35C059A525C9342ED
:104A700003D1491C89B20A29F5D30A2913D1334D30
:104A800000216035421813199A7A2E2A09D03E2A3D
:104A900002D1DB7A3E2B04D06A54491C89B20B291F
:104AA000F0D300226A540499225C09788A4220D10A
:104AB00000214218A35C049A525C934203D1491C22
:104AC00089B20C29F5D30C2913D1214D0021903541
:104AD000421813191A7B2E2A09D03E2A02D15B7B79
:104AE0003E2B04D06A54491C89B26429F0D30022B9
:104AF0006A54401C032180B24902884200D2E9E690
:104B0000204609F083FE009809F080FE039809F022
:104B10007DFE029809F07AFE019809F077FE089868
:104B200009F074FE059809F071FE049809F06EFE14
:104B3000064A22A162322BA804F0BAFD014843E0E4
:104B4000ACF500083C00080878010808F80B0020C4
:104B500044010020000020412530326425303264B9
:104B60002564256425642564256425630000000010
:104B700074696D65207A6F6E653A28006C6F676F97
:104B80003A0000004465766963653A004669726DD3
:104B9000776172653A00000075726C3A000000009F
:104BA0004465766963652049443A0000646573632F
:104BB00072697074696F6E3A00000000303A2F25F8
:104BC000732E7064660000001838FCF759FE044626
:104BD000FB48FCF755FE0102090E0F910104C0B21B
:104BE0000490F748090E1691001DFCF749FE0102DA
:104BF000090E0B910104C0B2090E15900891F148FD
:104C0000FCF73EFEC0B22A90012000050D90EC4852
:104C100005940C30FCF734FE00B2FBF757FDEA4C6C
:104C20002146FBF761FB2390E5481030FCF728FE96
:104C300000B2FBF74BFD2146FBF756FB2290E04804
:104C40001430FCF71DFE0599FBF752FA00B2FBF792
:104C50003DFD2146FBF748FB1990FBF7CFFDDB4AF2
:104C6000DB4BFBF78BFBFBF7DDFDD64C2190703C5B
:104C70002046FCF705FE01287AD005980028FBD0D5
:104C80000122D4A1D44807F045F80798012801D0A3
:104C900006220BE002222BA9D04807F063F8002877
:104CA0000CD02BA9CEA007F0F7F802222BA9CB48F5
:104CB00007F058F801212046FCF7F0FD0020DAE06B
:104CC000022206A80D9903F0C5F90D986946801CCB
:104CD0000D90487E097E0002401800B20024039027
:104CE000C3E0C248A50047590C993846FBF700FAC3
:104CF000002903D00C998F4200D9401C81B2BC48D6
:104D0000005D002802D0012833D039E0B74A6000A6
:104D1000103A135E039A934232DDB44A3032125A8B
:104D2000002A04D1B14B6C331F5A7F1C1F52AF4B6A
:104D30008C331F5A7F1C1F521F46103F3B5A8B4219
:104D400004D85B1C9BB23B528B4206D3A74920314F
:104D50000B5A002B01D101230B52A44B521C3033B0
:104D600091B219522C331A5A8A420ED219520CE0BF
:104D7000FEE39E4A6000103A135E039A9342CCDB36
:104D80009A480021620030308152984867002030F4
:104D9000C05B012867D100201490944901984031EC
:104DA000401CC8530C99019848432D214901FBF739
:104DB0009FF980B21090009108463C21FBF798F9CA
:104DC0000A903C210098FBF793F909910B990A98F6
:104DD000401880B2029009990898081880B2009093
:104DE00011983C2807D33C21FBF782F9009A1191D6
:104DF000801880B2009000983C2807D33C21FBF734
:104E000077F9029A0091801880B2029002981828CF
:104E100005D31821FBF76CF980B202911490149914
:104E20001098049A401883B216990F98FCF7A4FEC4
:104E3000704801786D485038C1536F48017831A8E7
:104E400041516E48017869486038C15367490298FA
:104E50004039C85310310098C85310311598C853C1
:104E600002204031C853641CA4B2B44200D238E7D7
:104E70000198401C80B205990190884200D21FE73A
:104E80004F48FCF7FDFC0102090E0F910104C5B269
:104E90004B480C0E001DFCF7F3FC0102090E0B91B0
:104EA0000104090EC0B2089115904B21C900059864
:104EB000FBF71EF9002900D0401C80B21C9001F0C5
:104EC000F1FC01F017FD0798012823D101F028FD1E
:104ED000002003460246009049A14AA002F056F87D
:104EE0000C214AA009F064FD4C4F4D4A4D4B4EA099
:104EF000009702F073FC4A4A4C4B4BA0009702F01B
:104F00006DFCF81C0090314A494B47A002F066FC4A
:104F100001F05EFF3CA347A2002148A001F0DAFFA8
:104F2000C0B20490002003460246009034A135A090
:104F300002F02CF801F0F4FC0721049802F03CF890
:104F40004A200090294620463F230F9A02F040F95C
:104F50003F2000903F23159A08990B9802F076F9AC
:104F600005980A21401E0590012001900598FBF745
:104F7000BFF803900C984143029105980A2863D327
:104F80001A99039840180C991A9048432D21490109
:104F9000FBF7AEF80F4680B2109038463C21FBF785
:104FA000A7F80A9038463C21FBF7A2F809910B9923
:104FB0000A98401880B20D900999089808184BE09B
:104FC0001C0008080C02080800002041333333336A
:104FD0003333D33F303A000008070020380900205F
:104FE000303A2F73797374656D000000080C00204F
:104FF0004401002020010020210100202201002086
:105000007267620066696C6C000000002F463320F6
:10501000342E37382054660A0000000025020000B4
:1050200066666666667668405800000066067940E7
:1050300033AB7D40686F73740000000048656C7688
:1050400065746963610000000B990A98401880B28A
:105050000D9008990998401880B211900199029812
:105060004843062148431599401887B23C2F09D37D
:105070003C213846FBF73CF8024611980F461018C1
:1050800082B2119211983C2808D33C21FBF730F8EA
:1050900002460D981191101882B20D920D981828A1
:1050A00007D31821FBF724F8149A0D91801880B2C9
:1050B0001490149910982A46401883B221460F98EC
:1050C000FCF75AFDFE480278FE4816920178FE4829
:1050D000189101781791002114914A2000900199AC
:1050E0002F2041433F318BB220911799189802F03D
:1050F0006FF83F200090209911988BB2C1B20D98A3
:10510000FAB2C0B202F0A2F80198401C80B201903D
:105110000B2800D231E70C9A099902988918401897
:1051200080B209903C2807D33C21FAF7E1FF0A9AA4
:105130000991801880B20A900A98182807D318217C
:10514000FAF7D6FF109A0A91801880B2109005984D
:105150000521401C0590049801F02EFFDB4AB82180
:10516000DBA001F0B9FF4F22D200B521D8A001F099
:10517000B3FFD64AB9211C3AD5A001F0ADFF972262
:105180009200C921D2A001F0A7FF0798012805D1FC
:10519000FF22A632BB21CEA001F09EFF139801286A
:1051A0000CD0432010A908720020487208210498EE
:1051B00001F002FF0798012802D007E04620F1E73E
:1051C000FF22A332C621C3A001F086FF0921049863
:1051D00001F0F2FEBD4ABB21121F12A801F07CFFB4
:1051E0009D229200B82112A801F076FFB74ABC2197
:1051F000203A12A801F070FF4B22D200CC2112A855
:1052000001F06AFF0798012805D1FF22A232BE21D2
:1052100012A801F061FF1398AF4F00283ED0212162
:1052200049061E98FBF71BF8AC49FBF720F8AC4980
:10523000FBF75AF80221FBF795F83946FAF7BEFF5B
:10524000FBF786FA80B221211A9049061D98FBF7D8
:1052500006F8A249FBF70BF8A149FBF745F8022134
:10526000FBF780F83946FAF7A9FFFBF771FA80B22D
:105270001490002E49D00721049801F09DFE452787
:10528000FF0039461A9A1E9802F036F8012E13D9FB
:105290003946149A1D9802F02FF80FE002211E984B
:1052A000FBF760F83946FAF789FFFBF751FA80B24D
:1052B0001A9002211D98D3E7002E26D0834F12A802
:1052C0004B3F39461A9A01F007FF012E05D939469E
:1052D00012A8149A01F000FF01E0002E15D005215C
:1052E000049801F069FE1A984727C01C82B2FF009B
:1052F000394677A001F0F0FE012E06D91498394600
:10530000C01C82B272A001F0E7FE832080001E90D4
:105310000798012802D16D487D381E900521049818
:1053200001F04AFE002012E06E487900405EFBF773
:10533000CDF96A49FAF7D8FF39460C2251431E9A33
:10534000511A8AB2322101F0D7FF781C80B2074689
:10535000B042E9D300270FE06248B900103040584E
:10536000012807D00C211E9A7943511A8AB2B02124
:1053700002F098F87F1CBFB2B742EDD3079800281F
:1053800012D100270EE05848C05D00280ED00C2036
:105390001E997843081A82B2832154A001F09CFE22
:1053A0007F1CBFB2B742EED3002084E00C201E99D0
:1053B0007843081A82B283214DA0EFE7470049489D
:1053C0003030C05B02285AD146486C30C05B0028A0
:1053D00055D00798002809D11D980C2148431E99E3
:1053E000081A82B2EB2143A001F076FE1D980C2131
:1053F00048431E993B4B081A80B23A492090103915
:10540000203BC95DDB5D0390FF2236481A320093D2
:10541000029201913038C35D1038C25D1038C05D12
:1054200084461D98810031A8405C614602F0FEF977
:105430002C480C995030C05B209A4843FF215D31C5
:1054400002F002F82748FF217C30C05B9A31209A95
:1054500001F07CFF23480C996C30C05B209A4843D4
:10546000FF21CE3101F0F0FF1E480C999C30C05B4B
:10547000209A48431549813901F0E6FF18E0079862
:1054800000280AD11D980C21484383218900081A5D
:1054900082B2EF2119A001F01FFE1D980C21484394
:1054A0001E99081A82B2FF212E3115A001F014FEB8
:1054B0001D98401C80B21D90B04223D27EE70000B0
:1054C000200100202101002022010020860200008E
:1054D0006F0000005D000000000049430000204113
:1054E00000009041F80B0020440100203E00000025
:1054F0003C000000414C41524D0000004F4B000069
:105500002D0000001398012830D1FE4F2398394612
:10551000FAF7ADFEFC49FAF7E7FE21214906FAF752
:105520004DFE239039462298FAF7A1FEF649FAF784
:10553000DBFE21214906FAF741FE229039461998EF
:10554000FAF795FEF049FAF7CFFE21214906FAF75E
:1055500035FE199039462198FAF789FEEA49FAF79B
:10556000C3FE21214906FAF729FE2190079800E0A1
:10557000FEE300287ED00721049801F01DFDE34AD8
:10558000D021E34801F0A8FDE04AFF213832033181
:10559000E04801F0A1FDDD4FA421343F3A462398B5
:1055A00001F0AAFE9D229200A121229801F0A4FE02
:1055B000D64A8B21503A199801F09EFE4B22D20018
:1055C000B521219801F098FE1598FF211990089AAD
:1055D000A93101AB009283C3214628460B9B0F9A49
:1055E00002F024F9B122FF21920080310C9801F0E1
:1055F000ADFEC948FCF744F9FF2180B2C34A8631A9
:1056000001F0A4FEC4480838FCF73AF9BF4AFF216C
:1056100080B22D32173101F099FEBC49119B2D311A
:10562000199803910190DFB20D98AF220292C3B294
:105630000097169A1799189802F0F8F89D2189009A
:10564000199803910190FF220D9899320292C3B2EA
:105650000097169A1899179802F0E8F80598AB4A3F
:10566000FF2180B2503A963101F070FE1098632805
:10567000AA4800E004E0009072D9FF23BC3371E037
:105680000A21049801F098FCA3480838FCF7F8F8C0
:105690009E4FFF212D3780B23A46173101F056FE5A
:1056A00039461598119B1D9003910190DFB20D981A
:1056B00087220292C3B20097169A1799189802F09F
:1056C000B5F8924A6421924801F006FD8F4ACF2135
:1056D0003832904801F000FD904A95212A322398F3
:1056E00001F00AFE9D2292009521229801F004FE0D
:1056F0008A4A98210E32199801F0FEFD874AAD21A1
:10570000219801F0F9FD854B0898FF221D99009022
:105710002A33A53201A80EC0294620460B9B0F9ABA
:1057200002F084F89D2189001D9803910190FF22C9
:105730000D9874320292C3B20097169A179918986E
:1057400002F074F80598754AFF2180B20E32743168
:1057500001F0FCFD7148FF237433009002E0FFE785
:10576000FF23C033099A0A99109801F017FE0A2105
:10577000049801F021FC2698002802D107980128FE
:1057800005D064482F2239210C3001F0A5FC1C986B
:10579000FF22401CC1B210902F23F832012001F0EB
:1057A00083FD0721049801F007FC1398002801D01D
:1057B00000271FE000201D9003E0122801D9584F58
:1057C00000E0002781003220401AFAF77FFF1D9980
:1057D0003A370A01FF219431891A8AB2B9B201F02D
:1057E0008BFD1D98401C80B21D901528E5D326E046
:1057F000042F01D24A4808E038461038022801D266
:10580000022002E0122FF5D800200190B9003220CA
:10581000401A122148430A21FAF780FC2030FAF797
:1058200055FFFF213A019431891A8AB201993A3120
:1058300089B201F061FD7F1CBFB2152FD8D3079844
:10584000002809D001F0C4FA01F06AF80D2135A052
:1058500009F0E2F8002705E21A21049801F0ACFBF8
:10586000C1229200322133A001F036FC00273449D6
:105870007F223B46D205081D009701F087FB254893
:10588000C122FF219200A0315D3801F025FC2C4996
:1058900000231A46081D009701F078FB0A2104989E
:1058A00001F08AFB194AE1212D3226A001F014FCF7
:1058B0001A4F32212A373A4629A001F00DFC9D22C9
:1058C000920032212CA001F007FC144A32210E3242
:1058D0002EA001F001FC114A322132A001F0FCFBA4
:1058E0003A46FF273937394635A001F0F5FB9D22AE
:1058F0009200394638A001F0EFFB084A39460E32D3
:1059000038A075E00000904100002041B602000080
:10591000580C0020A90100206C0008085802000063
:10592000FEFF00002F463120372E33352054660A03
:105930000000000044617461205265706F72740051
:1059400000500008576F726B20646179733A202011
:105950002020202020202020646179730000000096
:10596000486967686573742054656D706572617409
:105970007572653A000000004C6F776573742054AF
:10598000656D70657261747572653A004176657215
:105990006167652054656D70657261747572653AF2
:1059A000000000004D65616E204B696E657469638F
:1059B0002054656D70657261747572653A000000FF
:1059C00053746172742054696D652F4669727374E3
:1059D00020506F696E743A0053746F702054696D73
:1059E000653A00004461746120506F696E743A003A
:1059F00001F072FB4B22D2003946EEA001F06CFBA5
:105A0000F04A3221F0A001F067FBFF21299805310F
:105A1000EC4A00284FD0F5A001F05EFBE94A3221A4
:105A20000B3AFCA001F058FBB12292003221FE4853
:105A300001F052FBE34AFC48383A32211C3001F0B5
:105A40004BFBE04AA121383AF8A001F045FBF648AB
:105A5000B1229200A321083001F03EFBB122FF21C8
:105A600092003931F5A001F037FB5527FF003A4687
:105A70003221F7A001F030FBD24ADF21383A0C98EE
:105A800001F064FCFC48FBF7FBFE80B23A46DB21E8
:105A900001F05CFCB12292005721F84801F01CFB98
:105AA000F648B1229200D2211F3001F015FBF34FCE
:105AB0000020693703E0F2A0AEE7401C80B2395CF9
:105AC0000029FAD11D2817D945280BD9EB485522B2
:105AD000FF21D2003931AE3001F0FEFAE749002053
