:020000040800F2
:1030000058CB0020BD3A0008C1310008C331000888
:10301000C7310008CB310008CF31000800000000A4
:10302000000000000000000000000000D331000894
:10303000D531000800000000D7310008D931000860
:10304000D73A0008D73A0008D73A0008D73A00081C
:10305000D73A0008D73A0008D73A0008D73A00080C
:10306000D73A0008D73A0008D73A0008D73A0008FC
:10307000D73A0008D73A0008D73A0008D73A0008EC
:10308000D73A0008D73A0008D73A0008D73A0008DC
:10309000D73A0008D73A0008D73A0008D73A0008CC
:1030A000D73A0008D73A0008D73A0008D73A0008BC
:1030B000D73A0008D73A0008D73A0008D73A0008AC
:1030C000D73A0008D73A0008D73A0008D73A00089C
:1030D000D73A0008313A0008EB5E0008DB310008FF
:1030E000D73A0008D73A0008D73A0008D73A00087C
:1030F000D73A0008D73A0008D73A0008D73A00086C
:10310000D73A0008D73A0008D73A0008D73A00085B
:10311000D73A0008D73A0008D73A0008D73A00084B
:10312000D73A0008D73A0008D73A0008D73A00083B
:10313000DFF80CD003F056F9004800474D31000885
:1031400058CB002080F308887047000015481649C6
:10315000086000F09DFB4FF4A06000F0C1FC4FF44C
:10316000E13000F019FC4FF4E13002F07FFD0FA0D8
:1031700003F06AF902F0F0FF13E04FF4FA7000F088
:10318000E8FB0E48D0F8440601280AD100200B497C
:10319000C1F84006C1F844064FF4C861074803F07F
:1031A000CCF8EAE70030000808ED00E034472E2EA6
:1031B0002E2E2E2E2E2E2E2E0D0A000010C1002097
:1031C000704700BFFEE700BFFEE700BFFEE700BF9D
:1031D000FEE7704770477047704770B5002540F2B2
:1031E0002551174801F02AFA88B1154801F0A6F9CF
:1031F000C4B214480068401C12490860124908888B
:10320000411C8AB210490A80A1F540410C5440F299
:1032100024410B4801F012FA012810D101210A487B
:103220004180074801F08AF9C4B208A10A4803F0B6
:103230008FF808B1012000E000200849087070BD37
:1032400000480040380000200CC10020434C4F5380
:1032500045440D0A000000000C010020340000204D
:103260000CB50020019000906C48006840F480305C
:103270006A49086000BF6948006800F400300090A7
:103280000198401C0190009818B90198B0F5A06F02
:10329000F1D16248006800F4003010B101200090C4
:1032A00001E0002000900098012843D15C480068AC
:1032B00040F010005A4908600846006820F00300FA
:1032C00008600846006840F0020008605348406803
:1032D000524948600846406848600846406840F4E3
:1032E000806048600846406820F47C1048600846CA
:1032F000406840F4E81048600846006840F080707C
:10330000086000BF4548006800F000700028F9D050
:103310004248406820F00300404948600846406841
:1033200040F00200486000BF3C48406800F00C00DC
:103330000828F9D10CBD10B5FFF792FF10BD10B5EC
:103340003648006840F0010034490860084640688B
:10335000344908403149486008460068324908400D
:103360002E4908600846006820F48020086008465E
:10337000406820F4FE0048604FF41F008860FFF7AB
:10338000DAFF4FF000602949086010BD10B5002138
:1033900000200022214B5B6803F00C0121B10429BD
:1033A00006D0082928D107E0214B224C236027E0D2
:1033B0001F4B204C236023E0184B5B6803F4701014
:1033C000164B5B6803F48032022303EB904022B972
:1033D000194B4343174C23600DE0104B5B6803F41B
:1033E000003323B1144B4343124C236003E0104BD2
:1033F0004343104C236003E00D4B0E4C236000BF91
:1034000000BF064B5B68C3F303130C4CE15C094B34
:103410001B68CB40074C236010BD00000010024029
:10342000002002400000FFF8FFFFF6FE08ED00E07C
:1034300000127A000000002000093D000400002076
:103440002DE9F04107460D4616464FF0000801F001
:1034500058F9352001F0F0FB002411E0285D29190E
:10346000497800EB01201FFA80F83819414601F035
:1034700090FA042802D02046BDE8F081A01C84B256
:10348000B442EBD301F049F93046F5E770B5044694
:103490000D461646324629462046FFF7D1FF70BD3D
:1034A00070B505460E4601F02CF9352001F0C4FB3D
:1034B000002409E005EB842001F068F9042801D01C
:1034C000002070BD601CC4B2B442F3DB01F025F9EA
:1034D0000120F6E770B505460C46E1B22846FFF735
:1034E000DFFF70BD08B5AA20009039215F48FFF7C3
:1034F000F1FF012269465D48FFF7C8FF08BD10B51E
:103500000346002002E01C5C0C54401C9042FAD39D
:1035100010BD08B500200090012269465348FFF70E
:10352000EEFF9DF8000008BD08B5002000900122C4
:1035300069464F48FFF7E3FF9DF8000008BDF0B56E
:10354000ADF2044D07460E461546002449A002F090
:103550007BFFE90A3046FFF7BDFF4EA002F074FF83
:1035600054A002F071FF00BF0EE007EB84204FF47F
:10357000806201A9FFF7C3FF06EB84204FF480624D
:1035800001A9FFF783FF641CB4EB952FEDD34FA087
:1035900002F05AFF52A002F057FFE90A3846FFF73F
:1035A00099FF57A002F050FF0DF2044DF0BD70B529
:1035B000044620685A490840B0F1005F05D16568AB
:1035C0002068FFF7BFFDA8470AE0FFF7ADFFFF281F
:1035D00003D154A002F038FF02E057A002F034FFFC
:1035E00070BD10B532A002F02FFF59A002F02CFFE1
:1035F00061A002F029FF6AA002F026FF5EA002F09F
:1036000023FF53A002F020FF6FA002F01DFFFFF781
:1036100080FFAA2807D0BB2812D0FF2814D173A09E
:1036200002F012FF18E077A002F00EFF4FF45042B4
:103630000F497A48FFF783FF79A002F005FF0BE0FE
:103640007DA002F001FF07E0FFF763FF044621467B
:1036500083A002F0F9FE10BD00BF72B686A002F092
:10366000F3FE0348FFF7A3FF00BFF4E7F8CF01081C
:10367000003000083E2053746172742065726173DB
:10368000652064657320666C6173682E2E2E2E2E65
:103690002E0D0A003E20457261736520646573201B
:1036A000666C61736820646F776E2E2E2E2E2E2E20
:1036B0000D0A00003E20537461727420636F7079AC
:1036C0002E2E2E2E2E2E0D0A000000003E20436FBF
:1036D000707920646F776E2E2E2E2E2E2E0D0A00FE
:1036E0003E20537461727420657261736520737239
:1036F0006320666C6173682E2E2E2E2E2E0D0A000E
:103700003E2045726173652073726320666C61733D
:103710006820646F776E2E2E2E2E2E2E0D0A00003E
:103720000000FE2F3E204170702D2D4E4F4E452142
:1037300021210D0A000000004A756D70546F417020
:10374000702D2D4552524F522121210D0A000000AB
:103750002A2A2A2A2A2A2A2A2A2A2A2A2A2A2A2AC9
:103760002A2A2A2A2A2A2A2A2A2A2A2A2A2A2A2AB9
:103770002A2A2A0D0A0000002A20202020202020AA
:103780002020202020202020202020202020202039
:10379000202020202020202020202A0D0A000000A8
:1037A0002A2020202057656E7A68656E672773206F
:1037B000426F6F744C6F616465722020202020205E
:1037C00020202A0D0A0000003E2043686F6F7365B9
:1037D00020612073746172747570206D6574686FF8
:1037E000642E2E2E2E2E2E0D0A0000003E204E6F2F
:1037F000726D616C2073746172742E2E2E2E2E2EBB
:103800000D0A00003E20537461727420757064616B
:1038100074652E2E2E2E2E2E0D0A0000000001089B
:103820003E2055706461746520646F776E2E2E2E75
:103830002E2E2E0D0A0000003E20526573746F720A
:103840006520746F20666163746F72792070726F87
:103850006772616D2E2E2E2E2E2E0D0A0000000096
:103860003E204572726F723A25582121212E2E2E4C
:103870002E2E2E0D0A0000003E205374617274201B
:1038800075702E2E2E2E2E2E0D0A0D0A0000000011
:1038900010B56FF0040000F072F934480068344944
:1038A000B0FBF1F0334908700846007800EB4001A6
:1038B000C1EBC0104FF6FF7101EAC0002E4908802D
:1038C00010BD01462B4A12784A434FF0E0235A615B
:1038D00000229A611A46126942F001021A6100BF81
:1038E0004FF0E022106900F001021AB100F48032BA
:1038F000002AF5D04FF0E022126922F001024FF0C9
:10390000E0231A6100229A61704701461A4A128820
:103910004A434FF0E0235A6100229A611A46126925
:1039200042F001021A6100BF4FF0E022106900F07E
:1039300001021AB100F48032002AF5D04FF0E022E3
:10394000126922F001024FF0E0231A6100229A610D
:10395000704730B50446002504E04FF47A70FFF755
:10396000B0FF6D1CA542F8D330BD00000000002060
:1039700000127A00140000201600002000BF7047DB
:1039800000BF4A4A128802F04002002AF9D0C2B2AF
:10399000464B1B1D1A80704710B586B004460121A6
:1039A00044F2040000F026FC4FF40070ADF814005F
:1039B00003208DF8160018208DF8170005A93C4843
:1039C00000F05CF94FF48060ADF8140004208DF82D
:1039D000170005A9364800F051F925208DF80000A0
:1039E00003208DF801008DF8020001208DF80300FE
:1039F000684600F07AF801940020ADF80800ADF8B0
:103A00000A00ADF80C00ADF810000C20ADF80E0067
:103A100001A9264800F095FC012240F225512348D7
:103A200000F027FD0121214800F017FD06B010BD70
:103A300010B540F225511D4800F000FE10B31B48A0
:103A400000F07CFDC4B21B48008800F40040C8B9F7
:103A50001848008800F4804060B10A2C03D0002090
:103A60001449088020E01348008840F400401149C0
:103A7000088019E00D2C06D10E48008840F48040E3
:103A80000C49088010E00B480088C0F30D000A497B
:103A90000C5408480088401C0649088008460088E5
:103AA000C72801DD0020088010BD0000003801405B
:103AB000000801401C000020440000200648804708
:103AC00006480047FEE7FEE7FEE7FEE7FEE7FEE703
:103AD000FEE7FEE7FEE7FEE73F330008313100086E
:103AE00031490143314A1160704770B5002100230C
:103AF0000F22C47804B32D4C246804F4E064C4F5A8
:103B0000E064210AC1F10403CA40447804FA03F1D5
:103B10008478144021430901254C0678A155047886
:103B200004F01F050124AC4005786D11AD0005F1CE
:103B3000E025C5F8004109E0047804F01F050124E0
:103B4000AC401C4D0678761145F8264070BD1A4AE7
:103B50000A400243154B1B1F1A60704739B1134AC4
:103B6000121D12680243114B1B1D1A6006E00F4A1A
:103B7000121D126882430D4B1B1D1A6070470428EA
:103B800008D14FF0E021096941F004014FF0E02233
:103B9000116107E04FF0E021096921F004014FF0C5
:103BA000E0221161704700000000FA050CED00E012
:103BB00000E400E080E100E080FFFF1F10B5044654
:103BC000CC48844208D10121042000F02DFB0021C3
:103BD000042000F029FB46E0C748844208D10121B7
:103BE000082000F021FB0021082000F01DFB3AE036
:103BF000C248844208D10121102000F015FB0021A9
:103C0000102000F011FB2EE0BD48844208D10121B4
:103C1000202000F009FB0021202000F005FB22E01D
:103C2000B848844208D10121402000F0FDFA00216B
:103C3000402000F0F9FA16E0B348844208D101218F
:103C4000802000F0F1FA0021802000F0EDFA0AE077
:103C5000AE48844207D10121801500F0E5FA002129
:103C6000A01500F0E1FA10BD10B50121084600F0E2
:103C7000DBFA0021012000F0D7FA10BD2DE9F04158
:103C8000024600250026002000230024002791F88A
:103C900003C00CF00F0591F803C00CF0100CBCF140
:103CA000000F03D091F802C04CEA050591F800C05E
:103CB000BCF1000F31D0146800202BE04FF0010C54
:103CC0000CFA00F3B1F800C00CEA03069E4220D1C2
:103CD00083004FF00F0C0CFA03F7BC4305FA03FC0A
:103CE0004CEA040491F803C0BCF1280F06D14FF050
:103CF000010C0CFA00FCC2F814C00AE091F803C0F1
:103D0000BCF1480F05D14FF0010C0CFA00FCC2F8D1
:103D100010C0401C0828D1D31460B1F800C0BCF119
:103D2000FF0F34DD546800202EE000F1080C4FF046
:103D3000010808FA0CF3B1F800C00CEA03069E4231
:103D400021D183004FF00F0C0CFA03F7BC4305FAA6
:103D500003FC4CEA040491F803C0BCF1280F05D120
:103D600000F1080C08FA0CF8C2F8148091F803C0AE
:103D7000BCF1480F07D100F1080C4FF0010808FA18
:103D80000CF8C2F81080401C0828CED35460BDE85F
:103D9000F0814FF6FF710180022181700421C17012
:103DA00070470246002093680B400BB1012000E0F1
:103DB000002070470146886880B2704702460020A4
:103DC000D3680B400BB1012000E000207047014692
:103DD000C86880B2704701617047416170470AB19D
:103DE000016100E041617047C16070474FF480326B
:103DF0000A438261816182618269826970470246F9
:103E00000020434B18684FF68073184040EA0210B8
:103E100008433F4B186070473E49C8617047F0B592
:103E20000A46002300240021002500F00046B6F1D8
:103E3000004F02D1364EF16901E0354E7168C0F392
:103E4000034583B200F44016B6F5401F08D121F0B7
:103E500070612F4E766826F070662D4F7E6012E0FE
:103E600000F48016B6F5801F06D1032606FA05F485
:103E7000A14341F0706106E0460D360103FA06F6F3
:103E8000B14341F0706122B1460D360103FA06F6E6
:103E9000314300F00046B6F1004F02D11C4EF161F3
:103EA00001E01B4E7160F0BD30B500228B071C0F86
:103EB0000F2303FA04F2164B08338C1053F8243006
:103EC0009343134C08348D1044F8253023468C104E
:103ED00053F824308C07240F00FA04F423430C4CCD
:103EE00008348D1044F8253030BD0A49DC310860B3
:103EF0007047000000080140000C01400010014024
:103F00000014014000180140001C01400020014045
:103F10000000014000002042DF48006840F001003E
:103F2000DD49086008464068DC490840DA494860D5
:103F300008460068DA490840D74908600846006822
:103F400020F4802008600846406820F4FE004860A5
:103F50004FF41F0088607047CF49096821F4803111
:103F6000CD4A11601146096821F480211160B0F535
:103F7000803F03D0B0F5802F0ED106E0C649096816
:103F800041F48031C44A116007E0C349096841F433
:103F9000A021C14A116000E000BF00BF704710B50A
:103FA00001460022002300204A11012A02D1BA4C06
:103FB000236806E0022A02D1B74C236A01E0B64C1E
:103FC000636A01F01F02012494401C400CB10120DF
:103FD00000E0002010BD38B500200090002400252E
:103FE00000BF3120FFF7DBFF05460098401C009022
:103FF0000098B0F5A06F01D0002DF2D03120FFF76E
:10400000CEFF08B1012400E00024204638BD01465F
:104010000020A14A106820F0F80040EAC1001060BA
:104020007047A04908607047024600209A4B5868C4
:1040300020F47C1042EA01031843974B5860704704
:1040400098490866704701460020934A506820F05E
:1040500003000843506070478F48406800F00C0030
:104060007047014600208C4A506820F0F000084359
:104070005060704701460020874A506820F4E06095
:1040800008435060704701460020834A506820F47E
:10409000605040EAC1005060704729B17E4A527AB0
:1040A00002437D4B5A7204E07B4A527A82437A4B38
:1040B0005A7270477B49D83108607047014600202A
:1040C000754A506820F44040084350607047002112
:1040D000714A20321170704A82F82010012802D0F3
:1040E00004280AD104E001216B4A2032117005E056
:1040F0000521694A2032117000E000BF00BF7047FF
:104100006949086070476449096A0143624A11625B
:104110007047654944390860704730B50021002276
:10412000002400235C4D6D6805F00C0121B10429C9
:1041300005D0082923D105E05C4D056022E05B4DE8
:1041400005601FE0544D6D6805F47012524D6D68A6
:1041500005F48034022505EB92421CB9544D5543B9
:1041600005600BE04C4D6D6805F400351DB1504DF8
:104170005543056002E04D4D5543056002E04B4D4F
:10418000056000BF00BF444D6D6805F0F0010909EE
:10419000484D6B5C0568DD4045603F4D6D6805F43A
:1041A000E061090A434D6B5C4568DD4085603A4D2E
:1041B0006D6805F46051C90A3E4D6B5C4568DD4091
:1041C000C560354D6D6805F44041890B3A4D6B5C17
:1041D000C568B5FBF3F5056130BD29B12E4A5269BA
:1041E00002432D4B5A6104E02B4A526982432A4B09
:1041F0005A61704729B1284A92690243264B9A6155
:1042000004E0254A92698243234B9A61704729B1A1
:10421000214AD2690243204BDA6104E01E4AD26986
:1042200082431D4BDA61704729B11B4AD2680243B1
:10423000194BDA6004E0184AD2688243164BDA6000
:10424000704729B1144A12690243134B1A6104E002
:10425000114A12698243104B1A6170471249403962
:10426000086070470F49C86470470B49C8717047B0
:104270000948406A40F0807007494862704701462B
:104280000020054A92680A400AB1012000E000209F
:104290007047014988727047001002400000FFF823
:1042A000FFFFF6FE000042428004424200127A0004
:1042B00000093D001E0000202E00002010B504461D
:1042C000FB48844209D101218803FFF7ADFF00219B
:1042D0004FF48040FFF7A8FF32E0F648844209D14E
:1042E00001214804FFF7ADFF00214FF40030FFF734
:1042F000A8FF25E0F048844209D101218804FFF796
:10430000A0FF00214FF48020FFF79BFF18E0EB484F
:10431000844209D10121C804FFF793FF00214FF423
:104320000020FFF78EFF0BE0E548844208D1012111
:104330000805FFF786FF00214FF48010FFF781FF8B
:1043400010BD2DE9F04786B005460E460024A24672
:1043500000BFA1460027B08900B100BF2F462C8ABC
:104360004CF6FF700440F08804432C82AC894EF672
:10437000F3100440B088318908437189084304432D
:10438000AC81AC8A4FF6FF400440B0890443AC8254
:1043900001A8FFF7C2FEC648874202D1DDF810A08F
:1043A00001E0DDF80CA0A88900F4004040B10AEB60
:1043B000CA0000EB0A1031684900B0FBF1F807E0D1
:1043C0000AEBCA0000EB0A1031688900B0FBF1F873
:1043D0006420B8FBF0F004012009642101FB10897E
:1043E000A88900F4004040B1322000EBC900B0FBC6
:1043F000F1F000F00700044308E0322000EB091060
:104400006421B0FBF1F000F00F0004432C8106B0F2
:10441000BDE8F0874FF41651016000218180C18012
:1044200001810C21418100218181704710B5024634
:104430000020108A4FF2FF0318400B884C8823435A
:104440008C882343CC8823431843108210BD00215D
:10445000018041808180C180704721B1828942F40E
:104460000052828104E082894DF6FF731A408281F6
:104470007047F0B50346002400260025002040F6D2
:104480006A17B94200D100BF1846C1F3421401F0C7
:104490001F06012707FA06F5012C01D10C3004E0B4
:1044A000022C01D1103000E014301AB107682F43FC
:1044B000076002E00768AF430760F0BD1AB1838A66
:1044C0000B43838202E0838A8B4383827047028A94
:1044D0004FF6F0731A400282028A0A430282704742
:1044E00082894FF2FF731A40828182890A43828156
:1044F000704721B1828942F00202828104E0828900
:104500004FF6FD731A4082817047028A4FF6DF73BF
:104510001A400282028A0A430282704721B1028A4B
:1045200042F48042028204E0028A4BF6FF731A4092
:1045300002827047C1F30802828070470146888872
:10454000C0F308007047818941F001018181704703
:10455000028BD2B20283028B42EA012202837047AD
:10456000028B02F47F420283028B0A43028370476C
:1045700021B1828A42F02002828204E0828A4FF6D0
:10458000DF731A408282704721B1828A42F01002A2
:10459000828204E0828A4FF6EF731A40828270476B
:1045A00021B1828A42F00802828204E0828A4FF6B8
:1045B000F7731A408282704721B1828942F4004227
:1045C000828103E08289C2F30E028281704721B1A9
:1045D000828A42F40062828204E0828A4FF2FF7390
:1045E0001A4082827047828A4FF6FB731A40828299
:1045F000828A0A438282704721B1828A42F0020293
:10460000828204E0828A4FF6FD731A4082827047EC
:1046100002460020B1F5007F00D100BF13880B4097
:104620000BB1012000E00020704701F40072B2F5E8
:10463000007F00D100BFCA430280704770B50246B8
:10464000002400230025002040F66A16B14200D164
:1046500000BFC1F3421501F01F03012606FA03F360
:10466000012D02D19689334006E0022D02D1168A2F
:10467000334001E0968A33400C12012606FA04F416
:104680001688344013B10CB1012000E0002070BD49
:1046900010B50022002340F66A14A14200D100BFE9
:1046A0000A1201249440A3B2DC43048010BD000030
:1046B000003801400044004000480040004C0040E9
:1046C0000050004001460020FE4A106800F038000B
:1046D000084310607047FB49096821F00801F94A56
:1046E000116011460968014311607047F549096876
:1046F00021F01001F34A116011460968014311606D
:104700007047F148EF494860F04848607047EE480C
:10471000EC494860ED4848607047EA48006940F05D
:104720008000E84908617047E648006940F0800071
:10473000E449086170470420E249C96801F00101B9
:1047400009B101200EE0DF49C96801F0040109B197
:10475000022007E0DB49C96801F0100109B103201C
:1047600000E00420704700B502460423FFF7E3FF92
:10477000034603E0FFF7DFFF0346521E012B01D182
:10478000002AF7D102B90523184600BD30B504460A
:1047900004254FF43020FFF7E6FF0546042D17D11E
:1047A000C848006940F00200C649086108464461F3
:1047B000006940F0400008614FF43020FFF7D3FF5C
:1047C0000546C048006941F6FD710840BD490861D1
:1047D000284630BD10B504244FF43020FFF7C3FF46
:1047E0000446042C16D1B748006940F00400B549CE
:1047F00008610846006940F0400008614FF430202D
:10480000FFF7B1FF0446AF48006941F6FB7108406D
:10481000AC490861204610BD00B502460423FFF7ED
:104820008AFF034603E0FFF786FF0346521E012B73
:1048300001D1002AF7D102B90523184600BD10B5F1
:1048400004244FF43020FFF7E7FF0446042C16D170
:104850009C48006940F004009A49086108460069D4
:1048600040F0400008614FF43020FFF7D5FF0446C8
:104870009448006941F6FB7108409249086120465E
:1048800010BD00208F49C96901F0020109B1012062
:1048900000E00020704730B5A5250424FFF7F1FFA4
:1048A00000B100254FF43020FFF75DFF0446042CD3
:1048B0003AD1854883498860844888600846006901
:1048C00040F0200008610846006940F0400008619F
:1048D0004FF43020FFF747FF0446042C1BD17948E2
:1048E000006941F6DF7108407649086108460069B1
:1048F00040F01000086176480580E002FFF733FFC2
:104900000446052C10D06F48006941F6EF7108404D
:104910006C49086108E0052C06D06A48006941F638
:10492000EF71084067490861204630BD78B50646FA
:104930000C46042500200090E802FFF714FF05460E
:10494000042D24D15F48006940F001005D490861F1
:104950003480E802FFF707FF0546042D10D1B01C94
:104960000090200C00990880E802FFF7FCFE054645
:104970005448006941F6FE7108405249086106E05A
:104980005048006941F6FE7108404E4908612846CA
:1049900078BD70B504460D460426F002FFF7E3FE2D
:1049A0000646042E11D14748006940F001004549F0
:1049B00008612580F002FFF7D6FE064641480069EF
:1049C00041F6FE7108403F490861304670BD70B540
:1049D00005460E460424E002FFF7C5FE0446042CFB
:1049E00017D13948374988603848886008460069D7
:1049F00040F0100008612E80E002FFF7B4FE04468C
:104A0000052C06D02F48006941F6EF7108402D496A
:104A10000861204670BD2DE9F04304464FF6FF764D
:104A20003746B046B1460425E443E6B2C4F307274F
:104A3000C4F307484FEA1469E802FFF794FE0546FD
:104A4000042D49D120481F498860204888600846C5
:104A5000006940F010000861FF2E06D01C480830A5
:104A60000680E802FFF77FFE0546042D08D1FF2FE0
:104A700006D017480A300780E802FFF774FE0546A3
:104A8000042D0AD1B8F1FF0F07D011480C30A0F85F
:104A90000080E802FFF767FE0546042D0AD1B9F150
:104AA000FF0F07D00A480E30A0F80090E802FFF789
:104AB0005AFE0546052D0FD00248006941F6EF71F8
:104AC000084007E00020024023016745AB89EFCD95
:104AD00000F8FF1F664908612846BDE8F08330B53D
:104AE000054604244FF43020FFF73DFE0446042C15
:104AF00041D160485E4988605F4888600846006927
:104B000040F0200008610846006940F0400008615C
:104B10004FF43020FFF727FE0446042C22D15448DE
:104B2000006941F6DF710840514908610846006993
:104B300040F0100008611DB100205049088002E0DB
:104B4000A5204E4908804FF43020FFF70CFE0446A4
:104B5000052C10D04648006941F6EF7108404449E1
:104B6000086108E0052C06D04148006941F6DF7174
:104B700008403F490861204630BDF0B505460E4665
:104B8000174604243B483A4988603B488860E00265
:104B9000FFF7E9FD0446042C19D13548006940F0BF
:104BA00010003349086147F0F80030432843334987
:104BB000891C0880E002FFF7D6FD0446052C06D0CC
:104BC0002B48006941F6EF710840294908612046E9
:104BD000F0BD2748C069800870472548006A7047C3
:104BE00000202349096801F0200109B1012000E0FB
:104BF0000020704729B11E4A126902431C4B1A61FA
:104C000004E01B4A12698243194B1A61704701463E
:104C10000020012908D1164AD26902F001020AB126
:104C2000012008E0002006E0114AD2680A400AB1DB
:104C3000012000E0002070470D49C8607047042043
:104C40000B49C96801F0010109B101200EE00849D2
:104C5000C96801F0040109B1022007E00449C968EC
:104C600001F0100109B1032000E0042070470000AA
:104C70000020024023016745AB89EFCD00F8FF1FFC
:104C800008B54FF4A060FEF72BFF27208DF8000039
:104C900000208DF801008DF8020001208DF803003E
:104CA0006846FEF722FF08BD00B585B001218804E3
:104CB000FFF7ADFA01210820FFF79CFA4FF480605E
:104CC000ADF8100018208DF8130003208DF81200A5
:104CD00004A9F948FEF7D2FF4FF40060ADF81000C8
:104CE00004208DF8130004A9F348FEF7C7FF4FF422
:104CF000E13000900020ADF80400ADF80600ADF8FA
:104D00000800ADF80C000C20ADF80A006946EB482D
:104D1000FFF717FB012240F22551E848FFF7A9FBF6
:104D2000012240F22441E548FFF7A3FBFFF7A8FF6B
:104D30000121E248FFF791FB05B000BD08B5012154
:104D40000820FFF757FA4FF40070ADF8000010206C
:104D50008DF8030003208DF802006946D648FEF75F
:104D60008DFF01210820FFF745FA8020ADF80000F3
:104D70006946D148FEF782FF08BD10B5FFF7DEFF98
:104D8000FFF792FF8021CC48FFF725F84FF4007120
:104D9000C948FFF722F810BD10B58021C648FFF7BB
:104DA0001CF84FF4FA70FEF7B0FD8021C248FFF7FF
:104DB00012F810BD2DE9F04104460E4617460025B5
:104DC000A8460021BE4801802146BEA001F03CFB60
:104DD0002246C0A1B94800F0DEFB1EB917B9012078
:104DE000BDE8F0811AE06420FEF7B3FD08F1010888
:104DF0003146BA4801F0ACFA80B1002505E0B74869
:104E0000415DB7A001F020FB6D1CAD480088A842B1
:104E1000F5D8B4A001F018FB0020E1E7E3E72DE9A5
:104E2000F04706460C4615461F464FF00008C1469F
:104E30000021A34801803146A2A001F005FB3246C3
:104E4000A4A19E4800F0A7FB1CB915B90120BDE83C
:104E5000F087B8B2FEF77DFD0021994800889F4A8F
:104E6000115411469BA001F0EFFAB4B1ADB1214647
:104E70009A4801F06DFA08B1012000E0002040B925
:104E80002946964801F064FA08B1012000E00020AC
:104E900008B10120DBE70020D9E744B121468F4863
:104EA00001F056FA08B10120D1E70020CFE72946EA
:104EB0008A4801F04DFA08B10120C8E70020C6E792
:104EC0002DE9F04106460C4615461F4600217C4858
:104ED000018032467FA1794800F05DFB1CB915B90D
:104EE0000120BDE8F081B8B2FEF733FD002174481F
:104EF00000887A4A115411467BA001F0A5FAB4B19A
:104F0000ADB12146754801F023FA08B1012000E057
:104F1000002040B92946714801F01AFA08B1012071
:104F200000E0002008B10120DBE70020D9E744B110
:104F300021466A4801F00CFA08B10120D1E70020AF
:104F4000CFE72946654801F003FA08B10120C8E718
:104F50000020C6E710B5002480215748FEF73BFF2C
:104F60004FF47A70FEF7F5FC0CE04FF4FA73002270
:104F70005EA15FA0FFF753FF00B110BDFFF70CFF6C
:104F8000601CC4B20A2CF0DB00BFF6E710B5044683
:104F900024B1012C0AD0022C18D10FE041F2941355
:104FA00054A252A156A0FFF73AFF10BD41F294134C
:104FB00050A24EA155A0FFF732FFF6E741F294133D
:104FC0004CA24AA154A0FFF72AFFEEE70020ECE72D
:104FD00030B59FB004460D462B46224651A101A88C
:104FE00001F042FA42F21073002240A101A8FFF73B
:104FF00016FF1FB030BD70B5A0B004460D46164672
:105000002B4622464CA102A8009601F02DFA4FF43F
:105010007A73002235A102A8FFF701FF20B070BD0E
:1050200010B586B004460CB1012000E00020024615
:1050300047A101A801F018FA40F6C41300222BA1E1
:1050400001A8FFF7ECFE06B010BDF0B5B9B00646FA
:105050000F4614461D46642120A801F06EF916B1D2
:10506000012E10D107E03B463DA23EA120A80094AE
:1050700001F0FAF908E03B463EA23AA120A80094CC
:1050800001F0F2F900E000BF00BF052D06DA20AB09
:105090002A4639A102A801F0E7F904E020AA3BA1C1
:1050A00002A801F0E1F94FF47A633CA20FA102A833
:1050B000FFF7B5FE39B0F0BD000C014000480040DC
:1050C0000CC100204154A1AAA1AA73656E643A25BF
:1050D000730D0A0025730D0A000000000C0100206A
:1050E000256300000D0A0000257300004F4B0000EF
:1050F000415400006E6F206368616E6765000000B8
:1051000041542B43574D4F44453D310041542B43AF
:10511000574D4F44453D320041542B43574D4F446A
:10512000453D330041542B43574A41503D2225739E
:10513000222C22257322000041542B435753415007
:105140003D222573222C222573222C312C2564002C
:1051500041542B4349504D55583D256400000000F3
:1051600054435000222573222C222573222C2573B0
:10517000000000005544500041542B434950535403
:105180004152543D25642C257300000041542B43AB
:10519000495053544152543D25730000414C5245EF
:1051A000415920434F4E4E454354000070B5BCB0AA
:1051B00004460D4616460CB32B46012294A11EA8A8
:1051C00001F052F9324697A1684601F04DF94FF4CB
:1051D000FA730022AFF2EC011EA8FFF720FE58B1CF
:1051E0004FF4FA730022AFF2FC016846FFF717FE96
:1051F00010B101203CB070BD0020FBE72B4600221F
:1052000083A11EA801F030F94FF4FA730022AFF227
:1052100024111EA8FFF703FEECE710B54FF4FA7354
:105220000022AFF2381183A0FFF7F9FDA0B185A1EC
:10523000874801F08DF808B1022010BD85A184488F
:1052400001F086F808B10320F7E785A1804801F056
:105250007FF808B10420F0E70020EEE710B5002445
:105260004FF4FA730022AFF27C1172A0FFF7D7FD62
:10527000002831D07DA1764801F06AF810B144F0E1
:10528000010401E024F001047CA1714801F060F800
:1052900010B144F0020401E024F002047BA16C4848
:1052A00001F056F810B144F0040401E024F00404C5
:1052B0007AA1674801F04CF810B144F0080401E00D
:1052C00024F0080479A1624801F042F810B144F0DA
:1052D000100401E024F01004204610BD2DE9F04137
:1052E00005460F464FF4FA730022AFF2002173A077
:1052F000FFF795FD74A1564801F02AF806460EB155
:10530000B61D02E00020BDE8F081002409E0305D18
:105310002855285D222802D10020285503E0601C72
:10532000C4B2BC42F3DB00BF0120ECE710B54FF480
:10533000FA730022AFF24C2165A0FFF770FD08B9A7
:10534000002010BD4FF4FA7365A2AFF2602165A092
:10535000FFF765FDF5E710B54FF47A70FEF7D5FA63
:1053600063A1644800F017F94FF4FA70FEF7CDFA24
:1053700010BD2DE9F04186B007460C4615461E4685
:105380004FF000083FB1224625A15A4800F003F92A
:105390004FF001081CE0052E06DAAB1C324656A180
:1053A00001A801F061F804E0AA1C58A101A801F0CD
:1053B0005BF84FF47A73002258A101A8FFF72FFD84
:1053C0004FF47A73002256A12046FFF728FD80464D
:1053D000404606B0BDE8F08170B5044600250021C6
:1053E00051480180418000BF4F4840880028FBD0D1
:1053F00000214D480088164A11540CB1154605E0AD
:105400004AA1134800F0A4FF00B1114D284670BD19
:1054100041542B4349505345525645523D25642C27
:105420002573000041542B43495053544F3D25737D
:105430000000000041542B434950535441545553EC
:10544000000000005354415455533A320D0A0000F5
:105450000C0100205354415455533A330D0A0000B7
:105460005354415455533A340D0A00002B434950CC
:105470005354415455533A302C0000002B434950AB
:105480005354415455533A312C0000002B4349509A
:105490005354415455533A322C0000002B43495089
:1054A0005354415455533A332C0000002B43495078
:1054B0005354415455533A342C00000041542B436B
:1054C0004946535200000000415049502C22000030
:1054D00041542B4349504D4F44453D31000000009D
:1054E0003E00000041542B43495053454E440000B8
:1054F0002B2B2B000048004041542B43495053456F
:105500004E443D25642C25640000000041542B438B
:10551000495053454E443D25640000003E200000A4
:1055200053454E44204F4B000CC100202B495044A2
:1055300000000000F0B503460D4616460027294638
:105540000A2E03D0002008702846F0BD33B9302061
:1055500001F8010B002008702846F6E7002B03DA5B
:105560002D2001F8010B5B4242F210720DE093FB1B
:10557000F2F404B937B104F1300001F8010B04FB77
:10558000123301270A2092FBF0F2002AEFDC002000
:1055900008702846D9E70FB470B586B006460CA847
:1055A000019073E00B9800785C281CD10B98401C8C
:1055B0000B9000786E2809D072280FD10D2130464B
:1055C000FEF7B8FF0B98401C0B900BE00A21304609
:1055D000FEF7B0FF0B98401C0B9003E00B98401CAB
:1055E0000B9000BF4BE00B980078252840D10B981A
:1055F000401C0B900078642818D0732833D1019890
:1056000010C801900BE021783046FEF793FF00BFF1
:1056100080213046FEF7FCFF0028F9D0641C20787A
:105620000028F0D10B98401C0B9020E0019820C876
:1056300001900A2202A92846FFF77CFF02AC0BE08A
:1056400021783046FEF776FF00BF80213046FEF716
:10565000DFFF0028F9D0641C20780028F0D10B98D7
:10566000401C0B9003E00B98401C0B9000BF06E021
:105670000B9810F8011B0B903046FEF75BFF00BF44
:1056800080213046FEF7C4FF0028F9D00B9800783F
:10569000002887D106B070BC5DF814FB10B5FB483C
:1056A0000078002824D0FFF756FE00BFFFF7B5FDB5
:1056B0000446002CFAD0042C15D1F5A000F0C4FE4D
:1056C00000BFFBA1FDA0FFF783FC0028F9D000BFBD
:1056D0000523FCA2FDA10020FFF7B7FC0028F7D0AE
:1056E000FEA000F0B1FE00BFFFF720FE0028FBD0B7
:1056F00010BD2DE9F04781460E4617469846002416
:1057000000253146484600F023FE04463946484607
:1057100000F01EFE054614B10DB1AC4203D9F6A04F
:1057200000F092FE08E0304600F024FE04442A1BFC
:105730002146404600F0E8FD281BBDE8F08730B563
:10574000B3B0002500200090F1A000F07DFE03E042
:105750004FF4FA70FEF7FDF84FF4FA730022EFA150
:10576000EFA0FFF75CFB0028F2D0F0A000F06CFE89
:1057700003E04FF4FA70FEF7ECF840F2DC5300223D
:10578000E6A1EDA0FFF74BFB0028F2D0EEA000F061
:105790005BFE0022F1A1F8A0FFF70CFB64211AA820
:1057A00000F0CBFD1AABF9A2FBA1FD48FFF7A1FF6A
:1057B000044600201AA9085501226946F948FDF758
:1057C0009EFE0121F7486838FDF784FE01226946F4
:1057D000F448FDF75BFE621C1AA9F2486838FDF731
:1057E00055FE34221AA9EF486838FDF788FE1AA939
:1057F000EDA000F029FE642101A800F09EFD01ABA0
:10580000EAA2EFA1E648FFF774FF0446002001A9D1
:105810000855621CE3483438FDF738FE342201A9EC
:10582000E0483438FDF76BFE01A9E8A000F00CFE5B
:1058300033B030BD10B5E7A000F006FE03E04FF432
:10584000FA70FEF762F840F2DC530022B3A1E5A043
:10585000FFF7E5FA0028F2D010BD2DE9FC41002445
:1058600000250026002700200090E349086073E02F
:105870000120FEF76EF8761CE0484088012802D12E
:105880000021DE48418041F27070864264D30024DA
:1058900016E0C348005D632811D1C149601C085C53
:1058A0006C280CD1A01C085C6F2808D1E01C085C97
:1058B000732804D1201D085C652800D104E0641C15
:1058C000CE480088A042E4D800BFB4F5FA7F00D9E2
:1058D000002404F10905C9480088411BC8A000F054
:1058E000B3FD01226946AF48FDF709FEC3480088B1
:1058F000401BC10AC648FDF7EDFDC0480088421BA9
:10590000A7484119C248FDF7C1FD022201A9C048BC
:10591000FDF7F5FD01226946A248FDF7B7FD9DF8A8
:105920000400FF2817D09DF80500FF2813D0FDF7CD
:10593000D9FD0A20FEF70DF800BFB648006800F454
:10594000E060B5490843001DB2490860BFF34F8FBE
:1059500000BF00BFFEE700E08AE700BFBDE8FC81B2
:1059600001460022012000BF04E000EB8003580044
:10597000531CDAB28A42F8DB70472DE9F04F044637
:1059800000264FF0010BB246B14600250FE0605DE6
:10599000302807DB605D392804DCBAF1000F01D143
:1059A000761C03E016B14FF0010A03E06D1C605D48
:1059B0000028ECD100BF2F46354612E0B81B205C12
:1059C00030280DDBB81B205C392809DCB81B205CB3
:1059D000303800F0FF08E8B2FFF7C2FF08FB00997B
:1059E0007F1C281EA5F10105E8D14846BDE8F08FCF
:1059F0002DE9F04FBBB02022884901A800F084FCBB
:105A00000025002600270024A046A146DFF810A2AA
:105A1000DFF810B284A000F017FD4FF40071894840
:105A2000FEF7D9F9FFF796FA0020FFF7AFFA342214
:105A300009A95C483438FDF762FD342222A959488F
:105A40006838FDF75CFD07E0641C062C04D3FFF703
:105A500076FEFFF7EFFE05E009A922A8FFF7B8FAE6
:105A60000028F1D000BF0020FFF7DAFA00BF0523BD
:105A700014A216A10020FFF7E8FA0028F7D000BF13
:105A8000FFF754FC0028FBD0DEE0000034000020CB
:105A90000D0AD5FDD4DAD6D8C1ACC8C8B5E3BACDA5
:105AA000B7FECEF1C6F7202E2E2E2E2E2E0D0A007A
:105AB0003132333435363738000000004F50504F04
:105AC00020413500313838330000000033392E31A1
:105AD00030372E3233392E34340000000D0AD6D838
:105AE000C1ACC8C8B5E3BACDB7FECEF1C6F7B3C9ED
:105AF000B9A60D0A000000004D61696C206E616D51
:105B000065206E6F7420666F756E64210A00000058
:105B1000312E2043574C41500D0A00004F4B0000DE
:105B200041542B43574C41500D0A0000322E204364
:105B3000574D4F44450D0A0041542B43574D4F4498
:105B4000453D310D0A000000322E20435753544189
:105B50005254534D4152540D0A000000736D61724E
:105B600074636F6E66696720636F6E6E65637465DC
:105B7000642077696669000041542B4357535441B0
:105B80005254534D4152540D0A0000000D0A7061E9
:105B90007373776F72643A00737369643A0000003C
:105BA0000C01002068D00108257300000D0A574938
:105BB000464920434F4E4E454354454400000000A3
:105BC00070617373776F72643A0000000D0A257379
:105BD0000000000020435753544F50534D4152543E
:105BE0000D0A000041542B435753544F50534D411D
:105BF00052540D0A00000000400000200CC100209B
:105C0000636F64652D2D2D2D2025640D0A00000085
:105C1000000001080CED00E00000FA057C670008B8
:105C20002E24B9004D8064490D0AD5FDD4DAC5E4AF
:105C3000D6C32045535038323636202E2E2E2E2EE7
:105C40002E0D0A00000C014002A000F0FDFB3BB04D
:105C5000BDE8F08F0D0AC5E4D6C320455350383255
:105C6000363620CDEAB1CF0D0A00000010B586B05F
:105C7000044601214804FEF7CAFA01210420FEF778
:105C8000B9FA0420ADF8140003208DF8160018208E
:105C90008DF8170005A9AF48FDF7F0FF0820ADF813
:105CA000140004208DF8170005A9AA48FDF7E6FFA7
:105CB00026208DF8000000208DF8010001208DF8CD
:105CC00002008DF803006846FDF70FFF01940020E5
:105CD000ADF80800ADF80A00ADF80C00ADF8100002
:105CE0000C20ADF80E0001A99B48FEF72AFB01220B
:105CF00040F225519848FEF7BCFB012240F22441B6
:105D00009548FEF7B6FB01219348FEF7A6FB06B0C7
:105D100010BD70B505460E4600240CE000BF4021C2
:105D20008D48FEF775FC0028F9D0295D8A48FEF7FA
:105D300001FC601C84B2B442F0DB00BF4021864805
:105D4000FEF766FC0028F9D070BD2DE9F0479AB047
:105D500006460C4615461F464FF00009CA4600206D
:105D60007E49C1F8400631467DA000F06DFB324609
:105D70007FA101A800F078FB01A800F0FBFA1FFA50
:105D800080F8414601A8FFF7C4FF24B91DB90120DE
:105D90001AB0BDE8F087B8B2FDF7DBFD00206F490F
:105DA000D1F840166D4A5054114671A000F04CFBDA
:105DB000B4B1ADB12146694800F0CAFA08B101207A
:105DC00000E0002040B92946644800F0C1FA08B15B
:105DD000012000E0002008B10120D9E70020D7E72A
:105DE00044B121465D4800F0B3FA08B10120CFE785
:105DF0000020CDE72946594800F0AAFA08B1012051
:105E0000C6E70020C4E710B5044621465248FEF715
:105E100091FB00BF80215048FEF7FAFB0028F9D023
:105E200010BD70B505460E46002400BF0CE0295D8C
:105E30004948FEF77FFB00BF40214748FEF7E8FBDB
:105E40000128F9D1601C84B2B442F0DB70BD70B59A
:105E5000054600240CE0295D3F48FEF76BFB00BFC0
:105E600040213D48FEF7D4FB0128F9D1601C84B2E3
:105E7000285D0028EFD1601C84B270BD10B50446C7
:105E800021463548FEF756FB00BF80213248FEF719
:105E9000BFFB0028F9D010BD70B505460E460024A2
:105EA00003E0285DFFF7EAFF641CB442F9D30D203C
:105EB000FFF7E4FF0A20FFF7E1FF70BD70B505466C
:105EC00000240CE0295D2448FEF734FB00BF40218C
:105ED0002148FEF79DFB0128F9D1601C84B2285DA2
:105EE0000028EFD1601C84B270BD10B500BF40F235
:105EF00025511948FEF7A2FB98B140F225511648EA
:105F0000FEF7C6FB1448FEF719FBC4B21348D0F8DD
:105F10004016D0F84006401C104AC2F84006104611
:105F2000445440F224410C48FEF788FB012810D16C
:105F300040F224410848FEF7ABFB0748FEF7FEFAA3
:105F4000C4B20648D0F8400618B101200349C1F890
:105F5000440610BD000801400044004010C100206C
:105F60004154A1AAA1AA73656E643A25730D0A0073
:105F700025730D0A0000000008B501210420FEF77A
:105F800039F98020ADF8000010208DF803000320BF
:105F90008DF8020069469048FDF770FE80218E481A
:105FA000FDF719FF6420FDF7D4FC80218A48FDF736
:105FB00014FF08BDCCB0002700BF00BF002640F290
:105FC000DC53002285A186A0FFF7BFFE40F2DC5320
:105FD000002282A18548FFF7B8FE40F2DC53002280
:105FE0007EA183A0FFF7B1FE40F2DC5300227BA12B
:105FF00083A0FFF7AAFE1AAB86A289A18B48FFF700
:1060000078FB054600201AA948551AA8FFF7B5FCE9
:10601000C7B2394686A000F017FA4FF4FA6300229F
:106020006EA18848FFF791FE40F6C41300226BA1D1
:106030006FA0FFF78AFE36207C49D1F840167B4AD4
:10604000505436211046D0F84006401C115433AB52
:106050007DA27FA17548FFF74CFB0546002033A9C0
:10606000485533A8FFF789FC064631467AA000F070
:10607000EBF90025F10A7D48FDF72CFA00BF25E079
:106080004FF4FA73002255A15DA0FFF75EFE0024D5
:106090000CE06648005D0D2807D16449601C085C6F
:1060A0000A2802D1192C00D905E0641C5F48D0F8F9
:1060B0004006A042EDD800BF5C4A2244911C6B4AC6
:1060C00002EB85205214FDF7E1F96D1CB5EB962F1C
:1060D000D6D3C6F3090058B3C6F3090264A101A8D8
:1060E00000F0C2F94FF4FA7300223CA101A8FFF7B7
:1060F0002CFE00240CE04D48005D0D2807D14B49D3
:10610000601C085C0A2802D1192C00D905E0641C27
:106110004648D0F84006A042EDD800BFC6F30902B9
:10612000424B2344991C514B03EB8520FDF7AEF9FC
:10613000FDF7D8F90A20FDF70CFC00BF51480068B4
:1061400000F4E06050490843001D4E490860BFF369
:106150004F8F00BF00BFFEE7FFF70EFF00BF4FF4F9
:10616000FA7300221DA149A0FFF7EFFD0028F6D029
:106170004FF4FA73002219A145A0FFF7E6FD4FF492
:10618000FA73002215A144A0FFF7DFFD40F6C41307
:10619000002212A143A0FFF7D8FD40F6C41300224D
:1061A0000EA144A0FFF7D1FD40F6C41300220BA1BD
:1061B0004848FFF7CAFD4FF4FA73002207A146A032
:1061C000FFF7C3FD4FF4FA73002204A147A0FFF7C5
:1061D000BCFDFFF7EFFE0000000801404F4B000040
:1061E00041542B48545450494E49540034680008D7
:1061F00041542B48545450414354494F4E3D300074
:1062000041542B48545450524541443D302C313078
:10621000323400007570646174655F6C6F670000F4
:1062200062696E5F76657273696F6E0010C10020DF
:1062300062696E5F76657273696F6E2025640D0A00
:1062400000000000EC6700080D0A36360000000070
:106250003230302C00000000627566665F6C656E3F
:106260006774682025640D0A000000000000010822
:1062700041542B48545450524541443D302C2564E0
:10628000000000000CED00E00000FA0541540000A1
:10629000415445300000000041542B435245473FD4
:1062A0000000000041542B434D515454535441526B
:1062B0005400000041542B434D5154544143435129
:1062C0003D302C2268656C6C6F31323334353622A8
:1062D000000000009C67000841542B434D5154546A
:1062E0005355423D302C32372C31000076312F642B
:1062F0006576696365732F6D652F7270632F7265A4
:1063000071756573742F2B0040EA01039B0703D05E
:1063100009E008C9121F08C0042AFAD203E011F8E4
:10632000013B00F8013B521EF9D27047D2B201E0A6
:1063300000F8012B491EFBD270470022F6E710B58A
:1063400013460A4604461946FFF7F0FF204610BDE3
:1063500030B505462A460B4612F8010B13F8014BDF
:1063600008B1A042F8D01CB1002802D06D1CF1E7A2
:10637000284630BD421C10F8011B0029FBD1801AB1
:1063800070472DE9F05F0546002092469B468846FF
:106390000646814640241BE02846414647462246A1
:1063A00000F041F853465A46C01A914110D31146A5
:1063B0001846224600F028F82D1A67EB01084F46D0
:1063C00022460120002100F01FF817EB00094E4182
:1063D000201EA4F10104DFDC484631462A4643462C
:1063E000BDE8F09F064C074D06E0E06840F0010371
:1063F00094E8070098471034AC42F6D3FCF79CFEB3
:1064000084680008A4680008202A04DB203A00FA07
:1064100002F1002070479140C2F1200320FA03F3FB
:10642000194390407047202A04DB203A21FA02F0F9
:106430000021704721FA02F3D040C2F120029140BE
:1064400008431946704700000FB4054B10B503A967
:10645000044A029800F02CF810BC5DF814FB000010
:1064600081390008180000200FB4084B10B504A9AA
:1064700002AA039800F01CF8044602A9002000F0CC
:1064800077F9204610BC5DF814FB00007167000826
:1064900002E008C8121F08C1002AFAD170477047ED
:1064A000002001E001C1121F002AFBD1704700004B
:1064B0002DE9FF4F8DB09B460F460446002606E0AF
:1064C00025280BD05A460F999047641C761C2078DB
:1064D0000028F5D111B03046BDE8F08F0025A84660
:1064E0000122984900E0054314F8013F203B02FADD
:1064F00003F00842F7D120782E2817D114F8010FA5
:1065000045F004052A280ED06FF02F022078A0F164
:10651000300109290AD808EB880102EB410100EBA0
:106520000108641CF2E757F8048B641C20786C287F
:106530000DD004DC4C2812D06A2811D104E0742854
:106540000DD07A280CD10AE045F4001507E06178F7
:1065500045F48015814202D1641C05F58015641C48
:106560002278692A45D008DC002AB3D0582A69D09D
:10657000632A10D0642A08D13BE0702A67D0732ABE
:1065800013D0752A5CD0782A5CD010465A460F99F1
:106590009047761CD3E017F8040B8DF8000000201C
:1065A0008DF80100E946012003E057F8049B4FF005
:1065B000FF3069074FF0000501D40AE06D1C454526
:1065C0000DDA8542FADB19F805100029F6D106E04C
:1065D0006D1C8542FCDB19F805100029F8D12E440A
:1065E00004E019F8010B5A460F9990476D1EF8D236
:1065F000A5E00A200021CDE90801C5F302500228D8
:106600000DD001CFC117031E71F100030DDA4FF059
:10661000000CD0EB0C006CEB01012D2308E0FF1DFA
:1066200027F00707F7E80201EDE72B0504D52B2338
:106630008DF8283001233BE0EB0739D02023F7E722
:106640000A2000E010200021CDE9080107E0102019
:10665000002145F00405CDE908014FF00808C5F315
:10666000025002280FD001CF00214FF0000A2B0763
:106670001FD5702A0DD0DDE908C38CF0100C5CEA40
:10668000030C0CD015E0FF1D27F00707F7E8020107
:10669000EBE740228DF828204FF0010A0BE050EA8A
:1066A000010306D030238DF828308DF829200223ED
:1066B0009A46582A04D024A20DF120090B9209E031
:1066C00026A2F9E7DDE90823FFF75BFE0B9B9B5C45
:1066D00009F8013D50EA0102F4D1ADEB0900203088
:1066E0000890680701D44FF001080899884502DD39
:1066F000A8EB010000E000208046002506E00AA883
:106700005A46405D0F9990476D1C761C5545F6DB47
:1067100004E030205A460F999047761CB8F10001EA
:10672000A8F10108F5DC05E019F8010B5A460F99AC
:106730009047761C0899481E08900029F4DC641CD8
:10674000C5E60000092801003031323334353637D0
:1067500038396162636465660000000030313233AD
:10676000343536373839414243444546000000004D
:106770000A68531C0B601070704700005453353288
:1067800037413032320000000000000000000000FD
:1067900000000000000000000000000041542B43F6
:1067A0004D515454434F4E4E4543543D302C22746A
:1067B00063703A2F2F33392E3130372E3233392E42
:1067C00034343A31383833222C36302C312C22688C
:1067D000656C6C6F313233343536222C2268656C2F
:1067E0006C6F3132333435362200000041542B486F
:1067F000545450504152413D2255524C222C226853
:106800007474703A2F2F33392E3130372E3233399A
:106810002E34343A313838302F53544D33324F54AC
:10682000413F696D65693D31353531343536333336
:106830003537220041542B48545450504152413D69
:106840002255524C222C22687474703A2F2F3339FF
:106850002E3130372E3233392E34343A3138383005
:106860002F53544D33325F56657273696F6E3F69B3
:106870006D65693D31353531343536333335372241
:1068800000000000A4680008000000204400000090
:1068900090640008E86800084400002014CB000061
:1068A000A064000800A24A040000000000000000EC
:1068B00001020304060708090000000000000000B0
:1068C00000000000000001020304010203040607A7
:1068D0000809020406080000000000000000000093
:0868E0000000000000000000B0
:04000005080031318D
:00000001FF
