:020000040800F2
:10000000F80D0020C9000008913900089F3600084B
:1000100000000000000000000000000000000000E0
:10002000000000000000000000000000C13B0008CC
:100030000000000000000000D9390008ED3B000876
:10004000DB00000800000000DB000008511500087C
:10005000DB000008DB000008DB000008DB00000814
:100060000000000031140008DB000008DB0000087D
:10007000DB000008DB000008DB00000800000000D7
:10008000DB000008253E000800000000DB0000083F
:10009000DB000008DB000008DB000008DB000008D4
:1000A000DB000008DB000008DB000008C145000899
:1000B000DB0000080348854600F068FD0048004763
:1000C000DD5E0008F80D0020044880470448004722
:1000D000FEE7FEE7FEE7FEE7FEE7FEE7553C000829
:1000E000B500000830B50B4601460020202201244F
:1000F00009E00D46D5409D4205D31D469540491B5C
:100100002546954040191546521E002DF1DC30BDA4
:1001100070B500242546002801DA01244042002958
:1001200001DA01254942FFF7DDFFAC4200D0404231
:10013000002C00D0494270BD10B5202A04DB0846CF
:10014000203AD040002110BD0B46D340D04020249F
:10015000A21A91400843194610BD0000004870479C
:100160004878000810B50446FFF7F8FF0068005D06
:10017000C007C00F10BD03460B439B0703D009E027
:1001800008C9121F08C0042AFAD203E00B780370D2
:10019000401C491C521EF9D27047D2B201E00270D5
:1001A000401C491EFBD270470022F6E710B51346EB
:1001B0000A4604461946FFF7F0FF204610BD421CD0
:1001C0000178401C0029FBD1801A704710B500222D
:1001D00000E0521C835C8C5CA34201D1002BF8D15F
:1001E000D8B2E1B2401A10BD30B505460020034632
:1001F00000E05B1C934205D2EC5CC85C201A01D184
:10020000002CF6D130BD00000FB400B58DB00990C0
:100210000B9010A900200091C0430A9000200C9080
:1002200006480690064807906A4609A80F9900F00C
:10023000BBFB0DB008BC04B018470000C90900089A
:10024000E9090008FFB50027FF4383B000205C6880
:1002500001909E681D46A9697F1C049888470090FC
:10026000296A88470028F6D10098401C0CD003204A
:1002700040028443002E19DD600614D500982B2817
:1002800009D02D280FD103E00020C04307B0F0BDF6
:10029000012080020443A9697F1C04988847761EC8
:1002A0000090002E02DD0098302803D00598002829
:1002B00025D035E0012040020443A969761E7F1C49
:1002C000049888470090002E03DD782805D0582830
:1002D00003D00598002810D022E00598002801D00E
:1002E00010281DD1012040028443A969761E7F1C7D
:1002F000049888470090102002E0082000E00A20BF
:1003000005900DE0012149020C43059A0199761EE2
:10031000514308180190A9697F1C049888470090F0
:10032000002E05DD0599009800F029FB0028E9DA88
:10033000E96904988847A00502D40120C043A5E7D5
:10034000E00722D1600611D56005019800D5404232
:1003500029680A1D2A600968220501D5087014E081
:10036000220701D5088010E008600EE02868011D12
:1003700029600068210502D50199017005E0210777
:10038000019901D5018000E0016038467EE7024610
:1003900070B54A40D30FDB0740002DD04A002AD069
:1003A000010E140E000212020919400A520A8418A2
:1003B000E50104465443000A120A2E045043A419CE
:1003C0004219200CC543AA18120C0125AD03521C7A
:1003D000521912047F39240400D0521C104301D456
:1003E0004000491EC2B20C06C0092018401C40083B
:1003F000802A02D003E0002070BD400840000029A0
:1004000000DA0020184370BD70B502464A40D50F8F
:1004100040004A00ED0740085208002814D0002A86
:1004200012D0C40DD30D41020120C0055202490A69
:10043000520AE41A091812187D34914201D3641C3F
:1004400000E04900002C01DA002070BD0023914239
:1004500001D3891A0343400849000028F7D1002935
:100460000AD0914202D10121C90705E0914201D28F
:10047000012101E00121C943E005C018401900F045
:10048000C5FA70BDF0B507460846584087B0C00FA2
:10049000049048000E46590040084908BC1A88419B
:1004A00005D2384631461E4617460B4602465800CE
:1004B000400810434CD0300D039040055900400DCA
:1004C000490D0590401A0290402872DA1803012164
:1004D000000B09050843019004980092002805D0FC
:1004E00001995242002088410092019002984021D7
:1004F0000A1A0199009800F01FFA05460C466B464F
:1005000007CB00F029FAC0197141039A0E0D0023A0
:10051000D71756401A467A40164344D0049A002A08
:100520002DD0029A012A039A15DC1205C01A9141B6
:1005300001263605001C7141D20F059ED20700939B
:10054000019202962A46234600F0AEFA07B0F0BDAB
:1005500038463146FAE71605224A0F46B218C01A45
:10056000B74101210905001C4F4100187F41114688
:1005700018187941E20F10436D19644113E0E20746
:100580006D0815436408C2071443039A0126120537
:10059000C01A91413605001C7141CE074008304316
:1005A0004908C01851412A46234600F070FACDE7A9
:1005B000FFE7049801224000C117121A00238B4163
:1005C00004983146C417381AA141EEE730B401242B
:1005D000E407634030BC55E730B40124E4076140D0
:1005E00030BC4FE70000E0FFF0B51FB488B00B99B6
:1005F0000998002448400999C00F49004908099109
:10060000C0070B990090490049080B910999089877
:10061000A64608431CD00B990A98084318D009989D
:1006200001244000420D4800410D099824050003B3
:10063000000B204309900B980003000B20430B9004
:1006400050181C494018002201901446104605E03D
:10065000002001460DB0F0BD032801DA034600E09A
:1006600003239C46C11A0AAE0AE05F0008ADED5BA9
:100670004F00F75B7D430027AA187C41491C5B1E95
:100680006145F2DD410004AB5A522104120C0A43C9
:10069000240C401C0828DFDB01980290009970466A
:1006A00001910090059B049A0799069800F0FCF9C7
:1006B000D0E700000DFCFFFFF0B50C465C4085B0B4
:1006C000E40FE40703944C000026640859009446A4
:1006D000490802460296224321D062460A431ED0B0
:1006E0006200570D4A000E032303550D01240246F4
:1006F0002C492405781B1B0B360B4018234326433B
:10070000614600901C46501AB44103D30098401C27
:10071000009002E0921800985B41002803DA002064
:10072000014605B0F0BD00200121090507468646B7
:1007300011E064461D46141BB54106D36546521BA5
:10074000B341744607430C43A646CD074008490809
:10075000284392185B4105460D43EAD110461843E1
:1007600013D06046194650407140084306D0604699
:10077000101AB34106D20122002306E00022012311
:10078000DB0702E00122D2435310009874460105B2
:10079000381C6141029C039D0019694100F077F902
:1007A000BFE70000FD03000010B5002296231146AC
:1007B00000F034F910BD00000EB5C217C10F504053
:1007C000CA0740180021054B0293019200910A4686
:1007D0000B4600F069F903B000BD000033040000CF
:1007E0000EB505490291002100910A460B46019180
:1007F00000F05AF903B000BD33040000410040028C
:100800000122400AD205090E80187F2901DA002052
:100810007047962903DC9622511AC84070479639D2
:10082000884070474A0009030123090B1B0519433F
:10083000094B10B5520D9A4201DA002010BD064B4B
:1008400034339A4203DC9A1AFFF776FC10BD034951
:100850005118884010BD0000FF030000CDFBFFFFD2
:10086000C20FD207400040080BD0C10D0723DB01A7
:10087000C91840020905400A1143C2084007114344
:10088000704700200146704710B5002904DB0124A1
:10089000E40740428C412146002B04DB1C46012327
:1008A000DB075242A3418B4200D1824210BD0000BF
:1008B00010B5002904DB0124E40740428C412146A5
:1008C000002B04DB1C460123DB075242A341994263
:1008D00000D1904210BD0000F0B51FB406460020C4
:1008E00082B005464024019100901BE00199224608
:1008F0000F463046FFF720FC049A059B801A994169
:1009000010D310461946224600F016F8361A8F41C9
:100910000197224601200021009F00F00DF83818B1
:100920004D4100902046641E0028DFDC019B0098AA
:100930002946324607B0F0BD10B5202A04DB014637
:10094000203A9140002010BD914020239C1A03467C
:10095000E3401943904010BD10B5202A06DBCB17A9
:100960000846203A1041C1170B4306E00B461341DD
:10097000D0402024A21A91400843194610BD3A28BD
:1009800000D23038202302469A43412A01D3104630
:100990003738884201D30020C0437047026813787B
:1009A000511801601846704710B5D1600449516173
:1009B0000449116200211161114600F0F9F810BDDF
:1009C0009D090008650100084268002A08D00168F6
:1009D0000B78491C002B03D0521E06C018467047E6
:1009E0000121C160881E70474268002A0BD0C3688D
:1009F0000168002B07D183688B4204D0491E521C2A
:100A000006C0002070470020C0437047002904DA68
:100A1000401C490001D140084000704770B40024D8
:100A2000050C05D11024000402D1002921D0112485
:100A3000050E01D100020834050F01D10001241D6B
:100A4000850F01D18000A41C002801DB4000641C3C
:100A5000002908D020252E1B0D46F540A14000D0CE
:100A600001212943084301061B1B000ADB1D02D597
:100A7000002070BC7047DB05181880180029F8DAD0
:100A8000401C4900F5D170BC40084000704710B5CB
:100A9000002B08DA0024401C614192185B411A4384
:100AA00001D14008400010BDF0B51FB482B005462A
:100AB0000C0003D0084603F01FFE02E003F01CFE0A
:100AC00020300246009021462846FFF735FF049B60
:100AD000059A04460F4618431143084314D018469C
:100AE00010431BD0009840210A1A18460599FFF7B9
:100AF00023FB05460E46009A05990498FFF71CFF54
:100B0000084305D0012004E02046394607B0F0BD77
:100B10000020C11705430E432C43374300990E981C
:100B20006305401A7905E40A00220C43FD0A0A30E5
:100B300002D500200146E9E70105101969410C9C26
:100B40000D9D00196941FFF7A2FFDFE74A00090385
:100B50000123090B1B0519430A4B10B5520D9A428C
:100B600002DA0020014610BD064B34339A4203DC02
:100B70009A1AFFF7E1FA10BD034BD218FFF7DCFE1B
:100B800010BD0000FF030000CDFBFFFF064C012558
:100B9000064E05E0E36807CC2B430C3C9847103425
:100BA000B442F7D3FFF78AFA547800087478000843
:100BB000F3B58DB000200A9001200B900026084666
:100BC0000C300C4609906269012109989047051E76
:100BD0002ED0252D2DD0216A8847002818D0626993
:100BE000012109989047216A88470028F7D1411EC2
:100BF00062690998904700E0761CA1690D988847C2
:100C0000216A88470028F7D1E1690D988847DAE71B
:100C1000A1690D9888470746A84201D1761CD2E702
:100C2000E1690D9888477F1C02D10A98002877D087
:100C300049E1002762693D463946099890472A28CC
:100C40000CD16269012109989047012506E00A212B
:100C50004F433F18303FEBD4102005436269012118
:100C600009989047014630390A2903D29B498F429F
:100C7000DEDCECE7E90600D4994F6C280AD04C285A
:100C800010D0682824D06A282ED074280CD07A2856
:100C90000AD00DE062690121099890476C2823D0A1
:100CA00004211CE020200543626901210998904736
:100CB000A760656065284FD026DC582839D01ADC3B
:100CC000452849D012DC252834D04128B0D143E052
:100CD0006269012109989047682802D008210D43D4
:100CE000E6E70120C002DEE70220DCE7462833D039
:100CF00047282CD130E05B2870D061282CD06328A5
:100D00006CD0642823D161E06F284FD009DC6628BD
:100D100022D0672820D0692826D06E2817D12EE04F
:100D2000CDE070284DD073286FD075284ED078282C
:100D30000DD154E0A1690D9888470546252800D1BA
:100D40006CE7E1690D9888476D1C00D16DE7BAE04A
:100D50000A224CE00A2252E0012023466A46C043A0
:100D60000D99C046C046A3E0284640210843606074
:100D7000A807234601D5002239E000223FE0E8071A
:100D800000D020E72068011D21600068290501D5F9
:100D9000067018E7290701D5068014E7A90703D5CF
:100DA000F117066041600EE706600CE72846402117
:100DB00008436060A807234601D5082217E00822EF
:100DC0001DE0484928460840606016E0284640215A
:100DD00008436060A8072346BCD5B9E715E028465C
:100DE000402108436060A80707D523461022012050
:100DF000C0430D99C046C0465AE023461022012048
:100E0000C0430D99FFF71EFA52E000210C910B46EA
:100E10000091632802D05B2807D043E0E80601D4A4
:100E20000120A060012000903CE062690121099846
:100E300090475E2805D101200C900146626909980F
:100E400090472169002906D10B4601AA8F00491C51
:100E5000D3510829FADB002835D0216900290ED1A9
:100E6000C117C90E09184A11930001AA9A18490915
:100E70004901411A012013688840034313606269E5
:100E80000121099890475D28E5D10C98002808D0E9
:100E9000002001AB81005A58401CD2435A50082808
:100EA000F8DB01AB01202246C0430D99C046C04685
:100EB00000280ADA401C06D10B98002803D0002035
:100EC000C0430FB0F0BD0A98FBE7E90702D10A99C9
:100ED000491C0A91361800200B9074E6CCCCCC0C3F
:100EE000FFFFFF7FF1F7FFFF70B58C180578401CFE
:100EF0006B075B0F01D10378401C2A1106D10278E1
:100F0000401C03E006780E70401C491C5B1EF9D1A2
:100F10002B0705D40023521E0DD40B70491CFAE791
:100F20000378401CCB1A921C03E01D780D70491CFD
:100F30005B1C521EF9D5A142D8D3002070BD70B5FC
:100F4000044600688168490720D581681026490752
:100F5000002905DA8168890702D4816831438160FC
:100F600001F022F905460DE001F01EF9401B0228B0
:100F700008D9606C30436064A06C01210843A06410
:100F8000084670BD206880684007EDD4002070BD21
:100F9000F8B50446006881688907890F012928D1BE
:100FA0000168C90702D1C168090422D581680522F8
:100FB00011401025012601290FD181680222114319
:100FC000816021680320086001F0EEF807460CE01C
:100FD00001F0EAF8C01B022807D9606C284360645E
:100FE000A06C3043A0640120F8BD20688068C00771
:100FF000EED10020F8BD0000F8B5044600200090B6
:10100000206881688907890F012905D10168C9070E
:101010002CD1C168090429D48168154A10261140D1
:101020000125002915D181682943816012481149A1
:101030000068FFF757F800E0401E00900028FBD141
:1010400001F0B2F807460CE001F0AEF8C01B022830
:1010500007D9606C30436064A06C2843A064012011
:10106000F8BD20680068C043C007EDD10020F8BD7E
:101070001700008040420F00C0010020FEB5009024
:10108000012000030025019000040290244885629D
:101090006946244800F068FB22490420096808607A
:1010A000204800F05BFD002401211E4800F0F6FC02
:1010B0001C4800F0E1FB800502D51A4800F0DEFB79
:1010C000641CE4B2022CEFD3164800F075FD1548FD
:1010D00000F044FD144E00240121124800F0DEFC13
:1010E000104800F0C9FB800504D50E4800F0C6FB8F
:1010F00061007052641CE4B21E2CEDD3094800F06C
:101100005BFD00214800305A491C4519C9B21E290F
:10111000F8D31E212846FEF7E5FF80B2FEBD000091
:10112000002401402002002074040020F0B587B0A4
:1011300006460027142168460597FFF735F809226F
:1011400050A13046FFF750F834460934504D00287E
:1011500043D009224FA13046FFF746F800284FD070
:1011600008224FA13046FFF73FF8002854D009224B
:101170004EA13046FFF738F800285AD009224EA178
:101180003046FFF731F800286AD009224DA13046D9
:10119000FFF72AF8002869D008224DA13046FFF752
:1011A00023F8002868D009224CA13046FFF71CF82C
:1011B000002823D105214CA003F0ECF92A894CA189
:1011C000684603F06FFA6846FEF7F9FF81B2684699
:1011D00003F0E0F9022147A00EE0204605AA44A151
:1011E000FFF712F80598012804D0022802D00C213C
:1011F00041A001E0A8802EE003F0CCF907B0F0BDDB
:10120000204605AA3AA1FEF7FFFF0121059809042F
:10121000884218D268811EE03046083005AA34A101
:10122000FEF7F2FF05980022411C97410BDAA864F3
:1012300011E0204605AA2EA1FEF7E6FF0121059840
:101240000904884202D31C212FA0D5E77D212881E3
:10125000C9004843686405F09BF8082132A0CBE739
:10126000052134A003F096F9AA88A8E7052133A048
:1012700003F090F96A89A2E7042132A003F08AF909
:10128000AA6C9CE7434D445F747970653D00000093
:1012900048010020434D445F616464723D000000DA
:1012A000434D445F73736E3D00000000434D445F47
:1012B0006D6F64653D000000434D445F7479706557
:1012C0003F000000434D445F616464723F000000D2
:1012D000434D445F73736E3F00000000434D445F15
:1012E0006D6F64653F0000004D4F44453A000000BB
:1012F000256400000D0A0000696E707574203120AD
:101300006F7220320000000054686520696E7075AD
:10131000742076616C756520697320746F6F206C22
:101320006172676500000000736574206F6B0D0AC1
:1013300000000000545950453A0000004144445216
:101340003A00000053534E3A00000000C178827802
:101350000902114342780078120202430804104344
:10136000704700000FB410B500280FD00949097864
:1013700088420BD804AB7F210748039A03F0A6F9F3
:101380000104090C02D0044800F008F810BC08BCA5
:1013900004B0184798000020B404002070B50D4632
:1013A0000C4C0146A088FF220132121AAA4210DD1D
:1013B000094A10182A46FEF7DEFEA088401982B2BC
:1013C000A280E088002804D1E2800349034802F0AB
:1013D000D1F870BD9800002034060020740300206E
:1013E00002490A78904200D00870704798000020A7
:1013F00002498A68904200D08860704798000020B7
:1014000030B5FF231846094D07E00C785C406300B7
:10141000EC5AE3B24340200A491C1446521E92B2D1
:10142000002CF2D10002184330BD0000AC7100085E
:1014300010B5024800F046FC10BD0000F00300208B
:1014400030B5056C0124AC40C56B6C60046863600A
:101450004368102B036803D099600068C26030BDF8
:101460009A600068C16030BD704700B5002200F08E
:1014700001F800BD30B50E4B05465C7A0120012C09
:1014800015D8587A00241C54587A8000C01845603A
:101490005D7A184608302A54587A421C5A72303005
:1014A00008703A2048702F208870CC70002030BD22
:1014B000E809002000290AD0002A08D0531E134250
:1014C00005D10AC000210160416001207047002061
:1014D00070478168C068401A704710B58368C26859
:1014E000D41A43689C4207D81A4003689954C168CB
:1014F000491CC160012010BD002010BD10B5C4689A
:1015000082680023A41A8C4204D9511842680068EA
:101510001140435C184610BD30B50023002915D09A
:10152000002A13D0C56884682C1BA24201D9224628
:101530000AE045688468521E2C4005682C5DCC5436
:101540008468641C5B1C8460002AF2D1184630BD9C
:1015500010B500F09BFC10BD06490020C86106488C
:1015600001690422114301610169402211430161B3
:1015700070470000C809002000200240064A0021F0
:10158000D16106490A6902231A430A614861086960
:101590004022104308617047C80900200020024023
:1015A00010B5054B0022DA61044A13690124234374
:1015B0001361018010BD0000C80900200020024016
:1015C00010B50B4A0020D168CB060A4904D5C8697A
:1015D00002231843C8611020D3685B0705D5CB6987
:1015E00001242343CB6104210843D06010BD0000D7
:1015F00000200240C809002070B5054600F0D4FD67
:101600000646104C0AE0681C08D0002D04D000F0FB
:10161000CBFD801BA84201D9032070BDE068C00744
:10162000F1D1E068800601D52020E060E068C006C6
:1016300002D4E068400703D5FFF7C2FF012070BD68
:10164000002070BD00200240F7B5960700249708DF
:10165000B60F00F0EBFC002509E000980059019955
:10166000091902F0CDFF241D6D1CA4B2ADB2BD421C
:10167000F3D3002E0DD000980259002007E0C300DC
:101680001146D9402518019B401C595580B2B042E3
:10169000F5D300F081FCFEBDF7B5960782B00024BB
:1016A0009708B60F00F0C2FC00250EE00398001961
:1016B000FFF74CFE0246029800230119022000F0B9
:1016C00077FC241D6D1CA4B2ADB2BD42EED3002E3A
:1016D00018D000206946FF22B04204D2039B25188F
:1016E0005B5D0B5400E00A54401C80B20428F3D325
:1016F0000846FFF72BFE024602980023011902203C
:1017000000F056FC00F048FC05B0F0BD1FB500210C
:101710000190012003910091029000F087FC03A941
:10172000684600F061FB0348C168C907FCD100F0BE
:1017300033FC1FBD0020024010B50A4C7D21490139
:101740007D226080091AD2005043FEF7E1FC0A2195
:10175000E061FEF7C7FC80B202F0BAFC2080001204
:1017600010BD0000B0000020F8B50025044640344C
:1017700000952278012A39D00122227003689E68E0
:10178000760767D4384F4E68BE424DD09E6A0F78B8
:10179000BA4016439E620123826B1B079A421FD0F8
:1017A000012A1DD0022A1BD0032A19D0042A17D0DF
:1017B000052A15D0062A13D0072A11D002688B6893
:1017C00056697607760FB3420AD05369DB08DB000F
:1017D0005361006842690B7A5B075B0F1A434261F1
:1017E0000A68102A04D0112A02D038E00220F8BD7D
:1017F0001E488368102A07D0012292051343836094
:101800000868102803D02AE00122D205F6E719481B
:1018100017490068FEF766FC0A21484300E0401EB5
:1018200000900028FBD11AE0986A0E78B2409043ED
:1018300098620968102901D0112910D10B488268DB
:10184000102904D0012189058A43826007E0012123
:10185000C905F9E7416C20221143416401250020AC
:1018600020702846F8BD000001100000002701404C
:1018700040420F00C0010020406C70470068006CBF
:1018800070470000F8B500250446002803D0606CBE
:10189000002802D008E00120F8BD0020A06440210B
:1018A0000855204600F0A8F8606C1022C0060028F9
:1018B00070DB2068816849076CD4616C130199431F
:1018C00002231943616481688907890F012905D1C1
:1018D0000168C9070FD1C16809040CD4C168182375
:1018E0009943A3681943C16020680169636889004E
:1018F0008908194301612068C1683D4B1940C160E6
:10190000A069E1698003C9030843216A4B031843B6
:10191000636B012B02D001231B0300E0002318435B
:10192000E36818432369022B09D000231843236B73
:10193000666A5B0018430123012E02D00AE00423EB
:10194000F4E7002927D0616C202631436164A16C43
:101950001943A164A16A0E46FF3EC23E02D0E66A68
:10196000314308432168CE680643CE600126A16B4F
:101970003607B14213D0012911D002290FD0032913
:101980000DD004290BD0052909D0062907D0072935
:1019900005D010E028E0012109040843DAE72168B6
:1019A0004E69F608F6004E6121684E69278F7F0761
:1019B0007F0F3E434E612168C9680E4E314081421F
:1019C00007D10020A064606C80088000401C606427
:1019D00008E0606C0221884310436064A06C1843E7
:1019E000A06401252846F8BD606C10436064F8E7E8
:1019F0001902FEFFE7FF3F83F0B587B004461421CC
:101A00006846FEF7D1FB2249206888423DD1214833
:101A1000826941150A43826182690A4005924269DE
:101A200049020A43426142690A40059242694910EB
:101A30000A434261406903240840059010200025B4
:101A40006A4631C20926F6066946304600F002FBB6
:101A500002206A4631C2104F6946384600F0FAFA51
:101A600001206A4631C26946384600F0F3FA042084
:101A70006A4631C26946304600F0ECFA08206A46F0
:101A800031C26946304600F0E5FA07B0F0BD00000B
:101A9000002401400010024000040048F8B504464C
:101AA0004069254640350E4608280BD02068C0689E
:101AB000C00709D0606C20210843606400202870B2
:101AC0000120F8BD082700E00C2700F06DFB009016
:101AD00011E0701C0FD0002E05D000F065FB0099BE
:101AE000401AB04207D9606C0421084360640020AA
:101AF00028700320F8BD206800683842E9D0606C87
:101B000001214902084360642068C16809058A0F01
:101B10000C21002A1AD1226A002A17D10268120762
:101B200014D5826853070122002B08DB43688B43DE
:101B30004360606C130298431043606406E0606C7D
:101B4000202318436064A06C1043A064A06900289F
:101B500001D1206801600020F8BD000070B5044686
:101B6000216800208968490721D425464035297815
:101B700001291CD001212970E169012904D02046E6
:101B8000FFF73AFA002811D1616C0A4A1140FF228E
:101B90000132114361640021A164297022681C2173
:101BA000116021688A6804231A438A6070BD02208C
:101BB00070BD0000FEF1FFFF70B5054604464035DC
:101BC0002878012807D001262E702046FFF7B7F9A4
:101BD000002802D00CE0022070BD2046FFF7D8F9A3
:101BE000002805D1616CFF220132914331436164C9
:101BF0000021297070BD0020704710B504000DD081
:101C0000607F002803D12077204600F025F80220CD
:101C100060772046FFF7EFFF002801D0012010BDBC
:101C20006079002814D020692168086121688868DB
:101C3000602290436269104388602168886880222E
:101C40009043A2691043886001206077002010BD96
:101C50000020C043E8E7000008B500680549884255
:101C600007D10548426940210A4342614069084062
:101C7000009008BD003002400010024070B5002402
:101C8000014620314A78022A03D0042181630124CD
:101C900016E0026813680E25AB43136002681368F0
:101CA0005B085B0013600122056C1346AB40C56BFB
:101CB0006B604A7000220A70416B002900D088478F
:101CC000204670BDF0B4C16B0D6801680C68042239
:101CD000066C1346B3402B420DD063070BD50B683F
:101CE0009B0602D40B6893430B60016C8A40C16B66
:101CF0004A60C16A19E00227B74002462F4001231B
:101D00002032002F15D0A70713D50C68A40604D4E1
:101D10000C680A25AC430C605370036C0221994097
:101D2000C36B596000211170816A002916D0F0BC84
:101D300008470827B7402F4210D024070ED50C685B
:101D40000E25AC430C60046C1946A140C46B616065
:101D50008363537000211170016BE6E7F0BC70479C
:101D6000F8B504468C46203001780025012909D0B9
:101D70000126067041780027012905D00770022549
:101D80002846F8BD0220F8BD02214170A7632068F3
:101D9000016849084900016061462046FFF750FB91
:101DA000E06A00282068016802D00E22114306E094
:101DB0000A221143016020680168042291430160F6
:101DC0002068016831430160DAE731B500F0ECF9D1
:101DD000009C0546601C00D0641C00F0E5F9401B27
:101DE000A042FAD338BD0000F8B5054623480F4697
:101DF000017E012601290BD0012101762868204CA3
:101E0000012807D02046FFF7F7FB002813D030E069
:101E10000220F8BD2046FFF7EFFB002829D1FFF78D
:101E20009BFB2046FFF7E8FB0646164801690422A3
:101E3000914301611DE00020C04338606C6812E0EE
:101E40002046FFF79BFB0E48FFF7D6FB06460D48E2
:101E5000026902218A430261002E01D03C6008E041
:101E6000012080022418A868810268680818A0422E
:101E7000E6D80248002101763046F8BDC8090020A6
:101E800050C300000020024070470000F8B5404DEC
:101E9000E8680027C006FF4300263E4C002802DB0E
:101EA000E868400708D5A0680090A760FFF788FBA6
:101EB000009800F07BF82670E868800655D5202051
:101EC000E8602078002850D0207801281ED02078A3
:101ED000022836D06068401E60606068002838D0F4
:101EE000A068801CA060A06822696169120C0B04C4
:101EF0001A43090C22616161296949084900296175
:101F00002169626989B2FFF74BFB2EE06068401ED1
:101F10006060606800280ED0A068FFF7B5FFA06879
:101F2000012189024018A060296902229143296198
:101F3000FFF724FB19E03846A7602670FFF7A4FFDF
:101F400013E028690421884328610020FFF79CFFE3
:101F50000AE02078032816D020780428A06814D03E
:101F6000801FFFF791FFA76026702078002809D115
:101F70002869C008C00028612869052189028843B2
:101F800028612676F8BDA068EBE7801EE9E700002F
:101F900000200240C8090020034801698022114343
:101FA00001610020704700000020024070470000DF
:101FB000F0B51FB407461A480024017E15461E4698
:101FC000012907D0012101761648FFF715FB0028EB
:101FD00003D020E0022005B0F0BD012F02D0022F77
:101FE00000D00427220128463146FEF7A5F881B229
:101FF000019862001018FFF7D3FA0A48FFF7FCFABD
:1020000009490A69520852000A61002803D1641C78
:10201000E4B2BC42E6D3024900220A76DBE70000C4
:10202000C809002050C300000020024006490020DB
:102030000A69120607D5054A4A60054A4A600969D5
:10204000090600D5012070470020024023016745A2
:10205000AB89EFCDF8B500238DE001249C40A44668
:1020600022407DD04C68022C01D0122C0CD1DC080F
:10207000A40027183C6A5D07ED0E0F26AE40B4435E
:102080000E69AE4026433E6205685E000324B440FC
:102090000F79A543BF07BF0FB7402F4307604D68B7
:1020A000012D05D0022D03D0112D01D0122D0ED1FE
:1020B0008568CF68A543B7402F438760476865466A
:1020C000AF430D79ED06ED0F9D403D434560C5687A
:1020D000A5438C68B4402C43C4604C68E40049D5E7
:1020E000284CA56901263543A561A4699D083440A3
:1020F0000094254CAD002F19BC689D072E0F0F25AD
:10210000B540AC430925ED06A84201D100250FE0FA
:102110001E4DA84201D101250AE01D4DA84201D162
:10212000022505E01B4DA84201D1032500E005254D
:10213000B5402543BD60184C25684E689543F603AD
:1021400000D51543256065684E689543B60300D5F4
:1021500015436560A5684E689543F60202D500E018
:1021600008E01543A560E5684E689543B60200D5C2
:102170001543E5605B1C0A681446DC4000D06CE740
:10218000F8BD0000001002400000014000040048BB
:1021900000080048000C004800040140002A01D05B
:1021A0008161704781627047014800687047000094
:1021B000BC01002002480168491C01607047000012
:1021C000BC01002010B506480168102211430160CF
:1021D000002000F007F800F017F8002010BD000004
:1021E0000020024010B5044600F042F97D21C900EC
:1021F000FDF778FF00F04AFE00222146501E00F055
:1022000029F8002010BD000008B50C4881690122A2
:1022100011438161816911400091C26901040A433F
:10222000C261C0690022084000901146032000F0FE
:1022300011F8032000F004F808BD0000001002406F
:10224000C106C90E0120884001490860704700009E
:1022500000E100E010B501F09DFB10BDF8B50546AA
:102260000068354CC00352D5E0690026C00007D491
:10227000E16920040143E161E16901400126009127
:102280002E480168C90510D4016882151143016008
:10229000FFF78AFF074604E0FFF786FFC01B6428AC
:1022A00024D826480068C005F6D5206A03273F02D7
:1022B000384020D06968394081421CD0206A226AA7
:1022C000B843012109040A432262226A8A43226236
:1022D0002062C0070FD0FFF767FF009008E0FFF70C
:1022E00063FF0099411A1648814201D90320F8BDC5
:1022F000206A8007F3D5206A6968B84308432062E2
:10230000002E04D0E169012000078143E1612878B3
:10231000C00705D0206BA9688008800008432063AF
:102320002878800605D5206B10218843E96808438A
:1023300020630020F8BD0000001002400070004043
:1023400088130000F8B5054644480E460068C007EB
:10235000C00FB0420AD241480168490849003143E0
:1023600001600068C007C00FB0425CD128783C4CC7
:10237000800705D56068F0218843A968084360603C
:102380002878C0073FD06868012813D02168022848
:1023900013D08907002946DA61688908890001435A
:1023A0006160FFF701FF6968074601290DD0022926
:1023B00017D024E021688903ECE78901EAE7FFF7F9
:1023C000F3FEC11B2748814217D860680007800FC1
:1023D0000128F4D117E0FFF7E7FEC11B2148814235
:1023E0000BD860680007800F0228F4D10BE0FFF7DC
:1023F000DBFEC11B1B48814201D90320F8BD606888
:102400000007800FF3D115480168C907C90FB14211
:102410000BD9016849084900314301600068C007D1
:10242000C00FB04201D00120F8BD2878400706D582
:102430006068072109028843E9680843606000F08A
:102440002DF86168084A0906090F515CC840074920
:1024500008600020FFF7C6FE0020F8BD0020024003
:102460000010024088130000AC770008C001002073
:102470000148006870470000C00100200448054979
:1024800000684968044A4905490F515CC8407047D3
:10249000C001002000100240BC77000810B512A354
:1024A0000FCB88B06C460FC413A30FCB0FC41649D3
:1024B0004A680C20134603401448042B0FD0082B05
:1024C0000DD193021B0F6C46E45CC96A04AB09078B
:1024D000090F595CD20304D5FDF704FE604308B030
:1024E00010BD0B486043FAE702030405060708091C
:1024F0000A0B0C0D0E0F101001020304050607084D
:10250000090A0B0C0D0E0F100010024000127A0089
:1025100000093D00FEB504460078D04DC00747D005
:1025200068680007800F012807D068680007800FDF
:10253000022809D16868C00306D52868800337D50A
:10254000606800287ED033E0012062680004012A20
:1025500011D08100002A01D0052A10D02A688243B8
:102560002A602868884328606068002814D0FFF734
:102570001BFE06460CE0296801432960F4E72A683F
:102580000A432A60F7E7FFF70FFE801B64286FD825
:1025900028688003F7D50BE0FFF706FE064604E047
:1025A000FFF702FE801B6428F1D828688003F7D467
:1025B00020780126800700283BDA68680007800F32
:1025C00007D068680007800F022809D16868C00337
:1025D00006D42868800715D5E068012832D111E0BB
:1025E000E0680028286815D030432860FFF7DCFD3C
:1025F000074604E0FFF7D8FDC01B0228C7D82868AB
:102600008007F7D52868F82188432169C900084365
:1026100028600EE0400840002860FFF7C5FD07462F
:1026200004E0FFF7C1FDC01B0228B0D8286880076E
:10263000F7D42078000724D5E0690028686A10D014
:10264000304300E008E16862FFF7AEFD074604E0B2
:10265000FFF7AAFDC01B022899D8686A8007F7D542
:102660000FE0400840006862FFF79EFD074605E066
:102670009DE0FFF799FDC01B022888D8686A800793
:10268000F7D4207804274007002860DA0020019062
:10269000E869C00008D4E969B8060143E961E9695D
:1026A00001400120009101906D480168C90511D4D5
:1026B0000168821511430160FFF776FD009005E087
:1026C000FFF772FD0099401A642870D864480068CA
:1026D000C005F5D5A06801280AD0002801D005283A
:1026E00010D0286A400840002862286AB84301E0F8
:1026F000286A30432862A068002812D0FFF754FDF2
:1027000000900AE0286A38432862F1E7FFF74CFDA1
:102710000099411A5348814249D8286A8007F5D563
:102720000DE0FFF741FD009006E0FFF73DFD009949
:10273000411A4C4881423AD8286A8007F5D401985A
:10274000002804D0E969012000078143E96120786D
:10275000C00635D5606901280CD0401D686B23D0B8
:1027600038436863686B400840006863FFF71CFDEE
:10277000064622E0686B38436863686B30436863E1
:10278000FFF712FD064604E0FFF70EFD801B02284E
:102790005BD8686B8007F7D5686BF8218843A1691F
:1027A000C900084368630BE0B8436863F4E74CE092
:1027B000FFF7FAFC801B022847D8686B8007F7D424
:1027C000206A002846D069680907890F022943D08A
:1027D000012636060228286805D0B0432860FFF796
:1027E000E3FC044633E0B0432860FFF7DDFC074616
:1027F00004E0FFF7D9FCC01B022826D82868800116
:10280000F7D4E86AE16A000900010843E862616AF6
:10281000A06A084369683D22120491430843686036
:10282000286830432860FFF7BFFC044604E0FFF748
:10283000BBFC001B022808D828688001F7D509E0F6
:10284000FFF7B2FC001B022801D90320FEBD286857
:102850008001F5D40020FEBD0120FEBD0010024025
:102860000070004088130000F8B5040007D000266F
:1028700025464035A662687F002802D005E0012089
:10288000F8BD2E77204600F04BF802236B772068C6
:1028900001684022914301600721E06809028842F3
:1028A00001D9002201E0012212030F273F02B842A2
:1028B00002D0884200D0A662276B002F05D1884243
:1028C00001D9236301E001202063A1686068636986
:1028D00008432169194308430123A1695B02194098
:1028E0000843E1690843216A0843A16A0843216853
:1028F0000860616B606AA36908431B0C0427E168E8
:102900003B40194308432168104348602068C1696F
:102910007A029143C1612666012068770020F8BDE4
:1029200010B586B0044614216846FDF73DFC1149F8
:10293000206888421CD11048826981140A43826150
:1029400082690A400592426949010A43426140692D
:1029500008400590E0200090022001900021032013
:1029600003900291049109206946C006FFF772FBAB
:1029700006B010BD0030014000100240FFB5044613
:102980000E464068FF21254600270531403581B0BD
:10299000884202D1A06800280CD0287F012815D0D9
:1029A00001202877FFF700FC0090687F01280FD0F6
:1029B000022789E004206877049800903246114687
:1029C0002046039B00F03EF905B0F0BD0220FBE776
:1029D000002E78D00398002875D004206877002056
:1029E000206626640399A9800399E980A063A087E3
:1029F000E087E064206507200121E2680002090306
:102A000082422268536801D98B4300E00B43536034
:102A10000122A168D203914205D121680A680123ED
:102A20009B039A430A6021680A68520603D40A6825
:102A300040231A430A60E168814218D934E02068D3
:102A40008168C90706D0007B3070E888401EE880A6
:102A5000761C0CE00498002824D0401C07D0FFF717
:102A6000A3FB01460098091A049881421AD2E8880B
:102A70000028E4D11BE020688168C90706D0C0683F
:102A80003080E888401EE880B61C0DE004980028DD
:102A900008D0401C08D0FFF787FB0099411A049822
:102AA000814201D303270FE0E8880028E3D12046C4
:102AB000009A049900F091FF002801D020202066A0
:102AC000206E002800D00127012068770020287799
:102AD000384679E7FFB5064604464036307F002782
:102AE00081B00D46012809D001203077FFF75CFB4B
:102AF0000090707F012804D002279DE0022005B0DD
:102B0000F0BD002D72D0039800286FD0032070779D
:102B100000202066A5630399A1870399E1872064BB
:102B2000B080F0802065E0640121A068C90388427C
:102B300005D12068016801229203114301602068D9
:102B40000168490603D4016840221143016007204F
:102B5000E16800028142606823D9002802D0E08F3A
:102B600001281AD121682888C86005E0206881689A
:102B7000890706D52988C160E08F401EE087AD1C1B
:102B80000BE0049800283ED0401C06D0FFF70CFB59
:102B90000099411A0498814235D2E08F0028E5D18E
:102BA00036E0002802D0E08F01282ED1E08F0128E6
:102BB00003D921682888C8600CE021682878087348
:102BC0000FE020688168890711D5E18F012906D9B6
:102BD0002988C160E08F801EE087AD1C15E0297850
:102BE0000173E08F401EE0876D1C0EE023E0049827
:102BF000002808D0401C08D0FFF7D6FA0099411AE7
:102C00000498814201D3032716E0E08F0028D8D131
:102C10002046009A049900F01CFF002801D02020D3
:102C20002066A068002803D12068C16880680090F1
:102C3000206E002800D00127012070770020307717
:102C400038465CE7FFB5044683B001202546403591
:102C50000090287F00270E4601280FD001202877FA
:102C6000FFF7A2FA0190687F616801280DD0CA1FA2
:102C7000FD3A08D1A168002905D102E0022007B081
:102C8000F0BD042801D00227FAE0002E7CD0059880
:102C90000028FBD006980028F8D0687F042801D0CF
:102CA0000520687700202066059921640699E9804F
:102CB0000699A980A6630699E1870699A187E06431
:102CC00020650723E1681B02994202D8E8880128A1
:102CD00006D920684268012109038A43426005E061
:102CE0002068416801221203114341602068016895
:102CF000490603D40168402211430160E16860681D
:102D0000994242D9002802D0E08F012835D12168AC
:102D10003088C860E08F401EE087B61C2DE0009828
:102D200000280ED0E08F00280BD02068816889072A
:102D300007D53188C160E08F401EE0870020B61CB7
:102D40000090E88800280ED020688168C9070AD062
:102D5000C068059908800598801C0590E888401E89
:102D6000E880012000900C98401C06D0FFF71CFA68
:102D70000199411A0C9881426DD2E08F0028CED182
:102D8000E8880028CBD16EE079E0002802D0E08FFF
:102D9000012862D1E08F012807D921683088C860F6
:102DA000E08F801EE087B61C57E0216830780873FA
:102DB000E08F401EE087761C4FE00098002818D076
:102DC000E08F002815D020688168890711D5E18F30
:102DD000012906D93188C160E08F801EE087B61CCA
:102DE00005E031780173E08F401EE087761C0020FB
:102DF0000090E888002824D020688168C90720D086
:102E0000E988012912D9C068059908800598801CB5
:102E10000590E888801EE880E88801280FD820689F
:102E20004168012212031143416008E0017B0598CB
:102E300001700598401C0590E888401EE88001203C
:102E400000900C98401C08D0FFF7AEF90199401A89
:102E50000C99884201D3032712E0E08F0028ACD1FF
:102E6000E8880028A9D12046019A0C9900F0F1FDCC
:102E7000002801D020202066206E002800D00127E5
:102E800001206877002028773846F8E6094910B510
:102E9000401E884201D9012010BD074C606103210A
:102EA000081F00F077FD0020A061072020610020AE
:102EB00010BD0000FFFFFF0000E000E0704770471A
:102EC00070B5040005D025462035687F002802D063
:102ED00006E0012070BD00202877204600F00AF8A7
:102EE00002206877211D206800F0A6FF0120687786
:102EF000002070BD08B5104A0168104891420FD1FA
:102F0000C26910210A43C261C069002208400090D2
:102F100011461120FFF79EF91120FFF791F908BD26
:102F2000074A9142FBD18269012109040A43826167
:102F300080690840009008BD001000400010024069
:102F4000004001400268D36801210B43D360006850
:102F500002680A43026000207047704770B504465B
:102F6000006801690025C9438907002915DBC1688C
:102F7000C943890711D4E91E016101202077206827
:102F800080698007204602D0FFF7E7FF04E000F0E9
:102F900096F8204600F046F9257720680169C94374
:102FA000490717D4C168C943490713D40421C94349
:102FB000016102202077206880698005800F20460B
:102FC00002D0FFF7CAFF04E000F079F8204600F0D5
:102FD00029F9257720680169C943090716D4C16812
:102FE000C943090712D40821C9430161042020778D
:102FF0002068C0698007204602D0FFF7AEFF04E0DA
:1030000000F05DF8204600F00DF925772068016991
:10301000C943C90617D4C168C943C90613D41021CE
:10302000C9430161082020772068C0698005800FAE
:10303000204602D0FFF791FF04E000F040F8204660
:1030400000F0F0F8257720680169C943C90708D165
:10305000C168C943C90704D1891E0161204600F037
:1030600045F920680169C943090609D4C168C94303
:10307000090605D48021C94301612046FFF71EFFE0
:1030800020680169C943490609D4C168C943490692
:1030900005D44021C9430161204600F028F9206889
:1030A0000169C943890609D4C168C943890605D4A1
:1030B0002021C94301612046FFF701FF70BD704721
:1030C000F8B5064604462036307F0D4601280DD05F
:1030D00001203077022070770427002A08D0042AC4
:1030E00016D0082A2AD00C2A4DD137E00220F8BD8C
:1030F000206800F0F1FE2068816908221143816197
:1031000020688169B9438161206881692A6912E078
:10311000206800F025FF206882690121C9020A4366
:103120008261206881690122920291438161206855
:1031300081692A6912021143816124E0206800F04C
:103140004FFF2068C26908210A43C2612068C16933
:10315000B943C1612068C1692A6912E0206800F0A2
:1031600081FF2068C1690122D2021143C161206838
:10317000C269012189028A43C2612068C1692A6942
:1031800012021143C1610120707700203077F8BD31
:1031900070B5040005D025462035687F002802D090
:1031A00006E0012070BD00202877204600F00AF8D4
:1031B00002206877211D206800F03EFE012068771C
:1031C000002070BD10B586B0044614216846FCF797
:1031D000EBFF1149206888421CD110484269012147
:1031E00089040A43426142690A4005928269891052
:1031F0000A438261806908400590481000900220CF
:103200000121019003200291049103906946044832
:10321000FEF720FF06B010BD004001400010024044
:10322000000400487047000010B504460068012201
:1032300000F046FE0C482168814208D00B488142CC
:1032400005D00B48814202D00A48814204D1486C23
:103250000122D2031043486420680168012211430F
:103260000160002010BD0000002C01400040014022
:10327000004401400048014030B504460068002287
:1032800000F01EFE154A144821689310814208D0B0
:103290001348814205D01348814202D0124881422E
:1032A0000AD1086A104207D1086A184204D1486C52
:1032B0000125ED03A84348642068016A114206D144
:1032C000016A194203D101684908490001600120DF
:1032D00020346077002030BD002C01401111000027
:1032E00000400140004401400048014070477047E1
:1032F00070470000F8B503680446D96918680D07DF
:103300002D0F07D18A0605D5820603D5204601F088
:1033100037F8F8BD9A68002D64D0D507ED0FFF2669
:10332000213606402E435DD0CE0706D0C60504D513
:1033300001261E62E36E3343E3668F0702230426F1
:10334000002F06DAD70704D027683B62E76E3743C1
:10335000E7664F0706D5D20704D022681662E26EF0
:103360001A43E2660A0709D5202202402A4305D003
:10337000236808221A62E36E1343E366E26E002AB2
:10338000C7D0890604D5800602D5204600F0F8FF94
:10339000E06E000703D42068806840061CD52046F4
:1033A00000F0A0FF20688168490611D5816840229D
:1033B00091438160606E00280AD012494163606EBB
:1033C000FEF75CFC0028A4D0606E416B8847F8BD16
:1033D0002046FFF78DFFF8BD2046FFF789FF00204C
:1033E000E066F8BD0A0605D5020603D5204601F0C1
:1033F0009DF8F8BD4906FCD54006FAD5204600F0F8
:1034000080FFF8BD4D42000870B5040005D0254688
:103410006035687A002802D006E0012070BD0020E7
:103420002872204600F026F824206872206801687F
:10343000490849000160204600F0E0FF0128EDD076
:10344000606A002802D0204600F092FE20684168A1
:103450000122D20291434160206881680822914391
:10346000816020680168012211430160204600F05C
:10347000E4FE70BD10B586B0044614216846FCF722
:1034800093FE17492068884227D116488269012196
:1034900089030A43826182690A4005924269C90030
:1034A0000A434261406908400590032040020090B1
:1034B000022001900020029003200390012004903C
:1034C00009206946C006FEF7C5FD002211461B20F3
:1034D000FEF7C0FE1B20FEF7B3FE06B010BD0000D5
:1034E000003801400010024070B5034660339C7AFA
:1034F000202C39D100290BD0002A09D0012584685D
:103500002D03AC4206D10669002E03D1CE0701D0AF
:10351000012070BD1E7A012E26D001261E72416543
:10352000014640310A834A83FF22AC4204D1046938
:10353000002C07D10D4A05E0002C04D10469002CB1
:1035400000D07F228A830021C16622229A721972DA
:1035500001688A6832438A6000680168FF2221326C
:1035600011430160002070BD022070BDFF0100000A
:1035700070470000F8B5054604466035687A202893
:103580003BD100290BD0002A09D00123A0681B03DE
:10359000984206D12069002803D1C80701D0012034
:1035A000F8BD287A012828D0012028722046403012
:1035B000E164028242820026E66621206872216E62
:1035C0000F488862216E0F48C862216E0E4808635A
:1035D000206E134646632768E16C3A462832206E17
:1035E000FEF7BEFB2168402008622E7220688168C9
:1035F0008022114381600020F8BD0220F8BD000048
:10360000AB420008DB4200086142000830B50346C7
:1036100060335C7A202C23D100290BD0002A09D0FA
:10362000012584682D03AC4206D10469002C03D126
:10363000CC0701D0012030BD1C7A012C10D0C16410
:10364000014640310A824A820021C16621225A7213
:10365000197200680168802211430160002030BDAA
:10366000022030BD10B50121002249030848FEF7B1
:1036700095FD0848C28881888A4206D10021818050
:10368000C18005490120087010BDC18010BD000037
:103690000008004898000020000000207047FEE766
:1036A0000EB5002112480091019102910F4A41602C
:1036B00002608160012204230C300EC00160416071
:1036C000FF23C160C23382600361C2614161183867
:1036D000FEF7D8F8092000900120000301900004B3
:1036E000029069460248FEF73FF80EBD00240140F3
:1036F0002002002010B504490448FDF7B6FE024937
:10370000491E087010BD00007900002064000020F0
:10371000F0B587B014216846FCF746FD5D48426964
:103720000121C9040A43426142690A400592426983
:10373000C9000A43426142690A400592426949113F
:103740000A43426142690A400592426949000A43BC
:1037500042614069504F08404C11059001222146BA
:103760003846FEF71BFD0122160209203146C0062D
:10377000FEF714FD002261104848FEF70FFD0122FC
:1037800047494648FEF70AFD0094002401250195AB
:103790000294694638460394FEF75CFC0227092030
:1037A0006946C006009702950194FEF753FC13206A
:1037B000C0026A4631C209206946C006FEF74AFCCB
:1037C00069463648009602950194FEF743FCE802EC
:1037D0006A4631C209206946C006FEF73BFC680212
:1037E000009001956946029503942C48FEF732FC3F
:1037F0002803009009200195694602950394C006AC
:10380000FEF728FC002269022448FEF7C7FC0920C5
:1038100000222903C006FEF7C1FC0C206A4691C2B3
:1038200069461E48FEF716FC07200003009002942C
:103830006946019503941948FEF70CFC009603268F
:103840000920019502946946C0060396FEF702FC22
:103850000820009069460396019502940F48FEF7F0
:10386000F9FB702000900194694602940B48FEF722
:10387000F1FB80206A4631C269460848FEF7EAFB40
:10388000092000956946C00602950194FEF7E2FB07
:1038900007B0F0BD001002400008004800040048D6
:1038A0000860000010B50F480D490160FF21053187
:1038B000416007221202C26000218160022202617F
:1038C0000122426152028261016230224162C26180
:1038D000816207220163C2624163FEF7C5FF10BD2A
:1038E000003001409002002030B587B01C216846AE
:1038F000FCF75AFC16491748002412C0164D2988B7
:1039000084600460C460491E046141600838FFF7A8
:103910003FFC002801D0FDF7A7FD6020059402942C
:1039200004940394069400900C4928880978401E5A
:1039300048436421FCF7D6FB019004226946054800
:10394000FFF7BEFB002801D0FDF78EFD07B030BDAC
:103950000040014034030020FA000020E80000206D
:1039600010B50A4808490160E1214902416000217F
:103970008160C16001618161C1610C2201624261AB
:103980004162FFF741FD10BD003801407403002083
:10399000704700008307FF22DB0E9A408907090E5B
:1039A000994000280BDA0007000F08388308084800
:1039B0009B001818C36993430B43C3617047830886
:1039C00004489B001B181868904308431860704710
:1039D00000ED00E000E400E07047F7B50446406801
:1039E000FF26053682B01546B0420CD10121A068F1
:1039F000C903884202D04911884204D12068016875
:103A00004022914301600095002280212046039BC3
:103A100000F090F82027002813D16068B04216D13A
:103A2000A068B902884202D0491188420FD103210F
:103A30000095002249022046039B00F030F8002840
:103A400005D0206E38432066032005B0F0BD00206D
:103A5000FBE7F8B50F460B461546009203210446D6
:103A60000022C90200F01BF82026002812D13B4694
:103A7000002280212046009500F05CF8002809D142
:103A800003213B46002249022046009500F007F83A
:103A9000002803D0206E304320660320F8BDF8B51F
:103AA0001D4617460E4604463DE0032149028E425C
:103AB00005D1002F03D1017B684601700078681C96
:103AC00031D0002D05D0FEF76FFB0699401AA842B1
:103AD00029D320684168E022914341606068C11F9A
:103AE000FD390CD10121A068C903884202D04911D7
:103AF000884204D12068016840229143016001207E
:103B0000A16A4003814207D121680A6882430A60A2
:103B100021680A6802430A6001204034607700206F
:103B200020770320F8BD206881683140B942BCD1BC
:103B30000020F8BDF8B51D4617460E46044633E092
:103B4000681C31D0002D05D0FEF72EFB0699401AD7
:103B5000A84229D320684168E0229143416060680F
:103B6000C11FFD390CD10121A068C903884202D0D0
:103B70004911884204D120680168402291430160C4
:103B80000120A16A4003814207D121680A6882436B
:103B90000A6021680A6802430A60012040346077A5
:103BA000002020770320F8BD2068816830468843D4
:103BB00004D00020B842C3D10020F8BD0120F9E7AD
:103BC0007047000010B50648818D01760549418592
:103BD000FFF78AFE04210448FFF726FB10BD000012
:103BE000D00000209A0200003403002010B5FEF738
:103BF000E1FA10BD70B594B030216846FCF7D4FAF4
:103C0000002401250F941120059510940090019532
:103C1000102006900E941394000309900D94000157
:103C20000C94129402260A90119408960B946846FC
:103C3000FEF770FC07200C900E9401210D960F9456
:103C40000CA8FEF77FFB10A810951294FEF706FB58
:103C500014B070BD1348016801221143016041682E
:103C6000114A114041600168104A11400160016829
:103C7000012292049143016041683F221204914362
:103C80004160C16A09090901C162016BFF22143256
:103C900091430163416B4908490041630021816000
:103CA00070470000001002400CB8FF08FFFFF6FE4E
:103CB00010B50C1D486828A1FCF788FA00281CD014
:103CC00027A12068FCF782FA00282BD026A12068C3
:103CD000FCF77CFA002828D025A12068FCF776FAAA
:103CE000002837D1606803F0B7F80346C0B2FDF78B
:103CF00077FB1A4621A102202AE0606803F0ACF8A5
:103D00000446024627A10320FDF72CFB601DFEF7A9
:103D10005CF8BFF34F8F2E492C48C860BFF34F8F1C
:103D200000BFFDE72BA22FA111E035A16068FCF7D1
:103D30004DFA002806D033A16068FCF747FA002846
:103D400001D002E00120FDF753FB62682EA10320A1
:103D5000FDF708FB10BD000072657365740000007C
:103D600076657273696F6E006563686F00000000AE
:103D70006C6F676C6576656C00000000776172722D
:103D8000696E673E2053797374656D206C6F672090
:103D90006C6576656C2073657420746F3A25642EAB
:103DA0000D0A00006C6F673E2053797374656D20B7
:103DB00057696C6C2052657365742025646D73209F
:103DC0006C61747465722E0D0A0000000400FA051F
:103DD00000ED00E041432D31325F464D5F56302EFD
:103DE000310000006C6F673E204669726D7761722A
:103DF000652076657273696F6E3A25730D0A00004F
:103E00006F6E00006F6666006C6F673E20436F6EDA
:103E1000736F6C6520736574206563686F3A2573F2
:103E20002E0D0A0010B50348FFF798F801F0F2FED6
:103E300010BD0000F4020020F0B502681A4B1B4CC4
:103E4000984201D0A04203D17025AA434D682A436D
:103E5000174D184E184F98420AD0A04208D0174C60
:103E6000A04205D0A84203D0B04201D0B84205D14B
:103E70001446032212029443CA6822438024A243B8
:103E80004C69224302608A68C2620A688262984270
:103E900005D0A84203D0B04201D0B84201D109698F
:103EA000016301214161F0BD002C0140000400408C
:103EB0000040014000440140004801400020004013
:103EC00010B50123046A8B409C430462036A8A4054
:103ED0001343036210BD0000F0B5026A520852009D
:103EE0000262056A436882697024A24392080C68E2
:103EF00092001443022295438A68164E2A43144DB9
:103F0000A84207D0B04205D0134FB84202D0134F99
:103F1000B84206D10827BA43CF6817430422974313
:103F20003A46A84207D0B04205D00B4DA84202D075
:103F30000A4DA84206D103252D02AB434D691D430E
:103F40008B692B4343608461496841630262F0BD21
:103F5000002C014000400140004401400048014065
:103F600070B5026A10239A430262056A4268836947
:103F700073242402A3430C6824021C4320239D4382
:103F80008B681B012B43124DA84208D11D46CB68FC
:103F90008026B5431B012B434025AB4308E00D4D64
:103FA000A84205D00C4DA84202D00C4DA84208D121
:103FB0000325AD02AA434D69AD0015438A699200FD
:103FC0002A434260846149688163036270BD0000D6
:103FD000002C0140004001400044014000480140E5
:103FE00070B5026AFF2301339A430262056A43688F
:103FF000C2697024A24392080C6892001443012203
:10400000520295438A6812022A43124DA84208D1EF
:104010001546CA68C614B54312022A430515AA43B9
:1040200008E00D4DA84205D00C4DA84202D00C4D21
:10403000A84208D103252D03AB434D692D011D4333
:104040008B691B012B434360C4614968C1630262F1
:1040500070BD0000002C01400040014000440140C0
:104060000048014030B5026A01231B039A430262F3
:10407000046A4268C36973252D02AB430D682D02A3
:104080001D4301235B039C438B681B0323430C4CA0
:10409000A04208D00B4CA04205D00B4CA04202D04D
:1040A0000A4CA04205D10124A403A2434C69A401F7
:1040B00022434260C56149680164036230BD00006B
:1040C000002C0140004001400044014000480140F4
:1040D000F8B50646154C0020A080E0801448A18861
:1040E000491C89B2A1804900415AB142F7D2A18846
:1040F000491E89B2A180009149000A185288475A86
:10410000BD1AE088401C81B22846E18048430A215C
:10411000FBF7FEFF381AB042F3DA00980A21484351
:10412000E1884018FF38913800B2F8BDB000002097
:10413000607000080D48417C012911D1017A0029E5
:104140000ED1C17900290BD10179002908D18179DB
:10415000002905D14178002902D1417B002902D0F4
:104160000021817470470121FBE70000D00000208E
:1041700010B5818CC90707D001684A6801235B0428
:104180009A43836A1A434A60818C890707D501687C
:104190004A6801231B049A43C36A1A434A60818C0C
:1041A000490707D501684A6801239B049A43036BBA
:1041B0001A434A60818C090707D501684A680123C0
:1041C000DB039A43436B1A434A60818CC90607D5C7
:1041D0000268916801231B039943836B1943916023
:1041E000818C890607D501688A6801235B039A439D
:1041F000C36B1A438A60818C490612D503685A68DA
:1042000001210905046C8A4322435A60026C8A42E8
:1042100007D10268516803235B059943436C194336
:104220005160818C090607D501684A680123DB04C7
:10423000806C9A4302434A6010BD0021C16620226F
:1042400060304272827201720846704710B5406A4F
:104250000022014640314A834A82FFF749F810BDE7
:1042600070B5446A25466035687A0026212808D151
:1042700020688068000604D552200653204600F0CE
:104280004DF8A87A222808D120688068400604D515
:104290005A200653204600F025F8E06E102108430E
:1042A000E0662046FFF724F870BD10B501460968A6
:1042B000406A096889060DD4002252210A52016819
:1042C0008A6880239A438A6000680168402211430B
:1042D000016010BDFFF7C6F910BD10B5406AFFF7C9
:1042E000DDF910BD01680A68FF2321339A430A6093
:1042F00001688A68520852008A6020216030817209
:10430000704710B501680A6840239A430A6020226A
:1043100069210A54FFF7A6F9002010BD01680A6858
:10432000C0239A430A602021603041727047000028
:1043300010B500281ED00068C169C943890602D49F
:104340000168890603D4C169C943090712D4808C66
:10435000C4B201F059FC7D2207491201821848605D
:10436000904201D90020486021460448FDF7B5F885
:10437000012010BD002010BDB4010020A8080020BD
:1043800070B50246403203466033948B9D7A0168D3
:10439000222D05D08869082210438861022070BD53
:1043A000898C012685683603B54202D10569002D46
:1043B0000BD02140446D651C45652170518B491E11
:1043C0000904090C518307D015E0456D214029806F
:1043D000416D891C4165F1E701680A68FF242134B9
:1043E000A2430A6001688A68520852008A6020214C
:1043F0009972FFF7BDF8002070BD0000F8B50446C3
:104400002369A268E5691A43636910202B430021E0
:1044100025681A432B680E463E4F3B4013432B60E2
:1044200023685A6803252D03AA43E5682A435A6086
:10443000236AA26925681A43AB680B273F02BB4376
:104440001343AB60344A2568954210D1334A126B4E
:104450009207920F0ED0012A05D0022A05D0032A16
:1044600009D1022007E0042005E0082003E02C4ADF
:10447000954200D100200122E369D203934224D166
:1044800000280CD002280DD0042813D0082817D0FB
:1044900001260A0912010807400F10432FE0FDF71B
:1044A000EDFF09E061681F4A48088018FBF71AFE13
:1044B00081B2EEE7FDF7F2FF616840004A08F4E7D9
:1044C0006168012248081204EFE7002808D002289A
:1044D00009D004280BD0082814D001263046F8BD96
:1044E000FDF7CCFF05E061680F4A48080CE0FDF7D6
:1044F000D5FF61684A088018FBF7F4FD80B2216897
:10450000C860EBE7616848088018FBF7EBFD80B2F4
:10451000E860E3E7F369FFFF003801400010024064
:10452000004400400024F40000127A006921095C74
:10453000212901D00220704702464032518A0029C9
:1045400012D0012381681B03994202D1016900291D
:1045500015D0C16C4B1CC364006809780185508A72
:10456000401E50820020704701680A6880239A43E9
:104570000A6000680168402211430160F2E7C16CE3
:1045800003680988C905C90D1985C16C891CC164F6
:10459000E5E7000070B50C460546012251030648C8
:1045A000FDF7FCFD3220FDF710FC224629460348AA
:1045B000FFF72CF870BD00000008004874030020CD
:1045C00010B50348FFF7B4FE0148FEF793FE10BD97
:1045D0007403002002480121017000787047000038
:1045E0006000002001207047002070470248012130
:1045F00001700078704700006000002000207047C4
:1046000010B50022D4000346E3408B54521CD2B2B2
:10461000042AF7D310BD0000F0B5134901254D75EC
:104620008E6BCA6C2C03B71A104B0022C82F09D30B
:10463000CE640E7F002E0FD09D049D61CD7E6D1C3B
:10464000CD760A77CD7E85420CD94A759C61087D6E
:10465000072804D90A7504E09C610D77F2E7401C35
:104660000875CA76F0BD0000D000002000040048A4
:1046700010B50A49FF248B6C8A6BF534D31AA34218
:1046800006D38A640649002803D088048861002084
:1046900010BD012000038861012010BDD000002062
:1046A000000400480FB410B504A9074B02AA0398F0
:1046B00000F010F9044602A9002000F0B2FC2046E8
:1046C00010BC08BC04B01847235000087CB5154640
:1046D000024600201C4600290BD0491E0092019181
:1046E000044B6A462146284600F0F4F8009A00215F
:1046F00011707CBD0D5000082021020C01D010214A
:104700001046020A01D010460839020901D01046AD
:10471000091F820801D01046891E420801D0881E58
:104720007047081A704730B47446641E2578641CBC
:10473000AB4200D21D46635D5B00E31830BC1847F6
:1047400002E008C8121F08C1002AFAD1704770475A
:10475000002001E001C1121F002AFBD170470000B8
:10476000F0B51FB486B00998089A030D00210243E2
:1047700014D05148514A1818504305141198012873
:1047800010981AD0281A401C00264D4F4D4900960B
:1047900001910490002812DA444211E0119801249A
:1047A00049A3012801D11098C1430698119A846049
:1047B0000360C26041600BB0F0BD4042E4E70446D4
:1047C000210500203F4A001C51410391029012E054
:1047D000E00707D032463B4601990098FBF704FFFB
:1047E0000191009032463B4610461946FBF7FCFE0D
:1047F00006460F466410002CEAD10498039B00285B
:10480000029A0999089806DAFBF7EEFE019B009AD6
:10481000FBF7EAFE05E0FBF74FFF019B009AFBF771
:104820004BFF04460E460022284BFCF741F803D804
:104830000020C043014607E00022254B20463146B8
:10484000FBF720FEFCF782F9102409E0002C0ADBBC
:104850000A220023FCF740F8079B30321A55641EE9
:1048600002460A43F2D11122641C079B121B1C1939
:10487000119B012B03D0012308430ED10AE008430A
:1048800004D0112010900020119077E71098151A8D
:104890006D1E0BE01098824202DD00236D1C03E0C8
:1048A000824201DA00236D1E002BEED0069811998A
:1048B0008260C16030C07EE701FCFFFF104D000048
:1048C000000014400000F03F300000000000F04302
:1048D0000000E03FFFB597B00646002518E2252806
:1048E00077D100242746FD49049400E00443761C58
:1048F00032780120203A90400842F7D130782A28B7
:104900000ED00222307801463039092916D8049990
:104910000A235943303940181443761C0490F1E7B8
:10492000189802C804911890002904DA0120400365
:1049300004434842049002200443761C30782E2819
:1049400014D1042004437078761C2A2809D11898C1
:10495000761C80C8189009E00A214F43303FC719E0
:10496000761C3078014630390929F5D930786C2821
:1049700010D006DC4C281AD068280ED06A2817D12F
:1049800004E0742813D07A2812D110E001204005E9
:1049900004430CE00121090501E0032109050C4352
:1049A0007178814203D1012000052418761C761C01
:1049B0003078119066280BD013DC58287DD009DCA4
:1049C00000287BD04528F6D04628F4D047281AD1B5
:1049D000A5E118E0632835D0642870D0652812D18D
:1049E0009DE170286CD008DC6728F1D069287BD065
:1049F0006E280DD06F2806D1BAE073282ED0752806
:104A000071D0782859D01A9A199990476D1C7EE177
:104A10006002400F022809D003280DD004281898FE
:104A200001680DD00D60001D189070E11898EA170C
:104A300001680D604A60F6E7189801680D80F2E79A
:104A40000D70F0E718986A4601781172001D1890F1
:104A50000020507202A80090012005E0189802C8BA
:104A6000189000200091C04361070DD5002101E09E
:104A70000199491C0191B94212DA8142F8DB009A8E
:104A8000515C0029F4D10BE0002101E00199491C9F
:104A900001918142FADB019A0099895C0029F5D1E4
:104AA000019904981A9B471A21463846199A00F032
:104AB00097FA0199401945180BE04FE02CE113E0FB
:104AC0004EE0009800990078491C00911A9A1999B3
:104AD00090470198401E0190401CF2D12146384673
:104AE0001A9B199A10E137E00A20002100900191E9
:104AF0006002410F022907D0189A01CA1892C21702
:104B00009446032908D00AE01898C01DC108C900BE
:104B100005C91891944607E000B2C21794460429CB
:104B200002D140B2C1178C4600226146944506DA94
:104B30000A460021404291418C462D2102E0210588
:104B400004D52B216A461173012103E0E10701D04E
:104B50002021F7E7029155E00A200AE0102008E042
:104B6000102000900021042004430191082703E055
:104B700008200021019100906002410F022907D016
:104B8000189A01CA189200229446032908D008E016
:104B90001898C01DC108C90005C91891944603E0C2
:104BA00080B2042900D1C0B200210291210729D589
:104BB0001199702906D0009A1021019B4A401A438E
:104BC00005D00EE040216A461173012108E06146DC
:104BD000014306D030216A461173119951730221A5
:104BE0000291009A0821019B4A401A430AD161466A
:104BF000014301D1610705D530216A4611730121B6
:104C00007F1E02911199582904D035A10E910DA94A
:104C10000D910DE037A1F9E76146019B009AFBF782
:104C20005BFE0E9B8C469B5C0D9A521E0D92137080
:104C300061460143F0D10D9805A9081A2030019072
:104C4000600703D501200004844300E00127019898
:104C5000874201DD381A00E00020019900904118D8
:104C6000029809180498401A0490E00306D42146DB
:104C70001A9B199A049800F0B3F94519002706E029
:104C800003A81A9AC05D199990476D1C7F1C029861
:104C90008742F5DBE0030CD521461A9B199A04984C
:104CA00000F09EF9451904E01A9A302019999047AE
:104CB0006D1C0099481E00900029F5DC08E00D9855
:104CC0000D990078491C0D911A9A199990476D1CFD
:104CD0000199481E01900029F1DC63E109280100D7
:104CE0003031323334353637383961626364656662
:104CF0000000000030313233343536373839414224
:104D0000434445460000000000F05AF94519761C5E
:104D10003078002800D0E2E528461BB0F0BD6007DF
:104D200000D406271898C01DC108C90048680A6841
:104D30000831C30FDB071891190001D09CA108E0CE
:104D4000210501D59BA104E0E10701D09AA100E073
:104D50009AA1430011985B08109165280CD006DCDD
:104D6000452809D046281DD0472841D141E0662872
:104D700018D067283CD13CE00021112F01DB112025
:104D800000E0781C0191009008A911A8FFF7E8FC49
:104D9000139905910021119A15927F1C1298019781
:104DA000009150E00120C00703900120019008A964
:104DB000009711A8FFF7D4FC139A149905920022CA
:104DC000119B009212981593059A0192002901D027
:104DD000104602E0791C40180190381A01D501985C
:104DE00004E04042401E0090781C0190C01B0290DD
:104DF00043E0012F00DA01270021112F01DD1120EE
:104E000000E038460191009008A911A8FFF7A8FC1E
:104E100013990591119A002112981592009101970A
:104E200021070CD40599B94201DB019900E00191F9
:104E3000012904DD159A491E515C302906D0B8427B
:104E400001DA011D05DA0121029115E00199491EDF
:104E5000EDE7002805DC0099411800910199091A35
:104E600003E0019A411C914200DD01910099401A32
:104E7000401C02900120C0070390200706D402992D
:104E80000198814202DB0020C04302900020694665
:104E9000C87707AF012103980337C907884224D098
:104EA000022011902B201290039800280CDA404227
:104EB00003902D20129007E00A210398FBF712F9C6
:104EC00030317F1E039039701199481E11900029CE
:104ED000F2DC03980028EFD1791E12980870307820
:104EE000202108404530BF1E387006A8C01BC01DD9
:104EF000039010980078002800D0012001994118F3
:104F00000298C0170918039809180498401A401EFF
:104F10000490E00306D421461A9B199A049800F0E5
:104F20005FF8451910980078002803D01A9A19994B
:104F300090476D1CE00324D521461A9B199A0498CA
:104F400000F04EF845191CE00098002807DB009996
:104F50000598884203DD1598405C199901E019997C
:104F600030201A9A904700986D1C401C00900298BF
:104F7000401E0290002804D11A9A2E2019999047B9
:104F80006D1C0199481E01900029DDDC05E0387890
:104F90001A9A7F1C199990476D1C0399481E03901B
:104FA0000029F4DC21461A9B199A0498ACE600000B
:104FB0002D0000002B000000200000000000000079
:104FC000F8B5044600251E461746880404D405E0BB
:104FD00039462020B0476D1C641EF9D52846F8BD1F
:104FE000FFB50446002581B01E46C80301D5302711
:104FF00000E02027880404D505E038460399B0472F
:105000006D1C641EF9D5284605B0F0BD4A68002A1B
:1050100006D00A68531C0B6010704868401E486038
:1050200070470A68531C0B601070704710B5034836
:10503000008DFCF781FB0249087210BDD0000020F2
:10504000FC07002070B50D46044661280DD006DC33
:10505000502C0AD0512C08D0522C1CD105E0652CC4
:1050600003D06D2C01D0762C15D1A621322001F071
:1050700045FF502C10D0512C0ED0522C0CD0652C4A
:1050800015D0762C13D02946204601F037FF002199
:10509000322001F033FF70BD2946502001F02EFF71
:1050A0002946512001F02AFF29465220EDE7290A1E
:1050B000652001F023FFE9B27620E6E710B5A621CE
:1050C000322001F01BFF144C6120218EFFF7BAFF44
:1050D000211F612000F092FF618E5020FFF7B2FF88
:1050E000618E5120FFF7AEFF618E5220FFF7AAFFBD
:1050F000A18E6D20FFF7A6FFE08E0004010E652053
:10510000FFF7A0FFE08EC1B27620FFF79BFF0021E2
:10511000322001F0F3FE10BD48010020F8B5FE4C2E
:105120000220FBF7ABFFFD490988401AFBF744FB5F
:105130000546FB480E460088FBF752FBF94B0CCBAB
:10514000FBF752FA2A463346FBF79EFB7ED2002736
:105150002770677027716771A771E771277267728F
:105160000126A675A7722773E77200F009FAEE4DC3
:105170002046082178306956C08981420BDDA36B37
:10518000226F9A1AFF23F5339A420AD36B890222BF
:1051900013436B8105E06B89022293436B81A26B01
:1051A000226704220A3081420DDDA17FA06B411AE3
:1051B000FF20F530814210D3688910436881A775BC
:1051C0006670A67209E0688990436881208FA07795
:1051D000A07C002800D0A77267700920C006006973
:1051E000C00709D10A20FCF7F0FD0920C0060069BC
:1051F000C00701D0A06B60650920C0060069C00728
:1052000006D0286A17384D2802D8207C002805D0FF
:105210006889400840006881AE7067730020BE490D
:1052200020747831C04FE869C96B1C37884221D996
:105230000A20FCF7CAFDBD4A3946082000F094FF59
:10524000B548E9697830C06B814200E0F1E044D9AB
:105250006889402188436881226DA16B8A1A7D216B
:10526000C9008A4239D32021084368810020A075F3
:10527000267227E0A8497831096C884224D2642834
:1052800022D960630A20FCF7A0FDA84A394608200D
:1052900000F06AFFA049E8697831096C88421CD2A5
:1052A00064281AD9216DA06B411A7D20C00081426B
:1052B00013D3688920218843402108436881002056
:1052C000A075E671267308E06889602188436881CB
:1052D000A06B206500202072E0718F485A21783041
:1052E000406C074648436421FAF7FCFE8E494D6A3C
:1052F000A84209D83846912148436421FAF7F2FEC2
:10530000A84201D9A67001E00020A07038467121A2
:1053100048436421FAF7E6FEA84207D838469121AF
:1053200048436421FAF7DEFEA8426BD89120784307
:105330006421FAF7D7FEA8421DD83802C01B6421A9
:10534000FAF7D0FE7849A84215D9626EA06B784B67
:10535000821A9A4201D3E67002E0E278002A51D024
:105360000022A2752671A6724A8901239B021A4364
:105370004A81A06646E03802C01B6421FAF7B2FEFB
:105380006949A8421DD8B8003818854219D2488901
:105390000122520210434881A36EA26BD31A7D22D0
:1053A000D200934201D3E67002E0E278002A29D0CD
:1053B0000022A275012226719202A6721043488132
:1053C00020E0B8003818854210D30020A07526715F
:1053D000A672488941221201104348814E48B830D4
:1053E000418D491C418500F0D3FF0BE048896122C3
:1053F000120190434881A06B20666066A066002081
:10540000E07020714449484818227831825E8B8AC6
:1054100008219A420EDDE36EA26BD31AFF22F53209
:1054200093420ED342890A4342810020A075A6719F
:10543000A67206E042898A434281A06BE0660020A2
:10544000A071217B3B4D01290ED0A07A012809D003
:10545000A06BA065E06500206076A072A076207346
:10546000E072F8BD002931D0A16BE06D0A1A7D20F1
:10547000C0008242F5D30026E674A07E032807D23E
:105480000122401CC0B2E274A076E1650328E8D393
:105490000320FBF7F3FD2988401AFBF78DF9054639
:1054A00025480F460088FBF79BF9244B0CCBFBF7F4
:1054B0009BF82A463B46FBF7E7F9D2D21A482673F7
:1054C00041890122D20311434181F8BD0028FCD05B
:1054D000E07A012846D0A16BA06D0A1A7D20C00099
:1054E0008242F2D3607E032804D20122E274401C7F
:1054F0006076A165A07E0328E7D90320FBF7BEFDF7
:105500002988401AFBF758F905460B480E460088D3
:10551000FBF766F9094B13E0D000002022000020C1
:105520000E00002040000020FC07002040242B3CFF
:1055300088130000280000201000002048000020F0
:105540000CCBFBF751F833462A46FBF79DF9BCD24A
:1055500000200A49A0724A890123DB031A434A81C9
:105560006076F8BD607E002802D00020A072F8BDF1
:105570000120E0746076A06BA065F8BDFC070020F8
:1055800010B500F04BF800F001F810BD38B500215F
:10559000684601801F4D6946AA8D0E2000F052FD1D
:1055A0002C4640346846E189008808182146E0818D
:1055B000183108460A3800F01BFBAA8D69460F20F7
:1055C00000F040FD6846218A0088081821462082A4
:1055D0001C3108460C3800F00BFBAA8D69460D20E3
:1055E00000F030FD6846A189008808182146A08196
:1055F00014310846083800F0FBFA2046B838426CEF
:10560000816B054B8A1A9A4202D3416400F0C0FEB6
:1056100038BD00004801002080EE360038B5254A2C
:105620002549062000F0A0FD2349244A091D072032
:1056300000F09AFD2248026C816B8A1A0A2A37D33D
:105640000A460A320164914201D900210164694687
:105650006F2000F0D3FC18491A4A091F082000F0F7
:1056600083FD15480E3800F017FD174C12492246ED
:105670000C39102000F036FD0F4922460A3911205E
:1056800000F030FD0C49224608390C2000F02AFDBC
:10569000094C203CE169606A48431421615E48433B
:1056A0001821615EFAF71EFD6421FAF71BFD2082C6
:1056B00038BD000000942D3A1C080020389ABD3CEB
:1056C000D000002040242B3CA749A83C10B52A4A12
:1056D0009378037014794470947984701489431C0E
:1056E000240AC470147A0471947B4471147B84710D
:1056F000D46B240EC471D46B240CDC71948F240AF7
:105700001C72948F5C72146C240E9C72146C240CAA
:10571000DC72146C240A1C73146C5C73546C240EBD
:105720009C73546C240CDC73546C240A1C74546CED
:105730005C7400249C74DC74948A240A1C75147DA7
:105740005C75146E240E9C75146E240CDC75146E3E
:10575000240A1C76126E5A76074A603214799C76B7
:105760001446203CE48CDC76127A1A771D33181A22
:10577000C0B2087010BD000048010020FFB581B024
:105780000B9D7E270A9E2F706970AC1C03A800F049
:1057900098FA042203A92046FAF7EDFC019880212B
:1057A000084320716671A41D324620460499FAF719
:1057B000E2FCA4190020694608360880F6B2324699
:1057C00029460A48FBF71CFE69460880684600F037
:1057D0006DFA69460878207048786070A770F61CEA
:1057E0000C99F0B2087005B0F0BD0000FFFF00009A
:1057F000F0B5064687B00024401820380594C27FD3
:105800007E2A02D0601E07B0F0BD427F807F120268
:105810001018B64DC91EE8858AB23146B448FBF768
:10582000EFFD2886E98D814218D170780190B0791A
:10583000203568700422B11C05A8FAF79CFC05A865
:1058400000F03FFA28782F46401C28705837798995
:105850000198814205D06878152802D00120C04304
:10586000D1E76846047409200394009068783146B3
:105870000931102852D007DC0300FEF754FF071D42
:10588000232A30363D44220009239A4ADB06152894
:1058900077D008DC11284CD0122855D0132871D0AD
:1058A00014280ED191E016286DD0172871D0202829
:1058B0006BD03028F5D1AEE08F49002008706846E3
:1058C0000474F0E08C49012008703879C8390870F8
:1058D00055E0894804A9C838FFF7F8FEE3E0864898
:1058E00004A9C83800F00AF9DDE0834804AAC838E2
:1058F000009900F0D7FCD6E07F4804AA3146C838AA
:1059000001F018FBCFE0717A68460173B17A4173F8
:1059100003A800F0CBF90398F88166E004226846FA
:105920000094FAF728FC684600F0CBF90098F86379
:105930005BE0042268460094FAF71DFC684600F01C
:10594000C0F90098386450E0042268460094FAF7E1
:1059500012FC684600F0B5F96448407C012805D087
:1059600065490120C839087069469BE00098002805
:105970000CD06149012048705F48C838047001208C
:10598000F2E73FE016E058E003E031E05A484470A7
:10599000F2E70094367A04226846FAF7ECFB684690
:1059A00000F08FF95448BA7A3146401D009B00F050
:1059B00007FD78E0042268460094FAF7DCFB6846AD
:1059C00000F07FF90098786409E0042268460094AA
:1059D000FAF7D1FB684600F074F90098B88246489F
:1059E0006946C83804700120087400F0D1FC5AE000
:1059F0006C22684602743D493F487831C838FAF74E
:105A0000BAFB50E01069C00502D5186900054AD4F8
:105A100001987881E3E70094367A04226846FAF721
:105A2000AAFB684600F04DF93146334EBA7AB01DF4
:105A3000009B00F0C5FC747035E000200090B86C4D
:105A4000059988422FD1307A69460870009800285D
:105A5000106905D0C00513D5A878012810D013E02F
:105A6000C00504D40120400290610120A87018698B
:105A7000000513D40120000398610220A8700DE0F6
:105A8000012040069061AC701869000502D5A87825
:105A9000022803D1012000079861AC701648C8386D
:105AA000047001200874019800281BD00598002874
:105AB00018D06846007C002812D00C490E4A2331C9
:105AC000643A0192029100900B4BB97AC83B687816
:105AD000BA6CFFF753FE0848E9786438FEF75AFDC0
