:020000040800F2
:10000000980C0020618900083187000833870008B8
:1000100000000000000000000000000000000000E0
:10002000000000000000000000000000358700080C
:100030000000000000000000378700083987000832
:10004000971E000800000000631F00084187000899
:10005000A72500088F260008373000080B3100085C
:10006000000000004987000877340008CB340008FE
:10007000C3370008EF3B0008F3430008000000000E
:10008000CB54000853870008000000000355000807
:100090007B7400082F760008437600084B77000831
:1000A000EB7800085B84000843890008618700083A
:1000B0004F890008F0B59BB0834E6C226946300032
:1000C00001F0E5F8814F6D466A22A91C380001F065
:1000D0006CF97F4C2988884210D1608869888842F1
:1000E0000CD16C222100300001F0D1F8B648616DCE
:1000F0008162A16DC162E16D01630DE06A22A11C04
:10010000380001F052F92080300001F057F86C22DD
:100110002100300001F080F81BB0F0BDAB48006A50
:10012000704710B5A94C206A401C20620A2101F0DA
:10013000B9F9002902D1606A401C606210BD0288D2
:10014000202A00DA704710B50B6854091B190B60A0
:10015000D106C90E018010BDF8B59B4C9C4A210008
:100160002031062001F03BFA9A4A21002431072071
:1001700001F035FA954D286A0026A96A411A0A2924
:100180002FD301000A31814200D20020A8626946C3
:100190006F2001F0FEF9904A21001C31082001F087
:1001A0001EFA2000123001F078FA8C4F3A0021003C
:1001B0001431102001F08EFA3A002100163111207E
:1001C00001F088FA3A00210018310C2001F082FA7F
:1001D0001420215E642048431821615E01F04EF92D
:1001E0002082684606803A4CA28D69460E2001F0B6
:1001F000CDFA4E20205A6946098840184E21605297
:100200002100583120004E30FFF799FFA28D69463A
:100210000F2001F0BBFA5020205A69460988401887
:100220005021605221005C3120005030FFF787FFE1
:10023000A28D69460D2001F0A9FA4C20205A69468A
:10024000098840184C2160522100543120004C3064
:10025000FFF775FF286AE96A411A614A914202D3A1
:10026000E86200F0A1FDF1BDF1B581B0012568465D
:1002700005705648C47D066A5A492A030023076B55
:10028000F71BC82F0AD30663067E002E02D10A6030
:10029000057603E015040D60641C03766D462E7927
:1002A000457CE7B2BE4208D26C4623700A60082D36
:1002B00001DB002500E06D1C00244574C47569460F
:1002C00009788174F3BD000000FC0008FFFF000006
:1002D0000000002010B58021C90143480268520582
:1002E00001D4CA0307E04A0803681B0503D40904C4
:1002F0008160826001E082608160344CA07C0028D3
:1003000002D1607C401C60742078012805D1607C9B
:10031000012802D10320FFF7A7FF6078012805D14B
:10032000607C022802D10420FFF79EFFE0780128BC
:1003300005D1607C032802D10520FFF795FF2079C5
:10034000012805D1607C042802D10620FFF78CFF2C
:100350006079012805D1607C052802D10720FFF7CC
:1003600083FFA079012805D1607C062802D10820EE
:10037000FFF77AFFE079012805D1607C072802D1D8
:100380000920FFF771FF207A012805D1607C082839
:1003900002D10B20FFF768FF10BDAF48817B012918
:1003A0000ED1C17982790A43C178114342790A4357
:1003B00006D14178027B0A43511E8941C90F00E0F2
:1003C0000021C17370470000140800207000002055
:1003D00000942D3A389ABD3C40242B3CA749A83CB8
:1003E00080EE36001804004810040048F8B59B4C15
:1003F0008027FF009A4E984D687E00280FD0306805
:10040000384003D10120E070287560703068000525
:1004100003D40020E0702875607000206876316891
:100420006089394005D10121E1708E490140802069
:1004300008433168090513D40021E170A97B002924
:1004400002D10100B8080843697D032902DCA97DB7
:10045000032902DD010078010843010082480840B9
:10046000608100F04AFE002838D1306838401AD147
:1004700000F0EBF8012001F0DEF904217B4801F0E7
:1004800026FA072001F0D7F930683840F0D03068FC
:10049000000523D40020E070608975490140B80848
:1004A000084360811DE03068000517D400F0BFF8F4
:1004B00030683840FCD1A88B01F0BDF904216B48AD
:1004C00001F005FA3068384008D10120E0706089F9
:1004D0006849014080200843608110E0E0780028EE
:1004E0000BD1287D00281BD00020A87360896049AB
:1004F0000140B8080843608112E0012810D16189E9
:10050000584808406081297D012907D00121A9733D
:100510006170297580210143618101E00120A87388
:10052000687A012802D0E87A012819D1287C0128AC
:1005300016D1E078002813D100F079F830683840FF
:10054000FCD1A88B01F077F90421484801F0BFF9EC
:100550000020287460894004400C8021014361819F
:10056000E87C002825D1306838401AD100F06DF8B9
:10057000012001F060F904213C4801F0A8F90A20AB
:1005800001F059F930683840F0D03068000510D4D7
:100590000020E070608936490140B8080843608156
:1005A00007E0287B002804D0687D032801DD00F0E7
:1005B0004CF8FFF7F2FEE87B002801D1FF20F2BDE6
:1005C0006078E178884230D0012818D100F02FF807
:1005D00030683840FCD1A88B01F02DF90421234864
:1005E00001F075F9306807401FD10120E0702875CF
:1005F00060891C49014080200843608115E0002883
:1006000013D100F022F87F0030683840FCD104217B
:10061000164801F05CF93068074006D10020E07010
:10062000287560891449014061810020F2BD80B5C0
:100630001248642101701421FFE7418001F02CFC75
:1006400004210A4801F040F901BD80B50B488188BA
:1006500001700B49F1E70000700000201408002031
:1006600010040048FF7E00007FFF0000D407002038
:100670007F7F0000FFFE00007F7E00005C01002005
:100680009A020000FEB5B24C002020706070E0704D
:1006900020716071A071E0712072AE4D68890821EF
:1006A0006956AD4AD289236A8A4209DA266D9E1BB1
:1006B000FA277F00BE4207D306000220304303E042
:1006C0000600BC48304023650A328A4209DAA17E1E
:1006D000591AFA22520091420CD301000420084317
:1006E00008E00100B4480840A376E17B002901D06E
:1006F0000021617268810126B0480068304032D123
:100700000A2001F098F8AD48006830402BD1F7027C
:10071000AB48006840050ED4286A17384E280AD224
:100720006673FFF792FFA64800683840FBD10421AA
:10073000A44801F0CCF8FA20800001F07CF8607B3E
:10074000012810D19E48006807400CD1FFF76FFFC9
:100750009B4800684005FBD4A08B01F06CF8042195
:10076000984801F0B4F895480068698930400ED087
:10077000286A17384E280AD2607B002807D101204A
:10078000084300220021E2740122667203E0B648A9
:100790000840012100226881A97022730020607343
:1007A00087480068400500D5BDE0276A606B381AAD
:1007B000E969694AD26B8A4209D26A89AB49114018
:1007C0006981FA22920090421FD320200DE0624AF4
:1007D000126C91420CD264290AD9FA21890088420C
:1007E00013D36889A24901404020084368810CE086
:1007F0006889A049014069816763E07B002801D0D6
:100800000020E0720020E071A0715348406C00901D
:1008100091214843642100F045FE01900098712128
:100820004843642100F03EFE696A814213D3686A3E
:10083000019988420FD2206C381ACF49884201D3DF
:10084000A67002E0A078002854D06889B102014364
:10085000698167641CE000980102081A642100F0B5
:1008600021FE696A019A914214D3814212D2606CCE
:10087000381AC249884201D3A67002E0A078002845
:1008800038D00020E074E6706889B10201436981C4
:10089000A7642FE0009A93009A18814212D39142E4
:1008A00010D26989700208436881A16C791A3229D3
:1008B00001D3A67002E0A17800291BD0B102014348
:1008C000698117E0688991420BD38221C9000143F5
:1008D0006981AB480088401CA949088000F064FA8F
:1008E00008E0A8490140698127646764A764002083
:1008F000A070E070206A1849898A1822AA5E914285
:100900000ADAE16C401AFA21490088420BD368895F
:1009100008210143698106E069899B4A0A406A818E
:10092000E06400206071A07D617D226AE37A002B83
:1009300014D0E36BD31AFA27BF00BB4236D3022888
:1009400002DC2674401CE263C2B2022A1EE000BF31
:10095000700000201408002000000020637A002BA3
:100960001ED0A37A012B05D10B001FD101212174C8
:10097000A2631BE0A36BD31AFA27BF00BB4215D3B7
:10098000022902DC2674491CA26303280EDD0C4AEE
:10099000126812050AD46A89F30313436B8105E0D8
:1009A000A263E263002200210020A2726175A0759B
:1009B000F7BD00BFFDFF0000FBFF00001000004876
:1009C00010040048D4070020BB4A53880370938862
:1009D0004370D388837013891B0AC3701389037112
:1009E000D389437193898371D36B1B0EC371D36B0E
:1009F0001B0C0372D36B1B0A4372D36B8372136C91
:100A00001B0EC372136C1B0C0373136C1B0A437312
:100A1000136C8373536C1B0EC373536C1B0C0374E6
:100A2000536C1B0A4374536C83740023C3740375A3
:100A3000938A1B0A4375938A8375136E1B0EC375C5
:100A4000136E1B0C0376136E1B0A4376136E8376AC
:100A50006423D35CC3766432538803771279427778
:100A60001E20087070470000FEFF0000BFFF00005E
:100A7000DFFF00009FFF0000F0B501700121417011
:100A8000042383700024C47004718B4CA58A2D0A42
:100A90004571A58A85710225C5710372256E2D0EDB
:100AA0004572256E2D0C8572256E2D0AC572256E38
:100AB0000573032545738173E589C5730374437416
:100AC000656C2D0E8574656C2D0CC574656C2D0AD6
:100AD0000575656C457505258575C375E56B2D0E2A
:100AE0000576E56B2D0C4576E56B2D0A8576E56B75
:100AF000C576062505774377256C2D0E8577256C01
:100B00002D0CC577256C2D0A20268555256C2126B0
:100B10008555072522268555232681556425655D43
:100B20002426855508252526855526268155250008
:100B300064356E882727C65509262827C6552926D5
:100B4000815529792A2541550A212B2541552C21EA
:100B50004354A16C090E2D23C154A16C090C2E2302
:100B6000C154A16C090A2F23C154A16C3023C15474
:100B700032201070F0BD000080EE360040771B0080
:100B80006A000020EFF90000F7FF0000F5B585B01E
:100B9000002501956A46158095700926A64A1570AC
:100BA0000800083000AA521C037813700024424841
:100BB000029064300390049109E0019A029B9A64C8
:100BC00002E0019A039B1A710A000270641C6946D4
:100BD0004978E0B2884262D20498F1B2401800A984
:100BE000891C02780A70761C0498F1B24018694694
:100BF00002780A70761C0498F1B2411801A801F03D
:100C0000A3F968460078361868460078042803D1AE
:100C100001A800F0B8FB06E068460078022802D17F
:100C200001A800F0A3FB84480278511C6B469B7816
:100C30005B1E092BC9D802A7FF567F00BF4400BF27
:100C400005090D1115191D21C1BD019A029B9A823A
:100C5000BAE7019A029B1A66B6E7019A029BDA810B
:100C6000B2E7019A029B5A64AEE7019A029BDA63EB
:100C7000AAE7019A029B1A64A6E7019A039B1A70DD
:100C8000A2E7019A039B5A809EE701212170661C0E
:100C900005700699301B401C087007B0F0BD66480F
:100CA000059C01786A4652789142EED10570257014
:100CB000661C00F079F8ECE70000002010B55F4AF0
:100CC00093880370D388437013891B0A8370138938
:100CD000C3705B4BDC780471DC7944711C7A8471DD
:100CE0001C6AC4715C89240A04725C8944721C8A7F
:100CF000240A84721C8AC472DC69240E0473DC69C1
:100D0000240C4473DC69240A8473DC69C4735C6A50
:100D1000240E04745C6A240C44745C6A240A84748F
:100D20005C6AC47414241C5F241204759B8A437586
:100D3000536D1B0E8375536D1B0CC375536D1B0ACE
:100D40000376536D4376936D1B0E8376936D1B0C68
:100D5000C376936D1B0A0377936D4377D36D1B0E98
:100D60008377D36D1B0CC377D36D1B0A20240355E7
:100D7000D36D212403556A23D35A1B0A2224035519
:100D80006A23D25A2323C2542520087010BD490774
:100D9000090E914205D2190000D0012101700020F6
:100DA00070470020C043704738B5244C6A22A11C0C
:100DB000244800F0FAFA2080234D280000F0FEF9C4
:100DC0006C222100280000F027FA31BDFEB5070093
:100DD000089C099D7E262E70697001A800F0D3FA48
:100DE000042201A9A81C01F0AFF880203843A871A3
:100DF000EC71220002992800083001F0A5F82800C3
:100E0000083007190834002069460880E2B229003A
:100E10000C4800F0CAFA69460880684600F0A6FA55
:100E200068460178397041787970BE70E41C0A997F
:100E30000C70E0B2FEBD000093080020000000200E
:100E400014080020FFFF000000FC0008F8B586B081
:100E50000500002404946818C01E82787E2A01D000
:100E6000002028E0B44F027812024078101868225F
:100E7000B852CA1E92B22900B04800F096FA682112
:100E8000795A814216D168780190A8797870042245
:100E9000A91C04A801F058F804A800F074FA3878E6
:100EA000401C387078780199BE4A5289914204D02A
:100EB000152802D00120C0431DE16A461473059431
:100EC000B9490126002826D0012827D002282BD096
:100ED00003282ED0042831D0052835D0062839D053
:100EE000102845D0112851D012285DD0132800D1E8
:100EF00085E0142800D190E0152800D1A4E0162840
:100F000000D1C3E0172866D0202800D193E0302814
:100F100000D1A5E0CFE0A5480470CCE0A3490E7055
:100F2000A04880883871C4E003A9381DFFF74CFD44
:100F3000C1E003A9381DFFF7C1FEBCE003AA0921E7
:100F4000381DFFF799FDB6E003AA2900381DFFF709
:100F50001DFEB0E02800093005A902780A70427829
:100F60004A7005A800F002FA05988E49C88174E01D
:100F70000094042229000931684600F0E5FF684624
:100F800000F001FA00988749C86366E000940422E3
:100F900029000931684600F0D7FF684600F0F3F9F0
:100FA00000988049086458E000940422290009311F
:100FB000684600F0C9FF684600F0E5F97C48807B90
:100FC000012806D10098002800D0012077494870F8
:100FD0006EE03E716DE000942C7A04222900093104
:100FE000684600F0B1FF684600F0CDF9009B6D48FF
:100FF0004289D2B221006F48FFF7C9FE5BE000943E
:10100000042229000931684600F09EFF684600F07E
:10101000BAF90098634948641CE00094042229004E
:101020000931684600F090FF684600F0ACF900987E
:101030005C4988820EE06C20694608736C2259492D
:10104000381D00F081FF36E00868400733D401986E
:10105000544948813C7168460673FFF7A5FE2AE0B3
:1010600000942E7A042229000931684600F06CFFB2
:10107000684600F088F94D4D009B4A484289D2B23B
:101080003100A81DFFF783FE6C7014E000940498F3
:10109000444A926C90420ED1280008306A46037888
:1010A00013700098002801D1082000E0F004886047
:1010B0003C7168460673019800281BD004980028EC
:1010C00018D06846007B002814D03648B91C02911D
:1010D00039006C3101916946097B00913B1D826C9E
:1010E0004189C9B27878FFF771FEB97838006C3061
:1010F00000F048FF002007B0F0BD70B502242A4D73
:101100002D4E307801280DD12868204002D0286863
:10111000012070BD0F2000F08EFB00203070286889
:101120002040F6D028680440F2D030780028EFD173
:101130000120307070BD0000D8050020FFFF0000C6
:1011400010B5A621322000F00FFA164C218E612036
:1011500000F03AFB21006C31612000F01AFA618E38
:10116000502000F031FB618E512000F02DFB618E8C
:10117000522000F029FBA18E6D2000F025FB3620C7
:10118000205E0104090E652000F01EFBE18EC9B24D
:10119000762000F019FB0021322000F0E5F910BDA7
:1011A000000000000000002010000048140800208B
:1011B0007000002019080020620100201FB50021E6
:1011C0000091019102900124039401F078F969469D
:1011D00001A801F0E9F9044800682040FBD101F0C2
:1011E0007DF91FBD000000000C2002400100C878FE
:1011F00000028A78104300044A78120209780A43F0
:101200001043704710B50022D3000400DC408C541A
:10121000521C042AF8DB10BDF8B584B004000E009F
:101220000020019097089007800F029001F047F985
:1012300000250394019C0BE03019FFF7D7FF020053
:1012400000230199022001F077F8241DA4B26D1C3F
:10125000039800190190BD42EEDB0298002815D0DA
:1012600000216A465218814202DA6318F35C00E0FA
:10127000FF231370491C0429F3DB6846FFF7B6FF10
:10128000020000230199022001F056F82BE0F8B586
:1012900084B004000E000027029790080090900789
:1012A000800F019001F00BF900250394029C06E0E9
:1012B00000683119FFF7A6FF241DA4B26D1C039826
:1012C0000019A9B2009A9142F2DB019900290AD0D3
:1012D0000068FB000200DA40BBB2E318F2547F1C46
:1012E000BAB28A42F5DB01F0F9F805B0F0BDF1B40D
:1012F0000168421841684808131800988068C907B7
:101300001ED5494640181BE01778521C0770401C38
:10131000761EF9D1002C13D01678521C89080D4086
:10132000032D01D11578521C290271184D42411923
:10133000A41C05D00D78491C0570401C641EF9D111
:101340009A420FD01178521C032503260E4002D179
:101350001678F61C521C0C090F2CD9D114780F34B6
:10136000521CD5E700980C30F2BC704781B0018860
:101370006A4611806946497801706946097841706A
:10138000008801B0704781B0016800916946C97852
:10139000017069468978417069464978817069466B
:1013A0000978C170006801B0704710B5FF23FF20B5
:1013B00008E00C786040491C064C4000245A20008C
:1013C0005840230A1400621EC0B22404F1D119024D
:1013D000084310BD7084000800290BD0002A09D0F2
:1013E000531E1A4006D10160436000218160C16034
:1013F000012070470020704710B54268C3688468B8
:101400001B1B9A4208D30368C46822409954C168E0
:10141000491CC160012010BD002010BDC16880685A
:10142000081A704703000020002900D1704770B5EA
:10143000002A13D0DC689D68641B944202D222000B
:10144000002A0BD01C689D685E682E40A45D0C5479
:101450009C68641C9C60521E401CF1E770BD10B576
:101460000A0000218368C468E41AA24204D2016819
:101470009A1840681040095C080010BDCA0F00D0DF
:10148000494203105A400DD004B500D3404200F049
:1014900009F8009AD20701D34942124200D54042CE
:1014A00004BD0000094214D088420FD30122030C6E
:1014B00001D100041204002300185B418B4200D3C9
:1014C0005B1A5241F8D31900100070470100002048
:1014D000704708B501F0DAF808BD0368002A03D1A7
:1014E0005B1E0360080070471978002902D10020B4
:1014F000C0437047591C01601878704710B55521DA
:10150000332000F031F8C82000F095F9BC213220DA
:1015100000F02AF88D49402000F026F8882141206B
:1015200000F022F80721432000F01EF8A621322007
:1015300000F01AF80021592000F016F8844C210020
:10154000542000F011F82100552000F00DF8210082
:10155000562000F009F85E21612000F005F8864968
:101560006E2000F001F810BD1CB56A4680230343CD
:101570001370080C5070080A9070D170754C802060
:10158000400420600A2304226946734801F0DEF813
:1015900020E07CB50E00694608707F204870887096
:1015A000C8706C4D802040042860052000F043F98D
:1015B000694C0A2301226946200001F0C7F8142370
:1015C00003223100200001F0ABF9802040002860A8
:1015D000002076BD802040002060002016BD7FB531
:1015E0000024811F02292CD806005C4D2900300000
:1015F000FFF7CFFF641CFF2827D1E1B20229F5DDF8
:101600001FE0062911D101F09BFC0100300001F020
:10161000A7FC060001F0FCFC02003000504901F07C
:101620000BFD00D8521E2A600CE007290AD101F0F8
:1016300087FC0100300001F093FC01F0E9FC286018
:1016400000E0FF24200004B070BD31000400F9D197
:10165000287800046A7812020243A8781043414AAD
:10166000904200D10020019D029E0829C9D101F0BD
:1016700067FC0100300001F073FC3B4901F0F0FC15
:1016800001F044FD39A20CCA01F059FD3BA20CCA7D
:1016900001F017FE01F002FFD1E770B5060000254A
:1016A000344C21000920FFF774FF6D1CFF2804D182
:1016B000E9B20229F5DDFF250AE0050008D131482D
:1016C000A1780902E27811434900FFF7D7FE308084
:1016D000280070BDF8B50E001500002401000C397B
:1016E00002D0091F01291CD8070069463800FFF7FE
:1016F00050FF641CFF2817D1E1B20229F5DD10E08C
:10170000009601F0E3FE06000F00280001F0FEFC49
:1017100032003B0001F013FD01F0C0FE009908808B
:1017200000E0FF242000F2BD0400FBD168460178F0
:101730000904427812020A43807810431249884211
:10174000DED380214904081ADAE7000004200000F3
:1017500033FE00001800004824020020800800200A
:10176000CDCC8C3FFFFFFF000000C842E17A14AEF1
:1017700047E1F03F840800207B030000BA6B09F9C1
:10178000A0A71DC000E1F505010080007CB50C009C
:10179000002501000D3902290BD8060069463000EA
:1017A000FFF7F7FE6D1CFF2805D1E9B20229F5DD30
:1017B00076BDFF2076BD0100FCD169464A78120251
:1017C00089780A43228076BD70B50500503802281A
:1017D00007D9113805D0001F03D0083801D00938C7
:1017E00028D10E00A6213220FFF7BEFE2800502887
:1017F00003D0512801D052280AD131005020FFF7E0
:10180000B3FE31005120FFF7AFFE310052200BE054
:10181000652801D0762806D1310A6520FFF7A4FE9D
:10182000F1B2762000E03100FFF79EFE0021322069
:10183000FFF79AFE61BD31B501F062FE0400009D24
:101840000020C043854200D06D1C01F059FE001BF2
:10185000A842FAD331BD0268531C0360117070476F
:1018600010B5040001D1012010BD3D20205C0028EE
:1018700004D13C216054200001F0FCFE09E0006826
:101880000121C2680A43C26002681143016000205E
:10189000704702203D216054211D206800F0C8F9E6
:1018A00001203D216054002010BD10B5040001D17D
:1018B000012010BD3D20205C002804D13C21605453
:1018C000200001F0FBFEE4E710B504001DE038B590
:1018D000040058E00400080006D0042908D00829B4
:1018E0000AD00C290CD010E02068C26802230AE05C
:1018F0002068C268042306E02068C268082302E06A
:101900002068C26810231343C3600122206800F0DE
:10191000B7FA20680B49884208D00B49884205D0A5
:101920000A49884202D02E49884204D1416C802263
:1019300012020A434264016801220A430260002045
:1019400010BD0000002C0140004001400044014057
:101950000400080006D0042908D008290AD00C2960
:101960000CD010E02068C268234B0AE02068C268EF
:10197000224B06E02068C268214B02E02068C26862
:10198000204B1340C3600022206800F079FA2268DF
:1019900014481D49154B9A4208D0154B9A4205D060
:1019A000144B9A4202D00E4B9A4209D1136A0B4053
:1019B00006D1136A034003D1536C0B4D1D4055648F
:1019C0002268136A194006D1116A084003D11068D1
:1019D00001218843106001203D216054002032BD68
:1019E0000048014044040000FF7FFFFF002C01403D
:1019F0000040014000440140FFFDFFFFFFFBFFFFEF
:101A0000FFF7FFFFFFEFFFFF11110000F8B5040023
:101A10002068002502260169314015D0C168314097
:101A200012D00221C9430161012121778069800719
:101A300003D0200001F0BEFE05E0200001F0BBFE57
:101A4000200001F0B9FE257720680427016939409C
:101A500016D0C168394013D00421C94301612677EB
:101A60008069C0218900014003D0200001F0A2FE5E
:101A700005E0200001F09FFE200001F09DFE25778B
:101A8000206808260169314014D0C168314011D066
:101A90000821C94301612777C069800703D020006E
:101AA00001F088FE05E0200001F085FE200001F035
:101AB00083FE25772068102102690A4016D0C2688B
:101AC000114013D01021C94301612677C069C0219C
:101AD0008900014003D0200001F06CFE05E02000E9
:101AE00001F069FE200001F067FE257720680121E2
:101AF00002690A4008D0C268114005D00121C943DB
:101B00000161200001F059FE2068802102690A402D
:101B100008D0C268114005D08021C943016120006E
:101B200001F04CFE2068402102690A4008D0C268DA
:101B3000114005D04021C9430161200001F03FFE62
:101B40002068202102690A4008D0C268114005D0EF
:101B50002021C9430161200001F032FEF1BDF8B53A
:101B600004003C20205C012801D10220F2BD0120AC
:101B70003C23E05402203D23E0542C4F86020D000C
:101B8000002A06D0042A15D0082A25D00C2A34D0E1
:101B900044E0206800F085F82068816908220A4343
:101BA0008261206881690422914381612068816992
:101BB0002A690EE0206800F0AEF8206881690E43C3
:101BC0008661206881690F408761206881692A6980
:101BD00012020A43826121E0206800F0D0F82068F8
:101BE000C16908220A43C2612068C1690422914385
:101BF000C1612068C1692A690EE0206800F0F1F82F
:101C00002068C1690E43C6612068C1690F40C76181
:101C10002068C1692A6912020A43C26101203D217C
:101C2000605400203C216054F2BD0000FFFBFFFF28
:101C3000F0B50668804A814B814C824DA84201D0A4
:101C4000A04206D17027BE4337004E683E43A842EB
:101C50000BD0A04209D07C4CA04206D0984204D0C0
:101C6000904202D07A4CA04203D1784C3440CE68E6
:101C700026438024A6434C69344304608C68C462C4
:101C80000C688462A84206D0984204D0904202D0E8
:101C90006F4A904201D10969016301214161F0BDA0
:101CA0000000F8B5026A01239A430262036A42689F
:101CB00084697325AC430D68254300950224A34332
:101CC0008C681C435C4B5D4D5E4EB04206D0A84212
:101CD00004D0984202D05E4FB8420CD10827BC43D2
:101CE0002700CC683C430427BC43B04206D0A8423E
:101CF00004D0984202D0564B984205D1554B134020
:101D00004D691D438A692A434260009A826149688D
:101D100041630462F1BD70B5026A10239A43026206
:101D2000026A436884694C4D25400C6824022C43A8
:101D30002025AA438D682D011543424A904208D1BF
:101D4000802295432E00CA681501354340229543F1
:101D500008E03A4A904205D0374A904202D03C4AC5
:101D6000904206D13D4A1A404B698E691E43B3002A
:101D700013434360846149688163056270BD70B537
:101D8000026A374B13400362046A4268C5697323D1
:101D90009D430B682B43334D25408C6824022C4314
:101DA000284DA84207D1304D2540CC6826022E434D
:101DB0002E4C344008E0214DA84205D01E4DA842CB
:101DC00002D0234DA84206D1294D15404A698E699B
:101DD000164332012A434260C3614968C163046209
:101DE00070BD30B5026A234B13400362036A426838
:101DF000C469194D25400C6824022C431E4D1D401A
:101E00008B681B032B430F4DA84208D00B4DA842F3
:101E100005D0094DA84202D00D4DA84204D1174D5E
:101E200015404A6992012A434260C46149680164CD
:101E3000036230BD0000000000440140004001404A
:101E400000040040002C014000200040FFFCFFFF88
:101E500000480140FFFCFFFFFF8CFFFFFFF3FFFF87
:101E6000FFFEFFFFFFFDFFFFFFF7FFFFFFFBFFFF91
:101E7000FFCFFFFFFFEFFFFFFFDFFFFFFFBFFFFF12
:101E800010B5036A01248C40A3430362036A8A40AD
:101E90001A43026210BDFEE778B587B068461C2180
:101EA00001F090FC174C1848206000256560174E23
:101EB0003088401EE0602561A5606561A561200055
:101EC000FFF7F3FC002801D001F090FE60200090A5
:101ED000029504950395069505953088401E0C499A
:101EE000097848436421FFF7DDFA0190042269462E
:101EF0002000FFF734FE002801D001F077FE08B083
:101F000070BD0000D4070020004001405E010020A9
:101F10005C01002070B4103A03D378C9103A78C03D
:101F2000FBD2530701D318C918C001D508C908C08E
:101F3000D20704D30B880380891C801C002A01D59A
:101F40000B78037070BC70478B0701D18307E1D019
:101F5000124205D00B78491C0370401C521EF9D167
:101F60007047FEE710B5BB4C802221001431201DC4
:101F7000FFF732FA80222100A43120009430FFF7CD
:101F80002BFA10BD38B505000C0001225103B248F0
:101F900001F0EDFE3220FFF74EFC22002900AF4891
:101FA00001F02EFF31BD0000F8B586B0050000201D
:101FB000009001A8142101F005FC00BF55A7A84C12
:101FC000A8A60922AEA1280002F0C2F900280FD16C
:101FD0006A4631002800093002F0D0F90098012843
:101FE00004D0022802D00C21A8A08EE0A08043E0FB
:101FF000092200BFA9A1280002F0AAF900280CD1EB
:102000006A4631002800093002F0B8F900988021B2
:102010004902884227D260812EE00822AAA1280026
:1020200002F096F900280CD16A46310028000830E9
:1020300002F0A4F900980021C943884213D0A0649B
:102040001AE00922A3A1280002F082F9002817D182
:102050006A4631002800093002F090F9009880218A
:102060004902884202D31C218FA04EE020810098B3
:10207000FA21890048436064FEF796FE082143E098
:1020800079A7092296A1280002F062F9002806D15A
:10209000052100BF95A0FFF775FFA28828E009225F
:1020A00094A1280002F054F9002806D1052100BFB0
:1020B00093A0FFF767FF62891AE0082292A1280027
:1020C00002F046F9002806D1042100BF91A0FFF7D5
:1020D00059FFA26C0CE0092290A1280002F038F907
:1020E000002814D1052100BF8FA0FFF74BFF2289E4
:1020F000310001A802F056F901A802F073F981B28B
:1021000001A8FFF73FFF02213800FFF73BFF07B0B0
:10211000F0BD0000736574206F6B0D0A00000000B5
:1021200070B5524D4B4C201DFFF778F9642168546F
:10213000FDF7F4FF2168401A142858D36420285C66
:10214000002854D00021201DFFF789F97E2819D1DD
:102150006420285C0A2815DB08222900201DFFF7CF
:1021600061F9EE790B36F2B2083A29000831201DE8
:10217000FFF758F9A879000649D4F1B22800FEF714
:1021800065FE70BD64202A5C901F5E2829D229005C
:10219000201DFFF747F900206421695C6918491E7A
:1021A000087000BF62A1280002F024F9002814D1B1
:1021B0002F488021C90501604908016072B600F00E
:1021C0007EF900F08BF962B6BFF34F8F29482A4998
:1021D0000860BFF34F8F00BFFDE72800FFF7E4FE64
:1021E00070BD01222900201DFFF71CF970BDFDF70D
:1021F00095FF2168401AFA21C900884204D2201DA7
:10220000FFF70CF97F2802D3201DFFF707F970BDF7
:1022100010B500281BD000682021C2690A4002D0F6
:102220000268114002D1C169090710D5848CFDF7FD
:1022300075FFFA21C9004118814200D200200F4ADF
:102240001060E1B2101DFFF7D7F8012010BD00208B
:1022500010BD0000B00300200008004888020020E4
:1022600000000020256400000D0A0000A8060020E0
:10227000180400480400FA050CED00E0B00300204B
:10228000434D445F747970653D000000696E707560
:10229000742031206F72203200000000434D445FF3
:1022A000616464723D00000054686520696E707559
:1022B000742076616C756520697320746F6F206C73
:1022C0006172676500000000434D445F73736E3DAB
:1022D00000000000434D445F6D6F64653D000000E9
:1022E000434D445F747970653F0000005459504578
:1022F0003A000000434D445F616464723F00000097
:10230000414444523A000000434D445F73736E3FB2
:102310000000000053534E3A00000000434D445F5C
:102320006D6F64653F0000004D4F44453A0000006A
:102330007570646174650000F1B582B00F0014001F
:102340001D009148007E012801D10220FEBD01261A
:102350008D490E767E4800F0D3F8010029D102990C
:10236000012901D1012204E0022901D1022200E069
:1023700004223B0026002F00009315000024AC42ED
:1023800017DA30003900220102F03EF881B20098DD
:102390006200801800F0A9F86D4800F0B1F87B49A0
:1023A000096801229143794A1160010001D1641C3E
:1023B000E5E70021744A1176FEBDF8B50026F64324
:1023C000714C0027724D2868C00602D42868400767
:1023D00008D5A0680090A66000F0BCF8009802F054
:1023E00022F827702020296801405BD028602078DF
:1023F000002857D02078012819D16068401E6060FD
:10240000606800280DD0A06800F0CCF8A068290D05
:102410004018A060696802229143696000F024F9C5
:1024200040E0A6602770300000F0BCF83AE0207869
:10243000022807D16868042188436860002000F002
:10244000B1F82EE06068401E60606068002819D016
:10245000A068801CA060A2682000103003C8000C97
:102460000B041843090C2300103303C368680121CF
:10247000884368602000103003C881B2100000F06B
:1024800034F80FE02078032801D1A06806E0207816
:102490000428A06801D1801E00E0801F00F082F8AF
:1024A000A66027702078002808D168680721884333
:1024B000686068683749014069602776F1BD00208F
:1024C00035498022CB68134007D0344B0B60344B26
:1024D0000B60C9680A4000D0012070472B48016892
:1024E00080220A4302600020704710B50022264B6C
:1024F000DA61264A136801241C431460018010BD70
:1025000070B5050000F0FCFF0600214C2068C007F4
:102510000ED50020C0438542F8D0002D04D000F035
:10252000EFFF801B8542F1D2032070BD002070BDFB
:1025300020202168014000D020602068C00602D41D
:1025400020684007F2D500F005F8012070BD0000BA
:1025500050C3000030B500220B4810230C490C6812
:102560001C4004D0C26902241443C4611022042315
:102570000C681C4006D0C46901252543C5611000C4
:10258000042202430A6030BD580800201020024097
:102590000C200240FFEBFFFF0420024023016745AF
:1025A000AB89EFCD7047FEE7FEB50E000121012497
:1025B0002A4D2A7E012A01D10220FEBD00902976F3
:1025C000274F00980068012810D1264E3000FFF7F1
:1025D00097FF00282FD100F032F83000FFF790FF6E
:1025E0000400386804218843386024E01D48FFF760
:1025F00087FF00281FD101960020C043306000985B
:10260000466801E048023618009880688002009908
:102610004968401886420ED2300000F025F8114873
:10262000FFF76EFF040038680221884338602000FD
:10263000E8D001980660002028762000FEBD00202A
:102640000649C8610648016804220A43026001681D
:1026500040220A4302607047000000005808002032
:102660001020024050C300000021064AD1610649F3
:102670000A68022313430B60486008684022024343
:102680000A60704758080020102002407047FEE79B
:10269000F8B5040001D10120F2BD0025A5625C302F
:1026A0004078002804D15C216554200000F0B5FF7B
:1026B00020005C300223437021680A684026B24340
:1026C0000A60E1680091E026F600B14206D90021D7
:1026D000009AF0273F01BA4204D104E0D902009ADF
:1026E000B24200D0A5620122276B002F05D1009FC6
:1026F000B74201D9236300E022636368A6681E43E2
:102700002769374363693B43A66957023E401E432E
:10271000E3693343266A1E43A36A33432668336062
:10272000A3691B0C04263340666A1E43636B334364
:10273000E6681E433143236859602168CB69774CB2
:102740001C40CC61456042700020F2BDFEB5040023
:102750000F0015001E00002069460870200044305C
:10276000007E012801D10220FEBD0120210044315C
:10277000087600F0C5FE0221019121004431497E16
:10278000012901D00220BCE0002F00D0290000D197
:10279000B6E0032122004432517600212200443267
:1027A000D161A763A587E58721644422A152220055
:1027B0004432518022004432D16022004432916080
:1027C000A16880221202914205D121680A68802303
:1027D000DB0113430B60216840220B68134002D1D8
:1027E0000B681A430A6061680022D24302923500E6
:1027F000E268AC4B9A4228D3002902D0E18F01292C
:1028000006D139882268D160BF1CE18F491EE1875B
:102810003E00070005E03188C160B61CE08F401E15
:10282000E087E08F002851D020688168019A0A4033
:10283000F1D1002D07D002988542F2D000F060FE61
:10284000C01BA842EDD303205BE0974A6B465A8039
:10285000002902D0E18F01290BD12168E28F022AE1
:102860000AD33A88CA60BF1CE18F6A465288891829
:10287000E1873E0007000DE03A780A737F1CE18F84
:10288000491EF5E73188C160B61CE08F694649886A
:102890004018E087E08F002818D020688168019AEE
:1028A0000A4008D0E18F0229ECD231780173761CFE
:1028B000E08F401EEDE7002DC5D002988542E9D09B
:1028C00000F01EFEC01BA842E4D3BCE729003A007A
:1028D000200000F00CFB002803D020202100443110
:1028E000C861A068002806D101902068C1680191E4
:1028F00080680190019820004430C069002802D00F
:1029000001206946087020004430012141760021F1
:10291000017668460078FEBD00000000FFF7FFFF6B
:10292000FAB583B00400170000206946087004253A
:1029300060688221490088420ED1A06800280BD12E
:10294000200044304576049800903B00039A1146DD
:10295000200000F0B1F8A3E020004430007E012800
:1029600001D102209CE026004436012001903076FF
:1029700000F0C6FD717E012901D0022086E0039996
:10298000002900D0390000D17FE075760021F16187
:1029900003992164378077800021A163A187E187B3
:1029A000B160F16022683F49E3688B42536802D30B
:1029B0003E4D1D4001E0AD021D435560A2688023DD
:1029C0001B029A4204D122681368394D1D401560DC
:1029D0002268402315681D4002D115682B431360FF
:1029E000344A6B465A80E2688A42039E049D0290F4
:1029F00028D207E0007B3070761C788869464988C9
:102A000040187880270044377888002831D0206823
:102A10008168019A0A40EDD1002D09D00020C04301
:102A20008542EFD000F06CFD0299401AA842E9D32C
:102A300003202BE0C0683080B61C7888694649883E
:102A400040187880270044377888002811D0206803
:102A50008168019A0A40EDD1002DE9D00020C043E1
:102A60008542EFD000F04CFD0299401AA842E9D30C
:102A7000DEE72900029A200000F0FDF9002801D0CD
:102A80002020F861F869002802D001986946087092
:102A90002000443001994176002101766846007893
:102AA00005B0F0BD01070000FEFF0000FFEFFFFFD3
:102AB000FFBFFFFFFFFF0000FCB585B007000E0061
:102AC000140001200490002069460870380044304A
:102AD000007E012801D1022028E13D00443501207B
:102AE0000190287600F00CFD0290687E01280BD042
:102AF000796882225200914204D1B968002901D13B
:102B0000042801D0022007E1002E05D00394002CF8
:102B100002D06846008B010000D1FCE0697E0429E8
:102B200001D00521697600213A004432D161039930
:102B3000396439004431488044217852BE63F887B3
:102B4000B887002039004431886039004431C860BA
:102B50007749F868884204D2380044304088022817
:102B600004D338684268734B134004E03868426805
:102B700080235B011343436038684022036813409D
:102B800002D103681A4302607A680C98FB688B4292
:102B900046D3002A02D0F98F012906D131883A683C
:102BA000D160B61CF98F491EF987039C0C90049DD7
:102BB000F88F002805D1380044304088002800D123
:102BC00099E0002D0DD0F88F00280AD03868816870
:102BD000890706D53188C160B61CF88F401EF8877A
:102BE000002538004430418800290BD039688A68B4
:102BF000019B134006D0C9682180A41C4188491E4E
:102C00004180019D0C980021C9438842D0D000F03A
:102C100077FC0299401A0C998842C9D303207BE0C3
:102C2000002A02D0F98F012909D13968FA8F022AC6
:102C30000AD33288CA60B61CF98F891EF98734001E
:102C4000039D0C90049E3CE032780A73761CF98F49
:102C5000491EF3E721780173641CF88F401EF88742
:102C6000002638004430418800291ED039688A681F
:102C7000019B134019D04288022A0FD3C9682980CA
:102C8000AD1C4188891E4180408802280CD23868DA
:102C90004168802252010A43426005E0097B2970A5
:102CA0006D1C4188491E4180019E0C980021C9433A
:102CB000884206D000F024FC0299401A0C99884200
:102CC000ACD2F88F002804D1380044304088002866
:102CD00011D0002EC5D0F88F0028C2D03868816886
:102CE0008907BED5F98F0229B4D32188C160A41CFD
:102CF000F88F801EB3E70C99029A380000F0F7F8BD
:102D0000002803D0202039004431C8613800443005
:102D1000C069002802D00198694608703800443024
:102D200001994176002101766846007807B0F0BD30
:102D300001070000FFEFFFFFFEB51F00089B002406
:102D4000012506000091019208933068806800997F
:102D500001400098814201D1012000E0002001994A
:102D6000884234D00020C0438742EED0002F05D0E7
:102D700000F0C6FB0899401AB842E6D330684168B3
:102D8000E0229143416070688221490088420BD162
:102D9000B068E903884202D04909884204D130680A
:102DA00001684022914301606803B16A814208D101
:102DB00031680A68614B13400B6031680A68104340
:102DC000086030005C30457004700320FEBD0020B8
:102DD000FEBDF8B50F000699040015001E0006910F
:102DE000206881683940A94243D0C021C9008F4280
:102DF00006D1002D04D1007B694608706846007832
:102E00000020C0438642EBD0002E05D000F078FBB6
:102E10000699401AB042E3D320684168E02291430A
:102E2000416060688221490088420CD1A0688021FD
:102E30000902884202D04909884204D12068016809
:102E400040229143016080208001A16A814208D123
:102E500021680A68394B13400B6021680A681043E7
:102E6000086020005C3001214170002101700320C6
:102E7000F2BD0020F2BDFEB5040080273F0282268D
:102E800076006068B0420AD1A068B84202D07B09DF
:102E9000984204D1206803684025AB430360019247
:102EA0000291202501980090029B002280212000A1
:102EB000FFF742FF002813D16068B04215D1A06827
:102EC000B84202D0690188420FD101980090029B5C
:102ED0000022C021C9002000FFF77BFF002804D09A
:102EE000206E054325660320FEBD0020FEBDF8B51B
:102EF00004000F001600202500963B000022C02190
:102F00004901FFF766FF002812D100963B0000221E
:102F100080212000FFF710FF002809D100963B0018
:102F20000022C021C9002000FFF753FF002803D072
:102F3000206E054325660320F2BD0000FFDFFFFF82
:102F40009D2102000AD002D4491E9218FCD5C90561
:102F5000100A1206524100D3012A4841704700006E
:102F600030B405004D400122D20715404B1804181B
:102F7000240E2ED01B0E32D0FF2C34D0FF2B3AD093
:102F8000E4180002090210431143000A090A94469A
:102F9000C2B24A43000AC3B24B43000A4843110A73
:102FA0005B181A43D2B2190A091801D44918641ED1
:102FB000080A7F3C23DBFE2C08DAE40509061143EE
:102FC000634699416041284330BC7047FF20C005EB
:102FD000F9E728001B0EFF2BF6D1D043F4E72800B9
:102FE000FF2CF1D1F9E74002F7D1FF2B01D14902C3
:102FF000F3D1E005E7E7D8054902E4D0EDE7430265
:103000000020641CDFD15B129B1CDCD9D805DAE7F9
:1030100000180ED2010E7F390BD449421F3105D45E
:10302000C0010122D2071043C84070470020401E53
:10303000704700207047FEE70CB401221206031807
:10304000DA4207D84B18DA4204D802000A43921831
:1030500002D281420CBC7047FCD088420CBC704745
:1030600030B405004D400122D20715404B1804181A
:10307000240E28D01B0E2FD0FF2C34D0FF2B37D09E
:10308000E41A000209021043114343084808D10D15
:103090001B1A02D2641EDB181B18DB18834200D3F4
:1030A0001B1A4941F9D37F3426DDFE2C08DAE405EA
:1030B0004808C907194391416041284330BC704713
:1030C000FF20C005F9E728001B0E03D0FF2BF5D128
:1030D0004902F3D0D043F1E7FF2C01D14002F9D1EE
:1030E000FF20C005E9E74002F4D1FF2BF8D1F1E75A
:1030F00028004902E2D0EDE70B0200202442DCD197
:103100005B129B1CD9D9D805D7E7FEE7012212062E
:103110000118CA420AD28A420DD838221206090979
:103120008918C20FD20711434007704700D04908E1
:103130000909014301E0C10FC90700207047F0B53C
:103140000E005E400125ED072E40B446AE0ADF18A2
:103150004C18F44208D2F7420ED2640D01D07F0D14
:1031600012D100206146F0BD05D1F74201D87F0D94
:1031700005D10020C143F0BDFBD1640DF9D0002082
:10318000C143490549088FE0E419C902DB0229431C
:103190002B43DB0A460DC00231438E4630B487B262
:1031A00095B27D432E0CADB2140C7C43A419260CB1
:1031B000240425439CB27C43A419190C7943270CA1
:1031C000C919A4B20F043C43090C000C97B2474341
:1031D0002E0CBE193543ADB2170C4743360CBF1940
:1031E000A6B2BF193E043543240C3E0C36199FB2DB
:1031F0004743BF19BCB23E0C89191F0C47437F18C7
:103200003E043443390C704680B297B247432E0CCB
:10321000BE193543ADB2170C4743360CBF19A6B2E1
:10322000BF193E043543240C3E0C36199FB2474368
:10323000BF19BCB23E0C89191F0C47437F183E04CE
:103240003443390C77463F0C90B278432E0C8019EA
:103250000604ADB22E43050CA0B22D18120C7A4311
:103260005019020C80B2240CA4189AB27A43121995
:1032700014042043120C89181B0C7B43C91830BC62
:10328000EF0A394203D1B61940414941641E6F1219
:10329000BF0DE41B0BDBFF19BC4211DA240500272C
:1032A0004208AE417841614166463143F0BD641C3D
:1032B00005D1401C6141CF0201D34908F4E750E732
:1032C0005DE7F0B40125ED070F005F404FD48B425E
:1032D00000D1824205D98446100062468C4619000E
:1032E0006346DF184C18640D7F0D3AD0661C7605D6
:1032F00037D0E61B352E34DCDB022B43DB0A0C0D0A
:10330000C9022943C912202E0DDB1700203E06D02A
:103310001F00F741F3405F400026012A7741C018A3
:1033200071410DD217E01700F741F2405740F341C9
:103330005A40B340F3405A400026801859410AD3FE
:10334000A21C52050FD0C207012F7241170040087E
:10335000CB0718434908641C24054208AF4170415B
:103360006141F0BC7047641C21050020F9E76B4007
:1033700010E06B40ABE7F742F3D1E943F1E72442B9
:10338000EFD100200021ECE7F0B40125ED070F009C
:103390005F40EED40C00871A9C4105D2C01BA141AE
:1033A000D219634169406B40AE0ADF184C18F442F1
:1033B000E1D2640D7F0DE2D0E61B362ED1DCDB02BC
:1033C0002B43DB0AA4460C0DC9022943C90A012E6E
:1033D00028DC04D1D6075208DF073A435B08EF0A1E
:1033E00076429041994114D039423BD1B6194041BF
:1033F0004941761C394204D1761C001849413942B2
:10340000FAD0B9436746B74208D9A41B2405214323
:10341000A7E70042EAD13642E8D1A2E7E40AE10791
:1034200000209EE7202E0BDD203E1F00F340F741D9
:103430005F40012A002257417E42984191410BE0B2
:103440001700F741F2405740F3415A40B340F34070
:103450005A407E42904199410A0303D2641EB61934
:10346000404149410027641E24054208AE4178418D
:103470006141F0BC7047FEE7F4464A1805D200F0FF
:103480000FF801D580174008604700F009F80121C6
:10349000C907884200D90800404260474A1812D242
:1034A000400DC90208430121C9070843520D4021BC
:1034B0000901521A521C06D452421F3201D4D04084
:1034C0007047C017704700207047FEE70100422296
:1034D0001201D21E004207D002D4521E0018FCD5A1
:1034E000C10A400512058918704700000100EED599
:1034F0004042F446FFF7EBFF0122D2071143604739
:1035000001480068704700BF8808002080B501208E
:103510009F490A6802430A600A68104000900098B8
:10352000802040054A6802434A604968084000908C
:10353000009800220021032000F093FF032000F0F8
:1035400094FF01BDF8B586B006006846142100F06E
:1035500039F93068704988424DD18C48410D426834
:103560000A43426042681140059105998021C902D1
:1035700002680A43026002681140059105998021A2
:10358000890202680A4302600068014005910598BB
:103590001020009003240194002502956946902094
:1035A000C00500F025FB0220009001940295794FA0
:1035B0006946380000F01CFB012000900194029540
:1035C0006946380000F014FB734C74482060656055
:1035D000A5608020E0608030206180006061202054
:1035E000A061E561200000F063FF002801D000F039
:1035F000FDFAF463666207B0F0BD81B00068684907
:10360000884208D1402061490A6802430A6009687B
:1036100008400090009801B0704710B586B00400D3
:1036200001A8142100F0CEF820685E4988421FD11D
:103630005648810C42680A4342604268114000913A
:1036400000998021890202680A43026000680140F3
:1036500000910098E0200190022002900020039049
:1036600003210491059001A99020C00500F0C0FA43
:1036700006B010BD80B5006845494B4A904210D154
:1036800010204A6802434A60496808400090009848
:1036900000220021112000F0E4FE112000F0E5FEE0
:1036A00001BD424A904208D1802040020A6802438C
:1036B0000A60096808400090009801BD10B586B006
:1036C000040001A8142100F07DF8206837498842E1
:1036D00020D18020C0022D490A6802430A600A688E
:1036E000104000900098802040024A6802434A60DF
:1036F0004968084000900098802000020190022054
:1037000002900120039003210491059001A9214812
:1037100000F06EFA06B010BD0024014010B586B06E
:10372000040001A8142100F04DF8206820498842C7
:103730002AD116488021C90142680A434260426882
:103740001140009100998021890202680A430260B9
:103750000068014000910098C020C0000190022044
:10376000029000200390032004900120059001A9FD
:103770009020C00500F03CFA002200211B2000F040
:1037800070FE1B2000F071FE06B010BD1410024048
:1037900018100240000400481007002008000240F2
:1037A0000030024000300140001000400040014065
:1037B0000038014070477047704770477047704746
:1037C0007047FEE7002200BF094202D0491E425462
:1037D000FCD17047FEB500F02DFF00F00DF900F0B0
:1037E0003BF90127C8480168394301600068384047
:1037F0000090009800220021092000F032FE0920EC
:1038000000F033FE68460C21FFF7DCFF784E794D5F
:10381000B5620024F46234637463B7630420F06318
:1038200034647464B764F464FF20C2303065746536
:10383000B765F7653000283000F00CFF09200090D4
:10384000A80C01900004029069463000283001F075
:1038500072F868460C21FFF7B5FF7567B467F46727
:1038600080203450350084352F6004206860AC60BF
:10387000EC602F616C61FF20C230A861EC612F62A7
:103880006F623000743000F0E5FE082000904002C6
:1038900001900004029069463000743001F04BF84A
:1038A000C648E8638220400028646C64E020C000C1
:1038B000A8640220E8642F65000268653020A865CE
:1038C000EC652C666C660720A866EC662C673000F9
:1038D000C030FEF7DDFEBA4DBA482860E120400254
:1038E0006860AC60EC602C610C206861AC61EC61DC
:1038F0002C626C62280000F04DFAB3483060B4804E
:103900007461B4613762300001F03CF901F068F98C
:10391000AE4828672F206867AC67AD480090E8671D
:10392000D620400037183C60183834182000FDF7C6
:1039300097FFA848B8620420F862A7487863386304
:10394000EA204000301801F057F9FEF70BFB200089
:10395000FDF795FFFCF7AEFBFDF7D0FDFDF7F0FBA3
:103960000022802189019D4800F001FA5A22F820A6
:1039700040003118280000F06FFA3000283001F0C4
:103980006DF9FCF7CBFBB96B401A64280CD3FCF73C
:10399000C5FBB86301F0DDF901F040FAB08401F035
:1039A0000AFA01F03EFAF084FCF7B8FBF96B401A12
:1039B000642804D3FCF7B2FBF863FCF7CDFBFCF7FB
:1039C00015FDFCF787FCFCF7A9FB396C401A009940
:1039D000884204D9FCF7A2FB3864FCF753FEFEF7DB
:1039E0009FFBEA204000301801F02CF9C9E70000E5
:1039F000640100200024014070B594B008A8302173
:103A0000FFF7E0FE68461021FFF7DCFE04A8102156
:103A1000FFF7D8FE11200890012409940D9410207E
:103A20000E900226109600031190000112900025BE
:103A3000139508A801F004FA07200090019602955A
:103A400003950121684601F0D5FB0494069504A86E
:103A500001F0BCFC14B070BDF8B586B06846142106
:103A6000FFF7B0FE80210903274802680A4302607D
:103A700002681140059105998021C90302680A4333
:103A8000026002681140059105998021890202684F
:103A90000A43026002681140059105998021C9021C
:103AA00002680A430260006801400591059880247D
:103AB000A4014A4E01222100300000F058F90122F1
:103AC00011029020C00500F052F90022610844481C
:103AD00000F04DF901224349414800F048F90094B3
:103AE000012501950024029403946946300000F0FA
:103AF0007FF8022600960194029569469020C00541
:103B000000F076F8384801E014100240009001946B
:103B1000029569469020C00500F06AF808270097D2
:103B200001950295039469469020C00500F060F865
:103B3000002208219020C00500F019F9C0200001E2
:103B40000090019402966946254800F051F8E02063
:103B5000C00100900195029403946946204800F04A
:103B600047F82802009001950294032603966946BF
:103B70009020C00500F03CF8009701950294039650
:103B80006946174800F034F87020009001940294C0
:103B90006946134800F02CF88020009001940295AB
:103BA00069460F4800F024F8009501940295694693
:103BB0009020C00500F01CF807B0F0BD00300140B7
:103BC0008802002000380140003002400010004010
:103BD000E703000000300040350C000000080048FA
:103BE0000004004808600000049800007047FEE7E9
:103BF000FFB50A000023010031E0052403E05F4C1B
:103C0000A142FAD10324AC403443029804605C48DA
:103C10000568019EF44325405668F60302D52E0040
:103C2000019D35430560456825405668B60302D5B9
:103C30002E00019D35434560856825405668F60293
:103C400002D52E00019D35438560C5682C4055681E
:103C5000AD0202D52500019C2C43C4605B1C10689A
:103C60000400DC4000D181E0012401259D40039542
:103C70000540019501980028F0D098006D466870C5
:103C80005068022801D0122811D1D80880000D18E0
:103C9000286A6E4677781C263E400F27B740B84307
:103CA0001769BC4637006646BE4006432E620D6863
:103CB00058006E463070032037780326BE40F74325
:103CC00002973E462E40556805406F463F78BD40FE
:103CD00035430D605568012D05D0022D03D0112DFF
:103CE00001D0122D11D18E68029D3540D6686F46E5
:103CF0003F78BE402E438E604D68039EB5435668A4
:103D0000360926409E402E434E60CE68029D3540C7
:103D100096686F463F78BE402E43CE605568ED00F2
:103D20009CD5184D2D682543164E356035682540C5
:103D30000295029D144D9E08B600AD1902952E689D
:103D40006D466F780C253D400F27AF40BE4390274E
:103D5000FF05B94201D1002455E70C4FB942FBD011
:103D60000B4CA14200D04AE702244CE7FFBD002AD9
:103D700001D081617047816270470000000C0048EB
:103D800000040140181002400800014000040048EF
:103D90000008004838B5040014D02500683568785C
:103DA000002803D128702000FFF7B8FC2420687099
:103DB00020680168012291430160200000F016F99B
:103DC000012801D1012032BD606A002802D0200004
:103DD00000F098F920684168084A0A40426020686B
:103DE0008168082291438160FFE720680168012211
:103DF0000A430260200000F0EBF932BDFFF7FFFF3D
:103E000030B5030050335C7E202C23D100290BD029
:103E1000140009D0846880256D01AC4206D1046984
:103E2000002C03D1CC0701D5012030BD1C7E012C14
:103E300010D001241C76C1641A805A800021D961F7
:103E400021225A7619760068016880220A430260AE
:103E5000002030BD022030BD70B5030058339C7C7B
:103E6000202C37D100290BD0140009D0856880267A
:103E70007601B54206D10469002C03D1CC0701D5E7
:103E8000012070BD1C7C012C24D001241C744165D0
:103E90001A805A80FF21B54204D10269002A07D155
:103EA0000D4905E0002D04D10269002A00D07F21D0
:103EB00099800021596122229A74197401688A68D4
:103EC00014438C6000680168902252000A4302602B
:103ED000002070BD022070BDFF01000070B504001D
:103EE0002368D869196805072D0F07D1820605D503
:103EF0008A0603D5200000F0EEF970BD9A68002D07
:103F000063D001252A4203D1902676000E405CD072
:103F1000C60705D5CE0503D51D62E36E1D43E566D4
:103F200004230225860706D5D60704D52668356200
:103F3000E66E1E43E666460706D5D60704D5266814
:103F40003362E36E1D43E5660825030708D58B063B
:103F500001D4D20704D522681562E26E2A43E266D4
:103F6000E26E002A40D0800604D5880602D52000E3
:103F700000F0B1F94026E06E054003D1206880686A
:103F800030401CD0200000F02CF9206881680E40E1
:103F900011D08168402291438160606E00280AD070
:103FA00057494163606E00F0AFFA00281CD0606E84
:103FB000416B884770BD200001F086FA70BD20007B
:103FC00001F082FA0020E06670BD020605D50A06FF
:103FD00003D5200000F03EF970BD400604D5480628
:103FE00002D5200000F06AF970BD0000F8B50400A9
:103FF00010220020002526683168814F0F40A168FB
:10400000394327690F4361693943E7690F433760D3
:1040100077687C493940E7680F437760B7687A4929
:104020003940A7690F43216A3943B16077498E420D
:104030000FD1774909688907890F0DD0022906D069
:1040400003D3032909D1022207E0042205E0082254
:1040500003E070498E4200D1002280231B02E769F1
:104060009F4225D1002A06D0022A07D0042A09D06F
:10407000082A0DD013E001F075F905E061684808E1
:10408000654A08E001F04EF9616840004A0802E024
:10409000616848085A008018FDF704FA00E001251D
:1040A0005E4901400004400C4007400F084318E0FF
:1040B000002A06D0022A07D0042A0AD0082A13D0E0
:1040C0001AE001F04FF906E061684808544A801888
:1040D0000DE001F027F961684A088018FDF7E2F960
:1040E00080B22168C86008E061684808C018FDF720
:1040F000D9F980B2F06000E001252800F2BD00008F
:10410000414200082421415CC90706D501684A687C
:10411000444B1340826A1A434A602421415C890758
:1041200006D501684A68404B1340C26A1A434A6088
:104130002421415C490706D501684A683B4B13407E
:10414000026B1A434A602421415C090706D50168C5
:104150004A68374B1340426B1A434A602421415C42
:10416000C90606D501688A68324B1340826B1A4330
:104170008A602421415C890606D501688A68134B50
:104180001340C26B1A438A602421415C490611D551
:1041900001684A68284B1340026C1A434A60026C5B
:1041A00080235B039A4205D14A68244B1340426C3A
:1041B0001A434A602421415C090606D501684A6811
:1041C000614B1340806C184348607047FFDFFFFF6E
:1041D000683000214160202242708270017000200E
:1041E000704701680A68594B13400B6001688A6880
:1041F00001239A438A6020216A228154704700007B
:10420000F369FFFFFFCFFFFFFFF4FFFF003801401E
:1042100030100240004400400024F400F0FF000091
:1042200000127A00FFFFFDFFFFFFFEFFFFFFFBFF15
:10423000FF7FFFFFFFEFFFFFFFFFEFFFFFFF9FFF8E
:1042400080B5406A0100523100220A810A8001F0E3
:104250003BF901BD01005231CA7D212A2CD15222E5
:10426000825A002A0AD101680A6880239A430A60A8
:104270000068016840220A4302601BE082688023D4
:104280005B019A420CD10269002A09D1C26C1288E2
:10429000D205D20D03681A85C26C921CC26405E077
:1042A000C26C531CC364127803681A855222805A68
:1042B000401E0880002070470220704780B50168CA
:1042C0000A6840239A430A6020216922815401F040
:1042D000FDF8002002BD38B501005A314A88036854
:1042E0000C7C222C2AD19B8C846880256D01AC42E9
:1042F00009D10469002C06D11A40436D1A80426D21
:10430000921C426504E0446D651C45651A402270AC
:104310005A22825A521E0A8012040DD10268136872
:104320000A4C1C401460026893680124A343936004
:1043300020220A7401F0E4F8002032BD98690821B7
:1043400001439961022032BDFFFFF7FFDFFEFFFF4F
:1043500010B404E0002C0ED0401C491C521E002A50
:1043600009D00B7804789C42F4D002D20020C043DC
:1043700002E0012000E0002010BC70470DB4C0B581
:104380000A0004A801900020009001AB03A9044892
:1043900078440C3001F0D8F8029906B0084700BF05
:1043A0003BD1FFFF0CB418B583B004000A0006A887
:1043B000029001940020009002AB01A908487844C3
:1043C0001E3002F04DF80021019A1170002801D42E
:1043D0000198001B04B0019910BC03B0084700BF4E
:1043E00077D4FFFF431C0178401C0942FBD1C01A5F
:1043F0007047FEE702780B78002A03D0401C491C66
:104400009A42F7D0D01A7047D2B2203A03D30800AC
:10441000D040002170472032D141D04048409140E7
:10442000D14048407047704710B5C2001823134070
:10443000FF249C40E2438907090E9940030007D5F9
:10444000174B0007000F083880088000181803E099
:1044500014489B089B00C01803681A401143016070
:1044600010BD80B5FFF7E0FF01BD0121C006C00E01
:1044700081400D480160704710B5401E80214904FD
:10448000884201D3012010BD084C60600321002048
:10449000C043FFF7C9FF0020A0600721216010BDC5
:1044A0001CED00E000E400E000E100E010E000E0CE
:1044B00010B5040001D1012010BD0220212160545B
:1044C000206801680F4A0A4061681143A2680A43E4
:1044D000E168114322690A4361691143A2690A43F1
:1044E000E16911430160200000F092F80020A06211
:1044F000E06220636063A06301212122A154202196
:10450000605410BD0FC0FFFF70B5002200240121D0
:104510002123C35C022B03D004228263012415E013
:1045200003681D680E26B5431D6003681D688D4332
:104530001D60036C01259D40C36B5D602123C15448
:1045400020214254416B002900D08847200070BDD3
:10455000FEB5C16B0968019101680A6800922022CA
:104560000423019C056C0426AE40264011D0009C1B
:104570001C400ED00C68224002D10A689A430A609F
:10458000016C8B40C16B4B60C16A00293FD08847EA
:10459000F7BD012302240025019EB446066C0227C4
:1045A000B7406646374016D0009E264013D00E68AE
:1045B000324005D10A680A26B2430A6021214354D9
:1045C000016C8C40C16B4C6020214554816A0029EC
:1045D0001DD08847F7BD08226446066C0827B740FF
:1045E000274014D0009C224011D00A680E24A24318
:1045F0000A60016C01228A40C16B4A6083632121F9
:10460000435420214554016B002900D08847F7BD51
:1046100010B504002068054940181421FCF742FF3A
:10462000800020640248E06310BD0000F8FFFDBF79
:104630000000024080B50648016810220A4302606B
:10464000002002F006FFFEF761FF002002BD00001F
:1046500000200240F8B504000025002C01D1012003
:10466000F2BD260040367068002804D1B06030707A
:104670002000FEF767FF10217068084003D1226810
:1046800004209368034000D092E077686E4B3B4073
:1046900002271F43776093689B079B0F012B05D16F
:1046A0001368DB070FD4D3681B040CD4D368182716
:1046B000BB43A7681F43D760226813699B009B0810
:1046C00067681F4317612268D368924F1F40D76005
:1046D000626B012A01D0830200E000232269022AD2
:1046E00001D1009000E00095226AA0698003E7698B
:1046F000FF030743500338430343E0681843009B1C
:104700000343206B40001843636A012B0DD1002A3C
:1047100003D102000803104307E07268202313430B
:104720007360B26801231343B360A26AFF23C233EC
:104730009A4203D00300E06A104318432268D3680A
:104740000343D360A26B0B069A420DD0012A0BD013
:10475000022A09D0032A07D0042A05D0052A03D04B
:10476000062A01D0072A0CD1226853690727BB43C8
:104770005361226853693827E75D7F077F0F1F4326
:1047800057610222D24301232468E468624F274024
:10479000874205D1B56070680240134373600BE037
:1047A0007068024011437160B0681843B06002E065
:1047B00070680143716001252800F2BDF8B504005E
:1047C0000025002004262168896831401BD1402142
:1047D000615C012917D02700403701213970E16958
:1047E000012904D0200000F029F901000CD17968DA
:1047F0004D4A0A40B10111437960BD603D701C21F2
:10480000226811608AE00220F2BD70B504004020E9
:10481000205C012801D1022070BD25004035012611
:104820002E70200000F07BF9010009D1200000F07B
:1048300045F9010004D16968034A0A4016436E60D5
:104840000021297070BD0000FFFEFFFFF3B583B0AB
:1048500004464034202700250126406908280BD053
:1048600003980068C068304005D0606807436760FF
:10487000257001202EE00C200090FEF741FE0499E7
:1048800004910190039801680868009A024023D1BE
:1048900004980021C9438842F4D0002806D0FEF7CE
:1048A0002FFE0199401A04998142EBD260680421DD
:1048B00001436160257003200CE061680F4367606D
:1048C000A1680E43A6608169002902D10C2100680D
:1048D0000160002005B0F0BD0398626873021343C5
:1048E0006360CA68C0231B011340ECD1026A002A2E
:1048F000E9D10A681207E6D58A685207DDD44A680A
:104900000C239A434A606168084A0A40164366606D
:10491000D9E700001902FEFFE7FF3F8321688A689C
:1049200016438E60F2BD0000FEF1FFFFFFFEFFFFA9
:104930000068006C7047FCB5040000250026009557
:104940004020205C012801D10220F6BD0120402337
:10495000E054226893685B0761D40091096888403D
:104960000190544800994968534B9942916A019BC0
:1049700046D00B439362A16B8022520591421FD017
:1049800001291DD002291BD0032919D0042917D0D1
:10499000052915D0062913D0072911D0226807212F
:1049A000009B9B6857690F40BB4209D053698B43FA
:1049B000536122685369009FBF68394019435161B0
:1049C00000990968102918D0112931D18021C90313
:1049D00002681143016000980068102828D16448DB
:1049E00000686449FCF75EFD0A2148430090009886
:1049F00000281DD00098401EF8E780210904E7E751
:104A00009943916200990968102906D011290FD1A4
:104A100059490268114001600AE05849F9E721004C
:104A20004031496820220A43210040314A60012672
:104A3000402025543000F6BD406C7047F8B50500A5
:104A4000002000902868012481688907890F0129C6
:104A500005D1016821402AD1C168090427D4102753
:104A60008168474A0A401AD18168214381604048E1
:104A700000684049FCF716FD01E00098401E0090D8
:104A800000980028F9D1FEF73BFD06002868006871
:104A900020400CD1FEF734FD801B0328F6D3686C50
:104AA00007436F64A86C0443AC640120F2BD00208E
:104AB000F2BD00000827014001100000F8B5060013
:104AC0003068032182680A40012A26D10124026845
:104AD000224002D1C26812041FD510258268052326
:104AE0001340012B11D18268022313438360306885
:104AF0000160FEF705FD07003068806820400CD09B
:104B0000FEF7FEFCC01B0328F6D3706C05437564EA
:104B1000B06C0443B4640120F2BD0020F2BDF8B5CE
:104B2000050028680427816839401ED01024816858
:104B3000394005D08168890702D4816821438160AA
:104B4000FEF7DEFC06002868806838400DD0FEF7CE
:104B5000D7FC801B0228F6D9686C04436C64A86CEF
:104B600001210143A9640120F2BD0020F2BD000033
:104B7000C400002040420F00FFFFBFFFFFFF7FFF88
:104B80001700008010B504000DD0607F002803D10D
:104B900020772000FEF731FD02206077200002F030
:104BA0006AFC002801D0012010BD6079002802D1E4
:104BB0000020C04300E02069216808612068816806
:104BC0006022914362690A43826020688168802282
:104BD0009143A2690A43826001206077002010BDE2
:104BE00010B5034C211D034802F065FC207010BD78
:104BF00078080020C800002038B5050001D1012048
:104C000032BD28681249016012490160696841603B
:104C1000A9688160FEF774FC04002868C168002957
:104C20000AD0FEF76DFC001B2828F6D3032032BD06
:104C300009490160002032BDE96802698A42F7D063
:104C40000161F7E704490068016000207047000037
:104C5000CCCC000055550000AAAA0000FEB5060005
:104C6000002469460C704020305C012801D10220EC
:104C7000FEBD0125402175543068032182680A4039
:104C8000012A10D102682A4002D1C26812040AD552
:104C90003000403040682021014330004030416006
:104CA0006846057037E03200403257681C4B3B4085
:104CB00002271F435760C26811400191C168032257
:104CC0009143C16030688168802212060A43826085
:104CD000FEF716FC070030688168002910D5FEF742
:104CE0000FFCC01B0328F6D30096304640304168C5
:104CF0000222914310220A43426004700120FEBD4B
:104D0000C168019A0A43C260300040304168022203
:104D100091430D4345604020345468460078FEBD01
:104D2000FFFEFFFF10B5434C01E010B5424C0022DE
:104D3000228021881306DB0DC35AC9182180521C1A
:104D4000D3B20A2BF5DB88B20A21FCF797FB20804F
:104D500010BD7FB568460C21FEF734FD0820009099
:104D600040020190000402900025344805602F4C59
:104D700069462000FFF7DFFD0420216808602A4E05
:104D80002000FFF71BFD0A212000FFF75FFD200038
:104D9000FFF752FE800504D52000FFF7C9FD69002A
:104DA00070526D1C162DEBDB2000FFF72EFD30003E
:104DB000FFF7B8FF7FBD7FB568460C21FEF702FD07
:104DC00009200090802040010190000402900025FD
:104DD0001A480560154C69462000FFF7ACFD042019
:104DE00021680860124E2000FFF7E8FC0A2120002D
:104DF000FFF72CFD2000FFF71FFE800504D52000E3
:104E0000FFF796FD690070526D1C162DEBDB20003C
:104E1000FFF7FBFC3000FFF788FF7FBD05480088E7
:104E20007047054800887047540700208C01002017
:104E3000940700200E07002090080020282401403D
:104E4000F1B582B0B14C0078C00700D4FEE08025F7
:104E5000AD0260680C210140042907D060680C2174
:104E6000014008290BD16068C00308D520680540BF
:104E700038D002984068002826D10120FEBD029853
:104E80004168012902D1206869080BE0A048A14AC5
:104E900000290AD0052908D1206869000143216052
:104EA0002068D1430143216005E021680A40226067
:104EB0002168084020600298406800280DD0FEF765
:104EC0001FFB06002068284000D0BFE0FEF718FB5B
:104ED000801B6528F6D30320FEBDFEF711FB0600FC
:104EE0002068284000D1B1E0FEF70AFB801B65284E
:104EF000F6D3F0E7FEF704FB801B022800D8D6E0CB
:104F0000E9E70298C068002820680FD0012101431A
:104F10002160FEF7F5FA06002068800700D5AEE0B4
:104F2000FEF7EEFA801B0228F6D9D4E70121884368
:104F30002060FEF7E5FA06002068800700D4A6E0AE
:104F4000FEF7DEFA801B0228F6D9C4E70121884368
:104F50006062FEF7D5FA0600606A800700D4AAE016
:104F6000FEF7CEFA801B0228F6D9B4E70420C0432E
:104F70000122D24300290AD0052908D1206A042140
:104F800001432162206A01210143216205E0216A77
:104F90000A402262216A08402062954F0298806888
:104FA00000280CD0FEF7ACFA0600206A800700D576
:104FB000B9E0FEF7A5FA801BB842F6D38BE7FEF7FF
:104FC0009FFA0600206A800700D4ACE0FEF798FA4A
:104FD000801BB842F6D37EE7FEF792FA801B0228C8
:104FE00000D8BDE077E7FEF78BFA801B022800D8D7
:104FF000D6E070E70421C9438842606B03D10421E5
:1050000088436063B0E0042101436163606B012168
:1050100088436063FEF774FA0600606B800700D473
:10502000A9E0FEF76DFA801B0228F6D953E701408C
:105030002160FEF765FA06002068800100D4D4E004
:10504000FEF75EFA801B0228F6D944E70C25029889
:10505000007880071BD56068284008D06068284029
:10506000082800D04DE76068C00300D549E72068F4
:10507000800704D50298C068012800D0FDE62068AA
:10508000F821884302990969C90001432160029807
:10509000007800070FD50298C0690028606A00D127
:1050A00054E7012101436162FEF72AFA0600606AB3
:1050B000800700D41EE70298007840073AD5002008
:1050C000009080204005E169014008D1E169014379
:1050D000E161E1690840009000980120009090484B
:1050E0000068C00518D48E480068A10D01438C48A3
:1050F0000160FEF705FA060089480068C0050BD478
:10510000FEF7FEF9801B6528F6D3E4E600100240A6
:10511000FFFFFBFFFFFFFEFF02988168012900D01F
:1051200024E7206A30E70098002803D0E06992491C
:105130000140E16102980078C0061CD502984069E0
:10514000F827FF43012800D054E7606B0421014396
:105150006163606B012101436163FEF7D1F90600D1
:10516000606B800700D437E7606B07400298806966
:10517000C000384360630298006A002835D0616837
:105180000D40082D00D178E67C490228206800D027
:105190004DE701402160FEF7B3F906008025AD041C
:1051A0002068284000D01EE7E06A0F21884302995A
:1051B000C96A0143E1626068714901400298806AEE
:1051C00008430299496A0143616020686908014304
:1051D0002160FEF795F906002068284005D1FEF70A
:1051E0008FF9801B0228F7D975E60020FEBD00006C
:1051F00089130000F3B581B00127FF430124614901
:1052000009682140029A91420AD25E490A683A40EE
:10521000029B13430B6009682140029A914272D1AC
:105220000090594D022000990968014006D0696834
:10523000F0229143009A92680A436A6000990968D3
:10524000214050D000994968012902D12868800383
:1052500003E0022903D12868800103D453E02A68BF
:10526000104050D068680322904301436960FEF704
:1052700047F906000098406801280CD168680C21A5
:10528000014004292FD0FEF73BF9801B3F4988429B
:10529000F4D30320FEBD022837D168680C210140F9
:1052A000082920D0FEF72CF9801B38498842F4D316
:1052B000EFE700980078400706D568683449014058
:1052C0000098C0680843686000F02CF831496A68AB
:1052D0001206120F895CC8402F490860002002F0B6
:1052E000B8F80020FEBD274802990268224091428A
:1052F000DFD201680F400299394301600068044021
:1053000002988442D5D00120FEBD68680C2101407E
:10531000E9D0FEF7F5F8801B1C498842F5D3B8E7C1
:10532000007000401D4B19681D480C220A40082AD5
:1053300000D0704730B50F221CA48D0C1540645D61
:105340009B6AC90307D500BF1CA11A40895CFCF702
:10535000A9F8604330BD20001249484330BD0E48D3
:10536000006870470C4800680F490C4A12685205E3
:10537000520F895CC8407047FFFFFFEFFFFFFFFE41
:10538000FFFFC2FF0020024000100240891300000E
:10539000FFF8FFFFD0860008C40000200410024080
:1053A00000127A0000093D007C8900080203040510
:1053B000060708090A0B0C0D0E0F1010010203045A
:1053C00005060708090A0B0C0D0E0F10F8B50700AB
:1053D000374C3868C00357D5002000908020400526
:1053E0002168014008D121680143216021680840FB
:1053F00000900098012000902E4E3068C00517D410
:105400003068A10D01433160FEF77AF8050030687D
:10541000C0050DD4FEF774F8401B6528F7D30320B0
:10542000F2BDFEF76DF8401B234988421DD3F6E715
:10543000C020800061680140204A1600002917D072
:105440007A681040814213D06068304061688022E1
:1054500052020A4362606168194A0A4062606060F1
:10546000C00705D5FEF74CF8050060688007D8D561
:10547000606806407868304360600098002803D078
:1054800020681049014021603878C00705D560695F
:1054900003218843B968014361613878800605D5E6
:1054A000606910218843F968014361610020F2BD01
:1054B0001C1002400070004089130000FFFCFFFF39
:1054C000FFFFFEFFFFFFFFEF7047FEE780B5002202
:1054D000802189010848FEF74AFC06480188428875
:1054E0008A4204D1002101800122044B1A704180BC
:1054F00001BD0000D40400200008004892080020EC
:105500007047FEE780B5030008000269521E026181
:10551000C168491C002AC16004D40122002100682E
:10552000984702BD0020C04302BD10B5030008002B
:105530001100C268521E0024E443A142C26002D09E
:1055400000220068984710BDF0B58DB004000D0032
:105550000027FF437DA003C801AE03C60495186869
:105560000590129804A9C87700200790069203942A
:1055700009E0002F00D50027A07F002800D07F1C65
:105580000698401C06900020009001AB0022D243F8
:105590000699684602F013F80C90002806DC06987D
:1055A0000078401E8041C043C00F0C90009802F06C
:1055B00019F802F033F8002828D0039C0798401C03
:1055C0000790012200210498A047050002F026F868
:1055D0000028F3D103942900079B5B1E0022D243CD
:1055E000914200D1A8E0079300220498039B9847BA
:1055F00006980C99401806900099252925D1017824
:105600002A2928D1411C0691007825E000982528F8
:105610000C9D00D16D1E069C039E00E0641C6D1E57
:1056200000D58EE00798401C0790012200210498C5
:10563000B04721788842F1D0020004A93000FFF77A
:1056400074FF0020B84275DA73E0009800289AD100
:10565000B8426FDA6DE0002004AC2077002009909A
:105660000BE00999384A914205DA8A00511849003D
:10567000081830380990681C0690069D28780100AB
:1056800030390A29EDD30020C0430A90297800BFA1
:1056900030A001F0CDFF002802D0681C06902878C9
:1056A0006077607F682805D10698017868290BD15A
:1056B000622106E06C2807D1069801786C2903D195
:1056C00071216177401C06900698017823A001F0B3
:1056D000AFFF002819D1039D0798401C07900122B5
:1056E00000210498A847060001F098FF0028F3D194
:1056F000039531000798401E0022D2439142079043
:1057000003D000220498039B984704A9039800F053
:1057100029F8002800DD2CE71299002906D0222163
:10572000C943884202D10020C04303E0002F00D5C6
:10573000070038000DB0F0BD38000793FAD510000F
:10574000F8E7039654E70000CBCCCC0C0000000037
:1057500000000000686A6C747A4C000063436E5B62
:1057600000000000F8B505000C000027A777A0682E
:10577000007825386ED01C3825D0001F022822D989
:105780000E3863D0401F1AD0C01E79D0801F1AD0A7
:10579000801E12D0401E12D0401E022813D9001FB6
:1057A0000DD0401F13D0401E012808D9001F4FD034
:1057B000801E04D0C01E02D068E0002262E02800F3
:1057C00000F026FAF2BD280000F05EFBF2BD207F5B
:1057D000002849D1607F622808D068281BD06A2839
:1057E0000ED06C2821D071280AD01EE0616861605B
:1057F0000868091D616000281ED0E168017033E06F
:10580000606860600268001D6060002A14D0E06873
:10581000C11703C228E0616861600868091D616002
:10582000002809D0E16801801EE0616861600868B5
:10583000091D6160002806D10024E44314A001F092
:1058400001FF201AF2BDE16801600DE06C20607775
:10585000012217E0E068401CE0600122002120687E
:10586000A8470600252E01D10120F2BD32002100FB
:105870002800FFF75AFE0020C043864207D005E00B
:105880000022D243280000F031F8F2BD0020F2BD22
:105890007363616E665F733A2062616420256E20D7
:1058A000617267756D656E7400000000C9B206E034
:1058B000994202DB83788B4214DAC01CD21E032A81
:1058C00008D343782D2B0378F2D08B420AD0401CAA
:1058D000521EF4E7002A07D003788B4202D0401C06
:1058E000521EF7E70120704700207047F0B58DB0D9
:1058F00007000E0000240594707F6C2802D101205F
:10590000069000E0069402922C487844AE3003C81A
:1059100009AA03C20298002826D5B068401CB060CE
:1059200001785E2904D1411CB1600078089000E044
:105930000894B56828785D2801D1681C00E028002B
:105940005D2101F075FE002800D135E1411B049175
:10595000B0600498032807DB821E2D21681C01F02B
:1059600095FE002800D001247069002805DC02980B
:10597000002801D09D4800E001203061307F0028E0
:1059800020D1069800287068706001680AD0001D58
:1059900070600091002915D10024E4430848784440
:1059A0001E3022E0001D7060019100290AD1002400
:1059B000E443034878440830283016E0C82F00003C
:1059C000D02D0000307F002818D1F07F002815D09E
:1059D000716871600868091D71608021090688423C
:1059E00007D30024E44300BF81A001F02BFE201A5E
:1059F000EEE0B169884200D90800B06103970C94C9
:105A00000B95059D002709E0019804700198401C42
:105A10000190B177B069401EB06102253069401E27
:105A20003061F168491C002800D5D3E0F160012203
:105A300000213068039B984704000020C043844243
:105A40001BD1039837002E00069D22003900FFF776
:105A50006CFD0298002803D0F0B2022800D1A5E026
:105A6000F0B2022800D1B2E00020C043F10700D517
:105A7000AEE0844200D09FE0AAE00298002803DD57
:105A8000200001F0CBFD12E024D50C9800280898E6
:105A900010D10028049A06D121000B9801F0F6FDE0
:105AA0000028CED016E021000B9801F0EFFD002871
:105AB000C7D10FE00028049A06D121000B98FFF708
:105AC000F5FE002806D1BCE721000B98FFF7EEFE9B
:105AD0000028B6D1069800280BD1307F00289CD131
