:020000040800F2
:10000000F89A00205D020008D9450008A13B0008CD
:10001000D74500082114000885580008000000009A
:100020000000000000000000000000009D0100082A
:100030008D16000800000000F9010008E5520008D4
:1000400077020008770200087702000877020008AC
:10005000770200087702000877020008770200089C
:10006000770200087702000877020008770200088C
:10007000770200087702000877020008770200087C
:100080007702000877020008C90F0008770200080D
:10009000770200087702000877020008770200085C
:1000A00077020008CD5300087702000877020008A5
:1000B000770200087702000877020008770200083C
:1000C000770200087702000877020008770200082C
:1000D00077020008795800087702000877020008C4
:1000E000770200087702000877020008770200080C
:1000F00077020008770200087702000877020008FC
:1001000077020008770200087702000877020008EB
:10011000A15400087702000877020008770200085F
:10012000D115000877020008DD15000877020008E5
:1001300077020008770200087702000877020008BB
:1001400077020008770200087702000877020008AB
:10015000770200087702000877020008770200089B
:10016000770200087702000877020008770200088B
:1001700077020008770200087702000800000000FC
:100180007702000877020008DFF80CD000F078FC56
:10019000004800476B6D0008F89A00202C4B196846
:1001A0000868B0E8F04F80F30988BFF36F8F4FF015
:1001B000000080F3118870470000000008480068C4
:1001C000006880F308884FF0000080F3148862B65E
:1001D00061B6BFF34F8FBFF36F8F00DF00BF00BF6B
:1001E00008ED00E0DFF80C00016841F470010160E7
:1001F000704700BF88ED00E0EFF30980BFF36F8F19
:10020000134B1A681EF0100F08BF20ED108A20E96A
:10021000F04F106009B44FF0500080F31188BFF325
:100220004F8FBFF36F8F07F0EDFE4FF0000080F3AC
:10023000118809BC19680868B0E8F04F1EF0100F6B
:1002400008BFB0EC108A80F30988BFF36F8F704746
:10025000C8030020EFF30580704700000648804780
:1002600006480047FEE7FEE7FEE7FEE7FEE7FEE79B
:10027000FEE7FEE7FEE7FEE7B1530008890100084C
:100280002DE9F05F0546002092469B4688460646CB
:10029000814640241BE0284641464746224600F05E
:1002A000E4F953465A46C01A914110D311461846F4
:1002B000224600F0CBF92D1A67EB01084F46224683
:1002C0000120002100F0C2F917EB00094E41201E69
:1002D000A4F10104DFDC484631462A464346BDE826
:1002E000F09F00000649074A0868504343F239026C
:1002F00010440860400870470149086070470000DA
:10030000400400206D4EC64140EA01039B0703D024
:1003100009E008C9121F08C0042AFAD203E011F844
:10032000013B00F8013B521EF9D27047D2B201E006
:1003300000F8012B491EFBD270470022F6E710B5EA
:1003400013460A4604461946FFF7F0FF204610BD43
:1003500030B505462A460B4612F8010B13F8014B3F
:1003600008B1A042F8D01CB1002802D06D1CF1E702
:10037000284630BD421C10F8011B0029FBD1801A11
:10038000704710B5044600E0401C0378002BFBD1F9
:1003900000E0401C521E04D311F8013B0370002BF7
:1003A000F7D100210170204610BD034611F8012B42
:1003B00000F8012B002AF9D1184670470FB400B598
:1003C0008DB010A909900B9000914FF0FF300A906A
:1003D00000200C9005480690054807906A4609A839
:1003E0000F9900F067F90DB05DF814FBD106000815
:1003F000EF0600082DE9FF5F1D464FF0FF3BD5E9F2
:10040000014691465F464FF00008A9697F1C01989C
:100410008847296A824688470028F6D1BAF1FF3F0B
:100420000CD024F4C064002E19DD600614D5BAF196
:100430002B0F09D0BAF12D0F0ED103E0584604B0AE
:10044000BDE8F09F44F48064A9697F1C0198884747
:10045000761E8246002E02DDBAF1300F03D0B9F1CC
:10046000000F26D032E0A969761E44F400747F1C88
:10047000019888478246002E05DDBAF1780F06D034
:10048000BAF1580F03D0B9F1000F10D01EE0B9F146
:10049000000F02D0B9F1100F18D1A969761E24F40B
:1004A00000747F1C019888478246102002E00820D3
:1004B00000E00A20814609E008FB0908A969761EC8
:1004C00044F400747F1C019888478246002E05DDA5
:1004D0004946504600F0D9F80028EDDAE96901985C
:1004E0008847A00502D46FF00100A8E7E00725D1F6
:1004F000600613D5600502D5C8F1000000E0404653
:1005000029680A1D2A600968220501D5087015E0CE
:10051000220701D5088011E008600FE02868011D5E
:1005200029600068210502D580F8008006E02107D7
:1005300002D5A0F8008001E0C0F8008038467EE7D0
:100540002DE9FF5FD2E901A74FF0000891699946B4
:100550001446DDF838B0464601988847054659EA02
:100560000B0005D009E0A169761C01988847054673
:10057000216A284688470028F5D1681C03D05FEA25
:10058000CA7005D015E04FF0FF3004B0BDE8F09F11
:100590002068011D2160D0F800800AE05FEACA707F
:1005A00001D108F8015BA169761C7F1E019888477C
:1005B0000546002F1ADD681C18D0B9F1000F0DD0C8
:1005C000E81705EBD060421120F01F0059F8221007
:1005D0002A1A012090400142E0D107E0BBF1000F50
:1005E000DCD1216A284688470028D7D0E1690198E4
:1005F0008847BBF1000F07D1002E05DD5FEACA7006
:1006000002D1002188F80010A068B84203DDBBF1D8
:10061000000F03D017B16FF00100B6E73046B4E722
:1006200030B50B46014600202022012409E021FAC2
:1006300002F59D4205D303FA02F5491B04FA02F5BF
:100640002844151EA2F10102F1DC30BD202A04DB92
:10065000203A00FA02F1002070479140C2F12003D5
:1006600020FA03F3194390407047202A04DB203A14
:1006700021FA02F00021704721FA02F3D040C2F1C2
:10068000200291400843194670473A2800D230387A
:1006900020F02002412A01D3A2F13700884201D381
:1006A0004FF0FF307047000002681144137801607A
:1006B00018467047D1600449516104491162002114
:1006C0001161114600F006BAA9060008C90A00081F
:1006D000426842B1016811F8013B23B1521EC0E9E2
:1006E0000012184670470121C160881E7047426899
:1006F0005AB1C368016843B983688B4205D0491E6B
:10070000521CC0E90012002070474FF0FF307047C4
:100710002DE9FE4F804681EA0300C00F0C46009091
:1007200021F0004123F00045B8EB0200A94105D2B9
:100730004046214690461C460B46024623F00040A8
:10074000104347D0270DC7F30A00C3F30A510290A4
:10075000401A019040286BDAC3F3130040F4801B69
:100760000098924620B10023D2EB030A63EB0B0BF7
:1007700001985946C0F140025046FFF767FF064610
:100780000D4650465946019A00F08CF910EB0800CE
:100790006141002487EA115284EAE7731A4340D08A
:1007A000009A62B3019A012A4FEA075215DC001B36
:1007B00061EB02014FF0004202EA0752CDE900422C
:1007C000001C41F5801132462B4600F028FB03B097
:1007D000BDE8F08F40462146F9E7001B61EB0201BE
:1007E000001C41F5801300185B412018A2F500178A
:1007F00047EB030140EAD570B6196D4111E06D0871
:100800004FEA360645EAC0754FEA0752001B61EB16
:100810000201001C41F5801149084FEA300000191F
:10082000514132462B4603B0BDE8F04F00F0E8BA24
:100830000098012240000023D0EB020263EBE0733A
:10084000009821464FEAE074B8EB000061EB040128
:10085000E9E783F000435BE781F0004158E72DE9C9
:10086000FE4F81EA030404F0004421F000410094AB
:100870004FF0000B23F0004350EA01045ED052EA2F
:1008800003045BD0C3F30A54C1F30A552C44A4F209
:10089000F3340194A0FB0254C1F3130141F480111D
:1008A000C3F3130343F4801301FB024400FB034E24
:1008B000840A970A44EA815447EA8357A4FB0768ED
:1008C00002958D0A05FB07854FEA932C04FB0C5417
:1008D0002705029D4FEA065847EA1637B5EB08058B
:1008E0006EEB070C870E920E47EA811742EA8312DD
:1008F000A7FB0201B6EB0B0164EB00042B0D43EAEE
:100900000C335E1844EB1C50DA465146E7FB0201FB
:10091000C5F313044FEA0B3343EA14534FEA04328E
:10092000019C43EA0603A4F10C040294009CCDE967
:1009300000B400F074FA03B0BDE8F08F0020014667
:10094000F9E72DE9F04D81EA030404F0004B21F0B2
:10095000004514464FF0000A23F0004150EA05021A
:1009600020D054EA01021DD0C5F30A570246C5F350
:100970001303C1F31300C1F30A5640F4801543F486
:100980008013A7EB0608101BD64608F2FD3873EB60
:10099000050002D308F1010801E092185B41B8F1AB
:1009A000000F03DA00200146BDE8F08D00204FF46F
:1009B0008011064684460EE0171B73EB050705D32E
:1009C000121B63EB050306434CEA010C49084FEA8E
:1009D000300092185B4150EA0107EDD152EA030062
:1009E00012D082EA040083EA0501084305D0101BF7
:1009F000AB4106D20122002306E000224FF0004363
:100A000002E06FF0010253101AEB06004CEB0851A4
:100A100010EB0A0041EB0B01BDE8F04D00F0F0B91E
:100A2000C1F30A52C1F3130140F2FF3341F48011C4
:100A30009A4202DA00200146704740F233439A425C
:100A4000A2F2334202DC5242FFF70FBEFFF7FEBDB7
:100A500030B5041E71F1000404DB4FF00044404245
:100A600064EB0101141E73F1000405DB1C464FF01A
:100A70000043524263EB0403994208BF904230BDE9
:100A8000064C074D06E0E06840F0010394E80700DB
:100A900098471034AC42F6D3FFF77AFB28D300080E
:100AA00048D30008202A06DBCB17203A41FA02F08F
:100AB00043EAE07306E041FA02F3D040C2F12002BB
:100AC0009140084319467047C0B24FF4F05100F00E
:100AD000F5B900002DE9F34F8BB04FF0000801F19C
:100AE0000C000C464FF0010B46460DF1080A019030
:100AF0006269012101989047051E2DD0252D2CD02B
:100B0000216A8847C0B16269012101989047216A32
:100B100088470028F7D1411E62690198904700E09C
:100B2000761CA1690B988847216A88470028F7D16D
:100B3000E1690B988847DBE7A1690B98884707466E
:100B4000A84201D1761CD3E7E1690B9888477F1C46
:100B500002D1B8F1000F6FD046E1002762693D462F
:100B60003946019890472A2804D1626901210198E9
:100B700090470125DFF8849262690121019890472E
:100B8000A0F130010A290AD24F45E5DC07EB8701C5
:100B900000EB4107303FDFD445F01005ECE7E906F4
:100BA00001D46FF000476C280AD04C2814D0682874
:100BB00015D06A280DD074281CD07A281AD01DE0D0
:100BC00062690121019890476C2802D045F0040524
:100BD00014E045F002050DE045F020050AE06269E9
:100BE000012101989047682802D045F0080505E0EA
:100BF00045F400656269012101989047C4E90157F5
:100C000065283DD019DC58287AD00CDC452837D02F
:100C100004DC252826D0412831D131E046282FD0C8
:100C200047282CD12CE05B2877D0612828D0632876
:100C30007CD0642823D15AE0D0E06F2848D008DC6B
:100C400066281DD067281BD0692821D06E2816D1B0
:100C500027E0702845D0732868D0752847D07828B9
:100C60000DD14DE0A1690B988847054625283FF432
:100C700069AFE1690B9888476D1C3FF46AAFB3E038
:100C800023466A466FF001000B99AFF300809EE0A7
:100C900045F040006060A80723464FF0000236D4BC
:100CA0003EE0E8077FF447AF2068011D216000683F
:100CB000290501D506701BE7290701D5068017E72E
:100CC000A90703D5F117C0E9006111E706600FE736
:100CD00045F040006060A80723464FF0080216D494
:100CE0001EE040F60E0125EA0100606016E045F0C6
:100CF00040006060A80723464FF00A0207D40FE0C7
:100D000045F040006060A80708D5234610226FF028
:100D100001000B99AFF3008059E007E02346102251
:100D20006FF001000B99FFF765FB50E04FF00009F1
:100D30004F464B46632802D05B2806D040E0E806C9
:100D400001D40120A06001273AE0626901210198E5
:100D500090475E2805D14FF0010962694946019824
:100D60009047216939B900210A46534643F82120AA
:100D7000491C0829FADBB0B3216969B9C11700EB36
:100D8000D16253110AEB830122F01F02821A012063
:100D90000B68904003430B60626901210198904702
:100DA0005D28E8D1B9F1000F09D00020514651F873
:100DB0002020D24341F82020401C0828F7DB02AB5A
:100DC000224600976FF001000B99FFF7B9FB00284E
:100DD0000CDA401C08D1BBF1000F05D04FF0FF30FA
:100DE0000DB0BDE8F08FFFE74046F9E7E90701D114
:100DF00008F1010806444FF0000B79E6CCCCCC0C8E
:100E000010B5141E73F1000408DA401C41F1000112
:100E100092185B411A4301D120F0010010BD2DE969
:100E2000F04D92469B4611B1B1FA81F202E0B0FA60
:100E300080F220329046FFF709FC04460F4640EA54
:100E40000A0041EA0B0153465A46084313D01146A3
:100E500053EA010019D0C8F140025046FFF705FCE3
:100E600005460E46504659464246FFF7EFFB0843FB
:100E700005D0012004E020463946BDE8F08D002071
:100E8000054346EAE0762C4337430A986305E40AB3
:100E9000A0EB08000022FD0A44EA47540A3002D5BC
:100EA00000200146E9E7010510196941DDE908451F
:100EB00000196941BDE8F04DA2E700007F2801D983
:100EC000002208E0064A02EB5002C007127800D167
:100ED000120902F00F020120904008407047000004
:100EE00018CC000870B58C1810F8015B15F00703DA
:100EF00001D110F8013B2A1106D110F8012B03E0B3
:100F000010F8016B01F8016B5B1EF9D12B0705D4BA
:100F10000023521E0DD401F8013BFAE710F8013B03
:100F2000CB1A921C03E013F8015B01F8015B521E1F
:100F3000F9D5A142D8D3002070BD10B50146806B11
:100F4000026C12F0500F05D0026CD20626D500F0CC
:100F500068FD10BD016C41F40071016401688A688C
:100F600012F0405F17D1027EAAB9CA6A12F4700F5C
:100F700002D08A6852050ED44A6822F020024A60E4
:100F8000016C21F480710164016CC90403D4016C0B
:100F900041F00101016400F00DFD10BD806BC26CD9
:100FA000BDE810400846104710B5806B4021016431
:100FB000416C41F00401416400F033FD10BD10B5F7
:100FC000806B00F02DFD10BD10B5044800F02AFD27
:100FD000BDE81040024800F025BD00004804002094
:100FE00090040020464910B54A6822F440324A6015
:100FF0004A6843681A434A6001684A6822F480726A
:101000004A6001684A68036942EA03224A6001684B
:101010004A6822F040724A6001684A6883681A434D
:101020004A6001688A6822F400628A6001688A68FE
:10103000C3681A438A60816A6FF07062D1420168A6
:101040008A6822F070628A6001688A680CD0836ABC
:101050001A438A6001688A6822F040528A600168F7
:101060008A68C36A1A4301E022F040528A6001682C
:101070008A6822F002028A6001688A68037E42EA76
:1010800043028A6090F82010002901684A680FD056
:1010900042F400624A6001684A6822F460424A6091
:1010A00001684A68174C436A04EB43331A4301E072
:1010B00022F400624A600168CA6A22F47002CA62BD
:1010C0000168CA6A838B104C04EB03531A43CA624B
:1010D00001688A6822F400728A6001688A6890F860
:1010E000303042EA43228A6001688A6822F48062D2
:1010F0008A6001688A68406942EA8020886010BD81
:101100000023014000E0FFFF0000F0FF70B504463F
:1011100002F02CFE250AA02000EB4500C0B202F030
:10112000CDFD02F077FEE0B202F0C8FD02F072FEE3
:1011300002F01CFEA12000EB4500C0B202F0BEFD93
:1011400002F068FE002002F081FD044602F038FE45
:10115000204670BD70B50D46044602F007FE200A19
:10116000A02101EB4000C0B202F0A8FD02F052FE47
:10117000E0B202F0A3FD02F04DFE284602F09EFD13
:1011800002F048FE02F01CFE4FF47A714FF4C87270
:1011900006E0002000BF00BF401C80B29042F9D39F
:1011A000491E89B2F5D270BD70B50D46044602F0F5
:1011B000DDFD200AA02101EB4000C0B202F07EFD5F
:1011C00002F028FEE0B202F079FD02F023FE28468C
:1011D00002F074FD02F01EFEBDE8704002F0F0BDAA
:1011E0000D4902460088C97801290BD05FF0010142
:1011F00032F81130834200D81846491CC9B202297E
:10120000F6D3704732F81130834200D81846491C93
:10121000C9B20429F6D37047400000202DE9F041FF
:101220001E4C40F215162046E178371F80784FF4A7
:10123000AA7501290BD001284FF0470225D0184983
:101240001848FFF761F81649472247310AE001289C
:101250004FF0470210D014491248FFF755F81249D1
:10126000472247310F484730FFF74EF86581A58187
:10127000E6802781BDE8F0810B490A488E39FFF7E7
:1012800043F8094947224739ECE7054905488E39B3
:10129000FFF73AF8024947224739E3E740000020C8
:1012A000C4BF000834060020A8BE0008F0B5FBB09B
:1012B00015460E4607464FF4F67224496846FFF776
:1012C00023F823A13846FFF743F801004FEA9500C1
:1012D00000EB400401D0A41E05E01EA13846FFF734
:1012E00037F808B1641EA4B2002030550246AD1E86
:1012F00027E03B1817F800C05C7869461DF82CC041
:101300001DF82440001DC4F3031444EA8C04B454B3
:101310009C7893F801C01DF824401DF82CC0C4F33C
:10132000850444EA0C1CB418D21C84F801C093F85C
:1013300003C09B781DF82CC011F823104CEA8111D2
:10134000A170A842D5DB7BB0F0BD00000CC800083E
:101350003D3D00003D0000002DE9F04792B01446ED
:101360000D46064644222D496846FEF7CDFF4FF054
:101370000309B4FBF9F109FB11400028B4FBF9F0B3
:1013800007D08000001D80B2002129540B46801E2A
:101390002DE04FF6FF7101EA8000F5E7775CEA4641
:1013A0000AEB97021278EA54725C9207970E721851
:1013B000C91C92F801C047EA1C1CEF181DF80CC0AC
:1013C00087F801C092F801C092F802804FEA0C7CC5
:1013D0004FEA9C6C4CEA98181B1D1AF808C087F855
:1013E00002C0927802F03F0C1AF80C20FA70834287
:1013F000D4DBB4FBF9F109FB11413D20012907D0F1
:10140000022902D1E91801F8010C12B0BDE8F087F9
:10141000E91801F8020D4870F7E70000A0CC0008B9
:10142000FEE7000010B54FF6FF72084B09E000BF61
:1014300010F8014B84EA1224E4B233F8144084EA31
:101440000222491E89B2F3D290B210BDB8C0000882
:1014500010B50D490B488A89C4784B89888E5CB1D8
:1014600083420DD282420BD2CA89824208D2098AB3
:10147000814205D2012010BD834201D28242F9D3BC
:10148000002010BD40000020C406002010B50D490A
:101490000B488A89C4784B89888E5CB1834207D314
:1014A000824205D3CA89824202D3098A814205D287
:1014B000012010BD8342FBD38242F9D3002010BD2E
:1014C00040000020C406002010B510490E488B894A
:1014D000C4784A89888E7CB1B2EB400F02D2B3EB5C
:1014E000400F07D3CA89B2EB400F0BD2098AB1EB88
:1014F000400F07D2012010BDB2EB400FFAD3B3EB7F
:10150000400FF7D3002010BD40000020C40600208B
:1015100010B50D490B488A89C4784B89888E5CB117
:1015200083420DD282420BD2CA89824208D2098AF2
:10153000814205D2012010BD834201D28242F9D3FB
:10154000002010BD400000200007002010B50D490C
:101550000B488A89C4784B89888E5CB1834207D353
:10156000824205D3CA89824202D3098A814205D2C6
:10157000012010BD8342FBD38242F9D3002010BD6D
:10158000400000200007002010B510490E488B894C
:10159000C4784A89888E7CB1B2EB400F02D2B3EB9B
:1015A000400F07D3CA89B2EB400F0BD2098AB1EBC7
:1015B000400F07D2012010BDB2EB400FFAD3B3EBBE
:1015C000400FF7D3002010BD40000020000700208E
:1015D000014800F025BC0000D8040020014800F0BC
:1015E0001FBC00003805002001681823CAB2103A59
:1015F000B2FBF3F2054B6FF30901032A9B5CC36551
:1016000000D9091D8165084670470000F8CB000825
:1016100010B5014600208B698A6A4FF0C07453B13F
:10162000B3F5005F15D072B1012A0CD0022A0AD09E
:10163000032A09D104E01AB1012A06D0022A03D1F3
:10164000C96AC90100D5012010BDC96AA142FAD0FA
:1016500010BD002AF7D0012AF2D0022AF3D0032AC3
:10166000F3D010BD30B50468256825F480252560C9
:10167000046863608368402B036803D09960006846
:10168000C26030BD9A600068C16030BD7047000024
:10169000274810B500782749002827484FF08002D6
:1016A00024D0FEF731FE2448802224498030FEF702
:1016B0002BFE802222492348FEF726FE2148802265
:1016C00021498030FEF720FE802220492048FEF785
:1016D0001BFE1F48DC221F498030FEF715FE1E4905
:1016E000DC22BDE810401D48FEF70EBEFEF70CFEE2
:1016F0001148802211498030FEF706FE80221049F1
:101700001048FEF701FE0F4880220F498030FEF797
:10171000FBFD80220D490E48FEF7F6FD0C48DC2249
:101720000F498030FEF7F0FDDC220E49D9E70000BA
:1017300042000020F4CE0008BE090020ECCD0008D5
:1017400070CE0008BE0A002068CD0008E4CC000876
:10175000BE0B002028D0000878CF00081A0D00200A
:1017600088D10008DCD0000808B502F0A9F90A20E9
:1017700000900E4B00220121702002F02EFF0B2062
:101780000A4B002200900B3B1146702002F025FF0F
:1017900006480A220B21303002F077F903480B2269
:1017A0000021BDE80840253002F06FB9470700204E
:1017B0004FF48061014800F0CABD0000000C0240F7
:1017C000704710B500231A46C40700D04B4011F0F3
:1017D000800F4FEA41614FEA116101D081F01B0196
:1017E0004008521C082AEFDB184610BD10B51C4CEF
:1017F0000121204600F0A6FD20B91021204600F06E
:10180000A1FD28B10221204600F09CFD10B106E0A8
:10181000052010BD0121204600F094FDA8B1012152
:10182000204600F08FFD90B10221204600F08AFD95
:1018300078B11021204600F085FD60B120212046BE
:1018400000F080FD48B1002010BD062010BD012031
:1018500010BD022010BD032010BD042010BD0000EB
:10186000000802407047000078B50024009490F80A
:101870003C20012A19D0012280F83C200A68072365
:101880000568092A13D9EE680A3A02EB420293402E
:101890009E43EE600B788A680A3B03EB43039A4051
:1018A0000368DD682A43DA6010E0022078BD2E6903
:1018B00002EB420293409E432E610B788A6803EB51
:1018C00043039A4003681D692A431A614A681F232B
:1018D000072A13D205686E6B521E02EB82029340F8
:1018E0009E436E630B790A885B1E92B203EB8303FF
:1018F0009A4003685D6B2A435A6327E005680D2A06
:1019000012D22E6BD21F02EB820293409E432E63B3
:101910000B790A88DB1F92B203EB83039A400368BA
:101920001D6B2A431A6311E0EE6A0D3A02EB820244
:1019300093409E43EE620B790A880D3B92B203EB13
:1019400083039A400368DD6A2A43DA62164B05680E
:10195000144A9D4206D10D68122D03D1556845F4F5
:101960008005556005689D4218D10B68102B01D089
:10197000112B13D1536843F40003536009681029F5
:101980000CD10A490A4A0968B1FBF2F101EB810165
:10199000490000E0491E00910029FBD180F83C403D
:1019A000002078BD0023014000200140C403002036
:1019B00040420F0030B500681649884212D1164ADD
:1019C000507E02280DD10020A2F1B00302EB4004AA
:1019D00053F820106589A94200D96181401C042870
:1019E000F4DB30BD0D498842FBD10B493C31487EC8
:1019F0000228F6D10020A1F1DC0400BF01EB400376
:101A000054F820205D89AA4200D95A81401C04283C
:101A1000F4DB30BD00200140C4060020002101405D
:101A20007047704770B50446006801684268C1F3AA
:101A30004001C2F3401251B34AB3216CC90603D42A
:101A4000216C41F400712164816811F0405F17D16D
:101A5000217EA9B9C16A11F4700F02D081684905CD
:101A60000ED4416821F020014160206C20F4807088
:101A70002064206CC00403D4206C40F0010020647A
:101A80002046FFF797FF21686FF01200086020687A
:101A900001684268C1F38001C2F3C01289B382B306
:101AA000216CC90603D4216C41F400512164816882
:101AB00011F4401F1ED1816B11F4401F02D08168C8
:101AC000490517D44168490514D4816811F0405F75
:101AD00010D1217E71B9416821F080014160206CF4
:101AE00020F480502064206CC00503D4206C40F0AA
:101AF000010020642046FFF7B5FE21686FF00C005E
:101B0000086020680168426811F0010FC2F380127A
:101B10000ED06AB10068C0070AD0206C40F4803053
:101B20002064204600F046F821686FF0010008604C
:101B3000206801684268C1F34011C2F38062002945
:101B40000DD0002A0BD0616C41F0020161646FF08E
:101B5000200505602046FFF764FF2068056070BD22
:101B600070B504004FF0000503D0206C002610B1C2
:101B700007E0012070BD204600F01EF8666484F87E
:101B80003C60206CC00610D4206C20F4885040F0DB
:101B9000020020642046FFF725FA6664206C20F0DE
:101BA000020040F00100206400E0012584F83C6060
:101BB000284670BD704700002DE9F04F87B00646FB
:101BC00014216846FEF7B9FB3B48DFF8E8C014383B
:101BD0003468002538490323384A07154FF48058E4
:101BE0004FF480494FF4807A4FF4003B64452FD185
:101BF0000C6844F480740C60096801F480710591EC
:101C0000016841F0010101600068694600F00100CF
:101C10000590CC208DE82900104600F0B7FA294C39
:101C2000274804F10C0CC4E90005A5608CE8A00F5E
:101C30002046656236E0B463002205211220A663C7
:101C400000F082FC122000F071FC07B0BDE8F08FBC
:101C5000DFF874C06445F8D10C6844F400740C607B
:101C6000096801F400710591016841F0010101600A
:101C70000068694600F00100059033208DE82900D6
:101C8000104600F083FA0F4C0D486034303020606D
:101C90004FF00070C4E9010504F10C0C20468CE8FB
:101CA000A00F656200F08CF90028C4D0FFF788FD12
:101CB000C1E700000020014044380240000002401B
:101CC00010640240D804002000210140F8B50E46FF
:101CD00000210446009190F83C00012807D0012023
:101CE00084F83C0020688368DB0702D011E0022002
:101CF000F8BD836843F0010383603748374B0068C1
:101D0000B0FBF3F000EB400000E0401E0090002824
:101D1000FBD120688368DB075CD0236C40F201654F
:101D2000AB4343F4807323644068400505D5206CC1
:101D300020F4005040F480502064206CC00404D58E
:101D4000606C20F00600606400E0616484F83C1080
:101D5000A16B2448224DC863A16B23480864A16B82
:101D60002248C86421686FF022000860206841683A
:101D700041F0806141602068816841F48071816038
:101D80002168134632464C31A06B00F083F9686835
:101D90001749C006206806D088421BD1816811F01F
:101DA000405F13D016E08842F8D0124A904203D127
:101DB000D1F80423D206F1D00F4A90420AD1D1F8CB
:101DC000041301F01F011029E8D303E0816841F0FA
:101DD000804181600020F8BDC403002040420F0014
:101DE000002301403B0F0008BF0F0008A90F0008A7
:101DF00000200140002101400022014090F83510F0
:101E0000022903D08021416501207047052180F817
:101E100035100068016821F0010101600020704761
:101E20002DE9F84304464FF00009CDF800906348CF
:101E30004FF41651A56D0068B0FBF1F72E6894F8C9
:101E40005C10082000FA01F131420FD021680A68C5
:101E500052070BD50A6822F004020A6094F85C105D
:101E60008840A860606D40F00100606594F85C10E7
:101E70004FF0010808FA01F0304208D021684969A2
:101E8000090604D5A860606D40F00200606594F812
:101E90005C1004208840304208D021680968890716
:101EA00004D5A860606D40F00400606594F85C1093
:101EB00010208840304218D021680968090714D5DD
:101EC000A86020680168490304D50068000308D5AC
:101ED000A16C07E00168C90503D4016821F008017D
:101EE0000160216C09B12046884794F85C102020DD
:101EF0008840304231D021680968C9062DD5A860D4
:101F000094F8350005282068016806D0490347D5B4
:101F1000006800031DD4616C1CE021F01601016013
:101F20002068416921F080014161206C08B9A06CF2
:101F300020B12068016821F00801016094F85C106C
:101F40003F208840A86084F8349084F83580216D63
:101F50001FE0E16B09B120468847606D00282BD057
:101F6000606DC00714D0052084F835002068016832
:101F700021F0010101600098401C0090B84203D894
:101F800020680068C007F6D184F8349084F8358062
:101F9000E16C002910D001B02046BDE8F0430847AD
:101FA0000168C905D5D4016821F01001016084F8E9
:101FB000349084F83580CCE7BDE8F883C403002072
:101FC0002DE9F041044600F0CFF906465CB100254A
:101FD00084F83450022084F835002068016821F02C
:101FE000010101600DE00120BDE8F08100F0BCF9C5
:101FF000801B052805D920206065032084F8350062
:10200000F2E720680068C007F0D122681168204814
:102010000140D4E901031843D4E90336334318439C
:1020200063691843A3691843E3691843236A184393
:102030000843616A042903D1D4E90B131943084307
:10204000106020684069666A20F0070130460E4340
:10205000012704280CD1A06A0643E06A40B120465B
:10206000FFF7D6FA20B14020606584F83570BAE7F2
:10207000206846612046FFF7B7FA94F85C203F21BC
:1020800091408160656584F835700020ACE7000000
:102090003F8010F02DE9F0410446866D90F8340041
:1020A000002501280DD0012084F8340094F8357003
:1020B0000020012F07D084F8340002252846BDE80F
:1020C000F0810220FBE7022784F835706065204626
:1020D000FFF7C8FA94F85C103F208840B060206891
:1020E000016841F016010160206C20B12068016890
:1020F00041F0080101602068016841F001010160C0
:10210000DCE7000010B586B014216846FEF715F92B
:102110001A480024016841F008010160016801F0DB
:1021200008010591016841F004010160016801F0B6
:1021300004010591016841F01001016000686946E1
:1021400000F0100005904FF44070CDE900040C48F9
:10215000029400F01BF84FF40050CDE900046946EA
:102160000848029400F012F80320CDE90004694603
:102170000548029400F00AF806B010BD303802405D
:10218000000C024000080240001002402DE9F84F08
:1021900000224FF0010803254FF00F0E0B6808FADC
:1021A00002F42340A3426ED14E68012E05D0022EC8
:1021B00003D0112E01D0122E12D186684FEA420CA4
:1021C00005FA0CF7BE43CF6807FA0CF73743876070
:1021D0004668A6430C79C4F3001494403443446029
:1021E000C668570005FA07FC8C6826EA0C06BC4056
:1021F0003443C4604C68022C01D0122C13D1D40893
:1022000000EB8404A346D4F8209054074FEAD46A24
:102210000EFA0AF629EA06090E6906FA0AF646EAED
:102220000906CBF8206006680C7926EA0C0604F053
:102230000304BC40344304604C68E40065D5364C6C
:10224000266846F480462660246822F0030604F4DB
:1022500080440094314C3444A446D4F8084896078E
:10226000370F0EFA07F6B4432D4EB04201D10026C7
:1022700024E02C4EB04201D101261FE02A4EB0428C
:1022800002D102261AE040E0284EB04201D10326D6
:1022900014E0274EB04201D104260FE0254EB04293
:1022A00001D105260AE0244EB04201D1062605E000
:1022B000224EB04201D1072600E00826BE40264348
:1022C000CCF808681E4E34684F689C43FF0300D565
:1022D0001C4334601A4C241D26684F689E43BF037C
:1022E00000D51E432660164E083634684F689C435E
:1022F000FF0200D51C433460114E0C3634684F6821
:102300009C43BF0200D51C433460521C102AFFF4CA
:1023100045AFBDE8F88F000044380240003001406E
:10232000000002400004024000080240000C02408D
:10233000001002400014024000180240001C02403D
:10234000003C01400069084000D00120704742690C
:1023500031EA020200D10904816170470AB181614A
:1023600070470904FBE700000148806870470000DF
:10237000B8030020024881680278114481607047E8
:10238000B80300200B4810B5016841F400710160EA
:10239000016841F480610160016841F4807101606D
:1023A000032000F0F1F8002000F006F800F0A2F899
:1023B000002010BD003C024010B5014688B000224C
:1023C000192000F0C1F8192000F0B0F813480024DB
:1023D000016841F001010160006805A900F00100F9
:1023E0000690684600F048FA00F076FA0C49400082
:1023F000B0FBF1F10C480B4A491E026040F2E73293
:10240000C0E90324C0E9011400F01CFE10B1012052
:1024100008B010BD044800F031FEF9E7443802402E
:1024200040420F0000000140C005002000B587B009
:1024300014216846FDF781FF09480021026842F037
:10244000040202600068029100F00400059033204D
:10245000CDE9000169460348FFF798FE07B000BDCB
:10246000303802400008024030B587B01421684679
:10247000FDF763FF1C48016841F00201016001683B
:1024800001F002010591016841F01001016000684E
:10249000012400F0100005907820CDE90004134DD0
:1024A000694628460394FFF771FE01221021284651
:1024B000FFF754FF9C20CDE9000403940C4C6946BF
:1024C0002046FFF763FE002204212046FFF746FF67
:1024D000012208212046FFF741FF0122102120465A
:1024E000FFF73CFF07B030BD303802400004024027
:1024F000001002400C4882B0016841F48041016044
:10250000006800F4804000900748001F016841F017
:10251000805101600068002200F0805000900F217F
:10252000901E02B000F010B844380240002809DBC9
:1025300000F01F02012191404009800000F1E020DD
:10254000C0F8001170470000F0B40E4B1B680C4639
:10255000C3F30223C3F10705042D00D90425191D77
:10256000072901D2002300E0DB1E012606FA05F14F
:10257000491E214099409E40761E16403143F0BCD2
:1025800003F092B90CED00E0064900F0070208687C
:102590004FF6FF03184040EA0220034A1043086048
:1025A000704700000CED00E00000FA05BFF34F8F0C
:1025B00005480168054A01F4E06111430160BFF379
:1025C0004F8F00BFFDE700000CED00E00400FA05AE
:1025D00000B585B014216846FDF7AFFE4FF4B0504A
:1025E0000090012001900020029003906946054868
:1025F000FFF7CCFD01F054FE01F0B0FD01F000FE4C
:1026000005B000BD001002402DE9F8430546006802
:102610004FF00109C1074FF0000601D1400727D54F
:10262000DFF80C81C8F86860FFF79EFE0746414C52
:1026300005E000BFFFF798FEC01B022857D82068AE
:102640000001F7D468688101287A41EA00703949AD
:1026500084310860C8F86890FFF786FE074604E0FA
:10266000FFF782FEC01B022841D820680001F7D581
:102670002878800752D52F484030016841F08051BA
:10268000016000682C4C00F080500090206840F4FD
:1026900080702060FFF768FE074604E0FFF764FEE5
:1026A000C01B022823D82068C005F7D5214C703400
:1026B000206810F4407020D0A98901F44071814253
:1026C0001BD020681D4920F44070C1F800900E60B6
:1026D00020602068C00710D0FFF746FE064641F292
:1026E000883707E0FFF740FE801BB84202D903207D
:1026F000BDE8F88320688007F4D5E9680D48C1F388
:1027000001220830032A0BD0016821F4F81101607E
:102710002068A989C1F30B01084320600020E7E786
:102720000268074B22F4F81219400A430260EFE7EF
:10273000000047420038024000700040400E47420F
:10274000FFFCFF0F2DE9F0470E46050065D0DFF8CE
:102750001481D8F80000F7B200F00F00B04207D2A1
:1027600088F80070D8F8000000F00F00B04254D193
:1027700028683D4C810712D5400703D5206840F4F6
:10278000E05020602878000703D5206840F46040BE
:1027900020602068A96820F0F000084320602878B5
:1027A000C0072DD0304968680839012812D00228A6
:1027B00013D0032811D00968890700292DDA216870
:1027C00021F0030101432160FFF7CEFD814641F274
:1027D000883A0EE009688903EFE709688901ECE7A8
:1027E000FFF7C2FDA0EB0901514502D90320BDE866
:1027F000F0872068696800F00C00B0EB810FEFD122
:10280000D8F80010404601F00F01B14207D9077017
:10281000006800F00F00B04201D00120E7E72878FF
:10282000400705D52068E96820F4E050084320609F
:102830002878000706D52068296920F4604040EA1E
:10284000C100206000F058F82168084AC1F3031164
:10285000515CC8400649086006480068FFF7ACFDB7
:102860000020C4E7003C02400838024000CC0008C9
:10287000C4030020BC0300200F2202600C4A13682E
:1028800003F003034360136803F0F00383601368ED
:1028900003F4E053C36012684FF4E05303EAD2023A
:1028A00002610448006800F00F00086070470000F3
:1028B00008380240003C02400448054900680968A5
:1028C000044AC1F38221515CC8407047C403002010
:1028D0000838024010CC000804480549006809681F
:1028E000044AC1F34231515CC8407047C403002020
:1028F0000838024010CC0008154810B5006810F0E8
:102900000C02144813D01449042A0FD0082A0ED1FF
:102910000F4C241F2268236802F03F025B0207D598
:102920002068C0F38810A0FB010106E0084610BD36
:102930002168C1F38811A1FB00010023FDF7A0FC71
:102940002168C1F30141491C4900B0FBF1F010BD01
:10295000083802400024F400001BB7002DE9F84FAE
:1029600004006ED02078DFF83C93C007A9F104057D
:102970004AD009F104000168C1F38101012908D09E
:102980000068C0F3810002280AD1D9F80000400293
:1029900006D52868800337D560680028E1D033E089
:1029A0006068B0F5803F10D0B0F5A02F286810D037
:1029B00020F480302860286820F480202860606837
:1029C000A8B1FFF7D1FC06460DE0286840F480303E
:1029D000F4E740F480202860F7E700BFFFF7C4FC6D
:1029E000801B642873D828688003F7D50CE0FFF7B4
:1029F000BBFC064605E000BFFFF7B6FC801B642861
:102A0000F0D828688003F7D42078DFF89C8280070C
:102A10004FF0000A3ED5A348001D016811F00C0FCD
:102A200008D00068C0F3810002280BD1D9F800005B
:102A3000400207D42868800716D5E068012800D135
:102A400012E02BE1E068B8B10120C8F80000FFF700
:102A50008BFC064605E000BFFFF786FC801B0228C2
:102A6000C0D828688007F7D52868216920F0F800C9
:102A700040EAC10028600DE0C8F800A0FFF774FC30
:102A8000064604E0FFF770FC801B02281FD8286868
:102A90008007F7D42078000722D5824E83486169E9
:102AA000703671B101210160FFF75EFC074604E05A
:102AB000FFF75AFCC01B022809D830688007F7D5F9
:102AC0000EE0C0F800A0FFF74FFC074605E082E0EB
:102AD000FFF74AFCC01B02287DD830688007F7D476
:102AE0002078400768D5DFF8BCB100270BF13C0B1C
:102AF000DBF80000C0000BD4DBF8001041F080517F
:102B0000CBF80010DBF80000012700F080500090A7
:102B1000674E3068C00510D4306840F48070306073
:102B2000FFF722FC009005E0FFF71EFC0099401A19
:102B3000022850D83068C005F6D55A4EA0686C36C9
:102B400001280FD00528306810D020F00100306037
:102B5000306820F004003060A068B8B1FFF704FCD2
:102B600000900FE0306840F00100F4E740F004000E
:102B70003060F7E7FFF7F8FB0099411A41F288301F
:102B8000814266D830688007F4D50EE0FFF7ECFB91
:102B9000009007E0FFF7E8FB0099411A41F2883006
:102BA000814256D830688007F4D42FB1DBF800108A
:102BB00021F08051CBF80010A069C8B33949091D34
:102BC0000968C1F3810102294AD00228504607D082
:102BD000C8F8600000E03CE0FFF7C6FB04463BE0BD
:102BE0004746C8F86000FFF7BFFB064605E000BF98
:102BF000FFF7BAFB801B02282BD828688001F7D486
:102C0000D4E907010843A16A2A4A490802EB0141B5
:102C1000626A41EA8211084394F82C1040EA01618B
:102C2000C9F8001001203866FFF79EFB044606E055
:102C300036E000BFFFF798FB001B022809D8286880
:102C40008001F7D52CE000BFFFF78EFB001B0228A8
:102C500002D90320BDE8F88F28688001F4D41FE072
:102C60000128F7D0D9F80000E26900F48001914210
:102C700014D1226A00F03F0191420FD147F6C07192
:102C8000626A0140914209D1A26A00F44031914246
:102C900004D1E16A00F07060884201D00120D9E7D8
:102CA0000020D7E70438024000004742800E474228
:102CB000007000400000FFFF10B500680B4641683F
:102CC0000D480140080CD870C1F304245C7001F079
:102CD0003F049C70C1F34231197052B901F0E0FD1C
:102CE000D870587801F0DCFD5870987801F0D8FD64
:102CF0009870002010BD00003FFFFF0010B50B468C
:102D00000168896A596001680969C1F30E01996017
:102D1000006801680E480140C1F305401870C1F316
:102D200006245C7001F07F049C70402404EA114189
:102D3000D97052B901F0B4FD1870587801F0B0FDA7
:102D40005870987801F0ACFD9870002010BD00001C
:102D50007F7F7F0070B5040002D0607F10B106E075
:102D6000012070BD00202077204600F049F80220A5
:102D700060772168CA204862216853204862204653
:102D800001F0A2FDFF25042618BB206881681B4ABC
:102D9000114081602168886862681043D4E9042387
:102DA0001A43104388602168E0680861206801695F
:102DB000228941EA024101612068C16821F0800155
:102DC000C16020688068800607D4204600F0FEF8C5
:102DD00018B1206845626677C2E72068016C21F46B
:102DE000802101642068016CA2691143016420689C
:102DF000456201206077002070BD0000BFFF8FFF9B
:102E000000680349884202D10249012008607047E6
:102E1000002800403C0E47422DE9F0470446007F61
:102E20000B4601281FD04FF0010984F81C900220A6
:102E30006077DAB19878D97840EA014558781978FE
:102E4000000240EA413005432168CA2048622168F7
:102E500053204862204601F037FD0026FF274FF03F
:102E6000040860BB1AE00220BDE8F0875878C1066C
:102E700003D500F0EF000A305870D87801F019FD42
:102E80000204587801F015FD42EA0022987801F01A
:102E900010FD0243187842EA4035D5E70F48054057
:102EA000206845602068C16821F08001C160206809
:102EB000806880060AD4204600F088F830B1206887
:102EC000476284F81D8026770120CDE7206847629D
:102ED00084F81D9026770020C6E700003FFFFF0022
:102EE0002DE9F0470446007F0D46012827D04FF01A
:102EF000010A84F81CA00220607720680026806800
:102F00004FEA4060F2B1002800DBEE70A878297823
:102F100040EA01476878E978000240EA0140074347
:102F20002168CA204862216853204862204601F087
:102F3000CBFC4FF0FF084FF00409A0BB16E00220C5
:102F4000BDE8F087002800DBEE70287801F0B1FCC6
:102F50000204687801F0ADFC42EA0022A87801F092
:102F6000A8FC0243E87842EA0047D9E71648074040
:102F7000206807602068816821F480218160D5E99C
:102F80000301084321688A68104388602068C1688B
:102F900021F08001C1602068806880060BD4204643
:102FA00000F014F838B12168C1F8248084F81D902D
:102FB00026770120C4E72168C1F8248084F81DA089
:102FC00026770020BCE700007F7F7F0070B50446B5
:102FD0000068C16821F0A001C160FFF7C5F905468E
:102FE0004FF47A7607E000BFFFF7BEF9401BB0420E
:102FF00001D9032070BD2068C0688006F4D5002088
:1030000070BD000000B587B014216846FDF795F942
:1030100009480021026842F008020260006802913B
:1030200000F008000590FF20CDE900016946034843
:10303000FFF7ACF807B000BD30380240000C02408A
:103040007047704710B5040003D094F83D0010B1EC
:1030500007E0012010BD002084F83C00204600F06D
:103060000CF8022084F83D00211D206802F0B4F91C
:10307000012084F83D00002010BD70470168CA6837
:1030800042F00102CA600068816801F00701062968
:1030900003D0016841F001010160002070477047D2
:1030A00070B50446006801694FF00005C9438907FF
:1030B00015D4C168C943890711D4E91E01610120F3
:1030C0002077206880698007204602D0FFF7E7FF5D
:1030D00004E000F098F8204600F096F82577206884
:1030E0000169C943490717D4C168C943490713D4C3
:1030F0006FF004010161022020772068806910F4DC
:10310000407F204602D0FFF7CAFF04E000F07BF8C2
:10311000204600F079F8257720680169C94309073E
:1031200016D4C168C943090712D46FF008010161C0
:10313000042020772068C0698007204602D0FFF76E
:10314000AEFF04E000F05FF8204600F05DF8257760
:1031500020680169C943C90617D4C168C943C906B3
:1031600013D46FF010010161082020772068C06936
:1031700010F4407F204602D0FFF791FF04E000F0FA
:1031800042F8204600F040F8257720680169C943DD
:10319000C90708D1C168C943C90704D1891E0161A3
:1031A000204600F033F820680169C943090609D4B4
:1031B000C168C943090605D46FF08001016120464A
:1031C000FFF73EFF20680169C943490609D4C16879
:1031D000C943490605D46FF040010161204600F063
:1031E0002FF820680169C94389060BD4C168C94317
:1031F000890607D46FF0200101612046BDE87040C8
:10320000FFF71FBF70BD70477047000010B5006822
:10321000094988420ED1FFF7ADF808484188491C9A
:1032200089B2A1F56A424180603A03D10021418010
:103230000121017010BD00000000014000000020CD
:10324000704700002DE9F00F4249434B08464E8875
:10325000002293F807C000785D7A01F16A07012423
:10326000E6B1012E31D08A4691F80480BAF802C046
:103270000AF105090CF1010C1FFA8CFCB8F1010FE1
:1032800033D0B8F1020F4ED04A718A714A80BDE83E
:10329000F00F30480122403800F084B9BCF1000F33
:1032A00002D048280ED0F1E725B1032D06D3AA2875
:1032B00002D0EBE7A528E9D1487140E0012D01D00B
:1032C000022DE4D148714C80E1E702234B2802D162
:1032D0004D79482D06D0BCF1000FD7D188710B7104
:1032E0004B80D4E788710C71FAE73C2E0AD2A1F822
:1032F00002C006F8090048883828C8D191F83C0077
:103300003880C4E7A7F13A0570554888401C80B260
:1033100048803D883C35A84201D35C71B6E7B0F5E2
:10332000967FB3D2B3E7A1F802C006F80900012DD9
:1033300002D0022D06D008E04888042805D14A8032
:103340009C71A4E748880628F9D048883C289DD27B
:103350009DE70000380E00208202002008B5C16BF6
:10336000090703D5006801684068009008BD0000A7
:1033700070B5026804461068D168536910F00F0FE9
:1033800052D003F0010501F490762E435FD0C207BE
:1033900005D0CA0503D5E26B42F00102E2634207A1
:1033A00005D5DA0703D0E26B42F00202E26382073E
:1033B00005D5DA0703D0E26B42F00402E2630207AC
:1033C00007D501F020022A4303D0E26B42F0080245
:1033D000E263E26B002A33D0800604D5880602D56A
:1033E000204602F0BBF820684069E16BC0F3801012
:1033F000090700D428B3204602F060F8206841692C
:1034000049061AD5416921F040014161606BA0B1C4
:103410001B490165606BFEF7F1FC002810D0606B62
:10342000016DBDE870400847830610D58B060ED5A8
:103430002046BDE8704002F091B82046FFF78EFFAD
:1034400070BD2046FFF78AFF0020E06370BD0306D1
:1034500006D50B0604D52046BDE8704002F0A8B999
:103460004006F3D54806F1D5D168204621F0400149
:10347000D160202184F8391000F02FFA70BD0000CF
:10348000AD54000870B5040004D094F8390000254C
:1034900010B106E0012070BD84F83850204600F0DD
:1034A00023F8242084F839002068C16821F40051F1
:1034B000C160204602F0D8F82068016921F49041EB
:1034C00001612068416921F02A0141612068C168D9
:1034D00041F40051C160E563202084F8390084F88C
:1034E0003A00002070BD0000F0B587B004461421FA
:1034F0006846FCF722FF274F226800262649022350
:10350000032408252548BA4225D1234A10321668DB
:1035100046F400261660126802F4002205920A683A
:1035200042F004020A60096802AA01F00401059150
:10353000A102CDE90013012182E832006946FEF7BD
:1035400025FE002205213420FEF7FEFF3420FEF781
:10355000EDFF07B0F0BD124FBA42FAD10E4A143255
:10356000176847F020071760126802F020020592E2
:103570000A6842F004020A60096801F0040105913A
:10358000C0218DE84A006946CDE90345FEF7FEFDFE
:10359000DFE70000004C00403038024000080240E5
:1035A0000014014090F83A30202B22D1F9B1F2B149
:1035B00090F83830012B1CD081628285C2850021B1
:1035C000C163222280F83A2080F838100168CA6866
:1035D00042F48072CA6001684A6942F001024A619D
:1035E0000068C16841F02001C160002070470120DF
:1035F00070470220704700002DE9FE4381460068B5
:103600006849884203D1BDE8FE43FFF71BBE664907
:1036100088427DD1654D66480026EE800068C1680D
:1036200021F02001C160624C2846383C0127A27875
:10363000E11C00784FF00208052A51D2DFE802F0C1
:10364000030E193438006078A32804D07E2802D0F5
:10365000A670E67092E05054A7708FE060782B79E6
:10366000984203D1505484F8028087E0A6702671F6
:1036700084E060780323FE2804D194F803C0BCF1F1
:10368000A30F09D0A0F1B0070F2F02D8E7787E2F43
:1036900006D0A670667171E05054A3702F706DE073
:1036A0005054A3702E7069E060785054042015E0E7
:1036B000012802D00A20E8700DE06078E870102838
:1036C00009D3A670667000202118401CC0B2CE70CD
:1036D0001028F9D352E0607850540520A0704DE0D6
:1036E00063785354A178491CCAB2A270E9788A421F
:1036F00044D10128A67004F1030013D0C91E02F0C2
:1037000079FEEA7880B2010AA35CC0B28B4200E085
:103710003EE033D1A118497881422FD160787F28CB
:103720002ED02BE0491E02F057FEE978C0B22144AA
:103730008978814224D0A3208DF8000060798DF82B
:10374000010028798DF80200A0798DF80300072088
:103750008DF804008DF805800621684602F03CFED5
:103760008DF806000721684601F044FF66700020CE
:103770002118401CC0B2CE701028F9D368780EE032
:103780000B4900231A463839A86803F017FC6F70FC
:10379000BDE8FE830122611C4846FFF703FF0028B5
:1037A000F8D0F5E700100140004C00402003002055
:1037B0008411002000B587B014216846FCF7BDFDD8
:1037C00015480021026842F010020260006800F013
:1037D0001000059010481438026842F0010202609F
:1037E000006800F0010005904FF4C06000900220D6
:1037F000CDE90101032003900720049069460748A2
:10380000FEF7C4FC002205212520FEF79DFE2520A1
:10381000FEF78CFE07B000BD4438024000000240B5
:103820002DE9F843044690F839001F4616460D4628
:10383000202850D1B5B1AEB194F8380001284AD053
:10384000012084F838004FF00008C4F83C802120A3
:1038500084F83900FEF788FDA6848146E68484F862
:10386000388026E00120BDE8F883E08C401EE0842B
:10387000A0684B46B0F5805F4FF000024FF080012A
:103880002046009703D001F0C4FFE8B90DE001F035
:10389000C0FFC8B928882168C0F3080048602069C3
:1038A00008B16D1C05E0AD1C03E0216815F8010BA3
:1038B0004860E08C0028D8D14B46002240212046A9
:1038C000009701F0A6FF08B10320CCE7202084F880
:1038D00039000020C7E70220C5E7704770B50546EC
:1038E00000F012F87E2000F05FF8002000F05CF895
:1038F0000024284600F058F8641CE4B2202CF8D3C9
:10390000BDE8704000F026B870B50122104D940358
:1039100021462846FEF722FD01225603314628465D
:10392000FEF71CFD0A2000F014FA0022214628466A
:10393000FEF714FD0A2000F00CFA0022314628465A
:10394000FEF70CFDBDE87040052000F002BA000053
:10395000000C024070B5134D4FF400540022214674
:103960002846FEF7FBFC052000F0F3F96600002274
:1039700031462846FEF7F2FC052000F0EAF9012264
:1039800021462846FEF7EAFC0A2000F0E2F901226F
:1039900031462846FEF7E2FCBDE87040052000F005
:1039A000D8B90000000C02402DE9F0412C4C06462D
:1039B00000254FF480484FF40057300601D501220E
:1039C00000E0002241462046FEF7C8FC052000F03A
:1039D000C0F9012239462046FEF7C0FC0A2000F05B
:1039E000B8F9002239462046FEF7B8FC7006060EEC
:1039F000052000F0AEF96D1CEDB2082DDDD30122DB
:103A000041462046FEF7AAFC206820F04050206086
:103A1000052000F09EF9012239462046FEF79EFC63
:103A2000052000F096F90E212046FEF78BFC0D498B
:103A300008B1002000E001204870002239462046ED
:103A4000FEF78CFC052000F084F9206820F040503F
:103A50002060206840F080502060BDE8F0810000C8
:103A6000000C02406C00002010B541F2883000F0DC
:103A700070F9FFF749FF7E20FFF796FF8C20FFF7D4
:103A800093FFBDE81040FFF765BF70B515460646C9
:103A900001F01F04FFF738FF7E20FFF785FF204667
:103AA000FFF782FF002404E0305DFFF77DFF641C18
:103AB000E4B2AC42F8D3BDE87040FFF74BBF000062
:103AC000F0B5364900200446A1F13005802601F109
:103AD0000B030C542A5CD70700D00E54970703D56C
:103AE0000F5C47F040070F54570703D50F5C47F0B2
:103AF00020070F54170703D50F5C47F010070F542A
:103B0000D70603D50F5C47F008070F54970603D577
:103B10000F5C47F004070F54570603D50F5C47F0BE
:103B200002070F54120603D50A5C42F001020A5440
:103B30002A181C54D27AD70700D01E54970703D5F1
:103B40001F5C47F040071F54570703D51F5C47F021
:103B500020071F54170703D51F5C47F010071F5499
:103B6000D70603D51F5C47F008071F54970603D5F7
:103B70001F5C47F004071F54570603D51F5C47F02E
:103B800002071F54120603D51A5C42F001021A54B0
:103B9000401CC0B20B289CD3F0BD00006C07002075
:103BA000FEE7000070B5134C4FF4807500222946E3
:103BB0002046FEF7D3FB206820F4402020602068D8
:103BC00040F480202060002261152046FEF7C6FBED
:103BD000052000F0AFF8012229462046FEF7BEFB83
:103BE000052000F0A7F829462046BDE870400022D5
:103BF000FEF7B4BB0004024070B5134C4FF480755F
:103C0000002229462046FEF7A9FB206820F4402028
:103C10002060206840F4802020600122510220466C
:103C2000FEF79CFB052000F085F80122294620467E
:103C3000FEF794FB052000F07DF829462046BDE8FC
:103C400070400022FEF78ABB000402402DE9F047D5
:103C5000194D80460024286820F44020286026461C
:103C6000AF154FF40079002239462846FEF776FB5F
:103C7000052000F05FF8012239462846FEF76EFB6A
:103C80006006040E49462846FEF75CFB08B1641C3A
:103C9000E4B2052000F04EF8761CF6B2082EE2D30E
:103CA000B8F1000F04D0FFF77DFF2046BDE8F08794
:103CB000FFF7A2FFF9E70000000402402DE9F04100
:103CC0001B4D07462846296821F4402129602968B0
:103CD00041F480212960AE1500223146FEF73EFBFB
:103CE00000244FF4007800BF07FA04F0000601D565
:103CF000012200E0002241462846FEF72FFB022069
:103D000000F018F8012231462846FEF727FB0A206A
:103D100000F010F8002231462846FEF71FFB022073
:103D200000F008F8641CE4B2082CDDD3BDE8F08193
:103D30000004024009E000BF00BF00BF00BF00BF99
:103D400000BF00BF00BF00BF00BF401E80B2F2D264
:103D5000704707E000BF00BF00BF00BF00BF00BF4B
:103D600000BF00BF401E80B2F4D2704770B5134C44
:103D7000206820F440202060206840F480202060EB
:103D80000122150229462046FEF7E8FA01225602D2
:103D900031462046FEF7E2FA0520FFF7CBFF00226E
:103DA00031462046FEF7DAFA0520FFF7C3FF294621
:103DB0002046BDE870400022FEF7D0BA0004024061
:103DC00070B5134C206820F440202060206840F437
:103DD00080202060A515002229462046FEF7BEFA65
:103DE0006615002231462046FEF7B8FA0520FFF797
:103DF000A1FF012229462046FEF7B0FA01223146F2
:103E00002046FEF7ABFABDE870400520FFF792BFF1
:103E1000000402402DE9F041144D0024286820F4EC
:103E2000402028600220FFF785FF0122160231465C
:103E30002846FEF793FA0220FFF77CFF6F1508E093
:103E4000641CE4B2FA2C04D9FFF7BAFF0120BDE8E4
:103E5000F08139462846FEF775FA0028F0D1002295
:103E600031462846FEF77AFA0020F0E700040240C7
:103E700070B50D46044601F0F1F9204600F006FE4B
:103E8000064C2078002808D0284600F0FFFD207856
:103E9000002802D001F008FA012070BD6C0000205B
:103EA0002DE9F0411F4616460C46054601F0D6F9AD
:103EB000284600F0EBFD0E4D2878002815D020464E
:103EC00000F0E4FD287800280FD0002408E03078C6
:103ED00000F0DCFD2878002807D0641CE4B2761CD2
:103EE000BC42F4D301F0E0F90120BDE8F08100000C
:103EF0006C000020F0B5027864240A23642A19D3E8
:103F0000B2FBF4F230320A700278B2FBF4F504FB33
:103F10001522B2FBF3F230324A700278B2FBF4F5AC
:103F200004FB1522B2FBF3F503FB152230328A7035
:103F300003221DE0B2FBF4F50A2A04FB152210D37C
:103F4000B2FBF3F230320A700278B2FBF4F504FBF4
:103F50001522B2FBF3F503FB152230324A70022220
:103F600006E0B2FBF3F503FB152230320A700122A2
:103F70002E258D544678521C642E0CD3B6FBF4F6D5
:103F800030368E544678521CB6FBF4F704FB1766A5
:103F9000B6FBF3F607E0B6FBF4F70A2E04FB176650
:103FA0000ED3B6FBF3F630368E544678521CB6FB71
:103FB000F4F704FB1766B6FBF3F703FB176603E0A1
:103FC000B6FBF3F703FB176630368E54521C8D5444
:103FD0008678521C642E19D3B6FBF4F630368E5414
:103FE0008678521CB6FBF4F704FB1766B6FBF3F6B3
:103FF00030368E548678521CB6FBF4F704FB1766F5
:10400000B6FBF3F703FB1766D2B213E0B6FBF4F787
:104010000A2E04FB176612D3B6FBF3F630368E5425
:104020008678521CB6FBF4F704FB1766B6FBF3F771
:1040300003FB176630368E54521CD2B206E0B6FB34
:10404000F3F703FB176630368E54521C8D54521C06
:10405000C578D2B2642D07D3B5FBF4F530358D5455
:10406000521CD2B2C57801E00A2D0FD3B5FBF4F68D
:1040700004FB1655B5FBF3F530358D54C078521C52
:10408000B0FBF4F504FB1500D2B203E0B5FBF4F08D
:1040900004FB1050B0FBF3F403FB140030308854E1
:1040A000F0BD0000F0B587B014216846FCF745F973
:1040B00026480025016841F010010160016801F007
:1040C00010010591016841F00401016000680124BC
:1040D00000F0040005900420CDE900041C4F69465F
:1040E00038460394FEF752F808201126CDE9000661
:1040F000694603943846FEF749F820208DE83100E0
:104100000395144D69462846FEF740F80122202108
:104110002846FEF723F9A003CDE900040E4D6946B9
:1041200028460394FEF732F86003CDE9000669469D
:1041300003942846FEF72AF8FFF796FCFFF794FC55
:104140000020FFF7CBFB07B0F0BD00003038024085
:104150000008024000100240000C02407FB5002120
:104160002548009101910291224A039102600124A5
:104170004FF480320461C0E90121047680F82010F8
:104180001E4AC0E90A210425C561C16080F830409B
:104190004161FDF7E5FC08B1FDF712FB0620CDE912
:1041A0000004694614480294FDF75EFB08B1FDF770
:1041B00007FB07200224CDE9000469460E48FDF7FD
:1041C00053FB08B1FDF7FCFA0094032469460A4842
:1041D0000194FDF749FB08B1FDF7F2FA694606487C
:1041E000CDE90045FDF740FB002801D0FDF7E8FAD6
:1041F0007FBD000000200140480400200100000FA6
:104200007FB5002524480095019502952149039525
:10421000016001244FF480310461C0E90115047686
:1042200080F820501D49C0E90A150426C661C56002
:1042300080F830404561FDF793FC08B1FDF7C0FA06
:10424000CDE90064694614480294FDF70DFB08B1FE
:10425000FDF7B6FA052000900220019069460E484D
:10426000FDF702FB08B1FDF7ABFA0320CDE90050E2
:1042700069460948FDF7F8FA08B1FDF7A1FACDE95A
:10428000004669460448FDF7EFFA002801D0FDF723
:1042900097FA7FBD00210140900400200100000F2B
:1042A0000D4808B5016841F48001016000680022F2
:1042B00000F48000009005213820FEF745F93820F1
:1042C000FEF734F9002205213A20FEF73DF9BDE85A
:1042D00008403A20FEF72AB93038024030B585B0A0
:1042E00014216846FCF729F84FF480640120CDE9D9
:1042F00000400020064D0290039069462846FDF7D5
:1043000045FF002221462846FEF728F805B030BDBB
:10431000000C024010B50020FCF7F8FE1C495A289A
:1043200081F8230001D002F0CDF8194800F0EAFA34
:10433000FCF774FFFDF7ACF9164A0021164802F0AD
:104340007FFE164C134A1249A0602432144802F032
:1043500077FE104AE0606C320D49124802F070FEA0
:104360000C4A60616C3200210F4802F069FE094A74
:10437000A061903200210D4802F062FE054AE06122
:10438000483203490A4802F05BFE206110BD00007C
:1043900098050020FCBB0008494B000804000020E1
:1043A00069800008D17A0008717A00082DA80008F9
:1043B0005992000870B586B014216846FBF7BDFF1E
:1043C0002A480024016841F080010160016801F081
:1043D00080010591016841F004010160016801F06C
:1043E00004010591016841F001010160016801F0DB
:1043F00001010591016841F002010160016801F0CD
:1044000002010591016841F010010160016801F0AD
:1044100010010591016841F0080101600068144E27
:1044200000F008004FF4F055059000222946304670
:10443000FDF794FF1320CDE9000469460D4802946E
:10444000FDF7A4FE01200095CDE901046946304640
:104450000394FDF79BFEFF20CDE900046946064862
:104460000294FDF793FE06B070BD000030380240A4
:104470000010024000080240000C024010B5FEF798
:10448000A7F8044A0021044802F0DAFD0349086154
:1044900010BD0000B0BC00089DAF00084000002027
:1044A00010B586B014216846FBF747FF1B4800246F
:1044B00019490594C0E900147F218160FF21C0E9FA
:1044C000031444618461FEF745FC08B1FDF778F9F7
:1044D0008DF800408DF801408DF8024003940122D0
:1044E00069460E480494FEF7FBFC08B1FDF768F935
:1044F00001208DF814008DF815008DF81600024685
:104500008DF8174005A90548FEF786FC002801D064
:10451000FDF756F906B010BD002800400412002037
:104520000C4910B50A4AC1E90020002088600C221D
:10453000C860C1E904028861C8610846FEF7A2FFAD
:10454000002803D0BDE81040FDF73AB910BD0000C7
:10455000004C0040841100200C4810B50A4901604D
:104560004FF4E1314160002181600C22C160C0E95B
:1045700004128161C161FEF785FF002803D0BDE808
:104580001040FDF71DB910BD00140140C4110020FA
:104590000C4810B50A4901604FF4E1314160002137
:1045A00081600C22C160C0E904128161C161FEF723
:1045B00069FF002803D0BDE81040FDF701B910BD28
:1045C00000100140F80D0020092801D8303000E02B
:1045D0003730C0B27047FEE770472DE9F04106461C
:1045E00001F0070040F060011F4614463046069D6A
:1045F000FFF73EFC04F01F012B463A463046BDE86B
:10460000F041FFF74DBC10B5044601F01F0040F02B
:1046100040012046FFF72CFC002804D0072120464B
:10462000FFF726FC012010BD1FB5044600200090B6
:104630000190029003902046FBF79CFE00F00F00D3
:10464000C0F110020021684602E04254491CC9B280
:104650009142FAD301462046FBF793FE1FBD0000AE
:104660002DE9FE4F0446807B78277E4E00254FF0D3
:104670000309A12802D0B12818D00EE0A573E07B71
:10468000401CC0B2E073022801D184F80F90277754
:10469000012220213046FDF761FEE17B0120DFF899
:1046A000C8A1012904D003297ED087E0A573EEE7D5
:1046B0008346E076A07B4FF00908A32808D0A22803
:1046C00017D0C22815D0C32802D0B42821D075E055
:1046D000A5732777012220213046FDF73FFEA07801
:1046E000401CC0B2A07041280FD9404684F8028017
:1046F0000BE0A5732777012220213046FDF72EFE1F
:10470000A078092803D9401EA070E07056E041202F
:10471000FAE7A57304208DF800008DF801508DF89C
:1047200002508DF804508DF803508DF80550002389
:104730001A466946DAF8000002F040FC84F822507C
:104740002584E577A577012280213046FDF706FE16
:10475000642002F067FB002280213046FDF7FEFD59
:10476000DFF808812D27394688F802701120FCF700
:104770001BFD142002F056FB88F803703946122006
:10478000FCF712FD142002F04DFB552188F80C10A7
:104790001320FCF7DFFC142002F044FBE57384F8DF
:1047A00009B0E576324900E005E081F800B031A0BB
:1047B00001F06AF802E0E5736072E576A07BB2284A
:1047C0002BD0B32827D1012280213046FDF7C6FD2A
:1047D000032002F027FBA5738DF8009096208DF83A
:1047E00001008DF8025000234FF416441A46694622
:1047F000DAF8000002F0E2FB322002F013FB0022A4
:1048000080213046FDF7AAFD21461FA001F03CF8AB
:10481000204600F061FEBDE8FE8F01228021304677
:10482000FDF79CFD032002F0FDFAA5738DF80090C2
:104830004B208DF801008DF8025000234FF4964470
:104840001A466946DAF8000002F0B8FB322002F09E
:10485000E9FA002280213046FDF780FD21460DA0B7
:10486000D4E70000001002403C0000209805002022
:104870006E0000200D4B65795365744970466C617C
:1048800067203D31000000004233626175643D25C0
:10489000640000004232626175643D2564000000DE
:1048A000010901EB810100F00F0000EB4100C0B2F3
:1048B0007047002102E00A38C0B2491C0A28FAD227
:1048C000090740EA1160704770B504460068C16886
:1048D000490614D44FF0FF31C160FDF745FD054690
:1048E0004FF47A7607E000BFFDF73EFD401BB04273
:1048F00001D9032070BD2068C0684006F4D50020AF
:1049000070BD000070B504461320FCF7FFFB207358
:104910001820FCF7FBFB84F827001120FCF7F6FBBE
:10492000A0701220FCF7F2FBE0701020FCF7EEFB09
:1049300020721620FCF7EAFBA0761720FCF7E6FBB6
:10494000A0723020FCF7E2FBA0773120FCF7DEFB01
:10495000E0773220FCF7DAFB05463320FCF7D6FB84
:1049600000EB052020843420FCF7D0FB84F82200E3
:104970002020FCF7CBFB05462120FCF7C7FB00EB12
:104980000520A0841420FCF7C1FB1E4D4FF6FF76D6
:10499000297811B1012907D00DE000EB4001C1EBEE
:1049A000C01006EAC00005E0C0EB4011C1EB0020DA
:1049B00006EA8000E0821520FCF7A8FB297811B1F7
:1049C000012907D00DE000EB4001C1EBC01006EA61
:1049D000C00005E0C0EB4011C1EB002006EA8000FA
:1049E00020832520FCF792FB074C20702620FCF743
:1049F0008DFB0120207000202870BDE8704000F081
:104A00001BB800004200002043000020094B50B1B9
:104A1000012808D0022809D003280AD10A464021DB
:104A20001846FDF79BBC0A460821F9E70A462021F3
:104A3000F6E770470004024010B523210F48FBF74A
:104A40007CFC0F4801780F480129007809D0012823
:104A50004FF023020FD00C49BDE810400748FBF788
:104A600053BC01284FF0230202D007494639F3E72F
:104A700005496939F0E704492339EDE75F11002062
:104A800043000020420000209503002070B52B4E0B
:104A90000546002405FA04F0000601D5012200E0D5
:104AA000002208213046FDF759FC0520FFF751F997
:104AB000012204213046FDF751FC0A20FFF749F995
:104AC000002204213046FDF749FC641CE4B2082CA6
:104AD000E0D30520FFF73DF9012208213546304695
:104AE000FDF73CFC164C206820F0C000206005203B
:104AF000FFF72FF9012204212846FDF72FFC0A2099
:104B0000FFF727F908212846FDF71CFC01000D4896
:104B100001D0002100E0012101700022042128467B
:104B2000FDF71CFC0520FFF714F9206820F0C000F9
:104B30002060206840F04000206070BD0008024006
:104B4000000402406C00002094B04FF0000A1421D1
:104B500007A8FBF7F2FBD046FB4CCDF83880C346E4
:104B600084F81080F9A000F08FFEFFF7B7FB4FF03C
:104B70000109FC4EFCF71CFE01F05EFCF24D002327
:104B80001A4685F82600F84805A9006802F09CF945
:104B9000002861D19DF81400687328789DF81510DD
:104BA00000F03C00084328709DF81610A973297B7B
:104BB000AA2902D000F0FD002870C0B2C10707D0BA
:104BC000317841F001013170717841F0010171706B
:104BD00080073DD5307840F002003070707840F0AA
:104BE00002007070B07810F0FD0F35D140F0020077
:104BF000B07001220EA9DD48FEF75EF8012207A978
:104C0000DA48FEF77BF89DF83B008DF804009DF82C
:104C100039008DF805009DF83A008DF806009DF8E2
:104C20001C008DF807008DF800909DF81D008DF890
:104C3000018003218DF808008DF80210CC488DF812
:104C4000038000231A466946006802F0B7F903E0C2
:104C5000B07800F0FD00B070C64800231A4603A9E2
:104C6000006802F031F900287DD19DF80D102878F8
:104C700001F00F0200F0030040EA820028709DF866
:104C80000E0068709DF80C20EA729DF80F202A71C2
:104C90009DF810206A719DF81120AA719DF81220CC
:104CA000EA71C90734D0317841F00401317071786C
:104CB00041F004017170B17811F0FB0F2CD141F07B
:104CC0000401B1708DF800908DF8019000F00F0094
:104CD0008DF802009DF83B008DF804009DF8390026
:104CE0008DF805009DF83A008DF806009DF81C002F
:104CF0008DF807009DF81D008DF808009C488DF880
:104D0000038000231A466946006802F057F903E061
:104D1000B07800F0FB00B0709DF80D00800737D52B
:104D2000307840F008003070707840F00800707003
:104D3000B07810F0F70F2FD140F00800B0708DF868
:104D4000009002208DF80100687800098DF80200BB
:104D50009DF83B008DF804009DF839008DF8038024
:104D60008DF8050000E017E09DF83A008DF8060088
:104D70009DF81C008DF807009DF81D008DF80800B7
:104D80007B4800231A466946006802F017F903E0E1
:104D9000B07800F0F700B070687B30B101282BD0FC
:104DA00002282CD003286ED136E085F81180297CAA
:104DB0004046552905D12874002280216E48FDF710
:104DC000CDFAE87A10B9BAF1010F02D0C10702D0CA
:104DD00004E003200CE0BAF1020F05D0800708D4EC
:104DE000BAF1030F03D004E085F8089001E0022037
:104DF00028724FF0000A46E085F8119043E0022047
:104E00006874287C55283ED185F8108000228021C6
:104E10005948FDF7A3FA36E0BBF1000F33D0032069
:104E20006874E87A032801D1297C41B1C10701D017
:104E3000297C41B1800712D5287C50B10FE085F85C
:104E4000088001200AE0287A00F001002872022080
:104E500004E0287A00F0FD002872032082465520E5
:104E6000454C2874012280212046FDF777FA642002
:104E700001F0D8FF002280212046FDF76FFA4FF4A1
:104E8000617001F0CFFF287A800717D0354940F2D2
:104E9000DC5220310888401C80B20880904202D940
:104EA000A1F800800DE0B0F5FA7F01D2002200E009
:104EB000012208213048FDF751FA02E02248FFF7AD
:104EC000CFFBA87BA42809D1E87B38B9E87A48B1A0
:104ED00003280AD0012808D0022806D0A87CAA28D6
:104EE00007D012E085F80E8017E0444685F80E8062
:104EF0006CE0E97CAA29E97B01D019B105E011BB7E
:104F0000E97A31B1E97AC90710D0E97CAA2935D00C
:104F100046E085F8128085F81380782028770122F2
:104F200020211548FDF71AFA032076E085F8128053
:104F300078202877012220210F48FDF70FFA287AE0
:104F400040F0010069E069E0980500206C6F676936
:104F500063207461736B20696E6974207375636379
:104F60006573730004000020780000200412002004
:104F70003C0000205800002000100240EA7B7AB973
:104F8000EA7A92070CD485F81380782028770122DA
:104F90002021AC48FDF7E2F9287A40F002003CE01D
:104FA00055280BD1552904D1E87B10B9E87A03289C
:104FB00007D0E87AC00701D0E87B80B155291BD023
:104FC0002CE085F81280444685F8138078202877F5
:104FD000012220219B48FDF7C1F92C721EE085F8C3
:104FE000128078202877012220219648FDF7B6F913
:104FF000287A00F0FE0010E0E87A80070ED5E87B02
:1050000060B985F8138078202877012220218D4807
:10501000FDF7A4F9287A00F0FD0028720024287812
:1050200009FA04F738420FD078202877012220218E
:105030008448FDF793F9012280218248FDF78EF91B
:10504000814820F8148016E0307807421FD07E494E
:1050500031F81420521C93B221F81430EA8A93429A
:1050600015D3B843307021F8142010D100228021CC
:105070007448FDF773F92878384208D0012120469A
:10508000FFF7C4FC7048083020F8148019E07078ED
:10509000074216D06C49083131F81420521C92B2E4
:1050A00021F814202B8B9A420BD3B84321F81430EB
:1050B0007070022C01D2800703D100212046FFF737
:1050C000A5FC641CE4B2042CA9D360480078012834
:1050D00003D0287A00F001002872287AE97A884201
:1050E00001D1697AF1B38DF83000A87E8DF83100D6
:1050F000A87A8DF83200A9780A2902D20921284617
:1051000003E02846412901D94121A9700446C0780D
:105110000A2801D2092002E0412801D94120E0708B
:10512000A0788DF83300E0788DF8340048480023EB
:105130001A460CA9006801F041FF217AF0788142FB
:1051400001D1607A70B102208DF800008DF8011055
:10515000A0788DF80200E07800238DF803001A464D
:10516000694600E008E03B48006801F027FF84F84A
:1051700009809DF83000F070B088401C80B2B0808B
:10518000B0F57A7F0CD041F28831884203D3A6F87B
:1051900004804FF0010B30480178012915D04DE013
:1051A000BBF1000FF7D10120FBF7B0FF401C2875C1
:1051B00005218DF800108DF80100264800231A46BD
:1051C0006946006801F0FAFEE5E780F80080A87FF4
:1051D0004146401CC0B2A8773C2815D3A977E87F88
:1051E000401CC0B2E87718280ED3E977288C2A46ED
:1051F000401C80B22884B0F5B67F05D9118492F89E
:105200002200401C85F8220004208DF80000A87FB1
:105210008DF80100E87F8DF80200288C8DF80400DD
:10522000010A8DF8031095F822008DF80500094851
:1052300000231A466946006801F0C0FE012001F013
:10524000F1FD97E4001002402A00002042000020F7
:10525000540000203C0000200000002010B5114C3C
:10526000012208212046FDF779F80520FEF771FD9F
:10527000012204212046FDF771F80A20FEF769FD9E
:10528000002208212046FDF769F80A20FEF761FD9B
:10529000002204212046FDF761F8BDE810400520FA
:1052A000FEF757BD0008024010B50D4C0022082142
:1052B0002046FDF753F80520FEF74BFD012204219F
:1052C0002046FDF74BF80A20FEF743FD0122082196
:1052D0002046FDF743F8BDE810400A20FEF739BD2F
:1052E0000008024010B5502080F31188BFF34F8FA3
:1052F000BFF36F8F06F0E0FA18B104494FF0805009
:105300000860002080F3118810BD000004ED00E06B
:1053100030B597B030216846FBF70FF814210CA880
:10532000FBF70BF80025204811951295139514955D
:10533000016841F080510160006800F080501590D4
:105340001A48016841F4804101600068022400F4B9
:1053500080401590092000904FF48030019001208A
:10536000CDE905048005079006200890A820CDE926
:10537000090404200B906846FDF7F0FA0CA90F20F1
:1053800081E831004FF4A0500F90E0021090052109
:105390000CA8FDF7D7F920021490119411A8FDF77D
:1053A00033F917B030BD00004038024000700040B3
:1053B0000548016841F47001016003494FF0006045
:1053C000803908607047000088ED00E00148FDF773
:1053D00067BE0000C0050020F0B50268254C264DD0
:1053E000264E274F274B4FF0804CA04209D06045F6
:1053F00007D0A84205D0B04203D0B84201D09842AD
:1054000004D122F0700E4A6842EA0E02A0421BD07C
:10541000604519D0A84217D0B04215D0B84213D079
:10542000984211D0184DA8420ED0184DA8420BD06A
:10543000174DA84208D0174DA84205D0164DA842D6
:1054400002D0164DA84203D122F44075CA682A43FF
:105450004D6922F080022A4302608A68C2620A68AB
:105460008262A04201D0984201D109690163012101
:105470004161F0BD00000140000400400008004010
:10548000000C004000040140004001400044014085
:105490000048014000180040001C0040002000406F
:1054A0000148FDF765BF00008411002010B5806B36
:1054B0000021C185C184FDF751FF10BD0168CA6894
:1054C00022F49072CA6001684A6922F001024A61BE
:1054D000202180F83A10704730B587B00446142177
:1054E0006846FAF72AFF15490025086840F00100D0
:1054F0000860086800F0010005902046FFF710F8EA
:10550000FFF72AF84FF4004401200395CDE900404D
:105510000B4D69462846FCF739FE002221462846F5
:10552000FCF71CFF0749012201F13700FEF73AF8AA
:1055300005A000F0A9F907B030BD000030380240E6
:10554000000002404D1100207561727420696E697F
:1055500074207375636365737300000010B590F871
:105560003A10222901D0022010BD8168B1F5805F78
:1055700011D00169002901681FD0496801F07F033B
:10558000816A4A1C82620B70C18D491E0904090C94
:10559000C18518D02BE00269816A002A026852682E
:1055A00005D0D2B20A80816A491C8162ECE7C2F35D
:1055B00008020A80816A891CF7E74A68816A4B1CE5
:1055C00083620A70E0E70168CA6822F02002CA60BC
:1055D0000168CA6822F48072CA6001684A6922F0D0
:1055E00001024A61202180F83A10FEF705F80020F8
:1055F00010BD00002DE9F041184C0F4680460022F6
:1056000010212046FCF7AAFE0122154ED50329469B
:105610003046FCF7A3FE002041F2707100BF00BFCE
:1056200000BF00BF00BF00BF00BF00BF401C8842DA
:10563000F4D3FF233A4641460A48FEF7F1F8022028
:1056400001F0F0FB002229463046FCF787FE204699
:10565000BDE8F04101221021FCF780BE001002409D
:1056600000000240841100202DE9F041044600684A
:105670000169E26821F44051114301612169A06888
:10568000E26908436169114308432168CA6849F225
:105690000C639A430243CA6020684169A26921F4FD
:1056A000407111434161E069192764253226B0F544
:1056B000004F354A354920684FF0000806D088422F
:1056C00001D0904236D1FDF707F935E0884201D08C
:1056D000904202D1FDF700F901E0FDF7EDF86168B5
:1056E0004A18A0FB070148EB0803FAF7C9FD014679
:1056F000B0FBF5F00201B1FBF5F06FF01803584371
:1057000001EB800006EBC000B0FBF5F000F0F80004
:1057100002EB4002B1FBF5F0584301EB800006EBD1
:10572000C000B0FBF5F000F007002168104488606D
:10573000BDE8F081FDF7C0F861688B0F8A00A0FB1F
:105740000701FAF79DFD0146B0FBF5F06FF0180276
:10575000504301EB800006EB0010B0FBF5F000F0C9
:10576000F002B1FBF5F002EB0012B1FBF5F06FF0C7
:105770001803584301EB800006EB0010B0FBF5F076
:1057800000F00F00D1E700000014014000100140BC
:1057900010B5FEF70FF8FEF7FBFE0449BDE8104018
:1057A0000122A1F14000FDF7FDBE0000380E0020EF
:1057B00090F83910212901D0022070478168B1F595
:1057C000805F016A0BD04A1C02620268097851604E
:1057D000C18C491E0904090CC1840ED017E0098848
:1057E0000268C1F30801516001690029016A02D011
:1057F000491C0162ECE7891CFBE70168CA6822F0DA
:105800008002CA600068C16841F04001C1600020A8
:1058100070472DE9F041984617460E460446069D0E
:105820001DE0681C1BD02DB1FCF79EFDA0EB08000D
:10583000A84214D92068C16821F4D071C1602068E1
:10584000416921F001014161202084F8390084F888
:105850003A00002084F838000320BDE8F081206879
:10586000006836EA000004D00020B842D9D00020F9
:10587000F3E70120F9E700000148FDF779BD0000DA
:10588000F80D0020FEE700000FB4054B10B503A98A
:10589000044A029800F0EAF810BC5DF814FB00001E
:1058A00021640008440400200907090E002804DBD5
:1058B00000F1E02080F80014704700F00F0000F1C4
:1058C000E02080F8141D704702E008C8121F08C1CC
:1058D000002AFAD170477047002001E001C1121F71
:1058E000002AFBD1704700002DE9FF5F82B0002144
:1058F000DDE90430020DDDF840B0034318D044F672
:105900001050A2F2FF3242431514119801281FD003
:10591000A5EB0B00401C5FEA000A4FF000064E4F5B
:10592000DFF83891B046504615D5CAF1000413E0AF
:10593000119801244AA3012801D16FEA0B010298B2
:10594000119AC0E90031C0E9024206B0BDE8F09FFB
:10595000CBF10000DFE704460021404A491842EB42
:105960000450CDE9001012E0E00707D032463B4674
:1059700040464946FAF773FF8046894632463B4621
:1059800010461946FAF76BFF06460F466410002CC6
:10599000EAD1DDE90401DDE90023BAF1000F06DAFE
:1059A000FAF75DFF42464B46FAF759FF05E0FAF772
:1059B000C8FF42464B46FAF7C4FF04460E46002293
:1059C000284BFBF745F803D84FF0FF30014607E0BE
:1059D0000022254B20463146FAF79AFEFBF720F8C5
:1059E000102409E0002C0ADB0A220023FAF748FC05
:1059F000039B30321A55641E50EA0102F2D1641C36
:105A0000039AC4F111031444119A012A03D001220C
:105A100008430DD10AE0084304D000204FF0110BD9
:105A2000119072E7A3EB0B056D1E0DE05B4504DDE5
:105A30004FF0000205F1010504E003DA4FF0000227
:105A4000A5F10105002AECD002981199C0E90231B4
:105A5000C0E9004579E70000000014400000F03F75
:105A6000300000000000F0430000E03F2DE9FF4F50
:105A700095B09B468946064600250FE2252877D13A
:105A800000242746F84A0121059400E0044316F853
:105A9000013F203B01FA03F01042F7D130782A2869
:105AA00011D06FF02F033078A0F13002092A16D8F8
:105AB000059A44F0020402EB820203EB4202104416
:105AC000761C0590EFE759F8042B0592002A03DABB
:105AD000504244F40054059044F00204761C30789F
